S01100002E2E2F50726F746575732E73313966
S32D0000C000000000205DC2000011C3000017C300001DC3000023C3000029C3000000000000000000000000000073
S32D0000C028000000002FC3000035C30000000000003BC3000041C30000C5D50000D1D50000DDD50000E9D500004E
S32D0000C050F5D5000001D600000DD6000019D6000025D6000031D600003DD6000049D6000055D6000061D60000B9
S32D0000C0786DD6000079D6000085D6000091D600009DD60000A9D60000B5D60000C1D60000CDD60000D9D60000E0
S32D0000C0A0E5D60000F1D60000FDD6000009D7000015D7000021D700002DD7000039D7000045D7000051D7000001
S32D0000C0C85DD7000069D7000075D7000081D700008DD7000099D70000A5D70000B1D70000BDD70000C9D7000026
S32D0000C0F0D5D70000151F0100E1D70000EDD70000F9D7000005D8000011D800001DD8000029D8000035D800002C
S32D0000C11841D800004DD8000059D8000065D8000071D800007DD8000089D8000095D80000A1D80000ADD80000E3
S32D0000C140B9D80000C5D80000D1D80000DDD8000041010100E9D80000F5D8000001D900000DD9000019D90000C2
S32D0000C16825D9000031D900003DD9000049D9000055D9000061D900006DD9000079D9000085D9000091D90000A1
S32D0000C1909DD90000A9D90000B5D9000039FD000001FC00009DFC000049D30000D9FD0000C1D90000CDD90000FD
S32D0000C1B8D9D90000CC48020000000020D0160000CC4802000000FF1F00000000D0160020940400000000FF1F9B
S32D0000C1E00000000080B489B000AFF860B9607A60BB68FB61FB68BB6100237B617A697B689A420BD2BA69131DFB
S32D0000C208BB61FB69191DF96112681A607B6904337B61EFE700BF2437BD4680BC704780B485B000AF786039609E
S32D0000C2307B68FB600023BB60BA683B689A4208D2FB681A1DFA6000221A60BB680433BB60F2E700BF1437BD46FE
S32D0000C25880BC704780B586B000AF72B6234B4CF220521A80214B4DF628121A80204B4FF4E9721A801F4B7B615F
S32D0000C2807B691F4A934214D27B691A1D7A611B683B617B691A1D7A611B68FB607B691A1D7A611B68BB60BA68E9
S32D0000C2A8F9683869FFF79AFFE6E77B69134A93420ED27B691A1D7A611B68FB607B691A1D7A611B68BB60B9688B
S32D0000C2D0F868FFF7A8FFECE70B4B7B600B4A7B681A600FF0E3FE62B601F0F6F800F03CFDFEE700BF0E20054076
S32D0000C2F800200540BCC10000D4C10000E4C1000008ED00E000C0000080B400AFFEE780B400AFFEE780B400AFF4
S32D0000C320FEE780B400AFFEE780B400AFFEE780B400AFFEE780B400AFFEE780B400AFFEE780B400AFFEE780B426
S32D0000C34800AFFEE7FFFFFFFFFFFFFFFFFFFFFFFFFFFFFFFFFFFFFFFFFFFFFFFFFFFFFFFFFFFFFFFFFFFFFFFF57
S32D0000C370FFFFFFFFFFFFFFFFFFFFFFFFFFFFFFFFFFFFFFFFFFFFFFFFFFFFFFFFFFFFFFFFFFFFFFFFFFFFFFFFC7
S32D0000C398FFFFFFFFFFFFFFFFFFFFFFFFFFFFFFFFFFFFFFFFFFFFFFFFFFFFFFFFFFFFFFFFFFFFFFFFFFFFFFFF9F
S32D0000C3C0FFFFFFFFFFFFFFFFFFFFFFFFFFFFFFFFFFFFFFFFFFFFFFFFFFFFFFFFFFFFFFFFFFFFFFFFFFFFFFFF77
S32D0000C3E8FFFFFFFFFFFFFFFFFFFFFFFFFFFFFFFFFFFFFFFFFFFFFFFFFFFFFFFFFFFFFFFFFFFFFFFFFEFFFFFF50
S32D0000C44010B5054C237833B9044B13B10448AFF300800123237010BDD0160020000000008446020008B5034B4F
S32D0000C4681BB103490348AFF3008008BD00000000D41600208446020090B587B000AF786039603B68DB0FFB75ED
S32D0000C490FB7D002B02D03B685B4200E03B683B610A21386900F050FDF860FA7DFB68D41807F10803184605F02D
S32D0000C4B843FF07F108032D222146786806F016F907F10803184605F039FFFB7D1946786806F042F903463A6914
S32D0000C4E0F968184600F06EFD00BF78681C37BD4690BD000080B588B002AFF860C7E900234FF4A4737B61F868F3
S32D0000C508D7E90023CDE90023044B4FF4A472044900F0AAFDF8681837BD4680BDF827020059EE01000000000065
S32D0000C53090B599B000AFF860C7E900234FF00002514BD7E900010DF0B9FD02460B46104619464FF000024D4BFD
S32D0000C5580DF0DAFE02460B461046194644A3D3E900230DF0A7FD02460B46C7E91623464803F08CFC454803F020
S32D0000C58089FCF8680DF030FD3DA3D3E900230DF095FD02460B46104619460EF071F8034619463D4801F0A0FAC3
S32D0000C5A8F8680EF073F9034619463A4801F098FA364803F059FC0446334803F055FC0346234418460DF00CFD0B
S32D0000C5D04FF000024FF080430DF09AFE02460B4601210C46D7E916010DF0F8FF0346002B01D100231C46E3B22D
S32D0000C5F8002B00D0DCE7264801F030FA254801F02DFA07F14001D7E900230846FFF76EFF07F1280307F140021F
S32D0000C6201F49184600F05BFD07F1100307F128011C4A184600F06BFD07F12803184606F083F807F1400318460B
S32D0000C64806F07EF807F11003184606F0AFF903461946134804F006FD07F11003184606F06FF800BF6437BD4634
S32D0000C67090BD00BFAFF300807B14AE47E17AF03F52B81E85EB51F03F00406E4000001840EC160020F0160020BA
S32D0000C698F816002000170020FC27020004280200E81900200000000090B599B000AFF860C7E900234FF00002F2
S32D0000C6C0494BD7E900010DF0F9FC02460B46104619464FF00002454B0DF01AFE02460B46104619463EA3D3E9E6
S32D0000C6E800230DF0E7FC02460B46C7E916233E4803F0CCFB3D4803F0C9FBF8680EF0C6F8034619463A4801F0EC
S32D0000C710EBF9F8680EF0BEF803461946374801F0E3F9344803F0A4FB0446314803F0A0FB0346234418460DF0A5
S32D0000C73857FC4FF000024FF080430DF0E5FD02460B4601210C46D7E916010DF043FF0346002B01D100231C4670
S32D0000C760E3B2002B00D0DCE7234801F07BF9234801F078F907F14001D7E900230846FFF7B9FE07F1280307F189
S32D0000C78840021D49184600F0A6FC07F1100307F128011A4A184600F0B6FC07F12803184605F0CEFF07F14003DD
S32D0000C7B0184605F0C9FF07F11003184606F0FAF803461946104804F051FC07F11003184605F0BAFF00BF64373D
S32D0000C7D8BD4690BDAFF300807B14AE47E17AF03F00406E4000001840EC160020F0160020F816002000170020C0
S32D0000C800FC27020004280200E819002000000000F0B59BB000AFF860C7E900234FF00002714BD7E900010DF011
S32D0000C82849FC02460B46104619464FF000026D4B0DF06AFD02460B461046194664A3D3E900230DF037FC024646
S32D0000C8500B46C7E91623664803F01CFB654803F019FBF8680DF0C0FB5DA3D3E900230DF025FC02460B46104610
S32D0000C87819460DF001FF034619465D4801F030F9F8680EF003F8034619465A4801F028F903F00EF802460B4688
S32D0000C8A0104619460DF0ECFE03467B66514803F0DFFA04464E4803F0DBFA0346234418460DF092FB4FF00002BE
S32D0000C8C84FF080430DF020FD02460B4601210C46D7E916010DF07EFE0346002B01D100231C46E3B2002B38D036
S32D0000C8F002F0E2FF04460D46786E0DF087FB4FF000023F4B0DF024FA02460B4601210E46204629460DF062FE1E
S32D0000C9180346002B01D100231E46F3B2002BC1D002F0C6FF02460B46104619460DF0A4FE03467B662D4803F08D
S32D0000C94097FA02463B6ED31A092BD4BF01230023DBB2002B04D1274803F08AFA3866A5E700BF254801F07EF81C
S32D0000C968244801F07BF807F14001D7E900230846FFF7BCFD07F1280307F140021F49184600F0A9FB07F11003F6
S32D0000C99007F128011C4A184600F0B9FB07F12803184605F0D1FE07F14003184605F0CCFE07F11003184605F0F5
S32D0000C9B8FDFF03461946134804F054FB07F11003184605F0BDFE00BF6C37BD46F0BD00BF7B14AE47E17AF03F17
S32D0000C9E052B81E85EB51F03F00406E4000001840EC160020F0160020F8160020001700200000E03FFC270200DA
S32D0000CA0804280200E8190020B0B598B000AFF860C7E900234FF00002534BD7E900010DF049FB02460B4610465A
S32D0000CA3019464FF000024F4B0DF06AFC02460B461046194646A3D3E900230DF037FB02460B46C7E916234848E4
S32D0000CA5803F01CFA474803F019FAF8680DF0C0FA3FA3D3E900230DF025FB02460B46144683F00045204629469D
S32D0000CA800DF0FEFD034619463D4801F02DF8FB685B4218460DF0FEFE03461946394801F023F8364803F0E4F973
S32D0000CAA80446334803F0E0F90346234418460DF097FA4FF000024FF080430DF025FC02460B4601210C46D7E905
S32D0000CAD016010DF083FD0346002B01D100231C46E3B2002B00D0DCE7254800F0BBFF254800F0B8FF07F1400122
S32D0000CAF8D7E900230846FFF7F9FC07F1280307F140021F49184600F0E6FA07F1100307F128011C4A184600F021
S32D0000CB20F6FA07F12803184605F00EFE07F14003184605F009FE07F11003184605F03AFF03461946124804F053
S32D0000CB4891FA07F11003184605F0FAFD00BF6037BD46B0BDAFF300807B14AE47E17AF03F52B81E85EB51F03FD1
S32D0000CB7000406E4000001840EC160020F0160020F8160020001700200828020004280200E81900200000000023
S32D0000CB9890B59BB000AF786039603B68002BB8BF5B4218460DF01CFA4FF00002624B0DF0ABFB02460B461046EC
S32D0000CBC0194659A3D3E900230DF078FA02460B46C7E918234FF000025A4BD7E918010DF06DFA02460B46104608
S32D0000CBE819464FF00002564B0DF08EFB02460B46104619464CA3D3E900230DF05BFA02460B46C7E916233B68C5
S32D0000CC10002B02DA4FF0FF3300E001237A6802FB03F37B65494803F035F9494803F032F97B6D5B4218460DF084
S32D0000CC38D7F93FA3D3E900230DF03CFA02460B46104619460DF018FD034619463F4800F047FF786D0DF01AFE4B
S32D0000CC60034619463C4800F03FFF394803F000F90446364803F0FCF80346234418460DF0B3F94FF000024FF0F9
S32D0000CC8880430DF041FB02460B4601210C46D7E916010DF09FFC0346002B01D100231C46E3B2002B00D0DCE7E8
S32D0000CCB0284800F0D7FE284800F0D4FE07F13C0339681846FFF7DCFB07F1240307F13C022249184600F003FAE1
S32D0000CCD807F10C0307F124011F4A184600F013FA07F12403184605F02BFD07F13C03184605F026FD07F10C03F8
S32D0000CD00184605F057FE03461946164804F0AEF907F10C03184605F017FD00BF6C37BD4690BD00BFAFF30080BB
S32D0000CD28D4F19881CAC636407B14AE47E17AF03F5C8FC2F5285CEF3F0080764000406E4000001840EC160020F9
S32D0000CD50F0160020F816002000170020142802001C280200E819002090B587B000AF19237B6128233B614FF01C
S32D0000CD780002674BC7E902230021664803F017FF6FF07F41634803F063FF6349614804F069F93A463B1D19462B
S32D0000CDA05E4803F0CDFF034683F00103DBB2002B00D0F2E73A463B1D1946584803F0C0FF0346002B00D0F5E736
S32D0000CDC8564803F085F80346012214464FF0804118460DF06BFF0346002B01D100231C46E3B2002B08D04D48AC
S32D0000CDF003F072F803461946484804F04AF9E3E704211920FFF7C8FE4FF00000424902F02DFD4FF00002444BAF
S32D0000CE181920FFF789FB4FF000003D4902F022FD4FF000023F4B1920FFF73EFC4FF00000374902F017FD4FF02B
S32D0000CE4000023B4B1920FFF773FB4FF00000324902F00CFD6FF05D011920FFF79DFE4FF000002D4902F002FDBD
S32D0000CE684FF00002314B1920FFF75EFB4FF00000274902F0F7FC5A211920FFF789FE4FF00000234902F0EEFC0B
S32D0000CE904FF00002284B1920FFF7BAFC4FF000001D4902F0E3FC4FF00002244B1920FFF7AFFD4FF0000018493A
S32D0000CEB802F0D8FC6FF059011920FFF769FE4FF00000134902F0CEFC4FF000021A4B1920FFF79AFD4FF0000035
S32D0000CEE00D4902F0C3FC5E211920FFF755FE4FF00000094902F0BAFC4FF00002114B1920FFF786FD4FF0000055
S32D0000CF08034902F0AFFC002318461C37BD4690BD0000E03FE819002028280200F4160020000026400000354057
S32D0000CF300000084000002440008033400000334000002A4000003E4080B487B000AF7860396001237B613B68AB
S32D0000CF5803FB03F33B613A683B6902FB03F3FB603A68FB6802FB03F3BB603B687A689A4201D27B691DE07A687D
S32D0000CF803B699A4202D27B69013316E07A68FB689A4202D27B6902330FE07A68BB689A4202D27B69033308E06D
S32D0000CFA87A68BB68B2FBF3F37B607B6904337B61DBE718461C37BD4680BC704780B489B000AFF860B9607A6021
S32D0000CFD0BB68013BFB617B68632B25D97A68224BA3FB02135B09642101FB03F3D31A5B00BB617B681C4AA2FBE2
S32D0000CFF803235B097B60BB695A1CF968FB690B4418498A5C1A70FB69013BFA6813441549BA690A4412781A70EB
S32D0000D020FB69023BFB61D6E77B68092B10D97B685B007B617B695A1CFB6801330B498A5C1A700A4A7B691344CA
S32D0000D0481A78FB681A7005E07B68DBB23033DAB2FB681A7000BF2437BD4680BC704700BF1F85EB5168280200C9
S32D0000D07008B490B588B000AFF860B9607A607B680733DB08DB00ADEB030D6B460733DB08DB00FB6107F13003AC
S32D0000D0983B61BC683B69FA6A7968F869A047B861BB69FA69D41807F11403184605F044F907F114032246F96975
S32D0000D0C0F86800F03BF807F11403184605F03AF9F8682037BD46BDE8904001B0704780B584B000AFF860B9600A
S32D0000D0E87A60BA680021786805F000FC0346184600F03BF803461946F86805F001FBF8681037BD4680BD80B54D
S32D0000D11084B000AFF860B9607A607968B86805F031FC0346184600F024F803461946F86805F0EAFAF868103765
S32D0000D138BD4680BD90B585B000AFF860B9607A603B60FC68F86805F01BFA03463A681946204605F02DFC7A68FC
S32D0000D160B968F86800F00FF8FB6818461437BD4690BD80B483B000AF78607B6818460C37BD4680BC704780B530
S32D0000D18884B000AFF860B9607A607A68B968F86800F004F800BF1037BD4680BD90B587B000AFF860B9607A6040
S32D0000D1B03B7023467A68B968F86800F005F800BF1C37BD4690BD000080B586B000AFF860B9607A603B70B8685B
S32D0000D1D800F03EF80346002B05D0BA687B689A4201D0012300E00023002B02D0174805F0B7F87968B86800F0F0
S32D0000D2003AF803467B617B690F2B10D907F1140300221946F86805F0C1F903461946F86805F0AEF97B6919461C
S32D0000D228F86805F0AFF9F86805F0A8F903467A68B968184605F0FAF97B691946F86805F0A3F900BF1837BD460E
S32D0000D25080BD00BF3C28020080B483B000AF78607B68002B0CBF01230023DBB218460C37BD4680BC7047B0B5B7
S32D0000D27882B000AF786039607C683B1D184600F00AF82A463968204600F00FF8034618460837BD46B0BD80B4B2
S32D0000D2A083B000AF786000BF18460C37BD4680BC704780B485B000AFF860B9603A71BA68FB68D31A1846143701
S32D0000D2C8BD4680BC7047000080B582B000AF786039607B68012B1AD13B684FF6FF72934215D100210C4802F046
S32D0000D2F011FB07210B4802F00DFB1F210A4802F0DBFD0A4A03210A4800F06EFB074A0021084800F069FB00BF3B
S32D0000D3180837BD4680BD00BFEC160020F0160020F416002000001041F81600200017002080B500AF4FF6FF71E8
S32D0000D3400120FFF7C5FF80BD80B500AF0F4BD3F8A03003F48053002B14BF01230023DBB2002B10D0094BD3F808
S32D0000D368A030084A23F48053C2F8A030064804F051FF064B1B68054A23F40053136000BF80BD00BF00C00440B0
S32D0000D390701A0020C0F00F4080B400AF124B4FF480725A63114B5B69104A43F4005353610E4B1B680D4A43F472
S32D0000D3B8005313600A4B0C4A1A630C4BD3F888310A4A43F08063C2F88831084B9B68074A43F08063936000BF32
S32D0000D3E0BD4680BC704700BF00C00440C0F00F4003010A0000E100E080B400AF334B00225A70324B98221A708A
S32D0000D408304B9B79DBB203F01003002B14BF01230023DBB2002B00D0F2E72A4B9B79DBB29B08DBB203F00303EF
S32D0000D430022B14BF01230023DBB2002B00D0F0E7224B18221A71214B00225A71204B03F580531A461F4B5364E6
S32D0000D4581C4B54225A711B4B9B79DBB203F02003002B0CBF01230023DBB2002B00D0F2E7144B9B79DBB203F050
S32D0000D4804003002B0CBF01230023DBB2002B00D0F2E70E4B1B78DBB20C4A03F03F03DBB213700A4B9B79DBB293
S32D0000D4A89B08DBB203F00303032B14BF01230023DBB2002B00D0F0E700231846BD4680BC704700BF00400640CA
S32D0000D4D0007004400000130180B500AF314B03F580539B6B2F4A43F4785302F580529363FFF752FFFFF780FF3F
S32D0000D4F82B4B58221A602A4B1B684FF47A7202FB03F3284A1360274B1B681A46234B03F580535B6C1B0E03F02C
S32D0000D5200F030133B2FBF3F31A46214B1A601D4B03F58053DB6B1B4A43F0225302F58052D363184B03F580530B
S32D0000D5481B6B164A43F0006302F580521363174B4FF480721A61642002F05AF8134B5B69124A23F010035361C8
S32D0000D570104B00221A600F4B10225A610E4803F0BDF902F091FD02F0EFFD0C4802F0A6F80B4804F097FE4FF4EF
S32D0000D598FA6002F051F900BF80BD00BF0070044034190020301900203819002000D00340E81900202C19002080
S32D0000D5C0E01A002080B500AFFEF7BDFE00BF80BD80B500AFFEF7B7FE00BF80BD80B500AFFEF7B1FE00BF80BD85
S32D0000D5E880B500AFFEF7ABFE00BF80BD80B500AFFEF7A5FE00BF80BD80B500AFFEF79FFE00BF80BD80B500AFC9
S32D0000D610FEF799FE00BF80BD80B500AFFEF793FE00BF80BD80B500AFFEF78DFE00BF80BD80B500AFFEF787FE40
S32D0000D63800BF80BD80B500AFFEF781FE00BF80BD80B500AFFEF77BFE00BF80BD80B500AFFEF775FE00BF80BDDE
S32D0000D66080B500AFFEF76FFE00BF80BD80B500AFFEF769FE00BF80BD80B500AFFEF763FE00BF80BD80B500AF04
S32D0000D688FEF75DFE00BF80BD80B500AFFEF757FE00BF80BD80B500AFFEF751FE00BF80BD80B500AFFEF74BFEB8
S32D0000D6B000BF80BD80B500AFFEF745FE00BF80BD80B500AFFEF73FFE00BF80BD80B500AFFEF739FE00BF80BD1A
S32D0000D6D880B500AFFEF733FE00BF80BD80B500AFFEF72DFE00BF80BD80B500AFFEF727FE00BF80BD80B500AF40
S32D0000D700FEF721FE00BF80BD80B500AFFEF71BFE00BF80BD80B500AFFEF715FE00BF80BD80B500AFFEF70FFE2F
S32D0000D72800BF80BD80B500AFFEF709FE00BF80BD80B500AFFEF703FE00BF80BD80B500AFFEF7FDFD00BF80BD56
S32D0000D75080B500AFFEF7F7FD00BF80BD80B500AFFEF7F1FD00BF80BD80B500AFFEF7EBFD00BF80BD80B500AF7E
S32D0000D778FEF7E5FD00BF80BD80B500AFFEF7DFFD00BF80BD80B500AFFEF7D9FD00BF80BD80B500AFFEF7D3FDAB
S32D0000D7A000BF80BD80B500AFFEF7CDFD00BF80BD80B500AFFEF7C7FD00BF80BD80B500AFFEF7C1FD00BF80BD94
S32D0000D7C880B500AFFEF7BBFD00BF80BD80B500AFFEF7B5FD00BF80BD80B500AFFEF7AFFD00BF80BD80B500AFBA
S32D0000D7F0FEF7A9FD00BF80BD80B500AFFEF7A3FD00BF80BD80B500AFFEF79DFD00BF80BD80B500AFFEF797FD23
S32D0000D81800BF80BD80B500AFFEF791FD00BF80BD80B500AFFEF78BFD00BF80BD80B500AFFEF785FD00BF80BDCF
S32D0000D84080B500AFFEF77FFD00BF80BD80B500AFFEF779FD00BF80BD80B500AFFEF773FD00BF80BD80B500AFF5
S32D0000D868FEF76DFD00BF80BD80B500AFFEF767FD00BF80BD80B500AFFEF761FD00BF80BD80B500AFFEF75BFD9A
S32D0000D89000BF80BD80B500AFFEF755FD00BF80BD80B500AFFEF74FFD00BF80BD80B500AFFEF749FD00BF80BD0B
S32D0000D8B880B500AFFEF743FD00BF80BD80B500AFFEF73DFD00BF80BD80B500AFFEF737FD00BF80BD80B500AF31
S32D0000D8E0FEF731FD00BF80BD80B500AFFEF72BFD00BF80BD80B500AFFEF725FD00BF80BD80B500AFFEF71FFD12
S32D0000D90800BF80BD80B500AFFEF719FD00BF80BD80B500AFFEF713FD00BF80BD80B500AFFEF70DFD00BF80BD46
S32D0000D93080B500AFFEF707FD00BF80BD80B500AFFEF701FD00BF80BD80B500AFFEF7FBFC00BF80BD80B500AF6D
S32D0000D958FEF7F5FC00BF80BD80B500AFFEF7EFFC00BF80BD80B500AFFEF7E9FC00BF80BD80B500AFFEF7E3FC8D
S32D0000D98000BF80BD80B500AFFEF7DDFC00BF80BD80B500AFFEF7D7FC00BF80BD80B500AFFEF7D1FC00BF80BD85
S32D0000D9A880B500AFFEF7CBFC00BF80BD80B500AFFEF7C5FC00BF80BD80B500AFFEF7BFFC00BF80BD80B500AFAB
S32D0000D9D0FEF7B9FC00BF80BD80B500AFFEF7B3FC00BF80BD0000000080B584B000AFF8600B467A60FB72FB6894
S32D0000D9F8FA7A1A71FB6800225A71174978680DF055F90346002B02D0134B7B600AE04FF07E5178680DF036F9A4
S32D0000DA200346002B02D04FF07E537B6078680CF0EDFA09A3D3E900230CF040FB02460B46104619460CF01CFEBE
S32D0000DA480246FB681A60FB6818461037BD4680BDABAAAAAAAAAA20400000404180B582B000AF78607B685B79C0
S32D0000DA70002B09D07B6800225A717B6819791E230022034801F064FE00BF0837BD4680BD2C19002080B584B032
S32D0000DA9800AF786039603B687F2B02DD7F23FB7308E03B6813F1800F02DA8023FB7301E03B68FB737B685B7950
S32D0000DAC0FA7B9A4209D07B68FA7B5A717B681979FA7B1E23034801F03BFE00BF1037BD4680BD00BF2C190020E1
S32D0000DAE8B0B584B000AF78603960374938680DF0BFF80346002B02D0334B3B6008E0334938680DF0D3F803460F
S32D0000DB10002B01D02F4B3B6038680CF077FA04460D467B681B6818460CF070FA4FF00002294B0CF0EDFB024621
S32D0000DB380B46204629460CF0BDFA02460B46104619460CF099FD03463B604FF0000138680DF0A2F80346002B37
S32D0000DB6010D038680CF052FA17A3D3E900230CF0A5FA02460B46104619460CF039FD0346FB6018E038680CF0E3
S32D0000DB8841FA4FF00002134B0CF094FA02460B46104619464FF000020D4B0CF0B5FB02460B46104619460CF02E
S32D0000DBB01FFD0346FB60F9687868FFF76BFF00BF1037BD46B0BD00BF52B81E85EB51F43F0000C8C20000C84201
S32D0000DBD8000059400000604080B483B000AF03460A46FB711346BB71BB79002B03D1134B00221A7002E0114BCB
S32D0000DC0001221A703823FB710E4B1A78FB791343FB710D4B9B78DBB20B4A43F01003DBB29370094B9B78DBB24A
S32D0000DC28074A43F02003DBB29370054AFB79137100BF0C37BD4680BC704700BF081700200060064080B483B04D
S32D0000DC5000AF01237B607B68312B04DC00BF7B6801337B60F7E700BF0C37BD4680BC704780B582B000AF0346F3
S32D0000DC780A46FB711346BB71134B1B7800211846FFF7AAFF00F024F8104AFB79137100F01FF80E4ABB791371B9
S32D0000DCA000F01AF80B4B9B78DBB20A4A23F02003DBB29370074B9B78DBB2064A23F01003DBB29370FFF7C2FF95
S32D0000DCC800BF0837BD4680BD091700200060064080B483B000AF174B1B78002B24D100237B60154BDB78DBB2A1
S32D0000DCF003F00203002B0CBF01230023DBB2002B0DD07B6842F21072934203DD0B4B01221A7004E07B680133F0
S32D0000DD187B6000BFE5E7084BDB78DBB2064A43F00203DBB2D37000E000BF0C37BD4680BC704700BF0A17002014
S32D0000DD400060064080B582B000AF0346FB71FB79184600F05FF800BF0837BD4680BD80B582B000AF03460A463E
S32D0000DD68FB711346BB7100F035F8FB795B00DBB21846FFF7E3FFBB791846FFF7DFFF00F037F800BF0837BD4667
S32D0000DD9080BD80B500AFFF2000F03CF80346184680BD80B584B000AF0346FB7100F016F8FB795B005BB243F043
S32D0000DDB801035BB2DBB21846FFF7C0FFFFF7E5FF0346FB7300F014F8FB7B18461037BD4680BD000080B400AFC1
S32D0000DDE0044B9B68034A43F48013936000BFBD4680BC704740F00F4080B400AF044B5B68034A43F480135360C6
S32D0000DE0800BFBD4680BC704740F00F4080B485B000AF0346FB710023BB73164BDB6A03F00043012B0CBF0123A3
S32D0000DE300023DBB2002B03D0FB7B0133FB73F0E70E4BDB6A0D4A43F00043D3620B4AFB7953630A4BDB6A03F477
S32D0000DE580033002B0CBF01230023DBB2002B00D0F3E7044B9B6BBB73BB7B18461437BD4680BC704700C00A4068
S32D0000DE8080B582B000AF204B03F580531B6B1E4A43F4805302F5805213631C4B4FF480721A651B4B5B691A4A48
S32D0000DEA843F480135361FFF7A3FF164B4FF400725A65144B4FF400729A65124B4FF40072DA65124B124A1A60CA
S32D0000DED0104B124ADA6000237B607B68092B06DCFF20FFF72FFF7B6801337B60F5E704A1D1E9000101F0BAFC24
S32D0000DEF800BF0837BD4680BD9A9999999999B93F0070044000A0044040F00F4000C00A40000C00800500003E3F
S32D0000DF2090B486B000AFF860B9607A60FB68534A93420AD1524B03F580535B6B504A43F4806302F5805253634E
S32D0000DF4845E0FB684D4A93420AD14B4B03F580535B6B494A43F4006302F58052536336E0FB68474A93420AD14F
S32D0000DF70434B03F580535B6B414A43F4805302F58052536327E0FB68404A93420AD13C4B03F580535B6B3A4A10
S32D0000DF9843F4005302F58052536318E0FB683A4A93420AD1344B03F580539B6A324A43F4806302F58052936220
S32D0000DFC009E02F4B03F580539B6A2D4A43F4006302F580529362FB68DB78DBB223F00C03DAB2FB68DA70FB6830
S32D0000DFE800229A70BB684FF47A7203FB02F27B681B0192FBF3F39CB2FB681B78DBB223F01F03FB75230A9BB239
S32D0000E010DBB203F01F03DAB2FB7D1343DAB2FB681A70E2B2FB685A70BB684FF4FA4203FB02F27B681B0192FB8C
S32D0000E038F3F39AB263019BB2D31A9CB2FB689B7ADBB223F01F03FB75E3B203F01F03DAB2FB7D1343DAB2FB68FF
S32D0000E0609A72FB68DB78DBB243F00C03DAB2FB68DA7000BF1837BD4690BC704700A006400070044000B0064024
S32D0000E08800C0064000D0064000A00E4080B483B000AF78607B681B79DBB203F02003002B0CBF01230023DBB28E
S32D0000E0B0002B00D0F2E77B68DB79DBB218460C37BD4680BC704780B483B000AF78600B46FB707B681B79DBB265
S32D0000E0D85BB2DB43DBB2DB09DBB2002B00D0F4E77B68FA78DA7100BF0C37BD4680BC704780B487B000AFF86011
S32D0000E100B9607A60FB687B617B685A1E7A60002B14BF01230023DBB2002B06D07B695A1C7A61BA68D2B21A7052
S32D0000E128EEE700BF1C37BD4680BC704780B584B000AF786039607B681B6BFB60FA683B689A4252D07B681B7925
S32D0000E150002B35D07B6858787B6803F134010123FA6801F0F7F80346002B14BF01230023DBB2002B01D0012311
S32D0000E1783CE07B6800221A717B685A6A7B681B6A1344FA689A4217D27B68DB78FB72FB7A012B11D97B681B6AAA
S32D0000E1A0FA681344FB607B6858787B6803F134010123FA6801F0CEF8FB7A013BFB72EAE73B68002B15D07B68BC
S32D0000E1C858787B6803F1340101233A6800F0DAFF0346002B14BF01230023DBB2002B01D0012303E07B683A681B
S32D0000E1F01A63002318461037BD4680BD80B584B000AF786000217868FFF794FF0346FB73FB7B002B40F0938067
S32D0000E2187B681B78032B7DD17B685B79002B79D07B6800221A637B6834334FF4007200211846FFF75DFF7B6886
S32D0000E240552283F832227B68AA2283F833227B68522283F834207B68522283F835207B68612283F836207B6884
S32D0000E268412283F837207B68722283F818227B68722283F819227B68412283F81A227B68612283F81B227B68FC
S32D0000E2901B69DAB27B6883F81C227B681B699BB21B0A9BB2DAB27B6883F81D227B681B691B0CDAB27B6883F8ED
S32D0000E2B81E227B681B691B0EDAB27B6883F81F227B68DB68DAB27B6883F820227B68DB689BB21B0A9BB2DAB27A
S32D0000E2E07B6883F821227B68DB681B0CDAB27B6883F822227B68DB681B0EDAB27B6883F823227B6858787B68E0
S32D0000E30803F134017B685A69012301F01FF87B6800225A717B685B7800220021184601F0E1F80346002B14BFB4
S32D0000E33001230023DBB2002B01D00123FB73FB7B18461037BD4680BD80B582B000AF78600B467B807B68002BBA
S32D0000E35808D07B681B78002B04D07B68DB887A889A4201D0092311E07B685B78184601F03BF9034603F00103BF
S32D0000E380002B14BF01230023DBB2002B01D0032300E0002318460837BD4680BD80B586B000AF78607B681A6844
S32D0000E3A87B689B8819461046FFF7CAFF0346FB75FB7D002B40F0AC807B689B7903F02003002B00F0A5807B68E5
S32D0000E3D09B7903F04003002B1BD07B681B6858787B6803F128017B689A69012300F0B2FF0346002B14BF012373
S32D0000E3F80023DBB2002B01D001238AE07B689B7923F04003DAB27B689A717B681A687B68DB6919461046FFF7BF
S32D0000E42089FE0346FB75FB7D002B75D17B681B6A3B613B690B331A783B690B3342F02002D2B21A707B68DA68C4
S32D0000E4483B691C33D2B21A707B68DB689BB21B0A9AB23B691D33D2B21A707B68DB681A0C3B691E33D2B21A7070
S32D0000E4707B68DB681A0E3B691F33D2B21A707B681A693B691A33D2B21A707B681B699BB21B0A9AB23B691B33B0
S32D0000E498D2B21A707B681B691A0C3B691433D2B21A707B681B691B0C9BB21B0A9AB23B691533D2B21A70002359
S32D0000E4C0FB603B691633FA68D2B21A70FB689BB21B0A9AB23B691733D2B21A70FB681A0C3B691833D2B21A70D3
S32D0000E4E8FB681A0E3B691933D2B21A707B689B7923F02003DAB27B689A717B681B6801221A717B681B681846FE
S32D0000E510FFF774FE0346FB75FB7D18461837BD4680BD80B584B000AF78607868FFF736FF0346FB73FB7B002B04
S32D0000E53802D17B6800221A60FB7B18461037BD4680BD000080B588B000AF7860396080233B610F23FB604FF070
S32D0000E560FF337B610223FB61FB69B3F5807F23D80123BB61BB69102B1AD8FB69BA6902FB03F33A6803FB02F259
S32D0000E5887B68D31ABB60BB68002B09DBBB687A699A4205D9BB687B61FB693B61BB69FB60BB690133BB61E1E7CE
S32D0000E5B0FB695B00FB61D7E71D4BDB6A1C4A23F00803D3621A4BDB6A23F47F2323F47F63BB613B695B081B0262
S32D0000E5D89AB2FB68013B1B01DBB21A43BB691343114A43F46023D3620F4B5B6A03F00803002B0CBF0123002306
S32D0000E600DBB2002B03D00A2001F01AF9F0E7084BDB6A074A43F00803D362054B1B6B044A43F48013136300BFDD
S32D0000E6282037BD4680BD00BF00100B4080B582B000AF786039607B6800221A60414B424ADA62404BDB6A03F0F6
S32D0000E6508073002B14BF01230023DBB2002B00D0F3E73A4B0022C3F8C020384B4FF481325A60364B28229A62C6
S32D0000E678344B4FF001125A643B689B6833491846FFF760FF2F4B5B6A03F00303002B14BF01230023DBB2002BDB
S32D0000E6A000D0F3E72C4B40F243421A602A4B40F243425A60284B4FF488629A60264B40F24342DA60244B40F277
S32D0000E6C843421A61224B40F243425A61214B03F580531B6B1F4A43F4003302F580521363184B4FF6FF721A63E0
S32D0000E6F0164B1B4A5A63154BDB6A144A43F00063D362124BDB6A03F00063002B14BF01230023DBB2002B00D0E6
S32D0000E718F3E70C4B5B6A03F48033002B14BF01230023DBB2002B02D07B6801221A60054B1B6B044A43F080030A
S32D0000E7401363002318460837BD4680BD00100B400080000160CC050000D0044000700440B3007F0080B400AF4B
S32D0000E768064B5A6A40F207331340002B14BF01230023DBB21846BD4680BC704700100B4080B485B000AF78603E
S32D0000E790074B1B6B7A681340FB60FB68002B00D1F6E7FB6818461437BD4680BC704700BF00100B4080B584B032
S32D0000E7B800AF78607B681B7803F03F03764A52F82330FB60FB68002B05D17B681B78002B01D00123DCE0714BD7
S32D0000E7E01B6B704A43F0800313636E4B5B6A03F00103002B14BF01230023DBB2002B00D0F3E7684A7B685B682B
S32D0000E8089360FB6823F44003FB607B685B789B0503F44003FA681343FB607B685B78022B03D1FB6843F40013D0
S32D0000E830FB607B685B78042B16D1FB6803F44033B3F5003F08D1FB6823F44033FB60FB6843F44033FB6007E06F
S32D0000E858FB6823F44033FB60FB6843F40033FB604E4B5B684D4A9BB253607B68DB68002B2AD0FB6803F4403317
S32D0000E880B3F5403F03D0FB6843F40013FB607B681B7A002B03D0FB6843F01003FB607B68DB68012B03D9FB685D
S32D0000E8A843F02003FB607B68DB68B3F1FF3F0BD03A4B5A687B68DB681B04384913434B60FB6843F00203FB60AA
S32D0000E8D0344B00221A60334AFB68D3603248FFF753FF0346012B14BF01230023DBB2002B09D02C4B1B6B2B4A98
S32D0000E8F843F4702343F001031363012348E0274B1B6B03F08003002B14BF01230023DBB2002B07D0214B1B6BFB
S32D0000E920204A43F001131363012335E01D4B1B6B03F48033002B14BF01230023DBB2002B08D0184B1B6B174AB2
S32D0000E94843F0011313634FF0FF3321E0FB6803F44033002B15D0114B1A697B681A61FB6803F44033B3F5803F24
S32D0000E9700BD10C4B5A697B685A610A4B9A697B689A61084BDA697B68DA61064B1B6B054A43F001031363002305
S32D0000E99818461037BD4680BD4029020000100B4001000E0080B592B000AF7860396000237B643B68BB63994B59
S32D0000E9C07B637B6B002B02D140F601235FE3964B3B633B6B002B02D140F60B2357E33B6B1B68FB62FB6A002BF4
S32D0000E9E802D140F60B234EE37B6841F20932934200F23F837B68B3F5985F08D87B68032B00F01A837B68092BA8
S32D0000EA1000F0098331E37B68A3F59853013B082B00F22B8301A252F823F000BF51EA00003DED000099EF000027
S32D0000EA3853ED000091ED0000B7EE0000FFEE000041EE00005BEE00007649786BFFF7EEFD78647B6C002B40F047
S32D0000EA601083002387F84330002387F82B30002387F82A30002387F82930002387F84230002387F828300023BB
S32D0000EA883B7200237B720023FB6000233B7400237B6107F108031846FFF788FE0346002B14BF01230023DBB25C
S32D0000EAB0002B02D001237B64E8E240F24C4000F0BFFE08233B7200237B724FF4D573FB6000233B7400237B6164
S32D0000EAD807F108031846FFF769FEF863FB6B002B09D1BA69FB689A4202D001237B64C9E2012387F84230012371
S32D0000EB0087F8283097F82830002B00F0A58037233B7200237B720023FB6000233B7400237B6107F10803184622
S32D0000EB28FFF744FEF863FB6B002B02D001237B64A8E269233B7200237B720023FB6000233B7400237B6107F1AC
S32D0000EB5008031846FFF72EFE0346002B14BF01230023DBB2002B02D001237B648EE2BB6903F44013002B6FD0A9
S32D0000EB780023FB630A2000F05FFEFB6B0133FB6337233B7200237B720023FB6000233B7400237B6107F1080316
S32D0000EBA01846FFF707FE0346002B14BF01230023DBB2002B02D001237B6428E069233B7200237B7297F8423081
S32D0000EBC8002B02D0184BFB6002E04FF44013FB6000233B7400237B6107F108031846FFF7E5FD0346002B14BF40
S32D0000EBF001230023DBB2002B02D001237B6406E0BB69002B03DBFB6B632B00D8B6E77B6C002B40F03882FB6B45
S32D0000EC18632B0BD9002387F8423019E020170020241900203429020000003040012387F8433097F84230002B8A
S32D0000EC400AD0002387F84230BB6903F08043002B02D0012387F8423097F82A30002B02D07B6B07221A6097F8CE
S32D0000EC682930002B02D07B6B08221A6097F82B30002B02D07B6B04221A6097F84330002B09D07B6B02221A60A7
S32D0000EC9097F84230002B02D07B6B03221A6097F82B30002B0DD097F84330002B09D07B6B05221A6097F8423053
S32D0000ECB8002B02D07B6B06221A60924B00221A60904B00225A608F4B00229A608D4B0022DA608C4B00221A61DB
S32D0000ECE08A4B00225A61FB6A9A68FB6A5B6819461046FFF72BFC854B40F243421A60834B40F243425A60814BE7
S32D0000ED084FF488629A607F4B40F24342DA607D4B40F243421A617B4B40F243425A617A4B03F580531B6B784AF1
S32D0000ED3043F4003302F580521363A7E1B86BFFF739FDF863FB6B002B00F09F8102237B649BE1BB6B002B02D195
S32D0000ED580C237B6496E16D4BDB6A1B0A5B0003F4FF73FB63694BDB6A1B0903F00F035A1CFB6B02FB03F3FB6375
S32D0000ED80FB6A9A68FB6BB2FBF3F2BB6B1A607DE1BB6B002B02D10C237B6477E1BB6B1B68002B02D10C237B64C9
S32D0000EDA870E1FFF7DBFC0346002B0CBF01230023DBB2002B3CD0534B00221A60514B00225A60504B00229A606C
S32D0000EDD04E4B0022DA604D4B00221A614B4B00225A61FB6A9A68BB6B1B6819461046FFF7ADFB464B40F24342CD
S32D0000EDF81A60444B40F243425A60424B4FF488629A60404B40F24342DA603E4B40F243421A613C4B40F243424A
S32D0000EE205A613B4B03F580531B6B394A43F4003302F58052136329E140F60A237B6425E1BB6B002B02D10C2361
S32D0000EE487B641FE1314B5B68C3F30C02BB6B1A6018E1BB6B002B02D10C237B6412E1FFF77DFC0346002B0CBF4E
S32D0000EE7001230023DBB2002B19D0BB6B1B68B3F5805F02D30C237B6400E1224B5B68214A23F4FF5323F01F035F
S32D0000EE9853601E4B5A68BB6B1B68C3F30C031B4913434B60EEE040F60A237B64EAE0BB6B002B02D10C237B648F
S32D0000EEC0E4E0144B9B6A5B0803F00303FB63FB6B002B03D1BB6B00221A60D7E0FB6B012B03D1BB6B01221A603B
S32D0000EEE8D0E0FB6B102B03D1BB6B02221A60C9E005237B64C6E0BB6B002B09D10C237B64C0E000BF00D0044011
S32D0000EF100070044000100B40FFF724FC0346002B0CBF01230023DBB2002B31D0BB6B1B68002B0AD1584B9B6A18
S32D0000EF38574A23F006039362554B554A9B6A9362A0E0BB6B1B68012B0CD1514B9B6A504A23F0060393624E4BA9
S32D0000EF609B6A4D4A43F0020393628FE0BB6B1B68022B0AD1484B9B6A474A23F006039362454B454A9B6A936247
S32D0000EF8880E005237B647DE040F60A237B6479E0BB6B002B02D10C237B6473E03C4BDB6A3B4A43F00063D3625B
S32D0000EFB0394BDB6A03F00063002B14BF01230023DBB2002B00D0F3E7334B1B6B03F08003002B14BF01230023AE
S32D0000EFD8DBB2002B08D02E4B1B6B2D4A43F0800313637B6B00221A60294B5B6A03F48033002B14BF012300232F
S32D0000F000DBB2002B07D07B6B1B68002B06D17B6B01221A6002E07B6B00221A607B6B1A68BB6B1A6032E0BB6BC1
S32D0000F0281C221A60BB6B043304221A60BB6B08334FF41E721A6025E00220FFF7A1FB144B1B6B03F4E003002BB4
S32D0000F05014BF01230023DBB2002B07D00E4B1B6B0D4A43F4E003136304237B640A4B1B6B094A43F03203136311
S32D0000F07808E040F609237B6404E000BF02E000BF00E000BF7B6C18464837BD4680BD00BF00100B4080B489B0D3
S32D0000F0A000AF786039607B687B61364B3B613B69002B01D100235FE03B691B68022B0BD03B691B68032B07D0E8
S32D0000F0C83B691B68072B03D03B691B68082B0BD12B4B5B6A03F00403002B14BF01230023DBB2002B00D0F3E7DC
S32D0000F0F03B68FB61FB69002B3DD0FB69B3F5007F28BF4FF40073FB60FB6803339B08BB61BB69002B2AD01C4BCC
S32D0000F1181B6B03F4E003002B14BF01230023DBB2002B09D0164B1B6B154A43F4E00343F02003136300231BE049
S32D0000F140114B5B6A03F40063002B0CBF01230023DBB2002B00D0F3E70B497B691A1D7A610A6A1A60BB69013BEF
S32D0000F168BB61D1E7FA69FB68D31AFB61BEE7012318462437BD4680BC704700BF2017002000100B4080B58EB03A
S32D0000F19000AFB9607A601A460346FB731346BB73414B7B63FB7B002B02D1BB7B002B01D1042375E03D4B1B7869
S32D0000F1B8DBB203F00103002B14BF01230023DBB2002B01D0032367E0BB68002B01D1002362E07B6B1B7B002B3E
S32D0000F1E002D17B685B027B60BB7B012B28D111233B7500237B757B68BB6101233B77BB7B3B6207F114031946AB
S32D0000F20841F20230FFF7CEFB0346002B0CBF01230023DBB2002B38D04FF40071B868FFF739FF0346002B14BF25
S32D0000F23001230023DBB2002B2BD00023BB7328E012233B7500237B757B68BB6101233B77BB7B3B6207F11403AE
S32D0000F258194641F20230FFF7A5FB0346002B0CBF01230023DBB2002B0FD0BB7B5B021946B868FFF70FFF0346B2
S32D0000F280002B14BF01230023DBB2002B01D00023BB73BB7B002B01D0012300E0002300BF18463837BD4680BD1C
S32D0000F2A80C1700200000002080B487B000AF786039607B68FB603B687B617B69002B3DD07B69B3F5007F28BF7F
S32D0000F2D04FF400733B617A693B69D31A7B613B6903339B083B613B69002BEAD0184B1B6B03F4E003002B14BF0B
S32D0000F2F801230023DBB2002B0AD0134B1B6B124A43F4E00343F0100313634FF0FF3316E00D4B5B6A03F480639B
S32D0000F320002B0CBF01230023DBB2002B00D0F3E7FB681A1DFA60064A1B6813623B69013B3B61D0E7012318462F
S32D0000F3481C37BD4680BC704700100B4080B58EB000AFB9607A601A460346FB731346BB735D4B7B63FB7B002B19
S32D0000F37002D1BB7B002B01D10423ADE0594B1B78DBB203F00103002B14BF01230023DBB2002B01D003239FE087
S32D0000F398524B1B78DBB203F00403002B14BF01230023DBB2002B01D0022391E0BB68002B01D100238CE07B6B97
S32D0000F3C01B7B002B02D17B685B027B60BB7B012B28D118233B7500237B757B68BB6100233B77BB7B3B6207F178
S32D0000F3E81403194641F20230FFF7DCFA0346002B0CBF01230023DBB2002B38D04FF40071B868FFF751FF0346A7
S32D0000F410002B14BF01230023DBB2002B2BD00023BB7328E019233B7500237B757B68BB6100233B77BB7B3B62D7
S32D0000F43807F11403194641F20230FFF7B3FA0346002B0CBF01230023DBB2002B0FD0BB7B5B021946B868FFF70B
S32D0000F46027FF0346002B14BF01230023DBB2002B01D00023BB730D233B7500237B757B6B1B69BB6100233B77A2
S32D0000F48800233B6207F11403194641F20230FFF789FA0346002B14BF01230023DBB2002B01D0012314E07A6A37
S32D0000F4B00D4B1340002B01D001230DE07B6A03F4F853B3F5106F00D0D5E7BB7B002B01D0012300E0002300BF84
S32D0000F4D818463837BD4680BD0C170020000000200880D9FF80B58CB000AF03463A60FB710B46BB713A4BBB62A8
S32D0000F500FB79002B01D0042369E0012387F82F30364B1B78DBB203F00103002B14BF01230023DBB2002B01D095
S32D0000F528032358E0BB79032B50D801A252F823F049F5000051F5000061F5000071F50000002387F82F3044E068
S32D0000F550BB6A9A683B681A60002387F82F303CE03B684FF400721A80002387F82F3034E009233B7200237B723C
S32D0000F578BB6A1B69FB6000233B7400237B6107F10803194641F20230FFF70CFA0346002B14BF01230023DBB2B2
S32D0000F5A0002B01D001231AE07B6A03F44003002B0CD13B6A9B0C03F07F035A1C7B6A1B0A03F00303013B9A40AC
S32D0000F5C83B681A60002387F82F3002E0042387F82F3097F82F3018463037BD4680BD00BF0C17002000000020FB
S32D0000F5F080B483B000AF0346FB71FB79002B01D0012302E0034B1B78DBB218460C37BD4680BC70470000002087
S32D0000F61880B483B000AF7860164B03F580539B6B144A43F0010302F580529363124A7B689360114B05225A60E1
S32D0000F6400F4B1B680E4A43F0010313600C4B1B6803F08003002B0CBF01230023DBB2002B00D0F3E7064B1B68FA
S32D0000F668054A23F00103136000BF0C37BD4680BC704700BF007004400000044080B582B000AF786039607B6882
S32D0000F690012B07D13B684FF6FF72934202D1034800F00EF800BF0837BD4680BD2C19002080B500AF4FF6FF71CA
S32D0000F6B80120FFF7E3FF80BD80B483B000AF78607B6800221A707B6818460C37BD4680BC7047000080B582B090
S32D0000F6E000AF78607B681B7883F00103DBB2002B21D0134B03F580531A464FF400639362104B4FF440721A62EF
S32D0000F7080E4B4FF440725A620D4B1B68DA0F13445B104FF4614219460A48FEF7FDFB642000F08AF87B680122C3
S32D0000F7301A70012300E0002318460837BD4680BD0070044000D004403019002000B00E4080B582B000AF786000
S32D0000F758084611461A460346FB700B46BB7013467B707F210E48FEF7AAFC08210C48FEF7A6FCFB7819460A4841
S32D0000F780FEF7A1FCBB7819460748FEF79CFC7B7819460548FEF797FCFF210348FEF793FC00BF0837BD4680BD07
S32D0000F7A800B00E4080B487B000AFF860B9607A60FB681F4AA2FB03239B09BA6813447B61FB681B4AA2FB0312CE
S32D0000F7D092094FF47A7101FB02F29B1AFB60FB68DB03154AA2FB03239B097A6813443B613B69DB0B7A691344A2
S32D0000F7F87B613B69C3F30E033B610E4B1B687A699A4209D80B4B1B687A699A4206D1094B5B683A699A4201D9A5
S32D0000F820012300E00023002B00D0EAE700BF1C37BD4680BC704700BFD34D621000D0034080B584B000AF78606B
S32D0000F848074B1B68FB60064B5B68BB607B68BA68F9681846FFF7A6FF00BF1037BD4680BD00D0034080B584B012
S32D0000F87000AFC7E900010E4B1B68FB600C4B5B68BB604FF000020B4BD7E900010AF016FC02460B4610461946EC
S32D0000F8980AF0D2FE0346BA68F9681846FFF782FF00BF1037BD4680BD00D0034000408F4080B584B000AF134BF9
S32D0000F8C01B68FB60114B5B68BB60F8680AF07CFB02460B46C7E90023B8680AF075FB4FF000020B4B0AF014FD99
S32D0000F8E802460B46D7E900010AF02EFA02460B46C7E90023D7E90023104619461037BD4680BD00BF00D0034019
S32D0000F9100000E04080B584B000AF78600B46FB700B23FB73FA7BFB781946786800F094F87B6818461037BD4633
S32D0000F93880BD000080B485B000AF78607B68103B002B00DA1F335B11FB60FB68022B53D0FB68022B75DCFB6831
S32D0000F960002B03D0FB68012B25D06EE0394BD3F880217B68103B594203F01F0301F01F0158BF4B42012101FA09
S32D0000F98803F332491343C1F88031304B1A687B68103B594203F01F0301F01F0158BF4B42012101FA03F329490B
S32D0000F9B013430B6049E0274BD3F884217B68103B594203F01F0301F01F0158BF4B42012101FA03F31F491343F9
S32D0000F9D8C1F884311D4B5A687B68103B594203F01F0301F01F0158BF4B42012101FA03F3164913434B6024E05F
S32D0000FA00144BD3F888217B68103B594203F01F0301F01F0158BF4B42012101FA03F30D491343C1F888310B4BEB
S32D0000FA289A687B68103B594203F01F0301F01F0158BF4B42012101FA03F3044913438B6000BF00BF1437BD46AE
S32D0000FA5080BC704700E100E080B584B000AF78600B46FB701346BB707B68FA781A70BB78FB737B681B781A464E
S32D0000FA78574B9B5C042B00F2A68001A252F823F09DFA0000E9FA000035FB0000CDFB000081FB0000FB7B1B04FD
S32D0000FAA003F470234D497A68127810464C4A52F8202043F4897343F0010341F82230494B5A697B681B78194615
S32D0000FAC8454B53F8213003F01F03012101FA03F3DB43424913404B616720FFF72BFF72E0FB7B1B0403F47023FC
S32D0000FAF03D497A6812781046394A52F8202043F4897343F0010341F82230384B5A697B681B781946324B53F8BB
S32D0000FB18213003F01F03012101FA03F3DB43314913404B616820FFF705FF4CE0FB7B1B0403F470232C497A688B
S32D0000FB4012781046264A52F8202043F4897343F0010341F82230274B5A697B681B7819461F4B53F8213003F0C5
S32D0000FB681F03012101FA03F3DB43204913404B616920FFF7DFFE26E0FB7B1B0403F470231B497A68127810460D
S32D0000FB90134A52F8202043F4897343F0010341F82230164B5A697B681B7819460C4B53F8213003F01F03012148
S32D0000FBB801FA03F3DB430F4913404B616B20FFF7B9FE00E000BF00BF1037BD4680BD00BF402A0200009004409D
S32D0000FBE0842A020000F00F4000A0044040F00F4000B0044080F00F4000D0044000F10F40B0B48BB000AF224BE3
S32D0000FC083C1D1D460FCD0FC495E80F0084E80F0000237B627B6A072B30DC1C4BD3F8A0207B6A9B0028333B44ED
S32D0000FC3053F8243C012101FA03F31340002B14BF01230023DBB2002B18D0134A7B6A52F823305A1C10497B6A1D
S32D0000FC5841F823200D4BD3F8A0207B6A9B0028333B4453F8243C012101FA03F307491340C1F8A0307B6A0133C2
S32D0000FC807B62CBE700BF2C37BD46B0BC704700BF882B020000A004405C190020B0B489B000AF224B3C1D1D461D
S32D0000FCA80FCD0FC495E8030084E803000023FB61FB69052B30DC1C4BD3F8A020FB699B0020333B4453F81C3C0B
S32D0000FCD0012101FA03F31340002B14BF01230023DBB2002B18D0FB690833124A52F823200132104941F823202B
S32D0000FCF80D4BD3F8A020FB699B0020333B4453F81C3C012101FA03F307491340C1F8A030FB690133FB61CBE7A2
S32D0000FD2000BF2437BD46B0BC704700BFA82B020000B004405C190020B0B48DB000AF234B3C461D460FCD0FC406
S32D0000FD480FCD0FC495E8070084E807000023FB62FB6A0A2B30DC1C4BD3F8A020FB6A9B0030333B4453F8303C36
S32D0000FD70012101FA03F31340002B14BF01230023DBB2002B18D0FB6A0E33124A52F823200132104941F8232083
S32D0000FD980D4BD3F8A020FB6A9B0030333B4453F8303C012101FA03F307491340C1F8A030FB6A0133FB62CBE7DA
S32D0000FDC000BF3437BD46B0BC704700BFC02B0200009004405C190020B0B487B000AF214B3C461D460FCD0FC466
S32D0000FDE82B68236000237B617B69042B30DC1C4BD3F8A0207B699B0018333B4453F8183C012101FA03F3134079
S32D0000FE10002B14BF01230023DBB2002B18D07B691933124A52F823200132104941F823200D4BD3F8A0207B69F7
S32D0000FE389B0018333B4453F8183C012101FA03F307491340C1F8A0307B6901337B61CBE700BF1C37BD46B0BC32
S32D0000FE60704700BFEC2B020000D004405C19002080B483B000AF78607B681B781A46044B53F8223018460C37EB
S32D0000FE88BD4680BC704700BF5C19002080B483B000AF78607B681B781946044B002243F8212000BF0C37BD464D
S32D0000FEB080BC70475C19002080B483B000AF78600B46FB707B68FA781A707B6818460C37BD4680BC7047000099
S32D0000FED880B586B000AF78607B681B781A463E4B53F822303B617B681B781A463B4B9B5CFB733B69DBB203F08D
S32D0000FF001F03DAB2384B1A723B69DBB203F01F03DAB2354B5A72354B1022C3F88820FB7B002B13D1304932486B
S32D0000FF2800F05AFA304B1B6803F08003802B14BF01230023DBB2002B00D0F3E72A4B1B697B6112E02649294825
S32D0000FF5000F046FA274B1B6803F08003802B14BF01230023DBB2002B00D0F3E7214B1B697B611E4BD3F8883108
S32D0000FF781C4A43F01003C2F888311A4B9B68194A43F0100393607B699BB218460AF018F80DA3D3E900230AF016
S32D0000FFA08DF802460B46104619460BA3D3E900230AF0AEF902460B46104619460AF060FB0346BB60BB681846AA
S32D0000FFC81837BD4680BD00BFA4703D0AD7A30A4000000000E0FFEF40042B0200602A02003C19002000E100E09D
S32D0000FFF000B0034000B00B4080B586B000AF78607B681B781A46234B53F822303B617B681B781A46204B9B5C4E
S32D00010018FB733B69DBB203F01F03DAB21D4B1A723B69DBB203F01F03DAB21A4B5A72FB7B002B13D1174918483D
S32D0001004000F0CEF9164B1B6803F08003802B14BF01230023DBB2002B00D0F3E7104B1B697B6112E00D490F48FF
S32D0001006800F0BAF90D4B1B6803F08003802B14BF01230023DBB2002B00D0F3E7074B1B697B617B69184618370B
S32D00010090BD4680BD042B0200602A02004C19002000B0034000B00B4098B500AF204B5C221A701F4B10225A70FC
S32D000100B81D4B41F234225A801B4B45F278629A80194B10229A71184B0722DA71164B4FF4C022DA60144B1F22E5
S32D000100E01A72134B1F225A721149124800F078F90F49114800F074F90F4800F0D2F80D4800F0CFF80A490C4813
S32D0001010800F06AF90849094800F066F9094A064B14460FCB84E80F00064B5C221A70054B0422DA7100BF98BD03
S32D000101303C19002000B0034000B00B404C19002080B500AF064B1B680133054A136000F03DF8044B0122C3F8B8
S32D000101580C2100BF80BD00BFE01900200070034080B500AF0C4B01221A600C4800F01AF8094B0322C3F8082139
S32D00010180094BD3F88831084A43F01003C2F88831054B9B68044A43F01003936000BF80BD00700340A0860100BD
S32D000101A800E100E080B483B000AF7860044A7B68C2F8003100BF0C37BD4680BC704700BF0070034080B584B08A
S32D000101D000AF174B1B68FB60FB68002B24D0FB685B78FB71FB689B68184600F023F80346BB71BB79002B13D067
S32D000101F8FB685B68012B0FDDFB689B681B69BB60BB68002B08D0BB685B685A1CBB685A60BB681B69BB60F3E79A
S32D00010220FB68DB68FB60D7E700BF1037BD4680BDDC19002080B584B000AF78607868FFF7DBFEF8607B689B69B7
S32D000102485B78FB72FB7A002B0FD17B68DB68FA689A420ADD7B689B6901225A707B685B685A1C7B685A600123CB
S32D0001027013E0FB7A012B0FD17B689B68FA689A420ADA7B689B6900225A707B685B685A1C7B685A60012300E053
S32D00010298002318461037BD4680BD80B485B000AF78607B681B6A23F040027B681A627B685B6A23F00B027B6878
S32D000102C05A627B685B6A43F007027B685A627B685B6A43F080027B685A627B681B6803F08003002B0CBF0123DE
S32D000102E80023DBB2002B00D0F3E77B685B6A03F04003402B0CBF01230023DBB2002B01D0012364E00023FB8177
S32D000103107B68DB6CFB817B689B6C9AB2FB891344FB817B685B6C9AB2FB891344FB817B681B6C9AB2FB891344AD
S32D00010338FB817B68DB6B9AB2FB891344FB817B689B6B9AB2FB891344FB81FB895B08FB81FB896FEA43436FEAA3
S32D000103605343FB81FA897B68DA620023FB817B68DB6EFB817B689B6E9AB2FB891344FB817B685B6E9AB2FB8968
S32D000103881344FB817B681B6E9AB2FB891344FB817B68DB6D9AB2FB891344FB817B689B6D9AB2FB891344FB8108
S32D000103B0FB895B08FB81FB896FEA43436FEA5343FB81FA897B681A637B685B6A23F080027B685A6200231846AD
S32D000103D81437BD4680BC704780B483B000AF786039603B681B781A467B689A603B685B781A467B68DA603B6825
S32D000104005B881A467B689A613B689B881A467B68DA613B689B791A467B681A623B68DB791A467B685A623B6859
S32D00010428DA687B681A653B681B7A1A467B681A603B685B7A1A467B685A6000BF0C37BD4680BC704780B483B038
S32D0001045000AF78607B6818460C37BD4680BC704780B582B000AF786039607B68012B07D13B684FF6FF729342E0
S32D0001047802D10348FFF7E6FF00BF0837BD4680BDE419002080B500AF4FF6FF710120FFF7E3FF80BD80B582B0CB
S32D000104A000AF7860B84B4FF48072DA60B74B4FF480729A64B54B4FF480721A64B34B4FF480725A64B14B4FF41C
S32D000104C88072DA60B04B5B69AF4A43F008035361AE4B5B69AD4A43F480235361AB4B5B69AA4A43F480335361A1
S32D000104F0A84B5B69A74A43F400335361A54B1B68A44A43F008031360A24B5B69A14A43F0080353619E4B1B680B
S32D000105189D4A43F0080313609A4B4FF480725A62984B4FF480721A62954B4FF480721A61934B4FF480725A6154
S32D00010540914B4FF480729A618F4B4FF48072DA618D4B4FF480721A638B4B4FF480725A63894B4FF480729A63DE
S32D00010568874B4FF48072DA63854B4FF480721A64834B4FF480725A64814B4FF480729A647F4B4FF48072DA64A0
S32D00010590814B4FF480721A607F4B4FF480729A607D4B4FF48072DA607B4B4FF480721A61784B5B69774A43F49C
S32D000105B840735361744B5B69734A43F47F2343F0F0035361734B5B69724A43F01D035361E221786800F06CFD39
S32D000105E01D21786800F00EFE0221786800F00AFE0421786800F006FEE021786800F05CFD0121786800F0FEFDC7
S32D000106086420FFF719F9E021786800F051FD0321786800F0F3FD0121786800F049FD0120FFF70AF9E6217868FB
S32D0001063000F042FD0121786800F0E4FDA021786800F0E0FDFF21786800F0DCFDB021786800F032FD1C21786875
S32D0001065800F0D4FD0F21786800F0D0FD0121786800F0CCFD3F21786800F0C8FD0021786800F0C4FDEF21786893
S32D0001068000F0C0FD0021786800F0BCFDB421786800F012FD0121786800F0B4FD9921786800F0B0FD0021786865
S32D000106A800F0ACFD4521786800F0A8FD0221786800F0A4FD0021786800F0A0FD0021786800F09CFD0021786802
S32D000106D000F098FDB621786800F0EEFC0121786800F090FD0921786800F08CFD0021786800F088FD0E2178685E
S32D000106F800F084FD0221786800F080FD0021786800F07CFD0021786800F078FDBA21786800F0CEFC0F2178689D
S32D0001072000F070FD6420FFF78BF83A21786800F0C3FC6021786800F065FD2A21786800F0BBFC0021786800F0F0
S32D000107485DFD0021786800F059FD0121786800F055FD3F21786800F051FD2B21786800F0A7FC0021786800F06F
S32D0001077049FD0021786800F045FD0021786800F041FDEF2178680BE000B0044000A0044080F00F4040F00F40C1
S32D0001079800C00440C0F00F4000F030FD3621786800F086FC0021786800F028FDF021786800F07EFC04217868F3
S32D000107C000F020FDB821786800F076FC0F21786800F018FD0121786800F014FD314B1B68304A43F008031360A0
S32D000107E86420FFF729F83621786800F061FC0021786800F003FDF021786800F059FC0421786800F0FBFC01218E
S32D00010810786800F0BCF91E226F21786800F082F8AF225621786800F0DBF80021786800F0FFF9012301221C499A
S32D00010838786800F020FA2921786800F039FC6420FEF7FAFFBE21786800F032FC0E21786800F0D4FCF021786849
S32D0001086000F0D0FC0121786800F0CCFC0021786800F0C8FC0021786800F0C4FC0F21786800F0C0FC786800F001
S32D000108881DFA0121786800F0CFF90021786800F0A4F900BF0837BD4680BD00BF40F00F40002C020080B582B0D1
S32D000108B000AF78607B680022DA617B6801221A627B680E225A607B681A229A607B6800225A617B6800229A612A
S32D000108D87B684FF4A072DA607B68F0221A617B6800221A70786801F0B1F87B6818460837BD4680BD80B582B0DF
S32D0001090000AF7860064B1B78002B05D1044B01221A707868FFF7C2FD00BF0837BD4680BD2C1A002080B58AB0B8
S32D0001092802AFF860B9607A607E23009362237A68B968F86800F0EAFD40F24E733B610023FB61FA693B699A42C0
S32D0001095040DA0023BB61214AFB6913441B781A46BB69934232DAFB6901331C4AD35C002B06D1FF23FB75FF231E
S32D00010978BB75FF237B7512E0FB690133154AD35C012B06D1D423FB750023BB7526237B7505E0B523FB75BA23F6
S32D000109A0BB75B0237B757B7DBA7DF97DF86800F0C9F80246FB68DA61F86801F04BF8F86800F084FFBB690133DA
S32D000109C8BB61C4E7FB690233FB61BAE700BF2037BD4680BD0400002080B58AB002AFF860B9607A6027230093E1
S32D000109F095237A68B968F86800F08CFD40F2E6333B610023FB61FA693B699A4240DA0023BB61214AFB6913447C
S32D00010A181B781A46BB69934232DAFB6901331C4AD35C002B06D1FF23FB75FF23BB75FF237B7512E0FB69013308
S32D00010A40154AD35C012B06D10023FB750023BB7500237B7505E0D423FB750023BB7526237B757B7DBA7DF97D80
S32D00010A68F86800F06BF80246FB68DA61F86800F0EDFFF86800F026FFBB690133BB61C4E7FB690233FB61BAE760
S32D00010A9000BF2037BD4680BD5407002080B485B000AF78600B46FB70FB78062B29D801A252F823F0D90A010031
S32D00010AB8D10A0100DF0A0100E70A0100EF0A0100F50A0100FD0A01006FF07F43FB6014E00023FB6011E04FF433
S32D00010AE07F03FB600DE04FF47F43FB6009E0FF23FB6006E04FF41903FB6002E0044BFB6000BFFB681846143760
S32D00010B08BD4680BC704700BF9999990080B584B000AF786039603B681B0CFB733B681B0ABB733B687B737B7B00
S32D00010B30BA7BF97B786800F005F8034618461037BD4680BD80B487B000AF7860084611461A460346FB700B46F6
S32D00010B58BB7013467B70FB789B08DBB27B61BB789B08DBB23B617B789B08DBB2FB607B691A033B699B011A4365
S32D00010B80FB68134318461C37BD4680BC704780B582B000AF78600B46FB70FB7819467868FFF77CFF0346194671
S32D00010BA8786800F004F800BF0837BD4680BD80B582B000AF7860396039687868FFF7A6FF02467B681A627868EA
S32D00010BD000F040FF786800F0ADFB00BF0837BD4680BD80B582B000AF78600B46FB70FB7819467868FFF752FF6E
S32D00010BF803461946786800F004F800BF0837BD4680BD80B582B000AF7860396039687868FFF77CFF02467B6878
S32D00010C201A62786800F016FF00BF0837BD4680BD80B582B000AF78600B46FB70FB7819467868FFF72BFF034641
S32D00010C481946786800F004F800BF0837BD4680BD80B582B000AF7860396039687868FFF755FF02467B68DA615C
S32D00010C70786800F0EFFE00BF0837BD4680BD80B586B000AFF860B9607A603B6000237B617B69BA6813441B786B
S32D00010C98002B0FD07B69BA6813441B783A687968F86800F0CDFC7B680C337B607B6901337B61E9E700BF1837C8
S32D00010CC0BD4680BD80B582B000AF7860FDF7D8F867210120FDF743F800210220FDF73FF8A0210320FDF73BF8C2
S32D00010CE850210420FDF737F820210520FDF733F820210620FDF72FF877210720FDF72BF800210820FDF727F8EC
S32D00010D1000210920FDF723F800210A20FDF71FF804210B20FDF71BF87B684FF0FF32DA637B684FF0FF321A644D
S32D00010D3800BF0837BD4680BD80B586B000AFF860B9607A600020FDF728F80346FB75FB7D03F00203002B00F071
S32D00010D60CE80FDF73BF8E020FCF7ECFF0220FEF767FDFDF741F80120FEF762FDFDF72EF8A520FCF7DFFF012023
S32D00010D88FEF75AFDFDF701F803469BB21B02BB82FCF7FBFF03469AB2BB8A1343BB82FCF7F4FF03469BB21B0220
S32D00010DB07B82FCF7EEFF03469AB27B8A13437B82BB8A1B09BB827B8A1B097B82FDF714F8FB68DB6BB3F1FF3FF3
S32D00010DD834D1FB681B6CB3F1FF3F2FD1BA8AFB68DA637A8AFB681A647B8AC3F57F630F337B82BB8A184609F0D8
S32D00010E00F3F849A3D3E9002309F058F902460B461046194609F034FC0246BB681A607B8A184609F0E1F842A34D
S32D00010E28D3E9002309F046F902460B461046194609F022FC02467B681A605AE0FB68DA6BBB8AD31A1946F868A7
S32D00010E5000F074F80346632B0CDCFB681A6C7B8AD31A1946F86800F069F80346632B01DC012300E00023002B67
S32D00010E782FD0BA8AFB68DA637A8AFB681A647B8AC3F57F630F337B82BB8A184609F0A8F823A3D3E9002309F0CB
S32D00010EA00DF902460B461046194609F0E9FB0246BB681A607B8A184609F096F81CA3D3E9002309F0FBF8024651
S32D00010EC80B461046194609F0D7FB02467B681A600FE0BB68164A1A607B68154A1A60FB684FF0FF32DA63FB686A
S32D00010EF04FF0FF321A64002310E001230EE0BB680D4A1A607B680C4A1A60FB684FF0FF32DA63FB684FF0FF3236
S32D00010F181A64002318461837BD4680BDAFF30080144001144001B43F1EE0011EE001AE3F000080BF80B483B0CC
S32D00010F4000AF786039603B68002B02DA3B685B423B603B6818460C37BD4680BC704780B584B000AF786039601A
S32D00010F680023FB60786800F0A4FAFB683A6813441B78002B12D07B6859697B689869FB683A6813441B780246B2
S32D00010F90786800F03EFB786800F0A3FAFB680133FB60E6E700BF1037BD4680BD80B592B000AF786039604FF0E1
S32D00010FB80001386809F070FE0346002B1FD0386809F07EFE03467B64786C09F05FFC03461946386809F0A4FB4A
S32D00010FE003461F49184609F0A9FC0346184609F06BFE03463B6407F10C003B6C7A6C19490BF0C8FF22E03B68EA
S32D0001100883F000433B60386809F05AFE03467B64786C09F03BFC03461946386809F080FB03460D49184609F089
S32D0001103085FC0346184609F047FE03463B6407F10C003B6C7A6C08490BF0A4FF07F10C0319467868FFF783FF05
S32D0001105800BF4837BD4680BD00007A441C2C0200102C020080B582B000AF78603960786800F01FFA39687868B4
S32D00011080FFF76DFF786800F003FA00BF0837BD4680BD80B582B000AF78603960786800F00CFA39687868FFF700
S32D000110A881FF786800F0F0F900BF0837BD4680BD80B483B000AF78600B46FB704D4B1B684C4A23F008031360B6
S32D000110D04B4B1B684A4A23F480231360484B1B68474A43F480331360454B1B68444A23F440731360414B1B6826
S32D000110F8404A23F4435323F0300313603E4B1A68FB785B0203F400733B4913430B603A4B1A68FB785B101B024D
S32D0001112003F48073364913430B60344B1A68FB789B101B0103F01003304913430B602F4B1A68FB78DB105B0145
S32D0001114803F020032B4913430B602A4B1A68FB781B119B0103F04003264913430B60254B1A68FB785B11DB01E8
S32D00011170DBB2224913430B60204B1A68FB789B111B0303F480531D4913430B601B4B1A6897F90330DB115BB2D8
S32D000111985B0303F40053174913430B60164B1B68154A23F400331360134B1B68124A43F4003313600F4B1B6868
S32D000111C00E4A43F0080313600D4B1B680C4A43F440731360094B1B68084A43F4435343F030031360064B1B68C6
S32D000111E8054A43F48023136000BF0C37BD4680BC704700BF80F00F4040F00F4080B483B000AF78600B46FB709D
S32D00011210464B1B68454A23F008031360444B1B68434A43F480331360414B1B68404A43F4802313603E4B1B688D
S32D000112383D4A23F4407313603A4B1B68394A23F4435323F030031360374B1A68FB785B0203F4007334491343C1
S32D000112600B60334B1A68FB785B101B0203F480732F4913430B602D4B1A68FB789B101B0103F0100329491343D4
S32D000112880B60284B1A68FB78DB105B0103F02003244913430B60234B1A68FB781B119B0103F040031F491343BA
S32D000112B00B601E4B1A68FB785B11DB01DBB21B4913430B60194B1A68FB789B111B0303F48053164913430B603F
S32D000112D8144B1A6897F90330DB115BB25B0303F40053104913430B600F4B1B680E4A23F4003313600C4B1B68BC
S32D000113000B4A43F400331360084B1B68074A43F008031360064B1B68054A23F48023136000BF0C37BD4680BC23
S32D00011328704700BF80F00F4040F00F4080B586B000AF78607B6800225A617B6800229A617B681B6AFB60FB680A
S32D00011350FB72FB681B0ABB72FB681B0CDBB203F003037B722A217868FFF7A6FE00217868FFF748FF002178684B
S32D00011378FFF744FF01217868FFF740FF3F217868FFF73CFF2B217868FFF792FE00217868FFF734FF0021786888
S32D000113A0FFF730FF00217868FFF72CFFEF217868FFF728FF2C217868FFF77EFE314B1B68304A23F44073136075
S32D000113C82F4B1B682E4A23F47F2323F0F00313602C4B1B682B4A23F01D031360274B1A687B681B6B2549134319
S32D000113F00B60254B1A687B685B6B234913430B60224B1A687B689B6B204913430B601E4B1B681D4A23F0080328
S32D0001141813601A4B1B68194A43F48023136000237B617B69EF2B19D800233B613B69B3F5A07F0FD2114B1B68C2
S32D00011440104A23F4003313600E4B1B680D4A43F4003313603B6901333B61EBE77B6901337B61E2E7084B1B687D
S32D00011468074A43F008031360044B1B68034A23F48023136000BF1837BD4680BD40F00F4080F00F40C0F00F407C
S32D0001149080B483B000AF78607B689B69002B07DD7B685B695A1C7B685A617B6800229A6100BF0C37BD4680BC4D
S32D000114B8704780B582B000AF78607B685A697B685B689A4205DB7B6800225A617868FFF72DFF00BF0837BD4695
S32D000114E080BD80B582B000AF78607B689B695A1C7B689A617B689A697B689B689A4205D17868FFF7C5FF78687F
S32D00011508FFF7D7FF00BF0837BD4680BD80B588B000AFF860B9607A603B60FB681B78022B03D0FB681B78032B8E
S32D0001153011D17B68FB61BA6AFB691344013BBB61FB68DA68BB68D31A3B613B683A69D31A01337B610DE0BB6890
S32D00011558FB613A68FB691344013BBB617B687B61BA6A7B691344013B3B612A21F868FFF79FFDFB691B0ADBB20A
S32D0001158003F00F03DBB21946F868FFF73BFEFB69DBB21946F868FFF735FEBB691B0ADBB203F00F03DBB219461C
S32D000115A8F868FFF72BFEBB69DBB21946F868FFF725FE2B21F868FFF77BFD7B691B0ADBB203F00F03DBB219466B
S32D000115D0F868FFF717FE7B69DBB21946F868FFF711FE3B691B0ADBB203F00F03DBB21946F868FFF707FE3B6906
S32D000115F8DBB21946F868FFF701FE2C21F868FFF757FD00BF2037BD4680BD80B584B000AFF860B9607A60FB7068
S32D000116207A6813465B0013449B00991CBA6813461B011344DA1CFB78F86800F005F800BF1037BD4680BD000074
S32D0001164880B58EB002AFF860B9607A60FB70FB780A2B06D1F868FFF72CFFF868FFF714FFF2E0FB787D2B02D869
S32D00011670FB781F2B01D82023FB70FB78203BFB70112300930C237A68B968F868FFF742FFFA7813469B00134481
S32D000116986F4AD35C3B75FA7813469B00134401336B4AD35C7B75FA7813469B0013440233674AD35CBB75FA7852
S32D000116C013469B0013440333634AD35CFB75FA7813469B00134404335F4AD35C3B760023BB62BB6A062B00F328
S32D000116E8A180F86800F050F9F86800F0B3F8002387F82F3000237B627B6A042B35DC07F114027B6A13441B781B
S32D0001171003F00103002B14BF01230023FB76FB7E002B11D097F82F3083F00103DBB2002B03D0F86800F0CAF876
S32D0001173802E0F86800F08EF8F86800F08BF80DE097F82F30002B03D0F86800F01DF902E0F86800F07FF8F868AF
S32D0001176000F07CF8FB7E87F82F307B6A01337B62C6E797F82F30002B03D0F86800F008F902E0F86800F06AF82B
S32D00011788F86800F067F8002387F82F3000233B623B6A042B42DC07F114023B6A13441B7803F00103002B14BF3E
S32D000117B001230023BB76BB7E002B11D097F82F3083F00103DBB2002B03D0F86800F07EF802E0F86800F042F82B
S32D000117D8F86800F03FF80DE097F82F30002B03D0F86800F0D1F802E0F86800F033F8F86800F030F8BB7E87F8DC
S32D000118002F3007F114023B6A13441B785B08D9B207F114023B6A13440A461A703B6A01333B62B9E7BB6A01337C
S32D00011828BB625AE7F86800F0AFF8002387F82F300123FB61FB69232B06DCF86800F00AF8FB690133FB61F5E705
S32D000118503037BD4680BD00BF3C0B002080B483B000AF7860174B1B68164A43F480331360154B1B68144A23F0B8
S32D0001187808031360114B1B68104A43F4802313600E4B1B680D4A23F4003313600B4B1B680A4A43F40033136043
S32D000118A0094B1B68084A43F008031360054B1B68044A23F48023136000BF0C37BD4680BC704700BF40F00F40BB
S32D000118C880F00F4080B483B000AF78602B4B1B682A4A43F480331360294B1B68284A23F008031360254B1B688D
S32D000118F0244A43F480231360224B1B68214A23F440731360204B1B681F4A23F47F2323F0F00313601D4B1B6802
S32D000119181C4A23F01D031360184B1A687B685B6A164913430B60164B1A687B689B6A144913430B60134B1A681E
S32D000119407B68DB6A114913430B600E4B1B680D4A23F4003313600B4B1B680A4A43F400331360094B1B68084A12
S32D0001196843F008031360054B1B68044A23F48023136000BF0C37BD4680BC704740F00F4080F00F40C0F00F401C
S32D0001199080B483B000AF78602B4B1B682A4A43F480331360294B1B68284A23F008031360254B1B68244A43F4DE
S32D000119B880231360224B1B68214A23F440731360204B1B681F4A23F47F2323F0F00313601D4B1B681C4A23F065
S32D000119E01D031360184B1A687B681B6B164913430B60164B1A687B685B6B144913430B60134B1A687B689B6B64
S32D00011A08114913430B600E4B1B680D4A23F4003313600B4B1B680A4A43F400331360094B1B68084A43F0080333
S32D00011A301360054B1B68044A23F48023136000BF0C37BD4680BC704740F00F4080F00F40C0F00F4080B485B028
S32D00011A5800AF78607B681B6AFB60FB68FB72FB681B0ABB72FB681B0CDBB203F003037B727B6800225A627B68EF
S32D00011A8000229A627B680022DA627B6800221A637B6800225A637B6800229A637B681A6BFB7A5B0203F40073EE
S32D00011AA81A437B681A637B681A6BFB7A5B101B0203F480731A437B681A637B685A6BFB7A9B101B0103F010035C
S32D00011AD01A437B685A637B685A6BFB7ADB105B0103F020031A437B685A637B685A6BFB7A1B119B0103F0400358
S32D00011AF81A437B685A637B685A6BFB7A5B11DB01DBB21A437B685A637B685A6BFB7A9B111B0303F480531A43C5
S32D00011B207B685A637B685A6B97F90B30DB115BB25B0303F400531A437B685A637B685A6BBB7A9B0303F48043B0
S32D00011B481A437B685A637B685A6BBB7A5B10DB039BB21A437B685A637B685A6BBB7A9B101B0403F480331A4353
S32D00011B707B685A637B685A6BBB7ADB105B0403F400331A437B685A637B685A6BBB7A1B119B0403F480231A43B9
S32D00011B987B685A637B685A6BBB7A5B11DB0403F400231A437B685A637B689A6BBB7A9B1103F001031A437B683F
S32D00011BC09A637B689A6B97F90A30DB115BB29B0003F004031A437B689A637B689A6B7B7ADB0003F008031A4369
S32D00011BE87B689A637B689A6B7B7A5B101B0103F010031A437B689A637B68DB69FB60FB68FB72FB681B0ABB7240
S32D00011C10FB681B0CDBB203F003037B727B685A6AFB7A5B0203F400731A437B685A627B685A6AFB7A5B101B0225
S32D00011C3803F480731A437B685A627B689A6AFB7A9B101B0103F010031A437B689A627B689A6AFB7ADB105B018F
S32D00011C6003F020031A437B689A627B689A6AFB7A1B119B0103F040031A437B689A627B689A6AFB7A5B11DB01C9
S32D00011C88DBB21A437B689A627B689A6AFB7A9B111B0303F480531A437B689A627B689A6A97F90B30DB115BB28D
S32D00011CB05B0303F400531A437B689A627B689A6ABB7A9B0303F480431A437B689A627B689A6ABB7A5B10DB030C
S32D00011CD89BB21A437B689A627B689A6ABB7A9B101B0403F480331A437B689A627B689A6ABB7ADB105B0403F42B
S32D00011D0000331A437B689A627B689A6ABB7A1B119B0403F480231A437B689A627B689A6ABB7A5B11DB0403F42A
S32D00011D2800231A437B689A627B68DA6ABB7A9B1103F001031A437B68DA627B68DA6A97F90A30DB115BB29B002D
S32D00011D5003F004031A437B68DA627B68DA6A7B7ADB0003F008031A437B68DA627B68DA6A7B7A5B101B0103F0E7
S32D00011D7810031A437B68DA6200BF1437BD4680BC7047000080B582B000AF786039607B68012B07D13B684FF657
S32D00011DA0FF72934202D10348FEF780FD00BF0837BD4680BDE819002080B500AF4FF6FF710120FFF7E3FF80BD10
S32D00011DC880B582B000AF7860164B03F580535B6B144A43F0400302F580525363124B4FF400725A62104B4FF44D
S32D00011DF000721A620F4B14225A700E4B1B7ADBB20C4A43F00103DBB213720A4B80229A7002212B20FBF72CFFD6
S32D00011E183D212A20FBF728FF7B6818460837BD4680BD00BF0070044000C004400060064080B582B000AF78600F
S32D00011E4039607B68012B07D13B684FF6FF72934202D10348FFF7B8FF00BF0837BD4680BD301A002080B500AF6E
S32D00011E684FF6FF710120FFF7E3FF80BD80B582B000AF78600B46FB707B68FA7811461846FEF716F87B68184668
S32D00011E900837BD4680BD000080B582B000AF786039607B68012B08D13B684FF6FF72934203D120210348FFF7B1
S32D00011EB8DDFF00BF0837BD4680BD00BF341A002080B500AF4FF6FF710120FFF7E1FF80BD80B483B000AF7860F9
S32D00011EE07B6800221A707B6818460C37BD4680BC7047000080B483B000AF78603960044A3B68136000BF0C37DD
S32D00011F08BD4680BC704700BF381A002080B582B000AF3248FCF7BAF80346FB71304AFB791370304B01221A7000
S32D00011F302F4B1B78022B33D0022B4FDC002B02D0012B14D04AE0FB79FF2B44D1284B01221A70284B00221A70C4
S32D00011F58264B1B785A1CD1B2244A11701946244AFB79535433E0214B1B785A1CD1B21F4A117019461E4AFB7956
S32D00011F8053541C4B1B780D2B27D11C4B1B68194A1278114618489847154B02221A701CE0FB79FF2B10D1124B0E
S32D00011FA801221A70114B00221A70104B1B785A1CD1B20E4A117019460D4AFB79535409E00A4B00221A70084B87
S32D00011FD000221A7002E000BF00E000BF00BF0837BD4680BD00A006404F1A00204E1A00204D1A00204C1A0020B4
S32D00011FF83C1A0020381A002080B582B000AF78607B681846FFF764FF7B6811491846FFF76DFF7B684FF0FF32FA
S32D000120205A600E4B4FF000021A600D4B4FF000021A600C4B4FF000021A600B4B00221A600A4B00221A700A4B56
S32D0001204800221A707B6818460837BD4680BD00BF752001005C1A0020601A0020641A0020681A00206C1A002092
S32D000120706D1A002080B582B000AF78600B46FB70424B1B78002B7DD07B6801331B781B027A680232127813449A
S32D00012098184608F0FBFB03463B49184608F0FEFC03463A49184608F03BFB03461A46384B1A607B6803331B7806
S32D000120C01B027A68043212781344184608F0E2FB03462F49184608F0E5FC03462D49184608F022FB03461A46D5
S32D000120E82C4B1A607B6805331B781B027A68063212781344184608F0C9FB03462249184608F0CCFC0346214973
S32D00012110184608F009FB03461A46214B1A607B6807331B781A067B6808331B781B041A437B6809331B781B02EB
S32D0001213813437A680A32127813431A46174B1A607B68DA7A164B1A707B680C331B78AA2B0CBF01230023DAB29E
S32D00012160124B1A70124B01221A70104B1B78002B08D0104800F052F80F4B1B680E4A23F40053136000BF0837CC
S32D00012188BD4680BD581A0020000020410000C8445C1A0020601A0020641A0020681A00206C1A00206D1A00202C
S32D000121B06E1A0020701A0020C0F00F4080B582B000AF786039607B68012B07D13B684FF6FF72934202D10348F5
S32D000121D8FFF712FF00BF0837BD4680BD501A002080B500AF4FF6FF710120FFF7E3FF80BD80B483B000AF78604C
S32D00012200054B00221A60044B00225A607B6818460C37BD4680BC7047701A002080B584B000AF7860154B1B68A1
S32D00012228002B21D00023FB60124B5B68FA689A4214DA114AFB6852F82330002B0AD00E4AFB6852F8233018468B
S32D00012250FCF767F903461A460A4B1A70FB680133FB60E5E7054B00225A60044B00221A60044B1B781846103728
S32D00012278BD4680BD701A00207C1A0020781A002080B582B000AF786039607B68012B07D13B684FF6FF72934249
S32D000122A002D10348FFF7A8FF00BF0837BD4680BD701A002080B500AF4FF6FF710120FFF7E3FF80BD80B483B036
S32D000122C800AF78600A4B03F580531B6B084A43F0010302F580521363064B5B68054A43F03203536000BF0C3772
S32D000122F0BD4680BC704700BF0070044000000A4000F078BB012838BF012010B50446204609F0F8FE00B110BDC6
S32D0001231801F080F908B18047F5E7042000F0DAFB024B034A0349036001F022F97C2D0200C5290100582D020071
S32D00012340704700BF704700BF08B5042000F0C6FB024B034A0349036001F00EF97C2D0200C5290100582D02008E
S32D0001236810B50446082000F0B5FB2146044601F055FB054A0549204601F0FAF8204600F0C1FB00F0E3FB00BFF8
S32D000123908D380100482F020010B50446082000F09DFB2146044601F07DFB054A0549204601F0E2F8204600F0E2
S32D000123B8A9FB00F0CBFB00BFCD380100542F02000FB4F0B583B000AF07F1200454F8046B30460AF071FF00F25F
S32D000123E0072323F00703ADEB030D6D4600F500712346324628467C6000F06CF8082000F06DFB2946044601F01D
S32D0001240857FB054A0549204601F0B2F8204600F079FB00F09BFB00BF0D390100602F0200F0B59DB000AF0C1A07
S32D0001243006460F496922381D0AF0AEF904F1700323F00703ADEB030D6D466822391D28460AF0A2F922463146B6
S32D0001245805F168002C440AF09BF90023284684F86830FFF77DFF00BF342C02002DE9F84300AF84B06E4606F1E2
S32D000124800C08DFF84890124DC646A5FB0243DB0803EB830CA2EB4C0C1446092C19F80C200EF8012D1A46F0D8AD
S32D000124A8A8EB0E08884509D8C8F10C01424631440AF06EF94046BD46BDE8F8834FF0FF38F8E700BFA02C0200FF
S32D000124D0CDCCCCCC2DE9F041154612784E1E07460644002A44D0B04245D21946044607E02A7804F8012B0135A6
S32D000124F82A78F2B1B4423BD2252AF5D16A78732A1CD07A2A03D0252AEED10135EDE7AB78752BE9D188462046AD
S32D0001252058F8042B311BFFF7A5FF002824DDEA78033504444146002AE0D1E01B00232370BDE8F08151F8042B7B
S32D00012548137853B1A64202D809E0A64208D004F8013B12F8013F002BF7D10235C8E7264631463846FFF75CFF5D
S32D0001257004461046E2E7044621463846FFF754FF016070470068704708307047816070470368416000225A54C1
S32D00012598704700BF0868B0F1804F08B519D2904212D9B0EB420F4FEA42030DD2B3F1804F08D36FF040430B6075
S32D000125C04FF08040BDE80840FFF79CBE0B601846BDE808400130FFF795BE0148FFF7DCFEAC2C020030B583B075
S32D000125E80F290191044615460FD800680B463BB1012B12D01A4629460AF0E0F9019B206863600022C25403B047
S32D0001261030BD002201A9FFF7C1FF019B2060A360E9E70570019B206863600022C25403B030BD00BF521A012AB3
S32D0001263803D002B970470AF0ABB80B78037070472DE9F04F83B04768DDF830B081469A46ABEB02033B440193E3
S32D0001266059F8083B994501EB02060D4614BF82680F2201A90446FFF791FFBF1B80462DB1012D216829D02A468C
S32D000126880AF086F8BAF1000F0BD0BBF1000F08D0BBF1010F08EB050022D051465A460AF077F857B123685D4409
S32D000126B0012F08EB050003EB060111D03A460AF06BF82068814501D000F094F9019BC4F80080A36003B0BDE851
S32D000126D8F08F0B780370D5E79B5D08F80530ECE79AF8003008F80530DBE700BF10B500F1080304460360FFF7C6
S32D0001270071FF204610BD00BF0B4630B500F10804046053F8082B934209D08C68026084604C6844600022C1E927
S32D0001272800320A7230BD8D68D3F804E0D3F808C0DA6842618560C0F80CE0C0F810C0EBE7034610B5044653F845
S32D00012750080B984201D000F04DF9204610BD00BF00680844704700BF2DE9F04F154685B042680E9E1F4605F1B4
S32D000127788043013B9B1A9E4200F2B2800346A6EB050B53F808AB9A4518BF836802EB0B0908BF0F234B4504461D
S32D000127A088463DD36B18BA455144A2EB030302911FD963B1B5420AD00AEB0802012B02EB060002EB050151D0E0
S32D000127C81A460AF07FF836B1012E2BD002983246394609F0DDFF2368C4F804900022204603F8092005B0BDE8B9
S32D000127F0F08F52449742DCD836B3B5421AD23BBB0AEB08031D44BB199D4237D3012E0DD0002EE4D00298324638
S32D0001281839460AF057F8DEE700963B462A46FFF70FFFD8E73B780AF80830D4E7012E44D0324639460AEB0800DB
S32D0001284003930AF043F8039B002BC8D0B542C6D00AEB0802012B02EB060002EB05010AD01A460AF033F8B54249
S32D00012868CAD3B8E7535D9355002EB4D0ACE7535D9355F4E7BD420AD8012E07EB0B0126D0002EA8D002983246F9
S32D0001289009F082FFA3E7ED1B012D18D025B1029839462A460AF012F8029B721B012A03EB050003EB060113D074
S32D000128B8002A90D009F06CFF8DE73A780AF80820002BCCD0BEE73B780AF80830E8E717F80B300AF808307EE7A2
S32D000128E01A469B5D53557AE70148FFF755FD00BF142D020070B5054682B010460C4616460AF0DEFC6B689C42AA
S32D0001290808D800903346002221462846FFF728FF02B070BD024903482246FFF751FD00BFFC2C0200C42C0200A7
S32D00012930F0B54768044650F8085B854218BFA36807EB020608BF0F239E4283B00DD832B1012A05EB070011D0B5
