S01100002E2E2F50726F746575732E73313966
S32D0000C000000000205DC2000011C3000017C300001DC3000023C3000029C3000000000000000000000000000073
S32D0000C028000000002FC3000035C30000000000003BC3000041C300005DE6000069E6000075E6000081E60000AA
S32D0000C0508DE6000099E60000A5E60000B1E60000BDE60000C9E60000D5E60000E1E60000EDE60000F9E6000028
S32D0000C07805E7000011E700001DE7000029E7000035E7000041E700004DE7000059E7000065E7000071E7000046
S32D0000C0A07DE7000089E7000095E70000A1E70000ADE70000B9E70000C5E70000D1E70000DDE70000E9E700006E
S32D0000C0C8F5E7000001E800000DE8000019E8000025E8000031E800003DE8000049E8000055E8000061E800008D
S32D0000C0F06DE800000164010079E8000085E8000091E800009DE80000A9E80000B5E80000C1E80000CDE800000F
S32D0000C118D9E80000E5E80000F1E80000FDE8000009E9000015E9000021E900002DE9000039E9000045E900004D
S32D0000C14051E900005DE9000069E9000075E90000913B010081E900008DE9000099E90000A5E90000B1E900004A
S32D0000C168BDE90000C9E90000D5E90000E1E90000EDE90000F9E9000005EA000011EA00001DEA000029EA00000D
S32D0000C19035EA000041EA00004DEA00008937010051360100ED360100E1E300002938010059EA000065EA0000DB
S32D0000C1B871EA0000C8A8020000000020D0160000C8A802000000FF1F00000000D0160020680700000000FF1F63
S32D0000C1E00000000080B489B000AFF860B9607A60BB68FB61FB68BB6100237B617A697B689A420BD2BA69131DFB
S32D0000C208BB61FB69191DF96112681A607B6904337B61EFE700BF2437BD4680BC704780B485B000AF786039609E
S32D0000C2307B68FB600023BB60BA683B689A4208D2FB681A1DFA6000221A60BB680433BB60F2E700BF1437BD46FE
S32D0000C25880BC704780B586B000AF72B6234B4CF220521A80214B4DF628121A80204B4FF4E9721A801F4B7B615F
S32D0000C2807B691F4A934214D27B691A1D7A611B683B617B691A1D7A611B68FB607B691A1D7A611B68BB60BA68E9
S32D0000C2A8F9683869FFF79AFFE6E77B69134A93420ED27B691A1D7A611B68FB607B691A1D7A611B68BB60B9688B
S32D0000C2D0F868FFF7A8FFECE70B4B7B600B4A7B681A6015F0A5FB62B602F042F901F0A8FAFEE700BF0E200540F9
S32D0000C2F800200540BCC10000D4C10000E4C1000008ED00E000C0000080B400AFFEE780B400AFFEE780B400AFF4
S32D0000C320FEE780B400AFFEE780B400AFFEE780B400AFFEE780B400AFFEE780B400AFFEE780B400AFFEE780B426
S32D0000C34800AFFEE7FFFFFFFFFFFFFFFFFFFFFFFFFFFFFFFFFFFFFFFFFFFFFFFFFFFFFFFFFFFFFFFFFFFFFFFF57
S32D0000C370FFFFFFFFFFFFFFFFFFFFFFFFFFFFFFFFFFFFFFFFFFFFFFFFFFFFFFFFFFFFFFFFFFFFFFFFFFFFFFFFC7
S32D0000C398FFFFFFFFFFFFFFFFFFFFFFFFFFFFFFFFFFFFFFFFFFFFFFFFFFFFFFFFFFFFFFFFFFFFFFFFFFFFFFFF9F
S32D0000C3C0FFFFFFFFFFFFFFFFFFFFFFFFFFFFFFFFFFFFFFFFFFFFFFFFFFFFFFFFFFFFFFFFFFFFFFFFFFFFFFFF77
S32D0000C3E8FFFFFFFFFFFFFFFFFFFFFFFFFFFFFFFFFFFFFFFFFFFFFFFFFFFFFFFFFFFFFFFFFFFFFFFFFEFFFFFF50
S32D0000C44010B5054C237833B9044B13B10448AFF300800123237010BDD01600200000000060A6020008B5034B13
S32D0000C4681BB103490348AFF3008008BD00000000D416002060A6020080B483B000AFC7E900013A68796821F0EF
S32D0000C4900043104619460C37BD4680BC704790B587B000AF786039603B68DB0FFB75FB7D002B02D03B685B42FF
S32D0000C4B800E03B683B610A21386901F0B7FCF860FA7DFB68D41807F1080318460BF01AF907F108032D22214681
S32D0000C4E078680BF0EDFA07F1080318460BF010F9FB7D194678680BF023FB03463A69F968184601F0D5FC00BF0B
S32D0000C50878681C37BD4690BD80B586B002AF786039603A23FB60386813F01AFA02460B467868CDE90023044BE5
S32D0000C5303A22044901F012FD78681037BD4680BD008202009948020080B588B002AFF860C7E900234FF4A473C3
S32D0000C5587B61F868D7E90023CDE90023044B4FF4A472044901F0F6FCF8681837BD4680BD00820200994802008F
S32D0000C58080B588B000AFF860C7E900230B46FB72FB684FF000020021184602F071FAFB6808330021184606F0F5
S32D0000C5A8DDFED7E9000113F023FD0246F97A07F11403184602F060FAFB681A4607F11403186810609B8893803A
S32D0000C5D097F8302007F11C031146184606F0C2FEFB683A7F1A72F968D7E90A23C1E90C23F86800F005F8FB685D
S32D0000C5F818462037BD4680BD80B582B000AF786079684FF000024FF00003C1E9042379684FF000024FF0000399
S32D0000C620C1E9082379684FF000024FF00003C1E906237B6800229A627B680833184607F051F900BF0837BD4621
S32D0000C64880BD90B585B000AFF860C7E90023FC68D7E9000113F0CCFC03461946204602F08BFAF86800F0BCF8BA
S32D0000C6700246FB689A6200BF1437BD4690BD00002DE9B0438CB000AFF860C7E900234AA3D3E90023C7E90A23D3
S32D0000C69849A3D3E90023C7E9082349A3D3E90023C7E90623D7E91201FFF7E6FE80468946FB68D3E90C45F86818
S32D0000C6C000F092F80246FB689B6AD31A184613F031F902460B462046294613F095F902460B4610461946D7E99D
S32D0000C6E8002313F0B7FA02460B464046494612F0CFFF02460B46C7E90423FB68D3E90401D7E9042312F0C6FF8D
S32D0000C71002460B46F968C1E90423FB68D3E9084525A3D3E90023D7E9040113F06DF902460B4690469946FB683E
S32D0000C738D3E9040120A3D3E9002313F061F902460B464046494612F0A5FF02460B4690469946FB68D3E9062329
S32D0000C760D7E9040112F098FF02460B461046194615A3D3E9002313F047F902460B464046494612F08BFF0246A3
S32D0000C7880B462046294612F085FF02460B46F968C1E90823F968D7E90423C1E90623FB68D3E9082310461946EE
S32D0000C7B03037BD46BDE8B083CDCCCCCCCCCCEC3F0AD7A3703D0AB73F333333333333D33F80B582B000AF7860C2
S32D0000C7D87B68184602F08EF900BF0837BD4680BD80B582B000AF78607B680833184607F063F803461846083799
S32D0000C800BD4680BD80B483B000AF7860002318460C37BD4680BC704790B589B000AFF8607A603B600B46FB726A
S32D0000C828FB680021184607F05DFBFA7A07F114031146184607F056FBFB681C4607F1140393E8070084E8070068
S32D0000C850FB687968184607F065FBFB683968184607F07DFBF9684FF000024FF00003C1E90423FB68184624371F
S32D0000C878BD4690BD90B585B000AFF860C7E90023FC68D7E9000113F0B3FB03461946204607F07EFBF968D7E979
S32D0000C8A00023C1E9042300BF1437BD4690BD0000B0B588B000AFF860B960C7E90023B86813F038F8FB68D3E91A
S32D0000C8C8042312F0E5FE02460B4610461946D7E9002313F0BFF902460B46C7E9042306F0F3FCC7E90601B8681E
S32D0000C8F013F020F8FB68D3E9042312F0CDFE02460B461046194613F02FFB0346002BB8BF5B42012B25DDFB6858
S32D0000C918D3E9044506F0D8FCD7E9062312F0B8FE02460B4610461946D7E9042313F068F802460B46204629467B
S32D0000C94012F0ACFE02460B46F868FFF797FF06F0BFFCC7E9060106A1D1E9000106F092FCC5E700BF2037BD4685
S32D0000C968B0BD00BFAFF300809A9999999999A93FB0B592B002AFC7E90201C7E9002388A3D3E90023C7E90C230D
S32D0000C99001231C464FF000024FF00003D7E9020113F0C2FA0346002B01D100231C46E3B21C4601231D464FF066
S32D0000C9B800024FF00003D7E9020113F093FA0346002B01D100231D46EBB2E31AFB6201231C464FF000024FF0F1
S32D0000C9E00003D7E9000113F09FFA0346002B01D100231C46E3B21C4601231D464FF000024FF00003D7E900013C
S32D0000CA0813F070FA0346002B01D100231D46EBB2E31ABB62D7E90201FFF72EFD04460D46D7E90001FFF728FDB3
S32D0000CA3002460B462046294612F030FE02460B46104619465AA3D3E9002312F0DDFF02460B46C7E90823D7E9FE
S32D0000CA581423D7E9020113F0FDF802460B46C7E90623D7E91423D7E9000113F0F3F802460B46C7E9042306F040
S32D0000CA8027FCC7E90E014C48FFF7BAFD4B48FFF7B7FDD7E90C0106F0F5FB4848FFF7A4FE04464548FFF7A0FEE2
S32D0000CAA803462344184612F041FF02460B4601210C46D7E9080113F033FA0346002B01D100231C46E3B2002B7F
S32D0000CAD060D0F86A12F02EFF04460D4606F0F8FBD7E90E2312F0D8FD02460B4610461946D7E90623CDE9002319
S32D0000CAF802460B462E48FFF7BFFD02460B462046294612F07DFF02460B462948FFF799FDB86A12F00BFF044655
S32D0000CB200D4606F0D5FBD7E90E2312F0B5FD02460B4610461946D7E90423CDE9002302460B461E48FFF79CFD8D
S32D0000CB4802460B462046294612F05AFF02460B461848FFF776FD06F0B7FBC7E90E01D7E90C0106F08BFB12488A
S32D0000CB70FFF748FE0346002B07D01048FFF742FE0346002B01D0012300E00023002B00D183E700BF0848FFF7AB
S32D0000CB981BFE0848FFF718FE00BF4037BD46B0BD333333333333C33FABAAAAAAAA2A4440F0160020281700209A
S32D0000CBC090B59FB002AFC7E90201C7E90023D7E90023D7E9020113F041F802460B46CDE90023D7E90223D7E983
S32D0000CBE80201FFF7C5FE07F14001D7E902230846FFF7A6FC07F1280307F140022149184601F0DFF907F1100366
S32D0000CC1007F128011E4A184601F0EFF907F1280318460AF077FF07F1400318460AF072FF07F1100318460BF0DD
S32D0000CC38CBF803461946154807F0ECFF144B1C6807F1580307F11001124A184601F0E8F907F1580318460BF0AD
S32D0000CC60B7F803461A4621460D480AF055FC07F1580318460AF04EFF07F1100318460AF049FF00BF7437BD4637
S32D0000CC8890BD00BF048202000C820200801A00209017002010820200081B002000000000B0B59AB002AFF8604A
S32D0000CCB0C7E90023F86812F03DFE4FF00002324B12F0CCFF02460B46104619462CA3D3E9002312F099FE02467E
S32D0000CCD80B46104619464FF000022A4B12F090FE02460B46C7E91623BC6DFB6D83F00045D7E90023D7E916015D
S32D0000CD0012F0ACFF02460B46CDE90023D7E9162320462946FFF730FE07F14003F9681846FFF7BDFB07F1280329
S32D0000CD2807F140021849184601F04BF907F1100307F12801154A184601F05BF907F1280318460AF0E3FE07F12D
S32D0000CD50400318460AF0DEFE07F1100318460BF037F8034619460C4807F058FF07F1100318460AF0CFFE00BF72
S32D0000CD786037BD46B0BD00BFD4F19881CAC63640008076400000E83F148202001C820200801A00200000000094
S32D0000CDA080B582B000AFC7E900010FA3D3E90023D7E9000113F09AF80346002B02D04FF47F030DE04FF000027E
S32D0000CDC84FF08043D7E9000113F08CF80346002B01D0FF2300E0002318460837BD4680BD9A9999999999E13FF5
S32D0000CDF0B0B5A8B002AF344B07F140041D460FCD0FC40FCD0FC40FCD0FC495E80F0084E80F002E4B3C461D4617
S32D0000CE180FCD0FC40FCD0FC40FCD0FC495E80F0084E80F0024A3D3E90023C7E924230023C7F88C30D7F88C3012
S32D0000CE40072B34DCD7F88C30DB0098333B44583BD3E90001D7F88C30DB0098333B44983BD3E900234FF00004DD
S32D0000CE68194DCDE90045FFF783FD184806F058FD0346184612F06CFD02460B46C7E92023D7E92423D7E9200194
S32D0000CE9013F02CF80346002B03D0D7E92023C7E92423D7F88C300133C7F88C30C6E7D7E924231046194698379A
S32D0000CEB8BD46B0BDAFF300806666666666660A4028820200688202000000D03FEC16002090B58BB000AFC7E964
S32D0000CEE00201C7E9002346480AF006F90346012214464FF00001184613F07AFB0346002B01D100231C46E3B28B
S32D0000CF08002B00D0EBE73C480AF0D6F80346184612F01EFD02460B46D7E9020112F0B8FB02460B46C7E9082399
S32D0000CF3033480AF0D3F80346184612F00DFD02460B46D7E9000112F0A7FB02460B46C7E90623D7E90823D7E9C5
S32D0000CF58060112F07FFE02460B461046194612F00BF923A3D3E9002312F04AFD02460B46C7E904234FF0000232
S32D0000CF804FF00003D7E9080112F0B0FF0346002B0ED04FF000021B4BD7E9040112F07EFB02460B461046194640
S32D0000CFA812F0DEFF03461EE04FF000024FF00003D7E9040112F0AAFF0346002B05D0D7E9040112F0CDFF03461D
S32D0000CFD00DE04FF000020C4BD7E9040112F05EFB02460B461046194612F0BEFF034618462C37BD4690BD00BF68
S32D0000CFF8E8C35CB0DDA54C40E81A002000806640008076400000000080B582B000AF0346FB71FB79012B03D189
S32D0000D0204FF00002144B02E04FF00002134B1448FFF70BFBFB79002B03D14FF000020E4B02E04FF000020D4BE1
S32D0000D0480E48FFF7FEFA08A1D1E9000106F016F90948FFF7B9FB0948FFF7B6FB00BF0837BD4680BDAFF30080BA
S32D0000D070EC51B81E85EBB13F00003440000034C0F01600202817002080B500AF4FF000020D4B0E48FFF7D9FA96
S32D0000D0984FF000020A4B0C48FFF7D3FA06A1D1E9000106F0EBF80748FFF78EFB0648FFF78BFB00BF80BD00BF2F
S32D0000D0C0EC51B81E85EBB13F00003440F0160020281700200000000080B500AF4FF000020D4B0E48FFF7B1FA62
S32D0000D0E84FF000020A4B0C48FFF7ABFA06A1D1E9000106F0C3F80748FFF766FB0648FFF763FB00BF80BD00BF7F
S32D0000D110EC51B81E85EBB13F000034C0F01600202817002080B483B000AF78607B68002B02DB7B68B42B07DD86
S32D0000D1387B6813F1B30F05DA7B6813F5B47F01DB012300E0002318460C37BD4680BC704780B586B000AF786097
S32D0000D16039603A687B68D31A3B613B69002BB8BF5B42144A82FB03121A441112DA178A1A4FF4B47101FB02F2B9
S32D0000D1889B1AFB60FB68B42B03DDFB68C3F5B47300E0FB687B613869FFF7C0FF0346012B0CBF01230023DBB27C
S32D0000D1B0002B02D07B695B427B617B6918461837BD4680BDB7600BB690B58FB000AF7860404809F091FF0446E8
S32D0000D1D87B68023B184613F015F803461946204613F002FA0346002B10D1384809F080FF04467B680233184681
S32D0000D20013F004F803461946204613F00FFA0346002B01D0012300E00023002B30D0786812F0F4FF04462B48BE
S32D0000D22809F066FF03461946204612F035FF0346184613F001FA03461846FFF76FFF03461846FFF7E1FE4FF0CB
S32D0000D2500000214906F016F81E4809F04DFF0346012214464FF00001184613F0C1F90346002B01D100231C46AB
S32D0000D278E3B2002BA8D0EBE7144809F039FF024607F1200311461846FFF73EF907F1080307F120020F491846D9
S32D0000D2A000F093FE07F1200318460AF033FC07F1080318460AF08CFD03461946084807F0ADFC07F10803184660
S32D0000D2C80AF024FC00BF3C37BD4690BDE81A00200000E03FA8820200801A0020B0B590B000AFC7E90201134615
S32D0000D2F0FB71574809F0F2FE0346184612F02CFB04460D464FF00002524BD7E9020112F0C3F902460B46204651
S32D0000D318294612F0E7FD0346002B18D14A4809F0D9FE0346184612F013FB04460D464FF00002464BD7E90201EA
S32D0000D34012F0ACF902460B462046294612F0ECFD0346002B01D0012300E00023002B4CD0FB79002B0FD03A480C
S32D0000D36809F0B8FE0346184612F0F2FA02460B46D7E9020112F0B6FD0346002B15D1FB7983F00103DBB2002B45
S32D0000D39011D02F4809F0A2FE0346184612F0DCFA02460B46D7E9020112F0BEFD0346002B01D0012300E000237A
S32D0000D3B8002B02D0FFF764FE01E0FFF789FE4FF00000234905F05AFF1F4809F091FE0346012214464FF00001A6
S32D0000D3E0184613F005F90346002B01D100231C46E3B2002B3FF47DAFEAE7154809F06EFE024607F12803114681
S32D0000D4081846FFF781F807F1100307F128021149184600F0D6FD07F1280318460AF076FB07F1100318460AF032
S32D0000D430CFFC034619460A4807F0F0FB07F1100318460AF067FB00BF4037BD46B0BD00BFE81A00200000D03FCC
S32D0000D4580000E03FB4820200801A002080B586B000AFF860B9607A603B607A68FB68D31A7B613A68BB68D31AD5
S32D0000D4803B617B6903FB03F23B6903FB03F31344184600F0DCFD02460B46104619461837BD4680BD90B585B09E
S32D0000D4A800AFF860C7E90023164809F021FE0346012214464FF00001184613F095F80346002B01D100231C4647
S32D0000D4D0E3B2002B00D0EBE70C4809F00DFE0346184613F0ADF80346F9681846FFF734FE0146D7E9002308467D
S32D0000D4F8FFF7D6FBF868FFF763FE00BF1437BD4690BD00BFE81A0020F0B5ADB000AFC7E90201C7E9002397F887
S32D0000D520D030184612F006FA9BA3D3E9002312F06BFA02460B464FF00000994912F0ACF802460B46C7E9282305
S32D0000D548D7E90023D7E90201FFF7C2FC0146D7E932230846FFF7A2FF904809F0ADFD0346012214464FF0000199
S32D0000D570184613F03DF80346002B01D100231C46E3B2002B00D0EBE7864809F099FD0346184613F055F804462C
S32D0000D598824809F09FFD0346184613F04DF80546D7E9020112F0DCFC0646D7E9000112F0D7FC0346324629461D
S32D0000D5C02046FFF74FFFC7E92A014FF00002764BD7E9280112F018FA02460B46D7E92A0112F0A2FC0346002B21
S32D0000D5E853D0D7E90023D7E90201FFF771FC03461846FFF7E5FD4FF000026A4BD7E9280112F0FEF902460B46F9
S32D0000D61010461946D7E93223FFF7D2FA4FF00000634905F02FFE5F4809F04AFD0346012214464FF00001184608
S32D0000D63812F0DAFF0346002B01D100231C46E3B2002B00D0EBE7554809F036FD0346184612F0F2FF0446514876
S32D0000D66009F03CFD0346184612F0EAFF0546D7E9020112F079FC0646D7E9000112F074FC03463246294620463E
S32D0000D688FFF7ECFEC7E92A019BE7D7E90023D7E90201FFF71DFC03461846FFF791FDD7E93223D7E92A01FFF761
S32D0000D6B087FA4FF000003E4905F0E4FD394809F0FFFC024607F1580311461846FEF720FF07F1400307F15802C9
S32D0000D6D83649184600F075FC07F1280307F14001334A184600F085FC2C4809F0F3FC024607F17003114618467A
S32D0000D700FEF706FF07F1100307F1700207F12801184600F0BAFC07F1700318460AF0FAF907F1280318460AF036
S32D0000D728F5F907F1400318460AF0F0F907F1580318460AF0EBF907F1100318460AF044FB034619461B4807F036
S32D0000D75065FA1B4B1C6807F1880307F11001194A184600F061FC07F1880318460AF030FB03461A462146144856
S32D0000D77809F0CEFE07F1880318460AF0C7F907F1100318460AF0C2F900BFB437BD46F0BDC3F5285C8FC2D53F0A
S32D0000D7A00000F03FE81A002000002E4000001C400000E03FC4820200D0820200801A0020901700201082020070
S32D0000D7C8081B002080B582B000AF4FF00002164B1648FEF736FF4FF00002134B1448FEF730FF00237B604FF054
S32D0000D7F00000124905F046FD0E48FEF7F5FF02467B68D31A0A2BCCBF01230023DBB2002B09D00848FEF7E8FF5D
S32D0000D81878604FF00000074905F030FDE8E700BF0837BD4680BD00BF00003940F0160020281700200000D03F80
S32D0000D84080B588B004AF424A4249434809F04CFD0346424A13603CA3D3E900234048FFF70DF800213F4806F08F
S32D0000D868A0FF6FF07F413D4806F0F7FF3B4807F037FB3B49394807F0CDF93A1D07F108031946364807F060F86F
S32D0000D890034683F00103DBB2002B00D0F1E73A1D07F1080319462F4807F052F80346002B00D0F4E74FF0000279
S32D0000D8B82C4B2D48FEF7DEFF4FF000002B4905F0DDFC2B4809F09EF94FF00002294B2248FEF7D0FF214807F0BD
S32D0000D8E003FB27491F4807F099F93A1D07F1080319461C4807F02CF8034683F00103DBB2002B00D0F1E73A1D0D
S32D0000D90807F108031946154807F01EF80346002B00D0F4E7194806F003F80346184612F017F802460B4610460D
S32D0000D9301946FFF735FA0346002B0CBF01230023DBB2002B20D0E9E70000000000C06240D4820200D882020031
S32D0000D958081B00209017002060170020801A0020E082020000406540781700200000F03FE81A002000806540D8
S32D0000D980F4820200EC160020B3A3D3E90023C448FEF774FF002302934FF00002C14BCDE900234FF00002C04B0C
S32D0000D9A84FF00000BF49FFF7AFFD4FF00000BE4905F064FC4FF00002B84B5A20FFF76EFD4FF00002B54B4FF02E
S32D0000D9D00000B849FFF7F4F84FF00000B44905F051FC00229EA1D1E90001FFF77BFC4FF00002B14B2321AA48CC
S32D0000D9F8FEF75AFF002302934FF00002A74BCDE900234FF00002AB4B4FF00000AA49FFF77BFD4FF00000A449EC
S32D0000DA2005F030FC4FF000029E4B5A20FFF73AFDA44809F045FB0346184611F08DFF002302934FF00002974BB2
S32D0000DA48CDE9002386A3D3E90023FFF75DFD4FF00000954905F012FC7DA3D3E900238E48FEF708FF4FF000024D
S32D0000DA708C4B4FF000009449FFF7A2F84FF000008B4905F0FFFB012302934FF00002854BCDE9002376A3D3E98B
S32D0000DA9800234FF000008B49FFF736FD4FF00000814905F0EBFB4FF000027C4BB420FFF7F5FC4FF00002844B4A
S32D0000DAC08448FEF7DBFE4FF00000834905F0DAFB4FF00002814B7F48FEF7D0FE002302934FF000026F4BCDE9C9
S32D0000DAE8002363A3D3E9002363A1D1E90001FFF70BFD4FF000006C4905F0C0FBFFF774F902460B4610461946F6
S32D0000DB10FFF746F9F8604FF00002624B8720FFF7C1FC4FF000025F4B4FF000006C49FFF747F84FF000005E4918
S32D0000DB3805F0A4FBFB68B3F57F0F0FD1002302934FF00002554BCDE900234DA3D3E900234FF000006149FFF792
S32D0000DB60D7FC0EE0002302934FF000024D4BCDE900234FF000025C4B45A1D1E90001FFF7C7FC4FF00002474B57
S32D0000DB885A20FFF78BFCFFF71DFE4FF00000464905F074FB4FF00002404B4FF000005149FFF70AF84FF0000059
S32D0000DBB03F4905F067FB002302934FF00002394BCDE900234FF00002494B4FF000004949FFF79EFC4FF000009D
S32D0000DBD8354905F053FB4FF00002304B4FF48770FFF75CFC4FF000022C4B4FF000002C49FEF7E2FF4FF0000099
S32D0000DC002B4905F03FFB01224FF000003A49FFF769FB4FF00000264905F034FB294809F015FA0346002B02D083
S32D0000DC28012B69D07CE0002302934FF000021B4BCDE900234FF000022E4B15A1D1E90001FFF762FC4FF495700E
S32D0000DC50FFF7BAFA7CE000BF0000000000C06240CDCCCCCCCC4C44400000000000E04640CDCCCCCCCC4C46407D
S32D0000DC783333333333B34E4033333333333329406666666666664D409A999999999931406666666666661C40EA
S32D0000DCA0601700200000244000003240000040400000D03F000036400000E03F0000464000803D40E81A002020
S32D0000DCC8000008C00080324000805140781700200000F03F0040654000002EC00080374000404D40000014C01A
S32D0000DCF000804640000014400000394000003740002302934FF00002434BCDE900234FF00002424B34A1D1E9FF
S32D0000DD180001FFF7F9FB40F21510FFF751FA13E0002302934FF00002394BCDE900232EA3D3E900232EA1D1E9D8
S32D0000DD400001FFF7E5FB40F20110FFF73DFA00BF4FF00002324B3348FEF790FD4FF00000314905F08FFA4FF07E
S32D0000DD680000304905F08AFA23A3D3E900232B48FEF780FD4FF00000294905F07FFA002302934FF00002224B8C
S32D0000DD90CDE900231CA3D3E900231DA1D1E90001FFF7B6FB4FF000001F4905F06BFA002302934FF00002184B71
S32D0000DDB8CDE900234FF000024FF000034FF000001949FFF7A1FB4FF00000154905F056FA002318461037BD4601
S32D0000DDE080BD00BFAFF300803333333333331B40CDCCCCCCCC4C3840CDCCCCCCCCCC1C400000000000C0624022
S32D0000DE083333333333B336406666666666663140000024400080384000804140601700200000D03F0000144098
S32D0000DE300000424080B487B000AF7860396001237B613B6803FB03F33B613A683B6902FB03F3FB603A68FB68EB
S32D0000DE5802FB03F3BB603B687A689A4201D27B691DE07A683B699A4202D27B69013316E07A68FB689A4202D240
S32D0000DE807B6902330FE07A68BB689A4202D27B69033308E07A68BB68B2FBF3F37B607B6904337B61DBE718462B
S32D0000DEA81C37BD4680BC704780B489B000AFF860B9607A60BB68013BFB617B68632B25D97A68224BA3FB021370
S32D0000DED05B09642101FB03F3D31A5B00BB617B681C4AA2FB03235B097B60BB695A1CF968FB690B4418498A5CA5
S32D0000DEF81A70FB69013BFA6813441549BA690A4412781A70FB69023BFB61D6E77B68092B10D97B685B007B6162
S32D0000DF207B695A1CFB6801330B498A5C1A700A4A7B6913441A78FB681A7005E07B68DBB23033DAB2FB681A70DF
S32D0000DF4800BF2437BD4680BC704700BF1F85EB513083020008B490B588B000AFF860B9607A607B680733DB0814
S32D0000DF70DB00ADEB030D6B460733DB08DB00FB6107F130033B61BC683B69FA6A7968F869A047B861BB69FA693F
S32D0000DF98D41807F11403184609F0B4FB07F114032246F969F86800F0E7F807F11403184609F0AAFBF868203790
S32D0000DFC0BD46BDE8904001B0704780B584B000AFF860B9607A60BA680021786809F092FE0346184600F0E7F8CE
S32D0000DFE803461946F86809F071FDF8681037BD4680BD80B584B000AFF860B9607A607968B86809F0C9FE034648
S32D0000E010184600F0D0F803461946F86809F05AFDF8681037BD4680BD80B584B000AFF860B9607A60B968F868A9
S32D0000E03809F0D0FE7968F86809F0AEFE00BFF8681037BD4680BD80B582B000AF7860786811F06CFC02460B4697
S32D0000E0601046194611F026FA02460B46104619460837BD4680BD80B483B000AF7860012318460C37BD4680BCFD
S32D0000E088704790B58BB000AFF860B9607A60002387F8273007F114031846FFF7E8FF0346002B03D0012387F80C
S32D0000E0B0273024E007F11803B968184609F08AFE07F11C037968184609F084FE07F11C0207F118031146184625
S32D0000E0D800F077F803461C4607F11C03184609F013FB07F11803184609F00EFB002C02D0012387F8273097F89A
S32D0000E1002730002B2BD0B86809F010FD0446786809F00CFD034623443B62B86809F008FD02463B6A934208D914
S32D0000E128786809F001FD02463B6A934201D8012300E00023002B0ED0BA680021786809F0C5FD0346184600F0B2
S32D0000E15032F803461946F86809F0BCFC0CE07968B86809F017FE0346184600F024F803461946F86809F0AEFC65
S32D0000E178F8682C37BD4690BD90B585B000AFF860B9607A603B60FC68F86809F0DFFB03463A681946204609F017
S32D0000E1A01BFE7A68B968F86800F01AF8FB6818461437BD4690BD80B483B000AF78607B6818460C37BD4680BCC6
S32D0000E1C8704780B483B000AF78603960012318460C37BD4680BC704780B584B000AFF860B9607A607A68B968CA
S32D0000E1F0F86800F004F800BF1037BD4680BD90B587B000AFF860B9607A603B7023467A68B968F86800F004F896
S32D0000E21800BF1C37BD4690BD80B586B000AFF860B9607A603B70B86800F03EF80346002B05D0BA687B689A42F6
S32D0000E24001D0012300E00023002B02D0174809F071FA7968B86800F03AF803467B617B690F2B10D907F114039A
S32D0000E26800221946F86809F07BFB03461946F86809F068FB7B691946F86809F069FBF86809F062FB03467A68F3
S32D0000E290B968184609F0B4FB7B691946F86809F05DFB00BF1837BD4680BD00BF0483020080B483B000AF7860C1
S32D0000E2B87B68002B0CBF01230023DBB218460C37BD4680BC7047B0B582B000AF786039607C683B1D184600F0B3
S32D0000E2E00AF82A463968204600F00FF8034618460837BD46B0BD80B483B000AF786000BF18460C37BD4680BCBD
S32D0000E308704780B485B000AFF860B9603A71BA68FB68D31A18461437BD4680BC7047000080B586B004AF7860F5
S32D0000E33039607B68012B34D13B684FF6FF7293422FD11F211C4805F0DFFA0023029318A3D3E90023CDE9002347
S32D0000E3584FF00002174B03211748FEF70DF90723029311A3D3E90023CDE900234FF00002104B00211148FEF740
S32D0000E380FFF840F61C134FF42D7200210E48FEF743FA40F66F134FF4FA7201210B48FEF73BFA00BF0837BD4681
S32D0000E3A880BD00BFAFF30080D8EAD9217063993FEC16002000002240F016002028170020601700207817002073
S32D0000E3D080B500AF4FF6FF710120FFF7A5FF80BD80B500AF0F4BD3F8A03003F48053002B14BF01230023DBB219
S32D0000E3F8002B10D0094BD3F8A030084A23F48053C2F8A030064809F04DF8064B1B68054A23F40053136000BFEC
S32D0000E42080BD00BF00C00440081B0020C0F00F4080B400AF124B4FF480725A63114B5B69104A43F400535361A2
S32D0000E4480E4B1B680D4A43F4005313600A4B0C4A1A630C4BD3F888310A4A43F08063C2F88831084B9B68074AEF
S32D0000E47043F08063936000BFBD4680BC704700BF00C00440C0F00F4003010A0000E100E080B400AF334B0022AC
S32D0000E4985A70324B98221A70304B9B79DBB203F01003002B14BF01230023DBB2002B00D0F2E72A4B9B79DBB2ED
S32D0000E4C09B08DBB203F00303022B14BF01230023DBB2002B00D0F0E7224B18221A71214B00225A71204B03F571
S32D0000E4E880531A461F4B53641C4B54225A711B4B9B79DBB203F02003002B0CBF01230023DBB2002B00D0F2E74F
S32D0000E510144B9B79DBB203F04003002B0CBF01230023DBB2002B00D0F2E70E4B1B78DBB20C4A03F03F03DBB278
S32D0000E53813700A4B9B79DBB29B08DBB203F00303032B14BF01230023DBB2002B00D0F0E700231846BD4680BCAC
S32D0000E560704700BF00400640007004400000130180B500AF314B03F580539B6B2F4A43F4785302F5805293635E
S32D0000E588FFF752FFFFF780FF2B4B58221A602A4B1B684FF47A7202FB03F3284A1360274B1B681A46234B03F585
S32D0000E5B080535B6C1B0E03F00F030133B2FBF3F31A46214B1A601D4B03F58053DB6B1B4A43F0225302F5805219
S32D0000E5D8D363184B03F580531B6B164A43F0006302F580521363174B4FF480721A61642004F01AFD134B5B6933
S32D0000E600124A23F010035361104B00221A600F4B10225A610E4805F06BFF05F06DFA05F0CBFA0C4804F066FD02
S32D0000E6280B4809F031F84FF4FA6004F011FE00BF80BD00BF00700440CC190020C8190020D019002000D003401E
S32D0000E650801A0020C4190020B41D002080B500AFFDF771FE00BF80BD80B500AFFDF76BFE00BF80BD80B500AF90
S32D0000E678FDF765FE00BF80BD80B500AFFDF75FFE00BF80BD80B500AFFDF759FE00BF80BD80B500AFFDF753FE9C
S32D0000E6A000BF80BD80B500AFFDF74DFE00BF80BD80B500AFFDF747FE00BF80BD80B500AFFDF741FE00BF80BD05
S32D0000E6C880B500AFFDF73BFE00BF80BD80B500AFFDF735FE00BF80BD80B500AFFDF72FFE00BF80BD80B500AF2B
S32D0000E6F0FDF729FE00BF80BD80B500AFFDF723FE00BF80BD80B500AFFDF71DFE00BF80BD80B500AFFDF717FE14
S32D0000E71800BF80BD80B500AFFDF711FE00BF80BD80B500AFFDF70BFE00BF80BD80B500AFFDF705FE00BF80BD40
S32D0000E74080B500AFFDF7FFFD00BF80BD80B500AFFDF7F9FD00BF80BD80B500AFFDF7F3FD00BF80BD80B500AF69
S32D0000E768FDF7EDFD00BF80BD80B500AFFDF7E7FD00BF80BD80B500AFFDF7E1FD00BF80BD80B500AFFDF7DBFD8F
S32D0000E79000BF80BD80B500AFFDF7D5FD00BF80BD80B500AFFDF7CFFD00BF80BD80B500AFFDF7C9FD00BF80BD7F
S32D0000E7B880B500AFFDF7C3FD00BF80BD80B500AFFDF7BDFD00BF80BD80B500AFFDF7B7FD00BF80BD80B500AFA5
S32D0000E7E0FDF7B1FD00BF80BD80B500AFFDF7ABFD00BF80BD80B500AFFDF7A5FD00BF80BD80B500AFFDF79FFD07
S32D0000E80800BF80BD80B500AFFDF799FD00BF80BD80B500AFFDF793FD00BF80BD80B500AFFDF78DFD00BF80BDBA
S32D0000E83080B500AFFDF787FD00BF80BD80B500AFFDF781FD00BF80BD80B500AFFDF77BFD00BF80BD80B500AFE0
S32D0000E858FDF775FD00BF80BD80B500AFFDF76FFD00BF80BD80B500AFFDF769FD00BF80BD80B500AFFDF763FD7E
S32D0000E88000BF80BD80B500AFFDF75DFD00BF80BD80B500AFFDF757FD00BF80BD80B500AFFDF751FD00BF80BDF6
S32D0000E8A880B500AFFDF74BFD00BF80BD80B500AFFDF745FD00BF80BD80B500AFFDF73FFD00BF80BD80B500AF1C
S32D0000E8D0FDF739FD00BF80BD80B500AFFDF733FD00BF80BD80B500AFFDF72DFD00BF80BD80B500AFFDF727FDF6
S32D0000E8F800BF80BD80B500AFFDF721FD00BF80BD80B500AFFDF71BFD00BF80BD80B500AFFDF715FD00BF80BD32
S32D0000E92080B500AFFDF70FFD00BF80BD80B500AFFDF709FD00BF80BD80B500AFFDF703FD00BF80BD80B500AF57
S32D0000E948FDF7FDFC00BF80BD80B500AFFDF7F7FC00BF80BD80B500AFFDF7F1FC00BF80BD80B500AFFDF7EBFC71
S32D0000E97000BF80BD80B500AFFDF7E5FC00BF80BD80B500AFFDF7DFFC00BF80BD80B500AFFDF7D9FC00BF80BD70
S32D0000E99880B500AFFDF7D3FC00BF80BD80B500AFFDF7CDFC00BF80BD80B500AFFDF7C7FC00BF80BD80B500AF96
S32D0000E9C0FDF7C1FC00BF80BD80B500AFFDF7BBFC00BF80BD80B500AFFDF7B5FC00BF80BD80B500AFFDF7AFFCE9
S32D0000E9E800BF80BD80B500AFFDF7A9FC00BF80BD80B500AFFDF7A3FC00BF80BD80B500AFFDF79DFC00BF80BDAC
S32D0000EA1080B500AFFDF797FC00BF80BD80B500AFFDF791FC00BF80BD80B500AFFDF78BFC00BF80BD80B500AFD1
S32D0000EA38FDF785FC00BF80BD80B500AFFDF77FFC00BF80BD80B500AFFDF779FC00BF80BD80B500AFFDF773FC60
S32D0000EA6000BF80BD80B500AFFDF76DFC00BF80BD80B500AFFDF767FC00BF80BD0000000080B584B000AFF860A8
S32D0000EA880B467A60FB72FB68FA7A1A71FB6800225A711749786811F0C5FD0346002B02D0134B7B600AE04FF06B
S32D0000EAB07E51786811F0A6FD0346002B02D04FF07E537B60786810F047FF09A3D3E9002310F09AFF02460B46D1
S32D0000EAD81046194611F08CFA0246FB681A60FB6818461037BD4680BDABAAAAAAAAAA20400000404180B582B022
S32D0000EB0000AF78607B685B79002B09D07B6800225A717B6819791E230022034804F024FB00BF0837BD4680BD61
S32D0000EB28C419002080B584B000AF786039603B687F2B02DD7F23FB7308E03B6813F1800F02DA8023FB7301E011
S32D0000EB503B68FB737B685B79FA7B9A4209D07B68FA7B5A717B681979FA7B1E23034804F0FBFA00BF1037BD461A
S32D0000EB7880BD00BFC4190020B0B584B000AF786039603749386811F02FFD0346002B02D0334B3B6008E03349AD
S32D0000EBA0386811F043FD0346002B01D02F4B3B60386810F0D1FE04460D467B681B68184610F0CAFE4FF0000233
S32D0000EBC8294B11F047F802460B462046294610F017FF02460B461046194611F009FA03463B604FF000013868D1
S32D0000EBF011F012FD0346002B10D0386810F0ACFE17A3D3E9002310F0FFFE02460B461046194611F0A9F9034679
S32D0000EC18FB6018E0386810F09BFE4FF00002134B10F0EEFE02460B46104619464FF000020D4B11F00FF8024680
S32D0000EC400B461046194611F08FF90346FB60F9687868FFF76BFF00BF1037BD46B0BD00BF52B81E85EB51F43F81
S32D0000EC680000C8C20000C842000059400000604080B483B000AF03460A46FB711346BB71BB79002B03D1134B80
S32D0000EC9000221A7002E0114B01221A703823FB710E4B1A78FB791343FB710D4B9B78DBB20B4A43F01003DBB2B7
S32D0000ECB89370094B9B78DBB2074A43F02003DBB29370054AFB79137100BF0C37BD4680BC704700BF9417002037
S32D0000ECE00060064080B483B000AF01237B607B68312B04DC00BF7B6801337B60F7E700BF0C37BD4680BC7047A5
S32D0000ED0880B582B000AF03460A46FB711346BB71134B1B7800211846FFF7AAFF00F024F8104AFB79137100F0E0
S32D0000ED301FF80E4ABB79137100F01AF80B4B9B78DBB20A4A23F02003DBB29370074B9B78DBB2064A23F0100314
S32D0000ED58DBB29370FFF7C2FF00BF0837BD4680BD951700200060064080B483B000AF174B1B78002B24D1002348
S32D0000ED807B60154BDB78DBB203F00203002B0CBF01230023DBB2002B0DD07B6842F21072934203DD0B4B0122B9
S32D0000EDA81A7004E07B6801337B6000BFE5E7084BDB78DBB2064A43F00203DBB2D37000E000BF0C37BD4680BCA6
S32D0000EDD0704700BF961700200060064080B582B000AF0346FB71FB79184600F05FF800BF0837BD4680BD80B5D5
S32D0000EDF882B000AF03460A46FB711346BB7100F035F8FB795B00DBB21846FFF7E3FFBB791846FFF7DFFF00F07D
S32D0000EE2037F800BF0837BD4680BD80B500AFFF2000F03CF80346184680BD80B584B000AF0346FB7100F016F881
S32D0000EE48FB795B005BB243F001035BB2DBB21846FFF7C0FFFFF7E5FF0346FB7300F014F8FB7B18461037BD4631
S32D0000EE7080BD000080B400AF044B9B68034A43F48013936000BFBD4680BC704740F00F4080B400AF044B5B68CF
S32D0000EE98034A43F48013536000BFBD4680BC704740F00F4080B485B000AF0346FB710023BB73164BDB6A03F097
S32D0000EEC00043012B0CBF01230023DBB2002B03D0FB7B0133FB73F0E70E4BDB6A0D4A43F00043D3620B4AFB79C0
S32D0000EEE853630A4BDB6A03F40033002B0CBF01230023DBB2002B00D0F3E7044B9B6BBB73BB7B18461437BD467E
S32D0000EF1080BC704700C00A4080B582B000AF204B03F580531B6B1E4A43F4805302F5805213631C4B4FF48072B7
S32D0000EF381A651B4B5B691A4A43F480135361FFF7A3FF164B4FF400725A65144B4FF400729A65124B4FF400728E
S32D0000EF60DA65124B124A1A60104B124ADA6000237B607B68092B06DCFF20FFF72FFF7B6801337B60F5E704A173
S32D0000EF88D1E9000104F07AF900BF0837BD4680BD9A9999999999B93F0070044000A0044040F00F4000C00A404B
S32D0000EFB0000C00800500003E90B486B000AFF860B9607A60FB68534A93420AD1524B03F580535B6B504A43F441
S32D0000EFD8806302F58052536345E0FB684D4A93420AD14B4B03F580535B6B494A43F4006302F58052536336E0F1
S32D0000F000FB68474A93420AD1434B03F580535B6B414A43F4805302F58052536327E0FB68404A93420AD13C4BE0
S32D0000F02803F580535B6B3A4A43F4005302F58052536318E0FB683A4A93420AD1344B03F580539B6A324A43F40B
S32D0000F050806302F58052936209E02F4B03F580539B6A2D4A43F4006302F580529362FB68DB78DBB223F00C038A
S32D0000F078DAB2FB68DA70FB6800229A70BB684FF47A7203FB02F27B681B0192FBF3F39CB2FB681B78DBB223F008
S32D0000F0A01F03FB75230A9BB2DBB203F01F03DAB2FB7D1343DAB2FB681A70E2B2FB685A70BB684FF4FA4203FB60
S32D0000F0C802F27B681B0192FBF3F39AB263019BB2D31A9CB2FB689B7ADBB223F01F03FB75E3B203F01F03DAB29C
S32D0000F0F0FB7D1343DAB2FB689A72FB68DB78DBB243F00C03DAB2FB68DA7000BF1837BD4690BC704700A0064071
S32D0000F1180070044000B0064000C0064000D0064000A00E4080B483B000AF78607B681B79DBB203F02003002BE2
S32D0000F1400CBF01230023DBB2002B00D0F2E77B68DB79DBB218460C37BD4680BC704780B483B000AF78600B4694
S32D0000F168FB707B681B79DBB25BB2DB43DBB2DB09DBB2002B00D0F4E77B68FA78DA7100BF0C37BD4680BC704773
S32D0000F19080B487B000AFF860B9607A60FB687B61BB683B617B685A1E7A60002B14BF01230023DBB2002B08D0E4
S32D0000F1B83A69531C3B617B69591C796112781A70ECE700BF1C37BD4680BC704780B487B000AFF860B9607A60F4
S32D0000F1E0FB687B617B685A1E7A60002B14BF01230023DBB2002B06D07B695A1C7A61BA68D2B21A70EEE700BFC1
S32D0000F2081C37BD4680BC704780B489B000AFF860B9607A60FB68FB61BB68BB6100237B617B685A1E7A60002BCB
S32D0000F2300FD0FB695A1CFA611B781946BB695A1CBA611B78CB1A7B617B69002B01D1012300E00023002B00D09E
S32D0000F258E6E77B6918462437BD4680BC704780B483B000AF786039607B681B78002B09D07B681B781A463B68AE
S32D0000F280934203D07B6801337B60F1E77B681B7818460C37BD4680BC704780B584B000AF786039607B681B6BEF
S32D0000F2A8FB60FA683B689A4252D07B681B79002B35D07B6858787B6803F134010123FA6803F050FD0346002B3A
S32D0000F2D014BF01230023DBB2002B01D001233CE07B6800221A717B685A6A7B681B6A1344FA689A4217D27B682D
S32D0000F2F8DB78FB72FB7A012B11D97B681B6AFA681344FB607B6858787B6803F134010123FA6803F027FDFB7A50
S32D0000F320013BFB72EAE73B68002B15D07B6858787B6803F1340101233A6803F033FC0346002B14BF012300235D
S32D0000F348DBB2002B01D0012303E07B683A681A63002318461037BD4680BD80B584B000AF786000217868FFF716
S32D0000F37094FF0346FB73FB7B002B40F093807B681B78032B7DD17B685B79002B79D07B6800221A637B68343358
S32D0000F3984FF4007200211846FFF718FF7B68552283F832227B68AA2283F833227B68522283F834207B685222E1
S32D0000F3C083F835207B68612283F836207B68412283F837207B68722283F818227B68722283F819227B68412261
S32D0000F3E883F81A227B68612283F81B227B681B69DAB27B6883F81C227B681B699BB21B0A9BB2DAB27B6883F883
S32D0000F4101D227B681B691B0CDAB27B6883F81E227B681B691B0EDAB27B6883F81F227B68DB68DAB27B6883F80C
S32D0000F43820227B68DB689BB21B0A9BB2DAB27B6883F821227B68DB681B0CDAB27B6883F822227B68DB681B0E88
S32D0000F460DAB27B6883F823227B6858787B6803F134017B685A69012303F078FC7B6800225A717B685B780022B7
S32D0000F4880021184603F03AFD0346002B14BF01230023DBB2002B01D00123FB73FB7B18461037BD4680BD80B475
S32D0000F4B083B000AF786039603B68023B3B607B68DB69023B3A689A4201D3002308E07B689B781A463B6803FBA8
S32D0000F4D802F27B68DB6A134418460C37BD4680BC704780B586B000AF786039603B68012B04D97B68DB693A68FC
S32D0000F5009A4201D30123B5E07B681B78032B7AD0032B00F3AD80012B02D0022B4DD0A7E03B683B613B695B0823
S32D0000F5283A6913443B617B685A6A3B695B0A134419467868FFF7ADFE0346002B14BF01230023DBB2002B40F0C2
S32D0000F55088803B69C3F308037A68134493F83430FB603B6901333B617B685A6A3B695B0A134419467868FFF7ED
S32D0000F57890FE0346002B14BF01230023DBB2002B6DD13B69C3F308037A68134493F834301B021A46FB68134390
S32D0000F5A0FB603B6803F00103002B02D0FB681B0960E0FB68C3F30B035CE07B685A6A3B681B0A1344194678681C
S32D0000F5C8FFF767FE0346002B14BF01230023DBB2002B46D13B685B0003F4FF7330337A68134404337B617B6963
S32D0000F5F001331B781B021AB27B691B781BB213431BB29BB236E07B685A6A3B68DB09134419467868FFF741FE7A
S32D0000F6180346002B14BF01230023DBB2002B22D13B689B0003F4FE7330337A68134404337B617B6903331B7889
S32D0000F6401A067B6902331B781B0413437A6901321278120213437A691278134323F0704308E000BF04E000BF7E
S32D0000F66802E000BF00E000BF4FF0FF3318461837BD4680BD80B588B000AFF860B9607A60BB68012B04D9FB68E0
S32D0000F690DB69BA689A4202D30223FB77EEE0FB681B78032B00F09780032B00F3DA80012B02D0022B6BD0D4E010
S32D0000F6B8BB687B617B695B087A6913447B61FB685A6A7B695B0A13441946F868FFF7E1FD0346FB77FB7F002B0E
S32D0000F6E040F0C2807B69C3F308033033FA6813440433BB61BB6803F00103002B0DD0BB691B785BB203F00F038B
S32D0000F7085AB27B68DBB21B015BB213435BB2DBB201E07B68DBB2BA6913707B6901337B61FB6801221A71FB68DF
S32D0000F7305A6A7B695B0A13441946F868FFF7ADFD0346FB77FB7F002B40F090807B69C3F308033033FA68134487
S32D0000F7580433BB61BB6803F00103002B03D07B681B09DBB20CE0BB691B7823F00F03DAB27B681B0ADBB203F0A8
S32D0000F7800F03DBB21343DBB2BA69137073E0FB685A6ABB681B0A13441946F868FFF77DFD0346FB77FB7F002B8B
S32D0000F7A862D1BB685B0003F4FF733033FA6813440433BB617B68DAB2BB691A707B689BB21B0A9AB2BB69013394
S32D0000F7D0D2B21A704FE0FB685A6ABB68DB0913441946F868FFF759FD0346FB77FB7F002B40D1BB689B0003F418
S32D0000F7F8FE733033FA6813440433BB61BB6903331B781A06BB6902331B781B041343BA6901321278120213434B
S32D0000F820BA691278134303F070437A6813437B607B68DAB2BB691A707B689BB21B0A9AB2BB690133D2B21A70DA
S32D0000F8487B681A0CBB690233D2B21A707B681A0EBB690333D2B21A7009E00223FB7706E000BF04E000BF02E005
S32D0000F87000BF00E000BFFB6801221A71FB7F18462037BD4680BD80B584B000AF786039603B68012B04D97B6874
S32D0000F898DB693A689A4202D30223FB7338E00023FB737B68DB693A689A4231D239687868FFF717FEB860BB6800
S32D0000F8C0002B26D0BB68012B02D10223FB7323E0BB68B3F1FF3F02D10123FB731CE0002239687868FFF7CAFE7A
S32D0000F8E80346FB73FB7B002B11D17B681B69B3F1FF3F07D07B681B695A1C7B681A617B6801225A71BB683B60CE
S32D0000F910CBE700BF00E000BFFB7B18461037BD4680BD80B586B000AF786039603B68002B0DD17B68DB683B6165
S32D0000F9383B69002B04D07B68DB693A699A4215D301233B6112E039687868FFF7CAFDB860BB68012B01D801231C
S32D0000F96064E07B68DB69BA689A4201D2BB685DE03B683B613B697B617B6901337B617B68DB697A699A4207D36A
S32D0000F98802237B617A693B699A4201D9002349E079697868FFF7A5FDB860BB68002B0ED0BB68B3F1FF3F02D052
S32D0000F9B0BB68012B01D1BB6838E07A693B699A42DAD1002332E000BF6FF0704279697868FFF754FE0346FB73F9
S32D0000F9D8FB7B002B09D13B68002B06D07A6939687868FFF747FE0346FB73FB7B002B10D17B687A69DA607B6827
S32D0000FA001B69B3F1FF3F10D07B681B695A1E7B681A617B6801225A7107E0FB7B012B02D14FF0FF3300E00123B3
S32D0000FA287B617B6918461837BD4680BD80B487B000AF786039607B685B6A04333B613B685B0A7A68126892788F
S32D0000FA50B3FBF2F37B613B691A1D3A611B68FB60FB68002B01D1002310E07A69FB689A4207D37A69FB68D31A23
S32D0000FA787B613B6904333B61E9E700BF3B691A687B69134418461C37BD4680BC704780B584B000AF78600B4635
S32D0000FAA07B807B687A88DA807B689B68FB60FB68012B05D07B681B68DB69FA689A4201D3022364E0FB68002BA6
S32D0000FAC808D17B681B681B78032B03D17B681B689B6AFB60FB68002B13D17B68FA68DA607B681B681B897A8879
S32D0000FAF09A4201D302234AE07B681B689A6A7B881B091A447B681A6135E07B681B689B789BB21B017B817A88A7
S32D0000FB187B899A421CD37B681B68F9681846FFF7E0FCF860FB68B3F1FF3F01D101232AE0FB68012B05D97B680C
S32D0000FB401B68DB69FA689A4201D302231FE07A887B89D31A7B80DEE77B68FA68DA607B681B68F9681846FFF74D
S32D0000FB68A2FC02467B881B091A447B681A617B681B6803F134027B8803F00F035B011A447B685A610023184635
S32D0000FB901037BD4680BD90B585B000AF786039607B68DB8801333B813B89002B03D07B681B69002B01D10423A3
S32D0000FBB8C4E03B8903F00F03002B40F0B0807B681B695A1C7B681A617B68DB68002B08D17B681B681B893A89F5
S32D0000FBE09A42C0F0A0800423ACE03B891B097A6812689278013A1340002B40F094807B681A687B68DB68194663
S32D0000FC081046FFF76EFCF860FB68012B01D8022394E0FB68B3F1FF3F01D101238EE07B681B68DB69FA689A422E
S32D0000FC306DD33B68002B01D1042383E07B681A687B68DB6819461046FFF76BFEF860FB68002B01D1072375E066
S32D0000FC58FB68012B01D1022370E0FB68B3F1FF3F01D101236AE07B681B6800211846FFF710FB0346002B14BFF6
S32D0000FC8001230023DBB2002B01D001235AE07B681B6834334FF4007200211846FFF79AFA7B681A687B681C68D1
S32D0000FCA8F9681046FFF7FFFB034623630023FB727B681B689B78FA7A9A421CD27B681B6801221A717B681B68F7
S32D0000FCD000211846FFF7E1FA0346002B14BF01230023DBB2002B01D001232BE07B681B681A6B01321A63FB7A60
S32D0000FCF80133FB72DCE77B681B68196BFA7A7B681B688A1A1A637B68FA68DA607B681B68F9681846FFF7C7FB39
S32D0000FD2002467B681A617B683A89DA807B681B6803F134023B8903F00F035B011A447B685A6100231846143792
S32D0000FD48BD4690BD80B586B000AF786000217868FFF79DFE0346FB75FB7D002B01D0FB7D3CE07B681A687B68B0
S32D0000FD701B6919461046FFF790FA0346FB75FB7D002B2BD17B685B693B613B691B78FB73FB7B002B02D10423D1
S32D0000FD98FB7522E03B690B331B7803F00803002B0BD17B689B690B2219463869FFF72CFA0346002B01D10123B7
S32D0000FDC000E00023002B0BD100217868FFF7E3FE0346FB75FB7D002B03D1C6E700BF00E000BFFB7D18461837D3
S32D0000FDE8BD4680BD80B584B000AF786000217868FFF74DFE0346FB73FB7B002B21D17B681A687B681B69194606
S32D0000FE101046FFF742FA0346FB73FB7B002B13D17B685B691B78BB73BB7BE52B0DD0BB7B002B0AD00121786838
S32D0000FE38FFF7ADFE0346FB73FB7B002B01D1DEE700BFFB7B002B1FD17B681A687B681B6919461046FFF71DFA2E
S32D0000FE600346FB73FB7B002B12D17B685B69BB6020220021B868FFF7ADF97B689B690B221946B868FFF784F952
S32D0000FE887B681B6801221A71FB7B18461037BD4680BD000080B588B000AF786039603B681B68FB60FB681B78D9
S32D0000FEB02F2B03D0FB681B785C2B03D1FB680133FB60F3E77B689B69BB600B222021B868FFF780F90023FB7746
S32D0000FED800233B613B697B610823BB61FA687B6913441B782E2B2FD17B695A1C7A61FA6813441B78BB77BB7F00
S32D0000FF002E2B0AD17B69022B07D83B695A1C3A61BA681344BA7F1A70EAE7BB7F2F2B07D0BB7F5C2B04D0BB7FB3
S32D0000FF28202B01D90623A7E0FA687B691A443B681A60BB7F202B01D8242200E02022BB680B331A70002397E0CA
S32D0000FF507B695A1C7A61FA6813441B78BB77BB7F202B58D9BB7F2F2B55D0BB7F5C2B52D0BB7F2E2B03D03A6975
S32D0000FF78BB699A420FD3BB69082B02D1BB7F2E2B01D0062378E008233B610B23BB61FB7F9B00FB773AE097F928
S32D0000FFA01E30002B08DAFB7F43F00303FB77BB7F803B354AD35CBB77BB7F19463348FFF752F90346002B14BF42
S32D0000FFC801230023DBB2002B01D0062354E0BB7F402B07D9BB7F5A2B04D8FB7F43F00203FB770CE0BB7F602BE9
S32D0000FFF009D9BB7F7A2B06D8FB7F43F00103FB77BB7F203BBB773B695A1C3A61BA681344BA7F1A709CE7FA6884
S32D000100187B691A443B681A60BB7F202B01D8042300E00023BB773B69002B01D1062323E0BB681B78E52B02D13A
S32D00010040BB6805221A70BB69082B02D1FB7F9B00FB77FB7F03F00303012B03D1BB7F43F01003BB77FB7F03F07A
S32D000100680C03042B03D1BB7F43F00803BB77BB680B33BA7F1A70002318462037BD4680BDFC8302007C840200EE
S32D0001009080B584B000AF786039603B681B782F2B03D03B681B785C2B06D13B6801333B607B6800229A6004E06C
S32D000100B87B681B689A697B689A603B681B781F2B09D800217868FFF7E2FC0346FB737B6800225A6169E03B465C
S32D000100E019467868FFF7DAFE0346FB73FB7B002B58D17868FFF72AFE0346FB737B689B69DB7ABB73FB7B002BA3
S32D000101081DD0FB7B042B4BD1BB7B03F02003002B0DD07B6800229A607B6800225A610023FB73BB7B03F0040346
S32D00010130002B3BD135E0BB7B03F00403002B35D10523FB7332E0BB7B03F00403002B2FD17B685B69BB60BB680B
S32D000101580B331B7803F01003002B02D10523FB7323E0BB6815331B781B021AB2BB6814331B781BB213431BB236
S32D000101809BB21B04BA681B321278120211B2BA681A32127812B20A4312B292B21A437B689A609CE700BF04E0A3
S32D000101A800BF02E000BF00E000BFFB7B18461037BD4680BD80B582B000AF786039607B6858787B6803F1340188
S32D000101D001233A6802F0E6FC0346002B14BF01230023DBB2002B01D003234AE07B6803F2322301331B781B02EE
S32D000101F81AB27B6893F832321BB213431BB2214A934201D0022338E07B686A3303331B781A067B686A330233DE
S32D000102201B781B0413437A686A3201321278120213437A6892F86A20134323F07F43144A934201D100231CE0BD
S32D000102487B68863303331B781A067B68863302331B781B0413437A68863201321278120213437A6892F8862056
S32D00010270134323F07F43064A934201D1002300E0012318460837BD4680BD00BF55AAFFFF4641540080B592B02B
S32D0001029800AFF860B9601346FB71FB681B68FB62FB6A1B78303B3B643B6C092B0BD8FB6A01331B783A2B06D1E7
S32D000102C0FB6A0233FB62FB68FA6A1A6002E0A34B1B783B643B6C002B01D00B2367E2A04A3B6C52F82330BB6270
S32D000102E8BB68BA6A1A60BB6A002B01D10C235AE2BB6A1B78002B1AD0BB6A5B78184602F07FFE034687F82730E8
S32D0001031097F8273003F00103002B0CD1FB79002B07D097F8273003F00403002B01D00A233DE200233BE2BB6AD6
S32D0001033800221A703B6CDAB2BB6A5A70BB6A5B78184602F0F1F9034687F8273097F8273003F00103002B01D09E
S32D00010360032324E2FB79002B07D097F8273003F00403002B01D00A2319E20023FB63F96BB86AFFF71BFF034668
S32D0001038887F8473097F84730012B22D1BB6A03F5F9733B623B6A04331B78002B19D03B6A0B331B781A063B6A47
S32D000103B00A331B781B0413433A6A09321278120213433A6A083212781343FB63F96BB86AFFF7F4FE034687F8B4
S32D000103D8473097F84730032B01D10123E3E197F84730002B01D00D23DDE1BB6A93F840301B021AB2BB6A93F8E8
S32D000104003F301BB213431BB2B3F5007F01D00D23CDE1BB6A93F84B301B021AB2BB6A93F84A301BB213431BB26A
S32D000104289BB2BB63BB6B002B12D1BB6A93F85B301A06BB6A93F85A301B041343BA6A92F8592012021343BA6A47
S32D0001045092F858201343BB63BB6ABA6B1A62BB6A93F84430FB77BB6AFA7FDA70FB7F012B04D0FB7F022B01D0D1
S32D000104780D2398E1FA7FBB6B02FB03F3BB63BB6A93F84130FB77BB6AFA7F9A70FB7F002B05D0FA7FFB7F013B18
S32D000104A01340002B01D00D2381E1BB6A93F846301B021AB2BB6A93F845301BB213431BB29AB2BB6A1A81BB6AF7
S32D000104C81B8903F00F03002B01D00D236BE1BB6A93F848301B021AB2BB6A93F847301BB213431BB29BB27B6391
S32D000104F07B6B002B12D1BB6A93F857301A06BB6A93F856301B041343BA6A92F8552012021343BA6A92F8542038
S32D0001051813437B63BB6A93F843301B021AB2BB6A93F842301BB213431BB2BB83BB8B002B01D10D2337E1BA8B54
S32D00010540BB6B1A44BB6A1B891B091344BB617A6BBB699A4206D20D2329E100BF9E170020981700207A6BBB6945
S32D00010568D31ABA6A9278B3FBF2F37B617B69002B01D10D2317E1012387F847307B6940F6F572934202D9022361
S32D0001059087F847307B694FF6F572934202D9032387F847307B699A1CBB6ADA61FA6BBB691A44BB6ADA62BA8B63
S32D000105B8FB6B1A44BB6A5A6297F84730032B1ED1BB6A1B89002B01D00D23ECE0BB6A93F863301A06BB6A93F878
S32D000105E062301B041343BA6A92F8612012021343BA6A92F860201A43BB6A9A62BB6ADB699B003B631FE0BB6ADA
S32D000106081B89002B01D10D23CDE0BB6A5A6ABB6B1A44BB6A9A6297F84730022B03D1BB6ADB695B000AE0BB6ADD
S32D00010630DA6913465B0013445A08BB6ADB6903F0010313443B63BB6A1A6A3B6B03F2FF135B0A9A4201D20D23FC
S32D00010658A9E0BB6A4FF0FF321A61BB6A0022DA6097F84730032B40F08680BB6A00225A71BB6A93F865301B027B
S32D000106801AB2BB6A93F864301BB213431BB29BB21A46FB6B1A44BB6A5A61BB6A5878BB6A03F13401BB6A5A69CF
S32D000106A8012302F07BFA0346002B39D1BB6A93F833321B021AB2BB6A93F832321BB213431BB23B4A93422BD1C2
S32D000106D0BB6A93F837301A06BB6A93F836301B041343BA6A92F8352012021343BA6A92F834201343314A934224
S32D000106F816D1BB6A93F81B321A06BB6A93F81A321B041343BA6A92F8192212021343BA6A92F818221343284A5B
S32D00010720934201D1012300E00023002B27D0BB6A93F823321A06BB6A93F822321B041343BA6A92F82122120217
S32D000107481343BA6A92F820221A43BB6ADA60BB6A93F81F321A06BB6A93F81E321B041343BA6A92F81D221202E9
S32D000107701343BA6A92F81C221A43BB6A1A61BB6A97F847201A700F4B1B8801339AB20D4B1A800C4B1A88BB6AE9
S32D00010798DA80BB6A00221A63BB6A00221A71BB6A00229A61002318464837BD4680BD00BF55AAFFFF52526141BE
S32D000107C0727241619C17002080B582B000AF78600B467B807B68002B08D07B681B78002B04D07B68DB887A88D4
S32D000107E89A4201D0092311E07B685B78184602F007FC034603F00103002B14BF01230023DBB2002B01D00323DB
S32D0001081000E0002318460837BD4680BD80B485B000AF03463960FB71FB79002B01D00B2316E0FB790D4A52F8CA
S32D000108382330FB60FB68002B02D0FB6800221A703B68002B02D03B6800221A70FB7905493A6841F82320002382
S32D0001086018461437BD4680BC704700BF9817002080B592B000AFF860B9601346FB71FB6800221A60FB7903F07A
S32D000108881F03FB71FB7923F00103DAB207F11C0107F108031846FFF7F9FC034687F8473007F110037B6397F884
S32D000108B04730002B09D1BA6807F11C0311461846FFF7E6FB034687F847303B6B3B6497F84730002B05D13B6CA6
S32D000108D8002B02D1062387F84730FB7903F01C03002B00F0B18097F84730002B12D097F84730042B07D107F1EA
S32D000109001C031846FFF772FA034687F84730FB7943F00803FB713B6B3B6412E03B6C0B331B7803F01103002BAB
S32D0001092803D0072387F8473007E0FB7903F00403002B02D0082387F8473097F84730002B40F0A080FB7903F052
S32D000109500803002B00F09A800023FB633B6C0E33FA6BD2B21A70FB6B9BB21B0A9AB23B6C0F33D2B21A70FB6BDB
S32D000109781A0C3B6C1033D2B21A70FB6B1A0E3B6C1133D2B21A703B6C0B3300221A703B6C1C3300221A703B6CD1
S32D000109A01D3300221A703B6C1E3300221A703B6C1F3300221A703B6C15331B781B021AB23B6C14331B781BB22A
S32D000109C813431BB29BB21B043A6C1B321278120211B23A6C1A32127812B20A4312B292B21343BB633B6C1A3320
S32D000109F000221A703B6C1B3300221A703B6C143300221A703B6C153300221A70FB6901221A71BB6B002B39D0EA
S32D00010A18FB691B6BFB63FB69B96B1846FEF72FFF034687F8473097F84730002B2AD1FB69BA6B013ADA60FB6991
S32D00010A40F96B1846FEF729FC034687F847301DE097F84730002B19D13B6C0B331B7803F01003002B03D00423B1
S32D00010A6887F847300EE0FB7903F00203002B09D03B6C0B331B7803F00103002B02D0072387F8473097F8473079
S32D00010A90002B0FD1FB7903F00803002B03D0FB7943F02003FB71FB691A6BFB68DA61FB683A6C1A6297F8473074
S32D00010AB8002B42D1FB68FA799A713B6C15331B781B021AB23B6C14331B781BB213431BB29BB21B043A6C1B32B5
S32D00010AE01278120211B23A6C1A32127812B20A4312B292B21A43FB681A613B6C1F331B781A063B6C1E331B787F
S32D00010B081B0413433A6C1D321278120213433A6C1C3212781A43FB68DA60FB6800229A60FB6800229A61FB6886
S32D00010B3000225A62FA69FB681A60FB69DA88FB689A8097F8473018464837BD4680BD80B58AB000AFF860B96083
S32D00010B587A603B60BB68BB613B6800221A60FB681A68FB689B8819461046FFF729FE0346FB75FB7D002B01D011
S32D00010B80FB7D7EE1FB689B795BB2002B01DA022377E1FB689B7903F00203002B01D107236FE1FB68DA687B68FA
S32D00010BA81A44FB68DB689A4201D200237B607B68002B00F05081FB689B68C3F30803002B40F01381FB689B6822
S32D00010BD05B0ADAB2FB681B689B78013BDBB21340BB75BB7D002B49D1FB689B68002B10D1FB681B697B627B6A28
S32D00010BF8002B1FD1FB681B6800211846FEF78DFE7862FB687A6A1A6114E0FB685B6A002B07D0FB689B6819464F
S32D00010C20F868FEF707FF786208E0FB681A68FB685B6919461046FEF774FE78627B6A002B00F00C817B6A012BE8
S32D00010C4808D1FB689B7963F07F03DAB2FB689A71022312E17B6AB3F1FF3F08D1FB689B7963F07F03DAB2FB686B
S32D00010C709A71012305E1FB687A6A5A61FB689B7903F04003002B22D0FB681B685878FB6803F12801FB689A69D8
S32D00010C98012302F067F80346002B14BF01230023DBB2002B08D0FB689B7963F07F03DAB2FB689A710123E0E070
S32D00010CC0FB689B7923F04003DAB2FB689A71FB681A68FB685B6919461046FEF7E8FB38613B69002B08D1FB6801
S32D00010CE89B7963F07F03DAB2FB689A710223C4E0BB7D3A6913443B617B685B0AFB61FB69002B49D0BA7DFB697C
S32D00010D101344FA6812689278934206D9FB681B689B781A46BB7DD31AFB61FB681B685878FB69DBB23A69B9697D
S32D00010D3802F018F80346002B14BF01230023DBB2002B08D0FB689B7963F07F03DAB2FB689A71012391E0FB682E
S32D00010D609A693B69D31AFA699A4215D9FB6803F12800FB689A693B69D31A5B02BA6913444FF400721946FEF74D
S32D00010D8803FAFB689B7923F04003DAB2FB689A71FB695B023B6248E0FB689B693A699A4220D0FB689A68FB6854
S32D00010DB0DB689A420ED2FB681B685878FB6803F1280101233A6901F0EDFE0346002B01D0012300E00023002BA5
S32D00010DD808D0FB689B7963F07F03DAB2FB689A7101234AE0FB683A699A61FB689B68C3F30803C3F500733B6290
S32D00010E003A6A7B689A4201D97B683B62FB689B68C3F308032833FA6813443A6AB9691846FEF7B6F9FB689B798C
S32D00010E2843F04003DAB2FB689A71BA693B6A1344BB61FB689A683B6A1A44FB689A603B681A683B6A1A443B6860
S32D00010E501A607A683B6AD31A7B60ACE600BFFB689A68FB68DB689A4203D9FB689A68FB68DA60FB689B7943F0EA
S32D00010E782003DAB2FB689A71002318462837BD4680BD80B586B000AF78607B681A687B689B8819461046FFF706
S32D00010EA093FC0346FB75FB7D002B40F0AC807B689B7903F02003002B00F0A5807B689B7903F04003002B1BD04C
S32D00010EC87B681B6858787B6803F128017B689A69012301F047FF0346002B14BF01230023DBB2002B01D0012349
S32D00010EF08AE07B689B7923F04003DAB27B689A717B681A687B68DB6919461046FEF7C5F90346FB75FB7D002B52
S32D00010F1875D17B681B6A3B613B690B331A783B690B3342F02002D2B21A707B68DA683B691C33D2B21A707B689F
S32D00010F40DB689BB21B0A9AB23B691D33D2B21A707B68DB681A0C3B691E33D2B21A707B68DB681A0E3B691F33EC
S32D00010F68D2B21A707B681A693B691A33D2B21A707B681B699BB21B0A9AB23B691B33D2B21A707B681B691A0C35
S32D00010F903B691433D2B21A707B681B691B0C9BB21B0A9AB23B691533D2B21A700023FB603B691633FA68D2B2A2
S32D00010FB81A70FB689BB21B0A9AB23B691733D2B21A70FB681A0C3B691833D2B21A70FB681A0E3B691933D2B2DE
S32D00010FE01A707B689B7923F02003DAB27B689A717B681B6801221A717B681B681846FEF7B0F90346FB75FB7D0A
S32D0001100818461837BD4680BD80B584B000AF78607868FFF736FF0346FB73FB7B002B02D17B6800221A60FB7BB1
S32D0001103018461037BD4680BD80B590B000AF786039607B681A687B689B8819461046FFF7BBFB034687F83F3014
S32D0001105897F83F30002B02D097F83F3043E27B689B795BB2002B01DA02233CE27B685B6A002B00F0F8803B6820
S32D00011080B3F1FF3F66D17B685B6AFB62FB6A1A1DFA621B687B6102233B637B681B69BB63BB6B002B46D0BB6BF7
S32D000110A83B6100237B633B6B02333B63BB6BFB607B6B01337B637B681B68B96B1846FEF710FAB863BB6B012B36
S32D000110D008D87B689B7963F07F03DAB27B689A71022304E2BB6BB3F1FF3F08D17B689B7963F07F03DAB27B68A4
S32D000110F89A710123F7E1FB680133BA6B9A4200D1D4E73A6B7B699A4209D8FB6A1A1DFA627A6B1A60FB6A1A1D65
S32D00011120FA623A691A607B681B68DB69BA6B9A4200D2B8E77B685B6A3A6B1A603A6B7B699A4203D8FB6A00227D
S32D000111481A60CEE1112387F83F30CAE17B68DB683A689A4202D97B68DB683B607B683A689A603B68002B00F005
S32D00011170BC813B68013B19467868FEF75BFC02467B685A617B681A687B685B6919461046FEF78DF9B861BB694A
S32D00011198002B08D17B689B7963F07F03DAB27B689A7102239FE13B68013B5B0A7A6812689278013A1340BA69DE
S32D000111C01344BB617B689B68C3F30803002B00F08C817B689B69BA699A4200F086817B689B7903F04003002B89
S32D000111E822D07B681B6858787B6803F128017B689A69012301F0B6FD0346002B14BF01230023DBB2002B08D0E4
S32D000112107B689B7963F07F03DAB27B689A71012365E17B689B7923F04003DAB27B689A717B681B6858787B681F
S32D0001123803F128010123BA6901F0B0FC0346002B14BF01230023DBB2002B08D07B689B7963F07F03DAB27B682D
S32D000112609A71012343E17B68BA699A613DE17B68DB683A689A4208D97B689B7903F00203002B02D17B68DB6855
S32D000112883B607B689B683B6200237B627B687A6A9A603B68002B00F0C1807B681B689B785B02FB613B6A002B57
S32D000112B01BD03B685A1EFB69B2FBF3F23B6A591EFB69B1FBF3F39A420FD33B6A5A1EFB695B421A407B689A60EE
S32D000112D87B689B683A68D31A3B607B685B69BB622BE07B681B69BB62BB6A002B22D17B681B6800211846FEF767
S32D0001130010FBB862BB6A012B08D17B689B7963F07F03DAB27B689A710223E8E0BB6AB3F1FF3F08D17B689B7965
S32D0001132863F07F03DAB27B689A710123DBE07B68BA6A1A617B68BA6A5A61BB6A002B6DD03A68FB699A4246D996
S32D000113507B689B7903F00203002B0CD07B681B68B96A1846FEF7DDFAB862BB6A002B09D1FB693B6033E07B688C
S32D000113781B68B96A1846FEF7B4F8B862BB6AB3F1FF3F08D17B689B7963F07F03DAB27B689A710123A7E0BB6A91
S32D000113A0012B05D97B681B68DB69BA6A9A4208D37B689B7963F07F03DAB27B689A71022395E07B68BA6A5A61ED
S32D000113C87B689A68FB691A447B689A603A68FB69D31A3B60B4E77B689A683B681A447B689A603B68C3F3080322
S32D000113F0002B17D07B681B68B96A1846FEF757F878627B6A002B08D17B689B7963F07F03DAB27B689A71022363
S32D0001141869E03B685B0A7A6A13447B627B689B68C3F30803002B4BD07B689B697A6A9A4246D07B689B7903F0A8
S32D000114404003002B22D07B681B6858787B6803F128017B689A69012301F088FC0346002B14BF01230023DBB24D
S32D00011468002B08D07B689B7963F07F03DAB27B689A71012337E07B689B7923F04003DAB27B689A717B681B68A4
S32D0001149058787B6803F1280101237A6A01F082FB0346002B14BF01230023DBB2002B08D07B689B7963F07F03FD
S32D000114B8DAB27B689A71012315E07B687A6A9A617B689A687B68DB689A420AD97B689A687B68DA607B689B79ED
S32D000114E043F02003DAB27B689A7197F83F3018464037BD4680BD80B586B000AF03463960FB71FB793B7301234C
S32D000115087B6107F1100307F10C017A693868FFF71AFB3B697A699A4201D1012301E04FF0FF3318461837BD46DF
S32D0001153080BD80B584B000AF786039600023FB607B681B78002B18D07B681B7839681846FFF7D1FF0346B3F197
S32D00011558FF3F0CBF01230023DBB2002B02D04FF0FF3307E07B6801337B60FB680133FB60E2E7FB68184610377D
S32D00011580BD4680BD80B485B000AF786039600123FB600023BB600023BB60BA683B689A4208DAFB687A6802FBB3
S32D000115A803F3FB60BB680133BB60F2E7FB6818461437BD4680BC7047B0B59AB000AF78613961FA600023BB6409
S32D000115D0BB6C7B647B6CB3F1FF3F00F0F5823B695A1C3A611B7887F84F3097F84F30002B00F0E78297F84F30D0
S32D000115F8252B0ED097F84F3079691846FFF777FF78647B6CB3F1FF3F00F0CD8201237B64C9E2002387F8673011
S32D000116200023BB653B695A1C3A611B7887F84F3097F84F30302B09D1012387F867303B695A1C3A611B7887F8CE
S32D000116484F300CE097F84F302D2B08D1022387F867303B695A1C3A611B7887F84F3097F84F302E2B05D13B6967
S32D000116705A1C3A611B7887F84F3097F84F302F2B15D997F84F30392B11D8BA6D13469B0013445B001A4697F83C
S32D000116984F301344303BBB653B695A1C3A611B7887F84F30E5E797F84F306C2B03D097F84F304C2B0BD197F848
S32D000116C0673043F0040387F867303B695A1C3A611B7887F84F3097F84F30002B00F0738297F84F3087F84E30A5
S32D000116E897F84E30602B08D997F84E307A2B04D897F84E30203B87F84E3097F84E30423B162B00F2788101A20E
S32D0001171052F823F0DF190100C9190100EF190100FF19010019180100FF190100FF190100FF190100FF190100B9
S32D00011738FF190100FF190100FF190100FF190100E7190100FF190100FF190100FF19010071170100FF19010030
S32D00011760EF190100FF190100FF190100F7190100FB681A1DFA601B68FB620023FB65FA6AFB6D13441B78002BD6
S32D0001178803D0FB6D0133FB65F5E70023BB6497F8673003F00203002B07D1FB6D5A1CFA65BA6D9A4201D90123E6
S32D000117B000E00023002B09D079692020FFF79BFE78647B6CBA6C1344BB64E4E77969F86AFFF7AFFE78647B6C7E
S32D000117D8BA6C1344BB64FB6D5A1CFA65BA6D9A428CBF01230023DBB2002B09D079692020FFF77DFE78647B6C8D
S32D00011800BA6C1344BB64EAE77B6CB3F1FF3F00F0D081BB6C7B64CCE1FB68073323F0070303F10802FA60D3E9C1
S32D000118280023C7E90E23D7E90E23C7E90C2300237B654FF000024FF00003D7E90E010EF051FB0346002B18D0C2
S32D0001185079692D20FFF74FFE78647B6CBA6C1344BB64BC6BFB6B83F00045C7E90E453B6B3B607B6B83F0004373
S32D000118787B60D7E90023C7E90C23D7E90C010EF06FFB0346002B0ED04FF00002AB4BD7E90C010EF0DFF90246FB
S32D000118A00B46C7E90C237B6D01337B65E9E77B6D013BFB65FB6DB3F1FF3F35D0FB6D19460A20FFF75FFE0346BD
S32D000118C818460EF033F802460B46D7E90E010EF0C1F902460B46104619460EF041FB0346BB62BA6A964B83FBD9
S32D000118F002139910D317C91A0B469B000B445B00D31ABB62BB6A3033BB62BB6ADBB279691846FFF7F0FD786448
S32D000119187B6CBA6C1344BB64FB6D013BFB65C5E779692E20FFF7E3FD78647B6CBA6C1344BB64BB6D002B01D1E3
S32D000119400323BB6501233B663A6EBB6D9A4233D83B6E19460A20FFF715FE034618460DF0E9FFD7E90E230EF000
S32D000119684FF802460B46104619460EF0F9FA0346BB62BA6A724B83FB02139910D317C91A0B469B000B445B00E4
S32D00011990D31ABB62BB6A3033BB62BB6ADBB279691846FFF7A8FD78647B6CBA6C1344BB643B6E01333B66C7E761
S32D000119B87B6CB3F1FF3F00F0FA80BB6C7B64F6E0FB681A1DFA601B68DBB279691846FFF78EFD7864ECE002235F
S32D000119E087F8663013E0082387F866300FE00A2387F866300BE0102387F8663007E097F84F3079691846FFF701
S32D00011A0876FD7864D4E097F8673003F00403002B04D0FB681A1DFA601B680CE097F84E30442B04D1FB681A1D3F
S32D00011A30FA601B6803E0FB681A1DFA601B683B6597F84E30442B0BD13B6D002B08DA3B6D5B423B6597F8673098
S32D00011A5843F0080387F8673000233B6697F866203B6DB3FBF2F101FB02F29B1A87F84E3097F866303A6DB2FBDE
S32D00011A80F3F33B6597F84E30092B0BD997F84F30782B01D1272200E0072297F84E30134487F84E303B6E5A1C37
S32D00011AA83A6697F84E203032D2B2603307F108010B4403F8502C3B6D002B03D03B6E0F2B00D8CBE797F86730F9
S32D00011AD003F00803002B09D03B6E5A1C3A66603307F1080213442D2203F8502C3B6EFB6597F8673003F001034E
S32D00011AF8002B01D0302300E0202387F84E300023BB6497F8673003F00203002B07D1FB6D5A1CFA65BA6D9A42AD
S32D00011B2001D9012300E00023002B0FD097F84E3079691846FFF7DFFC78647B6CBA6C1344BB64E2E700002440E1
S32D00011B48676666663B6E013B3B6607F118023B6E13441B7879691846FFF7C9FC78647B6CBA6C1344BB643B6EA7
S32D00011B70002B00D0EAE7FB6D5A1CFA65BA6D9A428CBF01230023DBB2002B09D079692020FFF7B1FC78647B6C8F
S32D00011B98BA6C1344BB64EAE77B6CB3F1FF3F07D0BB6C7B6404E000BF02E000BF00E000BFBA6C7B6C1344BB64A5
S32D00011BC008E500BF00E000BF7B6CB3F1FF3F01D17B6C00E0BB6C18466837BD46B0BD00BF80B588B000AF786002
S32D00011BE8396080233B610F23FB604FF0FF337B610223FB61FB69B3F5807F23D80123BB61BB69102B1AD8FB69A0
S32D00011C10BA6902FB03F33A6803FB02F27B68D31ABB60BB68002B09DBBB687A699A4205D9BB687B61FB693B611F
S32D00011C38BB69FB60BB690133BB61E1E7FB695B00FB61D7E71D4BDB6A1C4A23F00803D3621A4BDB6A23F47F2320
S32D00011C6023F47F63BB613B695B081B029AB2FB68013B1B01DBB21A43BB691343114A43F46023D3620F4B5B6A48
S32D00011C8803F00803002B0CBF01230023DBB2002B03D00A2001F0DCFAF0E7084BDB6A074A43F00803D362054BF3
S32D00011CB01B6B044A43F48013136300BF2037BD4680BD00BF00100B4080B582B000AF786039607B6800221A607B
S32D00011CD8414B424ADA62404BDB6A03F08073002B14BF01230023DBB2002B00D0F3E73A4B0022C3F8C020384B67
S32D00011D004FF481325A60364B28229A62344B4FF001125A643B689B6833491846FFF760FF2F4B5B6A03F00303A1
S32D00011D28002B14BF01230023DBB2002B00D0F3E72C4B40F243421A602A4B40F243425A60284B4FF488629A60BD
S32D00011D50264B40F24342DA60244B40F243421A61224B40F243425A61214B03F580531B6B1F4A43F4003302F5FB
S32D00011D7880521363184B4FF6FF721A63164B1B4A5A63154BDB6A144A43F00063D362124BDB6A03F00063002BEA
S32D00011DA014BF01230023DBB2002B00D0F3E70C4B5B6A03F48033002B14BF01230023DBB2002B02D07B680122FD
S32D00011DC81A60054B1B6B044A43F080031363002318460837BD4680BD00100B400080000160CC050000D0044001
S32D00011DF000700440B3007F0080B400AF064B5A6A40F207331340002B14BF01230023DBB21846BD4680BC704701
S32D00011E1800100B4080B485B000AF7860074B1B6B7A681340FB60FB68002B00D1F6E7FB6818461437BD4680BC61
S32D00011E40704700BF00100B4080B584B000AF78607B681B7803F03F03764A52F82330FB60FB68002B05D17B6808
S32D00011E681B78002B01D00123DCE0714B1B6B704A43F0800313636E4B5B6A03F00103002B14BF01230023DBB26D
S32D00011E90002B00D0F3E7684A7B685B689360FB6823F44003FB607B685B789B0503F44003FA681343FB607B6865
S32D00011EB85B78022B03D1FB6843F40013FB607B685B78042B16D1FB6803F44033B3F5003F08D1FB6823F44033D9
S32D00011EE0FB60FB6843F44033FB6007E0FB6823F44033FB60FB6843F40033FB604E4B5B684D4A9BB253607B68E3
S32D00011F08DB68002B2AD0FB6803F44033B3F5403F03D0FB6843F40013FB607B681B7A002B03D0FB6843F0100354
S32D00011F30FB607B68DB68012B03D9FB6843F02003FB607B68DB68B3F1FF3F0BD03A4B5A687B68DB681B043849F5
S32D00011F5813434B60FB6843F00203FB60344B00221A60334AFB68D3603248FFF753FF0346012B14BF01230023E4
S32D00011F80DBB2002B09D02C4B1B6B2B4A43F4702343F001031363012348E0274B1B6B03F08003002B14BF0123DC
S32D00011FA80023DBB2002B07D0214B1B6B204A43F001131363012335E01D4B1B6B03F48033002B14BF0123002329
S32D00011FD0DBB2002B08D0184B1B6B174A43F0011313634FF0FF3321E0FB6803F44033002B15D0114B1A697B683A
S32D00011FF81A61FB6803F44033B3F5803F0BD10C4B5A697B685A610A4B9A697B689A61084BDA697B68DA61064B3C
S32D000120201B6B054A43F001031363002318461037BD4680BD9884020000100B4001000E0080B592B000AF786081
S32D00012048396000237B643B68BB63994B7B637B6B002B02D140F601235FE3964B3B633B6B002B02D140F60B2344
S32D0001207057E33B6B1B68FB62FB6A002B02D140F60B234EE37B6841F20932934200F23F837B68B3F5985F08D84D
S32D000120987B68032B00F01A837B68092B00F0098331E37B68A3F59853013B082B00F22B8301A252F823F000BFA0
S32D000120C0E5200100D12301002D260100E7230100252401004B25010093250100D5240100EF2401007649786B73
S32D000120E8FFF7EEFD78647B6C002B40F01083002387F84330002387F82B30002387F82A30002387F8293000230B
S32D0001211087F84230002387F8283000233B7200237B720023FB6000233B7400237B6107F108031846FFF788FEA9
S32D000121380346002B14BF01230023DBB2002B02D001237B64E8E240F24C4001F081F808233B7200237B724FF440
S32D00012160D573FB6000233B7400237B6107F108031846FFF769FEF863FB6B002B09D1BA69FB689A4202D0012300
S32D000121887B64C9E2012387F84230012387F8283097F82830002B00F0A58037233B7200237B720023FB600023AF
S32D000121B03B7400237B6107F108031846FFF744FEF863FB6B002B02D001237B64A8E269233B7200237B72002302
S32D000121D8FB6000233B7400237B6107F108031846FFF72EFE0346002B14BF01230023DBB2002B02D001237B640E
S32D000122008EE2BB6903F44013002B6FD00023FB630A2001F021F8FB6B0133FB6337233B7200237B720023FB6025
S32D0001222800233B7400237B6107F108031846FFF707FE0346002B14BF01230023DBB2002B02D001237B6428E037
S32D0001225069233B7200237B7297F84230002B02D0184BFB6002E04FF44013FB6000233B7400237B6107F10803B3
S32D000122781846FFF7E5FD0346002B14BF01230023DBB2002B02D001237B6406E0BB69002B03DBFB6B632B00D807
S32D000122A0B6E77B6C002B40F03882FB6B632B0BD9002387F8423019E0B8170020BC1900208C840200000030402B
S32D000122C8012387F8433097F84230002B0AD0002387F84230BB6903F08043002B02D0012387F8423097F82A30E2
S32D000122F0002B02D07B6B07221A6097F82930002B02D07B6B08221A6097F82B30002B02D07B6B04221A6097F8CE
S32D000123184330002B09D07B6B02221A6097F84230002B02D07B6B03221A6097F82B30002B0DD097F84330002BF9
S32D0001234009D07B6B05221A6097F84230002B02D07B6B06221A60924B00221A60904B00225A608F4B00229A6062
S32D000123688D4B0022DA608C4B00221A618A4B00225A61FB6A9A68FB6A5B6819461046FFF72BFC854B40F2434204
S32D000123901A60834B40F243425A60814B4FF488629A607F4B40F24342DA607D4B40F243421A617B4B40F2434240
S32D000123B85A617A4B03F580531B6B784A43F4003302F580521363A7E1B86BFFF739FDF863FB6B002B00F09F81E7
S32D000123E002237B649BE1BB6B002B02D10C237B6496E16D4BDB6A1B0A5B0003F4FF73FB63694BDB6A1B0903F051
S32D000124080F035A1CFB6B02FB03F3FB63FB6A9A68FB6BB2FBF3F2BB6B1A607DE1BB6B002B02D10C237B6477E17F
S32D00012430BB6B1B68002B02D10C237B6470E1FFF7DBFC0346002B0CBF01230023DBB2002B3CD0534B00221A6026
S32D00012458514B00225A60504B00229A604E4B0022DA604D4B00221A614B4B00225A61FB6A9A68BB6B1B6819461A
S32D000124801046FFF7ADFB464B40F243421A60444B40F243425A60424B4FF488629A60404B40F24342DA603E4BBE
S32D000124A840F243421A613C4B40F243425A613B4B03F580531B6B394A43F4003302F58052136329E140F60A236A
S32D000124D07B6425E1BB6B002B02D10C237B641FE1314B5B68C3F30C02BB6B1A6018E1BB6B002B02D10C237B64F8
S32D000124F812E1FFF77DFC0346002B0CBF01230023DBB2002B19D0BB6B1B68B3F5805F02D30C237B6400E1224BCB
S32D000125205B68214A23F4FF5323F01F0353601E4B5A68BB6B1B68C3F30C031B4913434B60EEE040F60A237B64FF
S32D00012548EAE0BB6B002B02D10C237B64E4E0144B9B6A5B0803F00303FB63FB6B002B03D1BB6B00221A60D7E0A8
S32D00012570FB6B012B03D1BB6B01221A60D0E0FB6B102B03D1BB6B02221A60C9E005237B64C6E0BB6B002B09D1A9
S32D000125980C237B64C0E000BF00D004400070044000100B40FFF724FC0346002B0CBF01230023DBB2002B31D02F
S32D000125C0BB6B1B68002B0AD1584B9B6A574A23F006039362554B554A9B6A9362A0E0BB6B1B68012B0CD1514BDC
S32D000125E89B6A504A23F0060393624E4B9B6A4D4A43F0020393628FE0BB6B1B68022B0AD1484B9B6A474A23F056
S32D0001261006039362454B454A9B6A936280E005237B647DE040F60A237B6479E0BB6B002B02D10C237B6473E0A0
S32D000126383C4BDB6A3B4A43F00063D362394BDB6A03F00063002B14BF01230023DBB2002B00D0F3E7334B1B6B8D
S32D0001266003F08003002B14BF01230023DBB2002B08D02E4B1B6B2D4A43F0800313637B6B00221A60294B5B6AA3
S32D0001268803F48033002B14BF01230023DBB2002B07D07B6B1B68002B06D17B6B01221A6002E07B6B00221A6053
S32D000126B07B6B1A68BB6B1A6032E0BB6B1C221A60BB6B043304221A60BB6B08334FF41E721A6025E00220FFF73B
S32D000126D8A1FB144B1B6B03F4E003002B14BF01230023DBB2002B07D00E4B1B6B0D4A43F4E003136304237B64D8
S32D000127000A4B1B6B094A43F03203136308E040F609237B6404E000BF02E000BF00E000BF7B6C18464837BD46CB
S32D0001272880BD00BF00100B4080B590B000AF0346FB71A64BFB63A64BBB63BB6BA54A1A60FB79002B01D00123D1
S32D00012750A9E1A34B1B78DBB203F00203002B14BF01230023DBB2002B03D09D4B1B78DBB299E19B4B1B78DBB272
S32D0001277803F00303002B0CBF01230023DBB2002B01D000238BE1BB6B002B03D0BB6B1B68002B01D1002382E194
S32D000127A0FB6B904A1A60FB6B01225A60BB6B00225A60BB6B00229A60BB6B00221A61BB6B00221A73BB6B0022E9
S32D000127C85A73874B03F580531B6B854A43F4003302F580521363002141F20130FFF72CFC0346002B14BF01236C
S32D000127F00023DBB2002B01D0002354E10023BB6207F12803194641F20330FFF719FC0346002B14BF01230023F5
S32D00012818DBB2002B01D0002341E1BB6A022B08D0BB6A032B05D0BB6A052B02D0BB6A062B09D1BB6A032B02D0F5
S32D00012840BB6A062B05D1BB6B01221A7301E0002329E100BF02233B7200237B720023FB6000233B7400237B6169
S32D0001286807F10803194641F20230FFF7E5FB0346002B14BF01230023DBB2002B01D000230DE103233B72002386
S32D000128907B720023FB6000233B7400237B6107F10803194641F20230FFF7CAFB0346002B14BF01230023DBB240
S32D000128B8002B01D00023F2E0BB691B0C1B04BA6B136109233B7200237B72BB6B1B69FB6000233B7400237B613E
S32D000128E007F10803194641F20230FFF7A9FB0346002B14BF01230023DBB2002B01D00023D1E07B6A03F440035E
S32D00012908002B1ED13B6A1B0A03F00F033B633B6A03F003037B637B6B9A02FB699B0D13437B63FB69DB0903F0A0
S32D000129300703FB627B6B5A1CFB6A02339A403B6B093B9A40BB6B9A600CE0BB6B01225A73FB691B0AC3F3150304
