S01100002E2E2F50726F746575732E73313966
S32D0000C000000000205DC2000011C3000017C300001DC3000023C3000029C3000000000000000000000000000073
S32D0000C028000000002FC3000035C30000000000003BC3000041C30000D9D60000E5D60000F1D60000FDD60000FA
S32D0000C05009D7000015D7000021D700002DD7000039D7000045D7000051D700005DD7000069D7000075D70000E6
S32D0000C07881D700008DD7000099D70000A5D70000B1D70000BDD70000C9D70000D5D70000E1D70000EDD700000E
S32D0000C0A0F9D7000005D8000011D800001DD8000029D8000035D8000041D800004DD8000059D8000065D800002D
S32D0000C0C871D800007DD8000089D8000095D80000A1D80000ADD80000B9D80000C5D80000D1D80000DDD8000054
S32D0000C0F0E9D80000752A0100F5D8000001D900000DD9000019D9000025D9000031D900003DD9000049D9000002
S32D0000C11855D9000061D900006DD9000079D9000085D9000091D900009DD90000A9D90000B5D90000C1D9000011
S32D0000C140CDD90000D9D90000E5D90000F1D9000069010100FDD9000009DA000015DA000021DA00002DDA0000DC
S32D0000C16839DA000045DA000051DA00005DDA000069DA000075DA000081DA00008DDA000099DA0000A5DA0000CF
S32D0000C190B1DA0000BDDA0000C9DA000081FE000049FD0000E5FD00005DD4000021FF0000D5DA0000E1DA00005A
S32D0000C1B8EDDA0000EC67020000000020D0160000EC6702000000FF1F00000000D0160020040500000000FF1F97
S32D0000C1E00000000080B489B000AFF860B9607A60BB68FB61FB68BB6100237B617A697B689A420BD2BA69131DFB
S32D0000C208BB61FB69191DF96112681A607B6904337B61EFE700BF2437BD4680BC704780B485B000AF786039609E
S32D0000C2307B68FB600023BB60BA683B689A4208D2FB681A1DFA6000221A60BB680433BB60F2E700BF1437BD46FE
S32D0000C25880BC704780B586B000AF72B6234B4CF220521A80214B4DF628121A80204B4FF4E9721A801F4B7B615F
S32D0000C2807B691F4A934214D27B691A1D7A611B683B617B691A1D7A611B68FB607B691A1D7A611B68BB60BA68E9
S32D0000C2A8F9683869FFF79AFFE6E77B69134A93420ED27B691A1D7A611B68FB607B691A1D7A611B68BB60B9688B
S32D0000C2D0F868FFF7A8FFECE70B4B7B600B4A7B681A6011F0CDFC62B601F080F900F0A0FEFEE700BF0E2005409C
S32D0000C2F800200540BCC10000D4C10000E4C1000008ED00E000C0000080B400AFFEE780B400AFFEE780B400AFF4
S32D0000C320FEE780B400AFFEE780B400AFFEE780B400AFFEE780B400AFFEE780B400AFFEE780B400AFFEE780B426
S32D0000C34800AFFEE7FFFFFFFFFFFFFFFFFFFFFFFFFFFFFFFFFFFFFFFFFFFFFFFFFFFFFFFFFFFFFFFFFFFFFFFF57
S32D0000C370FFFFFFFFFFFFFFFFFFFFFFFFFFFFFFFFFFFFFFFFFFFFFFFFFFFFFFFFFFFFFFFFFFFFFFFFFFFFFFFFC7
S32D0000C398FFFFFFFFFFFFFFFFFFFFFFFFFFFFFFFFFFFFFFFFFFFFFFFFFFFFFFFFFFFFFFFFFFFFFFFFFFFFFFFF9F
S32D0000C3C0FFFFFFFFFFFFFFFFFFFFFFFFFFFFFFFFFFFFFFFFFFFFFFFFFFFFFFFFFFFFFFFFFFFFFFFFFFFFFFFF77
S32D0000C3E8FFFFFFFFFFFFFFFFFFFFFFFFFFFFFFFFFFFFFFFFFFFFFFFFFFFFFFFFFFFFFFFFFFFFFFFFFEFFFFFF50
S32D0000C44010B5054C237833B9044B13B10448AFF300800123237010BDD016002000000000B465020008B5034B00
S32D0000C4681BB103490348AFF3008008BD00000000D4160020B465020080B483B000AFC7E900013A68796821F0DC
S32D0000C4900043104619460C37BD4680BC7047000080B588B002AFF860C7E900234FF4A4737B61F868D7E900238B
S32D0000C4B8CDE90023044B4FF4A472044900F032FEF8681837BD4680BD80440200190B020080B588B000AFF86019
S32D0000C4E0C7E900230B46FB72FB684FF000020021184601F001FBFB6808330021184603F0ADFAD7E900010FF016
S32D0000C5089FFE0246F97A07F11403184601F0F0FAFB681A4607F11403186810609B88938097F8302007F11C0377
S32D0000C5301146184603F092FAFB683A7F1A72F968D7E90A23C1E90C23F86800F005F8FB6818462037BD4680BD35
S32D0000C55880B582B000AF786079684FF000024FF00003C1E9042379684FF000024FF00003C1E9082379684FF039
S32D0000C58000024FF00003C1E906237B6800229A627B680833184603F021FD00BF0837BD4680BD90B585B000AF81
S32D0000C5A8F860C7E90023FC68D7E900010FF048FE03461946204601F01BFBF86800F0BCF80246FB689A6200BF51
S32D0000C5D01437BD4690BD00002DE9B0438CB000AFF860C7E900234AA3D3E90023C7E90A2349A3D3E90023C7E95F
S32D0000C5F8082349A3D3E90023C7E90623D7E91201FFF73AFF80468946FB68D3E90C45F86800F092F80246FB68BA
S32D0000C6209B6AD31A18460FF0ADFA02460B46204629460FF011FB02460B4610461946D7E900230FF033FC0246D6
S32D0000C6480B46404649460FF04BF902460B46C7E90423FB68D3E90401D7E904230FF042F902460B46F968C1E9C2
S32D0000C6700423FB68D3E9084525A3D3E90023D7E904010FF0E9FA02460B4690469946FB68D3E9040120A3D3E9CA
S32D0000C69800230FF0DDFA02460B46404649460FF021F902460B4690469946FB68D3E90623D7E904010FF014F94D
S32D0000C6C002460B461046194615A3D3E900230FF0C3FA02460B46404649460FF007F902460B46204629460FF091
S32D0000C6E801F902460B46F968C1E90823F968D7E90423C1E90623FB68D3E90823104619463037BD46BDE8B083FF
S32D0000C710CDCCCCCCCCCCEC3F0AD7A3703D0AB73F333333333333D33F80B582B000AF78607B68184601F01EFA5A
S32D0000C73800BF0837BD4680BD80B582B000AF78607B680833184603F033FC034618460837BD4680BD80B483B07C
S32D0000C76000AF7860002318460C37BD4680BC704790B589B000AFF8607A603B600B46FB72FB680021184603F0DD
S32D0000C7889DFEFA7A07F114031146184603F096FEFB681C4607F1140393E8070084E80700FB687968184603F0CB
S32D0000C7B0A5FEFB683968184603F0BDFEF9684FF000024FF00003C1E90423FB6818462437BD4690BD90B585B00D
S32D0000C7D800AFF860C7E90023FC68D7E900010FF02FFD03461946204603F0BEFEF968D7E90023C1E9042300BF78
S32D0000C8001437BD4690BD0000B0B588B000AFF860B960C7E90023B8680FF0B4F9FB68D3E904230FF061F802462D
S32D0000C8280B4610461946D7E900230FF03BFB02460B46C7E9042303F0C3F8C7E90601B8680FF09CF9FB68D3E91C
S32D0000C85004230FF049F802460B46104619460FF0ABFC0346002BB8BF5B42012B2BDDFB68D3E9044503F0A8F8A8
S32D0000C878D7E906230FF034F802460B4610461946D7E904230FF0E4F902460B46204629460FF028F802460B4647
S32D0000C8A0F868FFF797FFFB68D3E904230A4804F00FFD03F089F8C7E9060105A1D1E9000103F05CF8BFE700BFAE
S32D0000C8C82037BD46B0BD00BF9A9999999999A93F581A002000000000B0B592B002AFC7E90201C7E9002388A3A2
S32D0000C8F0D3E90023C7E90C2301231C464FF000024FF00003D7E902010FF036FC0346002B01D100231C46E3B2FF
S32D0000C9181C4601231D464FF000024FF00003D7E902010FF007FC0346002B01D100231D46EBB2E31AFB620123D9
S32D0000C9401C464FF000024FF00003D7E900010FF013FC0346002B01D100231C46E3B21C4601231D464FF000028B
S32D0000C9684FF00003D7E900010FF0E4FB0346002B01D100231D46EBB2E31ABB62D7E90201FFF77AFD04460D4670
S32D0000C990D7E90001FFF774FD02460B46204629460EF0A4FF02460B46104619465AA3D3E900230FF051F9024687
S32D0000C9B80B46C7E90823D7E91423D7E902010FF071FA02460B46C7E90623D7E91423D7E900010FF067FA02462F
S32D0000C9E00B46C7E9042302F0EFFFC7E90E014C48FFF7B2FD4B48FFF7AFFDD7E90C0102F0BDFF4848FFF79CFE59
S32D0000CA0804464548FFF798FE0346234418460FF0B5F802460B4601210C46D7E908010FF0A7FB0346002B01D126
S32D0000CA3000231C46E3B2002B60D0F86A0FF0A2F804460D4602F0C0FFD7E90E230EF04CFF02460B461046194692
S32D0000CA58D7E90623CDE9002302460B462E48FFF7B7FD02460B46204629460FF0F1F802460B462948FFF791FD51
S32D0000CA80B86A0FF07FF804460D4602F09DFFD7E90E230EF029FF02460B4610461946D7E90423CDE90023024658
S32D0000CAA80B461E48FFF794FD02460B46204629460FF0CEF802460B461848FFF76EFD02F07FFFC7E90E01D7E9A6
S32D0000CAD00C0102F053FF1248FFF740FE0346002B07D01048FFF73AFE0346002B01D0012300E00023002B00D120
S32D0000CAF883E700BF0848FFF713FE0848FFF710FE00BF4037BD46B0BD333333333333C33FABAAAAAAAA2A444061
S32D0000CB20F01600202817002080B598B002AFC7E90201C7E90023D7E90023D7E902010FF0B5F902460B46CDE90C
S32D0000CB480023D7E90223D7E90201FFF7C5FE07F14001D7E902230846FFF79EFC07F1280307F140021449184627
S32D0000CB7000F013FB07F1100307F12801114A184600F023FB07F12803184607F027F907F14003184607F022F963
S32D0000CB9807F11003184607F04FFA03461946084804F07FFB07F11003184607F013F900BF5837BD4680BD00BFA7
S32D0000CBC0844402008C440200581A00200000000090B58BB000AFC7E90201C7E90023464806F0B6FD03460122C1
S32D0000CBE814464FF0000118460FF026FE0346002B01D100231C46E3B2002B00D0EBE73C4806F086FD0346184633
S32D0000CC100EF0CAFF02460B46D7E902010EF064FE02460B46C7E90823334806F083FD034618460EF0B9FF024669
S32D0000CC380B46D7E900010EF053FE02460B46C7E90623D7E90823D7E906010FF02BF902460B46104619460EF0DA
S32D0000CC60B7FB23A3D3E900230EF0F6FF02460B46C7E904234FF000024FF00003D7E908010FF05CFA0346002BD7
S32D0000CC880ED04FF000021B4BD7E904010EF02AFE02460B46104619460FF08AFA03461EE04FF000024FF0000373
S32D0000CCB0D7E904010FF056FA0346002B05D0D7E904010FF079FA03460DE04FF000020C4BD7E904010EF00AFE29
S32D0000CCD802460B46104619460FF06AFA034618462C37BD4690BD00BFE8C35CB0DDA54C40C01A0020008066407F
S32D0000CD00008076400000000080B582B000AF0346FB71FB79012B03D14FF00002144B02E04FF00002134B144813
S32D0000CD28FFF73BFCFB79002B03D14FF000020E4B02E04FF000020D4B0E48FFF72EFC08A1D1E9000102F016FE48
S32D0000CD500948FFF7E9FC0948FFF7E6FC00BF0837BD4680BDAFF300809A9999999999B93F00002E4000002EC015
S32D0000CD78F01600202817002080B483B000AF78607B68002B02DB7B68B42B07DD7B6813F1B30F05DA7B6813F516
S32D0000CDA0B47F01DB012300E0002318460C37BD4680BC704790B583B000AF78602D4806F0C7FC04467B68013B02
S32D0000CDC818460FF047FB0346194620460FF034FD0346002B10D1254806F0B6FC04467B68013318460FF036FB07
S32D0000CDF00346194620460FF041FD0346002B01D0012300E00023002B30D078680FF026FB0446184806F09CFCFB
S32D0000CE180346194620460FF067FA034618460FF033FD03461846FFF7A7FF03461846FFF767FF4FF000000E49CC
S32D0000CE4002F09CFD0B4806F083FC0346012214464FF0000118460FF0F3FC0346002B01D100231C46E3B2002B94
S32D0000CE68A8D0EBE700BF0C37BD4690BDC01A00200000E03F80B584B000AFC7E90201C7E90023D7E90023D7E9A6
S32D0000CE900201FFF79DFE03461846FFF78BFF00BF1037BD4680BD80B586B000AFF860B9607A603B607A68FB682E
S32D0000CEB8D31A7B613A68BB68D31A3B617B6903FB03F23B6903FB03F31344184600F090F902460B46104619464A
S32D0000CEE01837BD4680BD0000F0B587B000AFC7E90201C7E900234A4806F00EFC0346012214464FF0000118468E
S32D0000CF080FF09AFC0346002B01D100231C46E3B2002B00D0EBE7404806F0FAFB034618460FF0B2FC04463C48A4
S32D0000CF3006F000FC034618460FF0AAFC0546D7E902010FF039F90646D7E900010FF034F9034632462946204687
S32D0000CF58FFF7A5FFC7E904014FF000022F4BD7E904010FF005F90346002B43D0D7E90023D7E90201FFF77EFF3F
S32D0000CF804FF00002284B4FF000002849FFF7CCFD234806F0C1FB0346012214464FF0000118460FF04DFC03464E
S32D0000CFA8002B01D100231C46E3B2002B00D0EBE7194806F0ADFB034618460FF065FC0446154806F0B3FB0346DD
S32D0000CFD018460FF05DFC0546D7E902010FF0ECF80646D7E900010FF0E7F80346324629462046FFF758FFC7E90E
S32D0000CFF80401B1E7D7E90023D7E90201FFF73AFF4FF00002064BD7E90401FFF789FD00BF1C37BD46F0BD00BF45
S32D0000D020C01A002000002E400000184000001C4080B582B000AF4FF00002314B3148FFF7C9FB314806F01CF93C
S32D0000D0480021304803F099FE6FF07F412D4803F0F0FE2D492B4804F024F93A463B1D1946284803F05DFF0346E9
S32D0000D07083F00103DBB2002B00D0F2E73A463B1D1946224803F050FF0346002B00D0F5E74FF000021F4B4FF0CD
S32D0000D09800001F49FFF724FF4FF000001D4902F069FC4FF000021C4B4FF000001849FFF717FF4FF000001749FA
S32D0000D0C002F05CFC4FF00002144B37210D48FFF79BFB4FF00000114902F050FC4FF00002104B4FF00000104914
S32D0000D0E8FFF7FEFE4FF000000A4902F043FC002318460837BD4680BD0080664060170020C01A0020581A00201C
S32D0000D110A44402000000324000003E400000E03F000045400040474000803D4008B490B588B000AFF860B96056
S32D0000D1387A607B680733DB08DB00ADEB030D6B460733DB08DB00FB6107F130033B61BC683B69FA6A7968F86932
S32D0000D160A047B861BB69FA69D41807F11403184606F062FC07F114032246F969F86800F04FF807F11403184690
S32D0000D18806F058FCF8682037BD46BDE8904001B0704780B584B000AFF860B9607A60BA680021786806F0E8FE36
S32D0000D1B00346184600F04FF803461946F86806F0EDFDF8681037BD4680BD80B584B000AFF860B9607A60796860
S32D0000D1D8B86806F019FF0346184600F038F803461946F86806F0D6FDF8681037BD4680BD80B582B000AF78608E
S32D0000D20078680EF0BFFC02460B46104619460EF079FA02460B46104619460837BD4680BD90B585B000AFF8605A
S32D0000D228B9607A603B60FC68F86806F025FD03463A681946204606F001FF7A68B968F86800F00FF8FB681846AD
S32D0000D2501437BD4690BD80B483B000AF78607B6818460C37BD4680BC704780B584B000AFF860B9607A607A6868
S32D0000D278B968F86800F004F800BF1037BD4680BD90B587B000AFF860B9607A603B7023467A68B968F86800F0F8
S32D0000D2A005F800BF1C37BD4690BD000080B586B000AFF860B9607A603B70B86800F03EF80346002B05D0BA6840
S32D0000D2C87B689A4201D0012300E00023002B02D0174806F0C1FB7968B86800F03AF803467B617B690F2B10D924
S32D0000D2F007F1140300221946F86806F0CBFC03461946F86806F0B8FC7B691946F86806F0B9FCF86806F0B2FC5F
S32D0000D31803467A68B968184606F0DCFC7B691946F86806F0ADFC00BF1837BD4680BD00BFB844020080B483B0BB
S32D0000D34000AF78607B68002B0CBF01230023DBB218460C37BD4680BC7047B0B582B000AF786039607C683B1D01
S32D0000D368184600F00AF82A463968204600F00FF8034618460837BD46B0BD80B483B000AF786000BF18460C3735
S32D0000D390BD4680BC704780B485B000AFF860B9603A71BA68FB68D31A18461437BD4680BC704700000000000034
S32D0000D3B880B586B004AF786039607B68012B2CD13B684FF6FF72934227D11F21184802F013FE0023029314A374
S32D0000D3E0D3E90023CDE900234FF00002134B03211348FFF771F8072302930DA3D3E90023CDE900234FF0000282
S32D0000D4080C4B00210D48FFF763F840F61C134FF42D7200210A48FFF7A7F900BF0837BD4680BD00BFAFF3008069
S32D0000D430D8EAD9217063993FEC16002000002240F0160020281700206017002080B500AF4FF6FF710120FFF717
S32D0000D458AFFF80BD80B500AF0F4BD3F8A03003F48053002B14BF01230023DBB2002B10D0094BD3F8A030084AFA
S32D0000D48023F48053C2F8A030064806F043FA064B1B68054A23F40053136000BF80BD00BF00C00440E01A0020B0
S32D0000D4A8C0F00F4080B400AF124B4FF480725A63114B5B69104A43F4005353610E4B1B680D4A43F4005313603D
S32D0000D4D00A4B0C4A1A630C4BD3F888310A4A43F08063C2F88831084B9B68074A43F08063936000BFBD4680BCA0
S32D0000D4F8704700BF00C00440C0F00F4003010A0000E100E080B400AF334B00225A70324B98221A70304B9B7921
S32D0000D520DBB203F01003002B14BF01230023DBB2002B00D0F2E72A4B9B79DBB29B08DBB203F00303022B14BF65
S32D0000D54801230023DBB2002B00D0F0E7224B18221A71214B00225A71204B03F580531A461F4B53641C4B5422F0
S32D0000D5705A711B4B9B79DBB203F02003002B0CBF01230023DBB2002B00D0F2E7144B9B79DBB203F04003002BA6
S32D0000D5980CBF01230023DBB2002B00D0F2E70E4B1B78DBB20C4A03F03F03DBB213700A4B9B79DBB29B08DBB2B8
S32D0000D5C003F00303032B14BF01230023DBB2002B00D0F0E700231846BD4680BC704700BF00400640007004402D
S32D0000D5E80000130180B500AF314B03F580539B6B2F4A43F4785302F580529363FFF752FFFFF780FF2B4B5822EA
S32D0000D6101A602A4B1B684FF47A7202FB03F3284A1360274B1B681A46234B03F580535B6C1B0E03F00F030133BC
S32D0000D638B2FBF3F31A46214B1A601D4B03F58053DB6B1B4A43F0225302F58052D363184B03F580531B6B164A52
S32D0000D66043F0006302F580521363174B4FF480721A61642002F058F8134B5B69124A23F010035361104B00221A
S32D0000D6881A600F4B10225A610E4803F019FA02F01BFD02F079FD0C4802F0A4F80B4806F089F94FF4FA6002F0A9
S32D0000D6B04FF900BF80BD00BF00700440A4190020A0190020A819002000D00340581A00209C190020501B0020F9
S32D0000D6D880B500AFFEF733FE00BF80BD80B500AFFEF72DFE00BF80BD80B500AFFEF727FE00BF80BD80B500AF40
S32D0000D700FEF721FE00BF80BD80B500AFFEF71BFE00BF80BD80B500AFFEF715FE00BF80BD80B500AFFEF70FFE2F
S32D0000D72800BF80BD80B500AFFEF709FE00BF80BD80B500AFFEF703FE00BF80BD80B500AFFEF7FDFD00BF80BD56
S32D0000D75080B500AFFEF7F7FD00BF80BD80B500AFFEF7F1FD00BF80BD80B500AFFEF7EBFD00BF80BD80B500AF7E
S32D0000D778FEF7E5FD00BF80BD80B500AFFEF7DFFD00BF80BD80B500AFFEF7D9FD00BF80BD80B500AFFEF7D3FDAB
S32D0000D7A000BF80BD80B500AFFEF7CDFD00BF80BD80B500AFFEF7C7FD00BF80BD80B500AFFEF7C1FD00BF80BD94
S32D0000D7C880B500AFFEF7BBFD00BF80BD80B500AFFEF7B5FD00BF80BD80B500AFFEF7AFFD00BF80BD80B500AFBA
S32D0000D7F0FEF7A9FD00BF80BD80B500AFFEF7A3FD00BF80BD80B500AFFEF79DFD00BF80BD80B500AFFEF797FD23
S32D0000D81800BF80BD80B500AFFEF791FD00BF80BD80B500AFFEF78BFD00BF80BD80B500AFFEF785FD00BF80BDCF
S32D0000D84080B500AFFEF77FFD00BF80BD80B500AFFEF779FD00BF80BD80B500AFFEF773FD00BF80BD80B500AFF5
S32D0000D868FEF76DFD00BF80BD80B500AFFEF767FD00BF80BD80B500AFFEF761FD00BF80BD80B500AFFEF75BFD9A
S32D0000D89000BF80BD80B500AFFEF755FD00BF80BD80B500AFFEF74FFD00BF80BD80B500AFFEF749FD00BF80BD0B
S32D0000D8B880B500AFFEF743FD00BF80BD80B500AFFEF73DFD00BF80BD80B500AFFEF737FD00BF80BD80B500AF31
S32D0000D8E0FEF731FD00BF80BD80B500AFFEF72BFD00BF80BD80B500AFFEF725FD00BF80BD80B500AFFEF71FFD12
S32D0000D90800BF80BD80B500AFFEF719FD00BF80BD80B500AFFEF713FD00BF80BD80B500AFFEF70DFD00BF80BD46
S32D0000D93080B500AFFEF707FD00BF80BD80B500AFFEF701FD00BF80BD80B500AFFEF7FBFC00BF80BD80B500AF6D
S32D0000D958FEF7F5FC00BF80BD80B500AFFEF7EFFC00BF80BD80B500AFFEF7E9FC00BF80BD80B500AFFEF7E3FC8D
S32D0000D98000BF80BD80B500AFFEF7DDFC00BF80BD80B500AFFEF7D7FC00BF80BD80B500AFFEF7D1FC00BF80BD85
S32D0000D9A880B500AFFEF7CBFC00BF80BD80B500AFFEF7C5FC00BF80BD80B500AFFEF7BFFC00BF80BD80B500AFAB
S32D0000D9D0FEF7B9FC00BF80BD80B500AFFEF7B3FC00BF80BD80B500AFFEF7ADFC00BF80BD80B500AFFEF7A7FC05
S32D0000D9F800BF80BD80B500AFFEF7A1FC00BF80BD80B500AFFEF79BFC00BF80BD80B500AFFEF795FC00BF80BDC1
S32D0000DA2080B500AFFEF78FFC00BF80BD80B500AFFEF789FC00BF80BD80B500AFFEF783FC00BF80BD80B500AFE6
S32D0000DA48FEF77DFC00BF80BD80B500AFFEF777FC00BF80BD80B500AFFEF771FC00BF80BD80B500AFFEF76BFC7C
S32D0000DA7000BF80BD80B500AFFEF765FC00BF80BD80B500AFFEF75FFC00BF80BD80B500AFFEF759FC00BF80BDFC
S32D0000DA9880B500AFFEF753FC00BF80BD80B500AFFEF74DFC00BF80BD80B500AFFEF747FC00BF80BD80B500AF22
S32D0000DAC0FEF741FC00BF80BD80B500AFFEF73BFC00BF80BD80B500AFFEF735FC00BF80BD80B500AFFEF72FFCF4
S32D0000DAE800BF80BD80B500AFFEF729FC00BF80BD80B584B000AFF8600B467A60FB72FB68FA7A1A71FB6800222B
S32D0000DB105A71174978680EF0B1FE0346002B02D0134B7B600AE04FF07E5178680EF092FE0346002B02D04FF0C5
S32D0000DB387E537B6078680EF033F809A3D3E900230EF086F802460B46104619460EF078FB0246FB681A60FB68BC
S32D0000DB6018461037BD4680BDABAAAAAAAAAA20400000404180B582B000AF78607B685B79002B09D07B68002226
S32D0000DB885A717B6819791E230022034801F064FE00BF0837BD4680BD9C19002080B584B000AF786039603B68EF
S32D0000DBB07F2B02DD7F23FB7308E03B6813F1800F02DA8023FB7301E03B68FB737B685B79FA7B9A4209D07B68ED
S32D0000DBD8FA7B5A717B681979FA7B1E23034801F03BFE00BF1037BD4680BD00BF9C190020B0B584B000AF786045
S32D0000DC003960374938680EF01BFE0346002B02D0334B3B6008E0334938680EF02FFE0346002B01D02F4B3B603E
S32D0000DC2838680DF0BDFF04460D467B681B6818460DF0B6FF4FF00002294B0EF033F902460B46204629460EF017
S32D0000DC5003F802460B46104619460EF0F5FA03463B604FF0000138680EF0FEFD0346002B10D038680DF098FF2B
S32D0000DC7817A3D3E900230DF0EBFF02460B46104619460EF095FA0346FB6018E038680DF087FF4FF00002134BC5
S32D0000DCA00DF0DAFF02460B46104619464FF000020D4B0EF0FBF802460B46104619460EF07BFA0346FB60F968E2
S32D0000DCC87868FFF76BFF00BF1037BD46B0BD00BF52B81E85EB51F43F0000C8C20000C8420000594000006040D0
S32D0000DCF080B483B000AF03460A46FB711346BB71BB79002B03D1134B00221A7002E0114B01221A703823FB7177
S32D0000DD180E4B1A78FB791343FB710D4B9B78DBB20B4A43F01003DBB29370094B9B78DBB2074A43F02003DBB271
S32D0000DD409370054AFB79137100BF0C37BD4680BC704700BF781700200060064080B483B000AF01237B607B6867
S32D0000DD68312B04DC00BF7B6801337B60F7E700BF0C37BD4680BC704780B582B000AF03460A46FB711346BB712A
S32D0000DD90134B1B7800211846FFF7AAFF00F024F8104AFB79137100F01FF80E4ABB79137100F01AF80B4B9B7876
S32D0000DDB8DBB20A4A23F02003DBB29370074B9B78DBB2064A23F01003DBB29370FFF7C2FF00BF0837BD4680BDA9
S32D0000DDE0791700200060064080B483B000AF174B1B78002B24D100237B60154BDB78DBB203F00203002B0CBF68
S32D0000DE0801230023DBB2002B0DD07B6842F21072934203DD0B4B01221A7004E07B6801337B6000BFE5E7084B0B
S32D0000DE30DB78DBB2064A43F00203DBB2D37000E000BF0C37BD4680BC704700BF7A1700200060064080B582B037
S32D0000DE5800AF0346FB71FB79184600F05FF800BF0837BD4680BD80B582B000AF03460A46FB711346BB7100F051
S32D0000DE8035F8FB795B00DBB21846FFF7E3FFBB791846FFF7DFFF00F037F800BF0837BD4680BD80B500AFFF20EF
S32D0000DEA800F03CF80346184680BD80B584B000AF0346FB7100F016F8FB795B005BB243F001035BB2DBB218466E
S32D0000DED0FFF7C0FFFFF7E5FF0346FB7300F014F8FB7B18461037BD4680BD000080B400AF044B9B68034A43F4CE
S32D0000DEF88013936000BFBD4680BC704740F00F4080B400AF044B5B68034A43F48013536000BFBD4680BC7047CE
S32D0000DF2040F00F4080B485B000AF0346FB710023BB73164BDB6A03F00043012B0CBF01230023DBB2002B03D091
S32D0000DF48FB7B0133FB73F0E70E4BDB6A0D4A43F00043D3620B4AFB7953630A4BDB6A03F40033002B0CBF0123BF
S32D0000DF700023DBB2002B00D0F3E7044B9B6BBB73BB7B18461437BD4680BC704700C00A4080B582B000AF204B1B
S32D0000DF9803F580531B6B1E4A43F4805302F5805213631C4B4FF480721A651B4B5B691A4A43F480135361FFF73C
S32D0000DFC0A3FF164B4FF400725A65144B4FF400729A65124B4FF40072DA65124B124A1A60104B124ADA60002311
S32D0000DFE87B607B68092B06DCFF20FFF72FFF7B6801337B60F5E704A1D1E9000101F0BAFC00BF0837BD4680BDE1
S32D0000E0109A9999999999B93F0070044000A0044040F00F4000C00A40000C00800500003E90B486B000AFF860E2
S32D0000E038B9607A60FB68534A93420AD1524B03F580535B6B504A43F4806302F58052536345E0FB684D4A9342C2
S32D0000E0600AD14B4B03F580535B6B494A43F4006302F58052536336E0FB68474A93420AD1434B03F580535B6B0B
S32D0000E088414A43F4805302F58052536327E0FB68404A93420AD13C4B03F580535B6B3A4A43F4005302F58052C3
S32D0000E0B0536318E0FB683A4A93420AD1344B03F580539B6A324A43F4806302F58052936209E02F4B03F580532C
S32D0000E0D89B6A2D4A43F4006302F580529362FB68DB78DBB223F00C03DAB2FB68DA70FB6800229A70BB684FF4B3
S32D0000E1007A7203FB02F27B681B0192FBF3F39CB2FB681B78DBB223F01F03FB75230A9BB2DBB203F01F03DAB283
S32D0000E128FB7D1343DAB2FB681A70E2B2FB685A70BB684FF4FA4203FB02F27B681B0192FBF3F39AB263019BB2BE
S32D0000E150D31A9CB2FB689B7ADBB223F01F03FB75E3B203F01F03DAB2FB7D1343DAB2FB689A72FB68DB78DBB27A
S32D0000E17843F00C03DAB2FB68DA7000BF1837BD4690BC704700A006400070044000B0064000C0064000D006403E
S32D0000E1A000A00E4080B483B000AF78607B681B79DBB203F02003002B0CBF01230023DBB2002B00D0F2E77B68DA
S32D0000E1C8DB79DBB218460C37BD4680BC704780B483B000AF78600B46FB707B681B79DBB25BB2DB43DBB2DB0967
S32D0000E1F0DBB2002B00D0F4E77B68FA78DA7100BF0C37BD4680BC704780B487B000AFF860B9607A60FB687B6162
S32D0000E2187B685A1E7A60002B14BF01230023DBB2002B06D07B695A1C7A61BA68D2B21A70EEE700BF1C37BD4681
S32D0000E24080BC704780B584B000AF786039607B681B6BFB60FA683B689A4252D07B681B79002B35D07B68587813
S32D0000E2687B6803F134010123FA6801F0F7F80346002B14BF01230023DBB2002B01D001233CE07B6800221A712F
S32D0000E2907B685A6A7B681B6A1344FA689A4217D27B68DB78FB72FB7A012B11D97B681B6AFA681344FB607B6846
S32D0000E2B858787B6803F134010123FA6801F0CEF8FB7A013BFB72EAE73B68002B15D07B6858787B6803F13401BE
S32D0000E2E001233A6800F0DAFF0346002B14BF01230023DBB2002B01D0012303E07B683A681A6300231846103799
S32D0000E308BD4680BD80B584B000AF786000217868FFF794FF0346FB73FB7B002B40F093807B681B78032B7DD1A0
S32D0000E3307B685B79002B79D07B6800221A637B6834334FF4007200211846FFF75DFF7B68552283F832227B6836
S32D0000E358AA2283F833227B68522283F834207B68522283F835207B68612283F836207B68412283F837207B687C
S32D0000E380722283F818227B68722283F819227B68412283F81A227B68612283F81B227B681B69DAB27B6883F88D
S32D0000E3A81C227B681B699BB21B0A9BB2DAB27B6883F81D227B681B691B0CDAB27B6883F81E227B681B691B0E72
S32D0000E3D0DAB27B6883F81F227B68DB68DAB27B6883F820227B68DB689BB21B0A9BB2DAB27B6883F821227B68AD
S32D0000E3F8DB681B0CDAB27B6883F822227B68DB681B0EDAB27B6883F823227B6858787B6803F134017B685A697C
S32D0000E420012301F01FF87B6800225A717B685B7800220021184601F0E1F80346002B14BF01230023DBB2002B6B
S32D0000E44801D00123FB73FB7B18461037BD4680BD80B582B000AF78600B467B807B68002B08D07B681B78002B27
S32D0000E47004D07B68DB887A889A4201D0092311E07B685B78184601F03BF9034603F00103002B14BF01230023DA
S32D0000E498DBB2002B01D0032300E0002318460837BD4680BD80B586B000AF78607B681A687B689B8819461046B5
S32D0000E4C0FFF7CAFF0346FB75FB7D002B40F0AC807B689B7903F02003002B00F0A5807B689B7903F04003002B12
S32D0000E4E81BD07B681B6858787B6803F128017B689A69012300F0B2FF0346002B14BF01230023DBB2002B01D023
S32D0000E51001238AE07B689B7923F04003DAB27B689A717B681A687B68DB6919461046FFF789FE0346FB75FB7D99
S32D0000E538002B75D17B681B6A3B613B690B331A783B690B3342F02002D2B21A707B68DA683B691C33D2B21A7062
S32D0000E5607B68DB689BB21B0A9AB23B691D33D2B21A707B68DB681A0C3B691E33D2B21A707B68DB681A0E3B6966
S32D0000E5881F33D2B21A707B681A693B691A33D2B21A707B681B699BB21B0A9AB23B691B33D2B21A707B681B6914
S32D0000E5B01A0C3B691433D2B21A707B681B691B0C9BB21B0A9AB23B691533D2B21A700023FB603B691633FA680B
S32D0000E5D8D2B21A70FB689BB21B0A9AB23B691733D2B21A70FB681A0C3B691833D2B21A70FB681A0E3B691933E9
S32D0000E600D2B21A707B689B7923F02003DAB27B689A717B681B6801221A717B681B681846FFF774FE0346FB753E
S32D0000E628FB7D18461837BD4680BD80B584B000AF78607868FFF736FF0346FB73FB7B002B02D17B6800221A60BA
S32D0000E650FB7B18461037BD4680BD000080B588B000AF7860396080233B610F23FB604FF0FF337B610223FB611A
S32D0000E678FB69B3F5807F23D80123BB61BB69102B1AD8FB69BA6902FB03F33A6803FB02F27B68D31ABB60BB68C1
S32D0000E6A0002B09DBBB687A699A4205D9BB687B61FB693B61BB69FB60BB690133BB61E1E7FB695B00FB61D7E7EA
S32D0000E6C81D4BDB6A1C4A23F00803D3621A4BDB6A23F47F2323F47F63BB613B695B081B029AB2FB68013B1B011B
S32D0000E6F0DBB21A43BB691343114A43F46023D3620F4B5B6A03F00803002B0CBF01230023DBB2002B03D00A203F
S32D0000E71801F01AF9F0E7084BDB6A074A43F00803D362054B1B6B044A43F48013136300BF2037BD4680BD00BF23
S32D0000E74000100B4080B582B000AF786039607B6800221A60414B424ADA62404BDB6A03F08073002B14BF01231E
S32D0000E7680023DBB2002B00D0F3E73A4B0022C3F8C020384B4FF481325A60364B28229A62344B4FF001125A6433
S32D0000E7903B689B6833491846FFF760FF2F4B5B6A03F00303002B14BF01230023DBB2002B00D0F3E72C4B40F2FE
S32D0000E7B843421A602A4B40F243425A60284B4FF488629A60264B40F24342DA60244B40F243421A61224B40F212
S32D0000E7E043425A61214B03F580531B6B1F4A43F4003302F580521363184B4FF6FF721A63164B1B4A5A63154B83
S32D0000E808DB6A144A43F00063D362124BDB6A03F00063002B14BF01230023DBB2002B00D0F3E70C4B5B6A03F4C2
S32D0000E8308033002B14BF01230023DBB2002B02D07B6801221A60054B1B6B044A43F080031363002318460837A8
S32D0000E858BD4680BD00100B400080000160CC050000D0044000700440B3007F0080B400AF064B5A6A40F20733E7
S32D0000E8801340002B14BF01230023DBB21846BD4680BC704700100B4080B485B000AF7860074B1B6B7A68134099
S32D0000E8A8FB60FB68002B00D1F6E7FB6818461437BD4680BC704700BF00100B4080B584B000AF78607B681B7829
S32D0000E8D003F03F03764A52F82330FB60FB68002B05D17B681B78002B01D00123DCE0714B1B6B704A43F08003C5
S32D0000E8F813636E4B5B6A03F00103002B14BF01230023DBB2002B00D0F3E7684A7B685B689360FB6823F4400358
S32D0000E920FB607B685B789B0503F44003FA681343FB607B685B78022B03D1FB6843F40013FB607B685B78042B27
S32D0000E94816D1FB6803F44033B3F5003F08D1FB6823F44033FB60FB6843F44033FB6007E0FB6823F44033FB604E
S32D0000E970FB6843F40033FB604E4B5B684D4A9BB253607B68DB68002B2AD0FB6803F44033B3F5403F03D0FB68E9
S32D0000E99843F40013FB607B681B7A002B03D0FB6843F01003FB607B68DB68012B03D9FB6843F02003FB607B680D
S32D0000E9C0DB68B3F1FF3F0BD03A4B5A687B68DB681B04384913434B60FB6843F00203FB60344B00221A60334A8D
S32D0000E9E8FB68D3603248FFF753FF0346012B14BF01230023DBB2002B09D02C4B1B6B2B4A43F4702343F0010316
S32D0000EA101363012348E0274B1B6B03F08003002B14BF01230023DBB2002B07D0214B1B6B204A43F001131363BB
S32D0000EA38012335E01D4B1B6B03F48033002B14BF01230023DBB2002B08D0184B1B6B174A43F0011313634FF0C4
S32D0000EA60FF3321E0FB6803F44033002B15D0114B1A697B681A61FB6803F44033B3F5803F0BD10C4B5A697B682E
S32D0000EA885A610A4B9A697B689A61084BDA697B68DA61064B1B6B054A43F001031363002318461037BD4680BDE0
S32D0000EAB0F044020000100B4001000E0080B592B000AF7860396000237B643B68BB63994B7B637B6B002B02D198
S32D0000EAD840F601235FE3964B3B633B6B002B02D140F60B2357E33B6B1B68FB62FB6A002B02D140F60B234EE335
S32D0000EB007B6841F20932934200F23F837B68B3F5985F08D87B68032B00F01A837B68092B00F0098331E37B6883
S32D0000EB28A3F59853013B082B00F22B8301A252F823F000BF61EB00004DEE0000A9F0000063EE0000A1EE00006E
S32D0000EB50C7EF00000FF0000051EF00006BEF00007649786BFFF7EEFD78647B6C002B40F01083002387F84330FF
S32D0000EB78002387F82B30002387F82A30002387F82930002387F84230002387F8283000233B7200237B7200236A
S32D0000EBA0FB6000233B7400237B6107F108031846FFF788FE0346002B14BF01230023DBB2002B02D001237B6423
S32D0000EBC8E8E240F24C4000F0BFFE08233B7200237B724FF4D573FB6000233B7400237B6107F108031846FFF7F4
S32D0000EBF069FEF863FB6B002B09D1BA69FB689A4202D001237B64C9E2012387F84230012387F8283097F82830F1
S32D0000EC18002B00F0A58037233B7200237B720023FB6000233B7400237B6107F108031846FFF744FEF863FB6BCE
S32D0000EC40002B02D001237B64A8E269233B7200237B720023FB6000233B7400237B6107F108031846FFF72EFE01
S32D0000EC680346002B14BF01230023DBB2002B02D001237B648EE2BB6903F44013002B6FD00023FB630A2000F080
S32D0000EC905FFEFB6B0133FB6337233B7200237B720023FB6000233B7400237B6107F108031846FFF707FE0346F6
S32D0000ECB8002B14BF01230023DBB2002B02D001237B6428E069233B7200237B7297F84230002B02D0184BFB604F
S32D0000ECE002E04FF44013FB6000233B7400237B6107F108031846FFF7E5FD0346002B14BF01230023DBB2002BE3
S32D0000ED0802D001237B6406E0BB69002B03DBFB6B632B00D8B6E77B6C002B40F03882FB6B632B0BD9002387F816
S32D0000ED30423019E09017002094190020E444020000003040012387F8433097F84230002B0AD0002387F84230EC
S32D0000ED58BB6903F08043002B02D0012387F8423097F82A30002B02D07B6B07221A6097F82930002B02D07B6B67
S32D0000ED8008221A6097F82B30002B02D07B6B04221A6097F84330002B09D07B6B02221A6097F84230002B02D0CC
S32D0000EDA87B6B03221A6097F82B30002B0DD097F84330002B09D07B6B05221A6097F84230002B02D07B6B06222D
S32D0000EDD01A60924B00221A60904B00225A608F4B00229A608D4B0022DA608C4B00221A618A4B00225A61FB6AB6
S32D0000EDF89A68FB6A5B6819461046FFF72BFC854B40F243421A60834B40F243425A60814B4FF488629A607F4BF4
S32D0000EE2040F24342DA607D4B40F243421A617B4B40F243425A617A4B03F580531B6B784A43F4003302F5805296
S32D0000EE481363A7E1B86BFFF739FDF863FB6B002B00F09F8102237B649BE1BB6B002B02D10C237B6496E16D4B72
S32D0000EE70DB6A1B0A5B0003F4FF73FB63694BDB6A1B0903F00F035A1CFB6B02FB03F3FB63FB6A9A68FB6BB2FB1F
S32D0000EE98F3F2BB6B1A607DE1BB6B002B02D10C237B6477E1BB6B1B68002B02D10C237B6470E1FFF7DBFC0346C3
S32D0000EEC0002B0CBF01230023DBB2002B3CD0534B00221A60514B00225A60504B00229A604E4B0022DA604D4B2D
S32D0000EEE800221A614B4B00225A61FB6A9A68BB6B1B6819461046FFF7ADFB464B40F243421A60444B40F2434281
S32D0000EF105A60424B4FF488629A60404B40F24342DA603E4B40F243421A613C4B40F243425A613B4B03F58053E4
S32D0000EF381B6B394A43F4003302F58052136329E140F60A237B6425E1BB6B002B02D10C237B641FE1314B5B6836
S32D0000EF60C3F30C02BB6B1A6018E1BB6B002B02D10C237B6412E1FFF77DFC0346002B0CBF01230023DBB2002B54
S32D0000EF8819D0BB6B1B68B3F5805F02D30C237B6400E1224B5B68214A23F4FF5323F01F0353601E4B5A68BB6B41
S32D0000EFB01B68C3F30C031B4913434B60EEE040F60A237B64EAE0BB6B002B02D10C237B64E4E0144B9B6A5B08EF
S32D0000EFD803F00303FB63FB6B002B03D1BB6B00221A60D7E0FB6B012B03D1BB6B01221A60D0E0FB6B102B03D188
S32D0000F000BB6B02221A60C9E005237B64C6E0BB6B002B09D10C237B64C0E000BF00D004400070044000100B400D
S32D0000F028FFF724FC0346002B0CBF01230023DBB2002B31D0BB6B1B68002B0AD1584B9B6A574A23F0060393625C
S32D0000F050554B554A9B6A9362A0E0BB6B1B68012B0CD1514B9B6A504A23F0060393624E4B9B6A4D4A43F002036E
S32D0000F07893628FE0BB6B1B68022B0AD1484B9B6A474A23F006039362454B454A9B6A936280E005237B647DE03E
S32D0000F0A040F60A237B6479E0BB6B002B02D10C237B6473E03C4BDB6A3B4A43F00063D362394BDB6A03F00063E7
S32D0000F0C8002B14BF01230023DBB2002B00D0F3E7334B1B6B03F08003002B14BF01230023DBB2002B08D02E4BAB
S32D0000F0F01B6B2D4A43F0800313637B6B00221A60294B5B6A03F48033002B14BF01230023DBB2002B07D07B6BAA
S32D0000F1181B68002B06D17B6B01221A6002E07B6B00221A607B6B1A68BB6B1A6032E0BB6B1C221A60BB6B043308
S32D0000F14004221A60BB6B08334FF41E721A6025E00220FFF7A1FB144B1B6B03F4E003002B14BF01230023DBB209
S32D0000F168002B07D00E4B1B6B0D4A43F4E003136304237B640A4B1B6B094A43F03203136308E040F609237B6476
S32D0000F19004E000BF02E000BF00E000BF7B6C18464837BD4680BD00BF00100B4080B489B000AF786039607B68E0
S32D0000F1B87B61364B3B613B69002B01D100235FE03B691B68022B0BD03B691B68032B07D03B691B68072B03D0A6
S32D0000F1E03B691B68082B0BD12B4B5B6A03F00403002B14BF01230023DBB2002B00D0F3E73B68FB61FB69002B61
S32D0000F2083DD0FB69B3F5007F28BF4FF40073FB60FB6803339B08BB61BB69002B2AD01C4B1B6B03F4E003002BB5
S32D0000F23014BF01230023DBB2002B09D0164B1B6B154A43F4E00343F02003136300231BE0114B5B6A03F4006340
S32D0000F258002B0CBF01230023DBB2002B00D0F3E70B497B691A1D7A610A6A1A60BB69013BBB61D1E7FA69FB68B7
S32D0000F280D31AFB61BEE7012318462437BD4680BC704700BF9017002000100B4080B58EB000AFB9607A601A4649
S32D0000F2A80346FB731346BB73414B7B63FB7B002B02D1BB7B002B01D1042375E03D4B1B78DBB203F00103002BA3
S32D0000F2D014BF01230023DBB2002B01D0032367E0BB68002B01D1002362E07B6B1B7B002B02D17B685B027B60E6
S32D0000F2F8BB7B012B28D111233B7500237B757B68BB6101233B77BB7B3B6207F11403194641F20230FFF7CEFB5C
S32D0000F3200346002B0CBF01230023DBB2002B38D04FF40071B868FFF739FF0346002B14BF01230023DBB2002B31
S32D0000F3482BD00023BB7328E012233B7500237B757B68BB6101233B77BB7B3B6207F11403194641F20230FFF7DA
S32D0000F370A5FB0346002B0CBF01230023DBB2002B0FD0BB7B5B021946B868FFF70FFF0346002B14BF012300230E
S32D0000F398DBB2002B01D00023BB73BB7B002B01D0012300E0002300BF18463837BD4680BD7C1700200000002075
S32D0000F3C080B487B000AF786039607B68FB603B687B617B69002B3DD07B69B3F5007F28BF4FF400733B617A6994
S32D0000F3E83B69D31A7B613B6903339B083B613B69002BEAD0184B1B6B03F4E003002B14BF01230023DBB2002B28
S32D0000F4100AD0134B1B6B124A43F4E00343F0100313634FF0FF3316E00D4B5B6A03F48063002B0CBF0123002343
S32D0000F438DBB2002B00D0F3E7FB681A1DFA60064A1B6813623B69013B3B61D0E7012318461C37BD4680BC70470A
S32D0000F46000100B4080B58EB000AFB9607A601A460346FB731346BB735D4B7B63FB7B002B02D1BB7B002B01D143
S32D0000F4880423ADE0594B1B78DBB203F00103002B14BF01230023DBB2002B01D003239FE0524B1B78DBB203F0C4
S32D0000F4B00403002B14BF01230023DBB2002B01D0022391E0BB68002B01D100238CE07B6B1B7B002B02D17B68B7
S32D0000F4D85B027B60BB7B012B28D118233B7500237B757B68BB6100233B77BB7B3B6207F11403194641F20230FB
S32D0000F500FFF7DCFA0346002B0CBF01230023DBB2002B38D04FF40071B868FFF751FF0346002B14BF0123002323
S32D0000F528DBB2002B2BD00023BB7328E019233B7500237B757B68BB6100233B77BB7B3B6207F11403194641F262
S32D0000F5500230FFF7B3FA0346002B0CBF01230023DBB2002B0FD0BB7B5B021946B868FFF727FF0346002B14BF26
S32D0000F57801230023DBB2002B01D00023BB730D233B7500237B757B6B1B69BB6100233B7700233B6207F1140327
S32D0000F5A0194641F20230FFF789FA0346002B14BF01230023DBB2002B01D0012314E07A6A0D4B1340002B01D046
S32D0000F5C801230DE07B6A03F4F853B3F5106F00D0D5E7BB7B002B01D0012300E0002300BF18463837BD4680BD05
S32D0000F5F07C170020000000200880D9FF80B58CB000AF03463A60FB710B46BB713A4BBB62FB79002B01D0042395
S32D0000F61869E0012387F82F30364B1B78DBB203F00103002B14BF01230023DBB2002B01D0032358E0BB79032B53
S32D0000F64050D801A252F823F059F6000061F6000071F6000081F60000002387F82F3044E0BB6A9A683B681A6087
S32D0000F668002387F82F303CE03B684FF400721A80002387F82F3034E009233B7200237B72BB6A1B69FB60002340
S32D0000F6903B7400237B6107F10803194641F20230FFF70CFA0346002B14BF01230023DBB2002B01D001231AE0A6
S32D0000F6B87B6A03F44003002B0CD13B6A9B0C03F07F035A1C7B6A1B0A03F00303013B9A403B681A60002387F8EE
S32D0000F6E02F3002E0042387F82F3097F82F3018463037BD4680BD00BF7C1700200000002080B483B000AF0346D2
S32D0000F708FB71FB79002B01D0012302E0034B1B78DBB218460C37BD4680BC70470000002080B483B000AF7860DE
S32D0000F730164B03F580539B6B144A43F0010302F580529363124A7B689360114B05225A600F4B1B680E4A43F04E
S32D0000F758010313600C4B1B6803F08003002B0CBF01230023DBB2002B00D0F3E7064B1B68054A23F00103136070
S32D0000F78000BF0C37BD4680BC704700BF007004400000044080B582B000AF786039607B68012B07D13B684FF656
S32D0000F7A8FF72934202D1034800F00EF800BF0837BD4680BD9C19002080B500AF4FF6FF710120FFF7E3FF80BDF7
S32D0000F7D080B483B000AF78607B6800221A707B6818460C37BD4680BC7047000080B582B000AF78607B681B78B0
S32D0000F7F883F00103DBB2002B21D0134B03F580531A464FF400639362104B4FF440721A620E4B4FF440725A62C9
S32D0000F8200D4B1B68DA0F13445B104FF4614219460A48FEF7FDFB642000F08AF87B6801221A70012300E0002303
S32D0000F84818460837BD4680BD0070044000D00440A019002000B00E4080B582B000AF7860084611461A460346DA
S32D0000F870FB700B46BB7013467B707F210E48FEF7AAFC08210C48FEF7A6FCFB7819460A48FEF7A1FCBB78194652
S32D0000F8980748FEF79CFC7B7819460548FEF797FCFF210348FEF793FC00BF0837BD4680BD00B00E4080B487B0A9
S32D0000F8C000AFF860B9607A60FB681F4AA2FB03239B09BA6813447B61FB681B4AA2FB031292094FF47A7101FB59
S32D0000F8E802F29B1AFB60FB68DB03154AA2FB03239B097A6813443B613B69DB0B7A6913447B613B69C3F30E0307
S32D0000F9103B610E4B1B687A699A4209D80B4B1B687A699A4206D1094B5B683A699A4201D9012300E00023002B80
S32D0000F93800D0EAE700BF1C37BD4680BC704700BFD34D621000D0034080B584B000AF7860074B1B68FB60064B23
S32D0000F9605B68BB607B68BA68F9681846FFF7A6FF00BF1037BD4680BD00D0034080B584B000AFC7E900010E4BC1
S32D0000F9881B68FB600C4B5B68BB604FF000020B4BD7E900010CF05CF902460B46104619460CF02EFC0346BA68B6
S32D0000F9B0F9681846FFF782FF00BF1037BD4680BD00D0034000408F4080B584B000AF134B1B68FB60114B5B6818
S32D0000F9D8BB60F8680CF0C2F802460B46C7E90023B8680CF0BBF84FF000020B4B0CF05AFA02460B46D7E9000154
S32D0000FA000BF074FF02460B46C7E90023D7E90023104619461037BD4680BD00BF00D003400000E04080B483B086
S32D0000FA2800AF0B4B1B684FF47A7202FB03F37B60074B5B684FF47A7202FB03F3DB0B7A6813447B607B681846B9
S32D0000FA500C37BD4680BC704700D0034080B584B000AF78600B46FB700B23FB73FA7BFB781946786800F094F851
S32D0000FA787B6818461037BD4680BD000080B485B000AF78607B68103B002B00DA1F335B11FB60FB68022B53D0A9
S32D0000FAA0FB68022B75DCFB68002B03D0FB68012B25D06EE0394BD3F880217B68103B594203F01F0301F01F0145
S32D0000FAC858BF4B42012101FA03F332491343C1F88031304B1A687B68103B594203F01F0301F01F0158BF4B428E
S32D0000FAF0012101FA03F3294913430B6049E0274BD3F884217B68103B594203F01F0301F01F0158BF4B420121E2
S32D0000FB1801FA03F31F491343C1F884311D4B5A687B68103B594203F01F0301F01F0158BF4B42012101FA03F3D2
S32D0000FB40164913434B6024E0144BD3F888217B68103B594203F01F0301F01F0158BF4B42012101FA03F30D4964
S32D0000FB681343C1F888310B4B9A687B68103B594203F01F0301F01F0158BF4B42012101FA03F3044913438B601B
S32D0000FB9000BF00BF1437BD4680BC704700E100E080B584B000AF78600B46FB701346BB707B68FA781A70BB7885
S32D0000FBB8FB737B681B781A46574B9B5C042B00F2A68001A252F823F0E5FB000031FC00007DFC000015FD000063
S32D0000FBE0C9FC0000FB7B1B0403F470234D497A68127810464C4A52F8202043F4897343F0010341F82230494B12
S32D0000FC085A697B681B781946454B53F8213003F01F03012101FA03F3DB43424913404B616720FFF72BFF72E041
S32D0000FC30FB7B1B0403F470233D497A6812781046394A52F8202043F4897343F0010341F82230384B5A697B6814
S32D0000FC581B781946324B53F8213003F01F03012101FA03F3DB43314913404B616820FFF705FF4CE0FB7B1B0471
S32D0000FC8003F470232C497A6812781046264A52F8202043F4897343F0010341F82230274B5A697B681B7819469C
S32D0000FCA81F4B53F8213003F01F03012101FA03F3DB43204913404B616920FFF7DFFE26E0FB7B1B0403F47023F9
S32D0000FCD01B497A6812781046134A52F8202043F4897343F0010341F82230164B5A697B681B7819460C4B53F869
S32D0000FCF8213003F01F03012101FA03F3DB430F4913404B616B20FFF7B9FE00E000BF00BF1037BD4680BD00BF14
S32D0000FD20F0450200009004403446020000F00F4000A0044040F00F4000B0044080F00F4000D0044000F10F4085
S32D0000FD48B0B48BB000AF224B3C1D1D460FCD0FC495E80F0084E80F0000237B627B6A072B30DC1C4BD3F8A0204B
S32D0000FD707B6A9B0028333B4453F8243C012101FA03F31340002B14BF01230023DBB2002B18D0134A7B6A52F889
S32D0000FD9823305A1C10497B6A41F823200D4BD3F8A0207B6A9B0028333B4453F8243C012101FA03F3074913401C
S32D0000FDC0C1F8A0307B6A01337B62CBE700BF2C37BD46B0BC704700BF3847020000A00440CC190020B0B489B0D6
S32D0000FDE800AF224B3C1D1D460FCD0FC495E8030084E803000023FB61FB69052B30DC1C4BD3F8A020FB699B0067
S32D0000FE1020333B4453F81C3C012101FA03F31340002B14BF01230023DBB2002B18D0FB690833124A52F823207C
S32D0000FE380132104941F823200D4BD3F8A020FB699B0020333B4453F81C3C012101FA03F307491340C1F8A030FE
S32D0000FE60FB690133FB61CBE700BF2437BD46B0BC704700BF5847020000B00440CC190020B0B48DB000AF234B77
S32D0000FE883C461D460FCD0FC40FCD0FC495E8070084E807000023FB62FB6A0A2B30DC1C4BD3F8A020FB6A9B00FA
S32D0000FEB030333B4453F8303C012101FA03F31340002B14BF01230023DBB2002B18D0FB6A0E33124A52F82320B1
S32D0000FED80132104941F823200D4BD3F8A020FB6A9B0030333B4453F8303C012101FA03F307491340C1F8A03039
S32D0000FF00FB6A0133FB62CBE700BF3437BD46B0BC704700BF7047020000900440CC190020B0B487B000AF214BD4
S32D0000FF283C461D460FCD0FC42B68236000237B617B69042B30DC1C4BD3F8A0207B699B0018333B4453F8183C09
S32D0000FF50012101FA03F31340002B14BF01230023DBB2002B18D07B691933124A52F823200132104941F8232017
S32D0000FF780D4BD3F8A0207B699B0018333B4453F8183C012101FA03F307491340C1F8A0307B6901337B61CBE7AB
S32D0000FFA000BF1C37BD46B0BC704700BF9C47020000D00440CC19002080B483B000AF78607B681B781A46044B2B
S32D0000FFC853F8223018460C37BD4680BC704700BFCC19002080B483B000AF78607B681B781946044B002243F8A4
S32D0000FFF0212000BF0C37BD4680BC7047CC19002080B483B000AF78600B46FB707B68FA781A707B6818460C3798
S32D00010018BD4680BC7047000080B586B000AF78607B681B781A46234B53F822303B617B681B781A46204B9B5C1C
S32D00010040FB733B69DBB203F01F03DAB21D4B1A723B69DBB203F01F03DAB21A4B5A72FB7B002B13D11749184815
S32D0001006800F0CEF9164B1B6803F08003802B14BF01230023DBB2002B00D0F3E7104B1B697B6112E00D490F48D7
S32D0001009000F0BAF90D4B1B6803F08003802B14BF01230023DBB2002B00D0F3E7074B1B697B617B6918461837E3
S32D000100B8BD4680BDB446020010460200BC19002000B0034000B00B4098B500AF204B5C221A701F4B10225A70CD
S32D000100E01D4B41F234225A801B4B45F278629A80194B10229A71184B0722DA71164B4FF4C022DA60144B1F22BD
S32D000101081A72134B1F225A721149124800F078F90F49114800F074F90F4800F0D2F80D4800F0CFF80A490C48EA
S32D0001013000F06AF90849094800F066F9094A064B14460FCB84E80F00064B5C221A70054B0422DA7100BF98BDDB
S32D00010158AC19002000B0034000B00B40BC19002080B500AF064B1B680133054A136000F03DF8044B0122C3F8B0
S32D000101800C2100BF80BD00BF501A00200070034080B500AF0C4B01221A600C4800F01AF8094B0322C3F80821A0
S32D000101A8094BD3F88831084A43F01003C2F88831054B9B68044A43F01003936000BF80BD00700340A086010095
S32D000101D000E100E080B483B000AF7860044A7B68C2F8003100BF0C37BD4680BC704700BF0070034080B584B062
S32D000101F800AF174B1B68FB60FB68002B24D0FB685B78FB71FB689B68184600F023F80346BB71BB79002B13D03F
S32D00010220FB685B68012B0FDDFB689B681B69BB60BB68002B08D0BB685B685A1CBB685A60BB681B69BB60F3E771
S32D00010248FB68DB68FB60D7E700BF1037BD4680BD4C1A002080B584B000AF78607868FFF7DBFEF8607B689B691E
S32D000102705B78FB72FB7A002B0FD17B68DB68FA689A420ADD7B689B6901225A707B685B685A1C7B685A600123A3
S32D0001029813E0FB7A012B0FD17B689B68FA689A420ADA7B689B6900225A707B685B685A1C7B685A60012300E02B
S32D000102C0002318461037BD4680BD80B485B000AF78607B681B6A23F040027B681A627B685B6A23F00B027B6850
S32D000102E85A627B685B6A43F007027B685A627B685B6A43F080027B685A627B681B6803F08003002B0CBF0123B6
S32D000103100023DBB2002B00D0F3E77B685B6A03F04003402B0CBF01230023DBB2002B01D0012364E00023FB814E
S32D000103387B68DB6CFB817B689B6C9AB2FB891344FB817B685B6C9AB2FB891344FB817B681B6C9AB2FB89134485
S32D00010360FB817B68DB6B9AB2FB891344FB817B689B6B9AB2FB891344FB81FB895B08FB81FB896FEA43436FEA7B
S32D000103885343FB81FA897B68DA620023FB817B68DB6EFB817B689B6E9AB2FB891344FB817B685B6E9AB2FB8940
S32D000103B01344FB817B681B6E9AB2FB891344FB817B68DB6D9AB2FB891344FB817B689B6D9AB2FB891344FB81E0
S32D000103D8FB895B08FB81FB896FEA43436FEA5343FB81FA897B681A637B685B6A23F080027B685A620023184685
S32D000104001437BD4680BC704780B483B000AF786039603B681B781A467B689A603B685B781A467B68DA603B68FC
S32D000104285B881A467B689A613B689B881A467B68DA613B689B791A467B681A623B68DB791A467B685A623B6831
S32D00010450DA687B681A653B681B7A1A467B681A603B685B7A1A467B685A6000BF0C37BD4680BC704780B483B010
S32D0001047800AF78607B6818460C37BD4680BC704780B582B000AF786039607B68012B07D13B684FF6FF729342B8
S32D000104A002D10348FFF7E6FF00BF0837BD4680BD541A002080B500AF4FF6FF710120FFF7E3FF80BD80B483B032
S32D000104C800AF78600B46FB707B68FA781A707B684FF4FA725A807B6840F6C4129A807B68034A9A607B68184603
S32D000104F00C37BD4680BC7047000080BF80B483B000AF786039603B68B3F5FA7F04DB3B6840F6C412934204DDD6
S32D000105187B684FF4FA725A8004E03B689AB27B685A8000BF00BF0C37BD4680BC704780B483B000AF786039607A
S32D000105403B68B3F5FA7F04DB3B6840F6C412934204DD7B6840F6C4129A8004E03B689AB27B689A8000BF00BF2D
S32D000105680C37BD4680BC70472DE9904385B000AF786039604FF0000138680CF05DF90346002B02D04FF0000333
S32D000105903B60324938680CF071F90346002B01D02E4B3B607B689B68194638680CF03EF90346002B00D04BE040
S32D000105B87B683A689A607B685C887B689B881A467B685B88D31A18460BF0D8FA4FF00002214B0BF067FC024637
S32D000105E00B469046994638680BF0DEFA02460B46404649460BF030FB02460B46104619460BF002FE03469BB2C0
S32D000106082344FB81FB897B73FB891B0A9BB23B737F211248FDF7DBFD05211048FDF7D7FD7B681B7819460D4894
S32D00010630FDF7D1FD3B7B19460A48FDF7CCFD7B7B19460848FDF7C7FDFF210648FDF7C3FD00BF1437BD46BDE884
S32D00010658908300BF000034430080664000B00E4080B582B000AF7860B84B4FF48072DA60B74B4FF480729A6471
S32D00010680B54B4FF480721A64B34B4FF480725A64B14B4FF48072DA60B04B5B69AF4A43F008035361AE4B5B69D5
S32D000106A8AD4A43F480235361AB4B5B69AA4A43F480335361A84B5B69A74A43F400335361A54B1B68A44A43F0F8
S32D000106D008031360A24B5B69A14A43F0080353619E4B1B689D4A43F0080313609A4B4FF480725A62984B4FF4EF
S32D000106F880721A62954B4FF480721A61934B4FF480725A61914B4FF480729A618F4B4FF48072DA618D4B4FF496
S32D0001072080721A638B4B4FF480725A63894B4FF480729A63874B4FF48072DA63854B4FF480721A64834B4FF495
S32D0001074880725A64814B4FF480729A647F4B4FF48072DA64814B4FF480721A607F4B4FF480729A607D4B4FF417
S32D000107708072DA607B4B4FF480721A61784B5B69774A43F440735361744B5B69734A43F47F2343F0F0035361DF
S32D00010798734B5B69724A43F01D035361E221786800F0BCFD1D21786800F05EFE0221786800F05AFE04217868A7
S32D000107C000F056FEE021786800F0ACFD0121786800F04EFE6420FFF7BBF8E021786800F0A1FD0321786800F07E
S32D000107E843FE0121786800F099FD0120FFF7ACF8E621786800F092FD0121786800F034FEA021786800F030FE15
S32D00010810FF21786800F02CFEB021786800F082FD1C21786800F024FE0F21786800F020FE0121786800F01CFE26
S32D000108383F21786800F018FE0021786800F014FEEF21786800F010FE0021786800F00CFEB421786800F062FD5B
S32D000108600121786800F004FE9921786800F000FE0021786800F0FCFD4521786800F0F8FD0221786800F0F4FDF4
S32D000108880021786800F0F0FD0021786800F0ECFD0021786800F0E8FDB621786800F03EFD0121786800F0E0FD02
S32D000108B00921786800F0DCFD0021786800F0D8FD0E21786800F0D4FD0221786800F0D0FD0021786800F0CCFD36
S32D000108D80021786800F0C8FDBA21786800F01EFD0F21786800F0C0FD6420FFF72DF83A21786800F013FD60215D
S32D00010900786800F0B5FD2A21786800F00BFD0021786800F0ADFD0021786800F0A9FD0121786800F0A5FD3F21FD
S32D00010928786800F0A1FD2B21786800F0F7FC0021786800F099FD0021786800F095FD0021786800F091FDEF218A
S32D0001095078680BE000B0044000A0044080F00F4040F00F4000C00440C0F00F4000F080FD3621786800F0D6FC2E
S32D000109780021786800F078FDF021786800F0CEFC0421786800F070FDB821786800F0C6FC0F21786800F068FD0D
S32D000109A00121786800F064FD314B1B68304A43F0080313606420FEF7CBFF3621786800F0B1FC0021786800F0A3
S32D000109C853FDF021786800F0A9FC0421786800F04BFD0121786800F0BCF91E226F21786800F082F8AF225621E4
S32D000109F0786800F0DBF80021786800F00AFA012301221C49786800F02BFA2921786800F089FC6420FEF79CFFEC
S32D00010A18BE21786800F082FC0E21786800F024FDF021786800F020FD0121786800F01CFD0021786800F018FD53
S32D00010A400021786800F014FD0F21786800F010FD786800F028FA0121786800F0DAF90021786800F0AFF900BF69
S32D00010A680837BD4680BD00BF40F00F40B047020080B582B000AF78607B680022DA617B6801221A627B680E22E6
S32D00010A905A607B681A229A607B6800225A617B6800229A617B684FF4A072DA607B68F0221A617B6800221A7033
S32D00010AB8786801F00DFA7B6818460837BD4680BD80B582B000AF7860064B1B78002B05D1044B01221A707868C8
S32D00010AE0FFF7C2FD00BF0837BD4680BD9C1A002080B58AB002AFF860B9607A607E23009362237A68B968F86897
S32D00010B0800F0A1FE40F24E733B610023FB61FA693B699A4240DA0023BB61214AFB6913441B781A46BB699342D3
S32D00010B3032DAFB6901331C4AD35C002B06D1FF23FB75FF23BB75FF237B7512E0FB690133154AD35C012B06D14A
S32D00010B58D423FB750023BB7526237B7505E0B523FB75BA23BB75B0237B757B7DBA7DF97DF86800F0C9F8024680
S32D00010B80FB68DA61F86801F0A7F9F86801F0E0F8BB690133BB61C4E7FB690233FB61BAE700BF2037BD4680BD83
S32D00010BA80400002080B58AB002AFF860B9607A602723009395237A68B968F86800F043FE40F2E6333B6100235C
S32D00010BD0FB61FA693B699A4240DA0023BB61214AFB6913441B781A46BB69934232DAFB6901331C4AD35C002BE8
S32D00010BF806D1FF23FB75FF23BB75FF237B7512E0FB690133154AD35C012B06D10023FB750023BB7500237B75ED
S32D00010C2005E0D423FB750023BB7526237B757B7DBA7DF97DF86800F06BF80246FB68DA61F86801F049F9F8689C
S32D00010C4801F082F8BB690133BB61C4E7FB690233FB61BAE700BF2037BD4680BD5407002080B485B000AF78609C
S32D00010C700B46FB70FB78062B29D801A252F823F0A50C01009D0C0100AB0C0100B30C0100BB0C0100C10C01008A
S32D00010C98C90C01006FF07F43FB6014E00023FB6011E04FF47F03FB600DE04FF47F43FB6009E0FF23FB6006E0BF
S32D00010CC04FF41903FB6002E0044BFB6000BFFB6818461437BD4680BC704700BF9999990080B584B000AF786084
S32D00010CE839603B681B0CFB733B681B0ABB733B687B737B7BBA7BF97B786800F005F8034618461037BD4680BDEB
S32D00010D1080B487B000AF7860084611461A460346FB700B46BB7013467B70FB789B08DBB27B61BB789B08DBB267
S32D00010D383B617B789B08DBB2FB607B691A033B699B011A43FB68134318461C37BD4680BC704780B582B000AF5E
S32D00010D6078600B46FB70FB7819467868FFF77CFF03461946786800F004F800BF0837BD4680BD80B582B000AFE5
S32D00010D887860396039687868FFF7A6FF02467B681A62786801F09CF8786800F0FDFB00BF0837BD4680BD80B568
S32D00010DB082B000AF7860786800F0F2FB00BF0837BD4680BD80B582B000AF78600B46FB70FB7819467868FFF70E
S32D00010DD847FF03461946786800F004F800BF0837BD4680BD80B582B000AF7860396039687868FFF771FF02463E
S32D00010E007B681A62786801F067F800BF0837BD4680BD80B582B000AF78600B46FB70FB7819467868FFF720FF85
S32D00010E2803461946786800F004F800BF0837BD4680BD80B582B000AF7860396039687868FFF74AFF02467B6877
S32D00010E50DA61786801F040F800BF0837BD4680BD80B586B000AFF860B9607A603B6000237B617B69BA68134495
S32D00010E781B78002B0FD07B69BA6813441B783A687968F86800F01EFE7B680C337B607B6901337B61E9E700BF4F
S32D00010EA01837BD4680BD80B582B000AF7860FDF76FF867210120FCF7DAFF00210220FCF7D6FFA0210320FCF7F4
S32D00010EC8D2FF50210420FCF7CEFF20210520FCF7CAFF20210620FCF7C6FF77210720FCF7C2FF00210820FCF7E5
S32D00010EF0BEFF00210920FCF7BAFF00210A20FCF7B6FF04210B20FCF7B2FF7B684FF0FF32DA637B684FF0FF3256
S32D00010F181A6400BF0837BD4680BD00000000000080B586B000AFF860B9607A600020FCF7BCFF0346FB75FB7D8A
S32D00010F4003F00203002B00F0CE80FCF7CFFFE020FCF780FF0220FEF7FBFCFCF7D5FF0120FEF7F6FCFCF7C2FF5D
S32D00010F68A520FCF773FF0120FEF7EEFCFCF795FF03469BB21B02BB82FCF78FFF03469AB2BB8A1343BB82FCF7D8
S32D00010F9088FF03469BB21B027B82FCF782FF03469AB27B8A13437B82BB8A1B09BB827B8A1B097B82FCF7A8FF34
S32D00010FB8FB68DB6BB3F1FF3F34D1FB681B6CB3F1FF3F2FD1BA8AFB68DA637A8AFB681A647B8AC3F57F630F3304
S32D00010FE07B82BB8A18460AF0CDFD49A3D3E900230AF032FE02460B46104619460BF024F90246BB681A607B8A39
S32D0001100818460AF0BBFD42A3D3E900230AF020FE02460B46104619460BF012F902467B681A605AE0FB68DA6BF2
S32D00011030BB8AD31A1946F86800F074F80346632B0CDCFB681A6C7B8AD31A1946F86800F069F80346632B01DCE6
S32D00011058012300E00023002B2FD0BA8AFB68DA637A8AFB681A647B8AC3F57F630F337B82BB8A18460AF082FD55
S32D0001108023A3D3E900230AF0E7FD02460B46104619460BF0D9F80246BB681A607B8A18460AF070FD1CA3D3E97A
S32D000110A800230AF0D5FD02460B46104619460BF0C7F802467B681A600FE0BB68164A1A607B68154A1A60FB6872
S32D000110D04FF0FF32DA63FB684FF0FF321A64002310E001230EE0BB680D4A1A607B680C4A1A60FB684FF0FF3254
S32D000110F8DA63FB684FF0FF321A64002318461837BD4680BDAFF30080144001144001B43F1EE0011EE001AE3F81
S32D00011120000080BF80B483B000AF786039603B68002B02DA3B685B423B603B6818460C37BD4680BC704780B5E6
S32D0001114884B000AF786039600023FB60786800F0E6FAFB683A6813441B78002B12D07B6859697B689869FB680E
S32D000111703A6813441B780246786800F08DFC786800F0E5FAFB680133FB60E6E700BF1037BD4680BD80B592B0F8
S32D0001119800AF786039604FF0000138680BF060FB0346002B1FD038680BF06EFB03467B64786C0BF04FF90346D3
S32D000111C0194638680BF094F803461F4918460BF099F9034618460BF05BFB03463B6407F10C003B6C7A6C19490B
S32D000111E80DF0BCFC22E03B6883F000433B6038680BF04AFB03467B64786C0BF02BF90346194638680BF070F877
S32D0001121003460D4918460BF075F9034618460BF037FB03463B6407F10C003B6C7A6C08490DF098FC07F10C0313
S32D0001123819467868FFF783FF00BF4837BD4680BD00007A44CC470200C047020080B584B000AFF860C7E9002333
S32D00011260D7E900010AF0F0FF03461946F868FFF791FF00BF1037BD4680BD80B582B000AF78600B46FB70786857
S32D0001128800F04DFA7B6859697B689A69FB78786800F0FEFB786800F056FA00BF0837BD4680BD80B582B000AFC5
S32D000112B078603960786800F036FA39687868FFF742FF786800F01AFA00BF0837BD4680BD80B584B000AFF86054
S32D000112D8C7E90023F86800F022FAD7E90023F868FFF7B4FFF86800F005FA00BF1037BD4680BD80B582B000AF11
S32D0001130078600B46FB70786800F00DFAFB7819467868FFF7B2FF786800F0F0F900BF0837BD4680BD80B483B09C
S32D0001132800AF78600B46FB704D4B1B684C4A23F0080313604B4B1B684A4A23F480231360484B1B68474A43F459
S32D0001135080331360454B1B68444A23F440731360414B1B68404A23F4435323F0300313603E4B1A68FB785B0290
S32D0001137803F400733B4913430B603A4B1A68FB785B101B0203F48073364913430B60344B1A68FB789B101B0130
S32D000113A003F01003304913430B602F4B1A68FB78DB105B0103F020032B4913430B602A4B1A68FB781B119B01AB
S32D000113C803F04003264913430B60254B1A68FB785B11DB01DBB2224913430B60204B1A68FB789B111B0303F409
S32D000113F080531D4913430B601B4B1A6897F90330DB115BB25B0303F40053174913430B60164B1B68154A23F40D
S32D0001141800331360134B1B68124A43F4003313600F4B1B680E4A43F0080313600D4B1B680C4A43F44073136071
S32D00011440094B1B68084A43F4435343F030031360064B1B68054A43F48023136000BF0C37BD4680BC704700BF87
S32D0001146880F00F4040F00F4080B483B000AF78600B46FB70464B1B68454A23F008031360444B1B68434A43F463
S32D0001149080331360414B1B68404A43F4802313603E4B1B683D4A23F4407313603A4B1B68394A23F4435323F006
S32D000114B830031360374B1A68FB785B0203F40073344913430B60334B1A68FB785B101B0203F480732F49134330
S32D000114E00B602D4B1A68FB789B101B0103F01003294913430B60284B1A68FB78DB105B0103F02003244913437D
S32D000115080B60234B1A68FB781B119B0103F040031F4913430B601E4B1A68FB785B11DB01DBB21B4913430B6067
S32D00011530194B1A68FB789B111B0303F48053164913430B60144B1A6897F90330DB115BB25B0303F400531049E1
S32D0001155813430B600F4B1B680E4A23F4003313600C4B1B680B4A43F400331360084B1B68074A43F008031360CD
S32D00011580064B1B68054A23F48023136000BF0C37BD4680BC704700BF80F00F4040F00F4080B586B000AF786005
S32D000115A87B6800225A617B6800229A617B681B6AFB60FB68FB72FB681B0ABB72FB681B0CDBB203F003037B720F
S32D000115D02A217868FFF7A6FE00217868FFF748FF00217868FFF744FF01217868FFF740FF3F217868FFF73CFF07
S32D000115F82B217868FFF792FE00217868FFF734FF00217868FFF730FF00217868FFF72CFFEF217868FFF728FF93
S32D000116202C217868FFF77EFE314B1B68304A23F4407313602F4B1B682E4A23F47F2323F0F00313602C4B1B68A5
S32D000116482B4A23F01D031360274B1A687B681B6B254913430B60254B1A687B685B6B234913430B60224B1A6815
S32D000116707B689B6B204913430B601E4B1B681D4A23F0080313601A4B1B68194A43F48023136000237B617B69D9
S32D00011698EF2B19D800233B613B69B3F5A07F0FD2114B1B68104A23F4003313600E4B1B680D4A43F40033136007
S32D000116C03B6901333B61EBE77B6901337B61E2E7084B1B68074A43F008031360044B1B68034A23F480231360D4
S32D000116E800BF1837BD4680BD40F00F4080F00F40C0F00F4080B483B000AF78607B689B69002B07DD7B685B69BD
S32D000117105A1C7B685A617B6800229A6100BF0C37BD4680BC704780B582B000AF78607B685A697B685B689A4288
S32D0001173805DB7B6800225A617868FFF72DFF00BF0837BD4680BD80B582B000AF78607B689B695A1C7B689A6179
S32D000117607B689A697B689B689A4205D17868FFF7C5FF7868FFF7D7FF00BF0837BD4680BD80B586B002AFF860E4
S32D00011788B9607A600123009301237A68B968F86800F059F8F86800F0D7FA00BF1037BD4680BD80B485B000AF41
S32D000117B0786039607B681B68FB603B681A687B681A603B68FA681A6000BF1437BD4680BC704780B586B002AFBB
S32D000117D8F860B9607A603B60BA683B681A447B68009313467A68B968F86800F0ABF8BA683B68D118BA683B68A1
S32D00011800D0187A68BB691344009303467A68F86800F09CF8BA683B68D1187A68BB69D0187A68BB691344009346
S32D00011828BB680246F86800F08DF87A68BB691A447B680093BB68B968F86800F083F800BF1037BD4680BD80B5ED
S32D0001185088B000AFF860B9607A603B60FB681B78022B03D0FB681B78032B11D17B68FB61BA6AFB691344013B46
S32D00011878BB61FB68DA68BB68D31A3B613B683A69D31A01337B610DE0BB68FB613A68FB691344013BBB617B688D
S32D000118A07B61BA6A7B691344013B3B612A21F868FFF738FDFB691B0ADBB203F00F03DBB21946F868FFF7D4FD02
S32D000118C8FB69DBB21946F868FFF7CEFDBB691B0ADBB203F00F03DBB21946F868FFF7C4FDBB69DBB21946F86832
S32D000118F0FFF7BEFD2B21F868FFF714FD7B691B0ADBB203F00F03DBB21946F868FFF7B0FD7B69DBB21946F868AB
S32D00011918FFF7AAFD3B691B0ADBB203F00F03DBB21946F868FFF7A0FD3B69DBB21946F868FFF79AFD2C21F8689F
S32D00011940FFF7F0FC00BF2037BD4680BD90B58BB000AFF860B9607A603B603A68BB68D31A1946F868FFF7DEFBEB
S32D00011968F861BA6B7B68D31A1946F868FFF7D6FBB861BA69FB699A42CCBF01230023FB75FB7D002B0CD03A1DE8
S32D0001199007F1080311461846FFF707FF3B4607F138011846FFF701FFBA683B689A420CDD3A4607F1080311460A
S32D000119B81846FFF7F6FE3B1D07F138011846FFF7F0FE3A68BB689A4206D1BB687A681946F868FFF7D1FE55E0B7
S32D000119E0BA6B7B68D31A18460AF038FD04463A68BB68D31A18460AF031FD0346194620460AF034FE03463B61B5
S32D00011A087B6818460AF026FD03467B62BB683B623B683A6A9A4235DCFB7D002B14D0786A0AF0BEF84FF00002DD
S32D00011A30184B09F05BFF02460B46104619460AF0BBFB03463A6A1946F868FFF799FE13E0786A0AF0A9F84FF0EB
S32D00011A5800020E4B09F046FF02460B46104619460AF0A6FB03461A46396AF868FFF784FE3969786A0AF03AFC05
S32D00011A8003467B623B6A01333B62C5E72C37BD4690BD00BF0000E03F80B584B000AFF860B9607A60FB707A68AE
S32D00011AA813465B0013449B00991CBA6813461B011344DA1CFB78F86800F004F800BF1037BD4680BD80B58EB058
S32D00011AD002AFF860B9607A60FB70FB780A2B06D1F868FFF720FEF868FFF708FEF2E0FB787D2B02D8FB781F2BAD
S32D00011AF801D82023FB70FB78203BFB70112300930C237A68B968F868FFF79DFEFA7813469B0013446F4AD35C70
S32D00011B203B75FA7813469B00134401336B4AD35C7B75FA7813469B0013440233674AD35CBB75FA7813469B00B9
S32D00011B4813440333634AD35CFB75FA7813469B00134404335F4AD35C3B760023BB62BB6A062B00F3A180F8680E
S32D00011B7000F050F9F86800F0B3F8002387F82F3000237B627B6A042B35DC07F114027B6A13441B7803F0010318
S32D00011B98002B14BF01230023FB76FB7E002B11D097F82F3083F00103DBB2002B03D0F86800F0CAF802E0F8689F
S32D00011BC000F08EF8F86800F08BF80DE097F82F30002B03D0F86800F01DF902E0F86800F07FF8F86800F07CF801
S32D00011BE8FB7E87F82F307B6A01337B62C6E797F82F30002B03D0F86800F008F902E0F86800F06AF8F86800F0B3
S32D00011C1067F8002387F82F3000233B623B6A042B42DC07F114023B6A13441B7803F00103002B14BF01230023BA
S32D00011C38BB76BB7E002B11D097F82F3083F00103DBB2002B03D0F86800F07EF802E0F86800F042F8F86800F095
S32D00011C603FF80DE097F82F30002B03D0F86800F0D1F802E0F86800F033F8F86800F030F8BB7E87F82F3007F148
S32D00011C8814023B6A13441B785B08D9B207F114023B6A13440A461A703B6A01333B62B9E7BB6A0133BB625AE7E9
S32D00011CB0F86800F0AFF8002387F82F300123FB61FB69232B06DCF86800F00AF8FB690133FB61F5E73037BD466D
S32D00011CD880BD00BF3C0B002080B483B000AF7860174B1B68164A43F480331360154B1B68144A23F00803136018
S32D00011D00114B1B68104A43F4802313600E4B1B680D4A23F4003313600B4B1B680A4A43F400331360094B1B685D
S32D00011D28084A43F008031360054B1B68044A23F48023136000BF0C37BD4680BC704700BF40F00F4080F00F4046
S32D00011D5080B483B000AF78602B4B1B682A4A43F480331360294B1B68284A23F008031360254B1B68244A43F41A
S32D00011D7880231360224B1B68214A23F440731360204B1B681F4A23F47F2323F0F00313601D4B1B681C4A23F0A1
S32D00011DA01D031360184B1A687B685B6A164913430B60164B1A687B689B6A144913430B60134B1A687B68DB6AE3
S32D00011DC8114913430B600E4B1B680D4A23F4003313600B4B1B680A4A43F400331360094B1B68084A43F0080370
S32D00011DF01360054B1B68044A23F48023136000BF0C37BD4680BC704740F00F4080F00F40C0F00F4080B483B067
S32D00011E1800AF78602B4B1B682A4A43F480331360294B1B68284A23F008031360254B1B68244A43F480231360A2
S32D00011E40224B1B68214A23F440731360204B1B681F4A23F47F2323F0F00313601D4B1B681C4A23F01D0313605B
S32D00011E68184B1A687B681B6B164913430B60164B1A687B685B6B144913430B60134B1A687B689B6B11491343BA
S32D00011E900B600E4B1B680D4A23F4003313600B4B1B680A4A43F400331360094B1B68084A43F008031360054B94
S32D00011EB81B68044A23F48023136000BF0C37BD4680BC704740F00F4080F00F40C0F00F4080B485B000AF7860D8
S32D00011EE07B681B6AFB60FB68FB72FB681B0ABB72FB681B0CDBB203F003037B727B6800225A627B6800229A62CC
S32D00011F087B680022DA627B6800221A637B6800225A637B6800229A637B681A6BFB7A5B0203F400731A437B683F
S32D00011F301A637B681A6BFB7A5B101B0203F480731A437B681A637B685A6BFB7A9B101B0103F010031A437B68CF
S32D00011F585A637B685A6BFB7ADB105B0103F020031A437B685A637B685A6BFB7A1B119B0103F040031A437B68CB
S32D00011F805A637B685A6BFB7A5B11DB01DBB21A437B685A637B685A6BFB7A9B111B0303F480531A437B685A63D8
S32D00011FA87B685A6B97F90B30DB115BB25B0303F400531A437B685A637B685A6BBB7A9B0303F480431A437B6884
S32D00011FD05A637B685A6BBB7A5B10DB039BB21A437B685A637B685A6BBB7A9B101B0403F480331A437B685A6367
S32D00011FF87B685A6BBB7ADB105B0403F400331A437B685A637B685A6BBB7A1B119B0403F480231A437B685A632D
S32D000120207B685A6BBB7A5B11DB0403F400231A437B685A637B689A6BBB7A9B1103F001031A437B689A637B6872
S32D000120489A6B97F90A30DB115BB29B0003F004031A437B689A637B689A6B7B7ADB0003F008031A437B689A63DC
S32D000120707B689A6B7B7A5B101B0103F010031A437B689A637B68DB69FB60FB68FB72FB681B0ABB72FB681B0C09
S32D00012098DBB203F003037B727B685A6AFB7A5B0203F400731A437B685A627B685A6AFB7A5B101B0203F4807339
S32D000120C01A437B685A627B689A6AFB7A9B101B0103F010031A437B689A627B689A6AFB7ADB105B0103F02003D7
S32D000120E81A437B689A627B689A6AFB7A1B119B0103F040031A437B689A627B689A6AFB7A5B11DB01DBB21A4369
S32D000121107B689A627B689A6AFB7A9B111B0303F480531A437B689A627B689A6A97F90B30DB115BB25B0303F495
S32D0001213800531A437B689A627B689A6ABB7A9B0303F480431A437B689A627B689A6ABB7A5B10DB039BB21A432A
S32D000121607B689A627B689A6ABB7A9B101B0403F480331A437B689A627B689A6ABB7ADB105B0403F400331A43B8
S32D000121887B689A627B689A6ABB7A1B119B0403F480231A437B689A627B689A6ABB7A5B11DB0403F400231A43AE
S32D000121B07B689A627B68DA6ABB7A9B1103F001031A437B68DA627B68DA6A97F90A30DB115BB29B0003F0040327
S32D000121D81A437B68DA627B68DA6A7B7ADB0003F008031A437B68DA627B68DA6A7B7A5B101B0103F010031A43E5
S32D000122007B68DA6200BF1437BD4680BC704780B483B000AF78607B6818460C37BD4680BC704780B584B000AF10
S32D00012228F860B9607A603B60FB682033B96818460CF030FEFB687A681A60FB683A689A60FB68BA691A61FB6820
S32D00012250FA695A61FB681A68FB681B691A44FB685A60FB689A68FB685B691A44FB68DA60FB683A6A9A61FB680E
S32D000122787A6ADA61FB680022C3F8E82000BF1037BD4680BDF0B585B002AF78607B689B6919461F48FEF7CDFDBB
S32D000122A07B6819687B689A687B6818697B685B69009303461848FFF78CFA7B68DB6919461548FEF7BAFD7B6891
S32D000122C803F120047B681B681D467B681B691E467B68203318460CF04FFE024613465B0013449B00F31A5B0800
S32D000122F02B4418467B689A687B685B69113BD90F0B445B101344024621460348FEF7A8FD00BF0C37BD46F0BDDB
S32D00012318581A002080B584B002AF78607B689B6919461F48FEF785FD7B681B68591C7B689B685A1C7B681B6950
S32D00012340981E7B685B69023B009303461648FFF740FA7B681B68991C7B689B689A1C7B681B69181F7B685B696E
S32D00012368043B009303460E48FFF72FFA7B681B68D91C7B689B68DA1C7B681B69981F7B685B69063B009303469D
S32D000123900548FFF71EFA7B680122C3F8E82000BF0837BD4680BD00BF581A002080B584B002AF786000211F48F1
S32D000123B8FEF73FFD7B681B68D91C7B689B68DA1C7B681B69981F7B685B69063B009303461648FFF7FAF97B6882
S32D000123E01B68991C7B689B689A1C7B681B69181F7B685B69043B009303460E48FFF7E9F97B681B68591C7B68AE
S32D000124089B685A1C7B681B69981E7B685B69023B009303460548FFF7D8F97B680022C3F8E82000BF0837BD4672
S32D0001243080BD00BF581A002080B584B000AFF860B9607A603B60FB681B6818460AF006F80246BB681946104695
S32D000124580AF0FCF90346002B00F08180FB685B68184609F0F7FF0246BB68194610460AF0F7F90346002B72D0CE
S32D00012480FB689B68184609F0E9FF02467B68194610460AF0DFF90346002B64D0FB68DB68184609F0DBFF02460F
S32D000124A87B68194610460AF0DBF90346002B56D03A1D07F1080319462B48FEF731FDFB681B68184609F0C6FFB4
S32D000124D00246BB68194610460AF0BCF90346002B3FD0FB685B68184609F0B8FF0246BB68194610460AF0B8F98C
S32D000124F80346002B31D0FB689B68184609F0AAFF02467B68194610460AF0A0F90346002B23D0FB68DB681846FC
S32D0001252009F09CFF02467B68194610460AF09CF90346002B15D03B68002B10D1FB68D3F8E830002B03D1F868DC
S32D00012548FFF7E8FE07E0FB68D3F8E830002B02D0F868FFF727FF012302E0002300E0002318461037BD4680BDD1
S32D00012570581A002080B586B000AFF860B9607A60BB687B617B683B6179693A690123F868FFF752FF0346002B03
S32D0001259814BF01230023DBB2002B08D007F1100207F1140319460448FEF7BAFCE8E700BF1837BD4680BD00BF1F
S32D000125C0581A0020B0B592B004AFF860B9607A603B60FB6C7B633B683B63F86C09F0D2FA02460B464FF0000093
S32D000125E84E4909F07DF902460B4614461D46386D09F0C4FA02460B462046294609F070F902460B4610461946EE
S32D0001261009F01AFE03463B62386809F0B3FA02460B464FF00000404909F05EF902460B4614461D46B86C09F03A
S32D00012638A5FA02460B462046294609F051F902460B461046194609F0FBFD0346FB61786809F000FF03461946BF
S32D00012660386A0AF003F8034618460AF011F90346BB61B86809F0F2FE03461946F86909F0F5FF034618460AF004
S32D0001268803F903467B6100237B620123BB62BA6ABB689A423DDC0123FB62FA6A7B689A422DDC7B6AEC2202FBE8
S32D000126B003F3FA68D0187A6A13469B0013449B001A467B6D9918FB6D0393BB6D02937B690193BB6900933B6B68
S32D000126D87A6BFFF7A2FD7B6AEC2202FB03F3FA6813441846FFF7CEFD7B6A01337B627A6BBB6913447B63FB6A02
S32D000127000133FB62CDE73A6B7B6913443B63FB6C7B63BB6A0133BB62BDE700BF3837BD46B0BD00BF0000744077
S32D0001272800006E4080B582B000AF786039607B68012B07D13B684FF6FF72934202D10348FEF796F900BF083798
S32D00012750BD4680BD581A002080B500AF4FF6FF710120FFF7E3FF80BD80B582B000AF7860164B03F580535B6BD9
S32D00012778144A43F0400302F580525363124B4FF400725A62104B4FF400721A620F4B14225A700E4B1B7ADBB2B0
S32D000127A00C4A43F00103DBB213720A4B80229A7002212B20FBF7E4FA3D212A20FBF7E0FA7B6818460837BD4635
S32D000127C880BD00BF0070044000C004400060064080B582B000AF786039607B68012B07D13B684FF6FF729342EC
S32D000127F002D10348FFF7B8FF00BF0837BD4680BDA01A002080B500AF4FF6FF710120FFF7E3FF80BD80B582B0A1
S32D0001281800AF78600B46FB707B68FA7811461846FDF7EAFB7B6818460837BD4680BD000080B582B000AF7860BD
S32D0001284039607B68012B08D13B684FF6FF72934203D120210348FFF7DDFF00BF0837BD4680BD00BFA41A0020AD
S32D0001286880B500AF4FF6FF710120FFF7E1FF80BD80B483B000AF78607B6800221A707B6818460C37BD4680BC34
S32D000128907047000080B582B000AF78607B681B7883F00103DBB2002B52D07B6801221A702A4B03F580535B6B17
S32D000128B8284A43F4806302F580525363264B4FF400725A60244B4FF400729A60234B1B684FF416521946224883
S32D000128E0FBF7A6FB204BDB78DBB21F4A23F00C03DBB2D3701C4BDB78DBB21B4A43F02003DBB2D370184BDB7A06
S32D00012908DBB2174A23F02003DBB2D372154BD3F88431144A43F40053C2F88431114B5B68104A43F400535360BD
S32D000129300D4BDB78DBB20C4A43F00C03DBB2D3706420FDF705F87B6801221A70012300E0002318460837BD460C
