S01100002E2E2F50726F746575732E73313966
S32D0000C000000000205DC2000011C3000017C300001DC3000023C3000029C3000000000000000000000000000073
S32D0000C028000000002FC3000035C30000000000003BC3000041C3000045D5000051D500005DD5000069D500004E
S32D0000C05075D5000081D500008DD5000099D50000A5D50000B1D50000BDD50000C9D50000D5D50000E1D50000C2
S32D0000C078EDD50000F9D5000005D6000011D600001DD6000029D6000035D6000041D600004DD6000059D60000E2
S32D0000C0A065D6000071D600007DD6000089D6000095D60000A1D60000ADD60000B9D60000C5D60000D1D6000008
S32D0000C0C8DDD60000E9D60000F5D6000001D700000DD7000019D7000025D7000031D700003DD7000049D7000029
S32D0000C0F055D70000C11E010061D700006DD7000079D7000085D7000091D700009DD70000A9D70000B5D7000006
S32D0000C118C1D70000CDD70000D9D70000E5D70000F1D70000FDD7000009D8000015D8000021D800002DD80000E9
S32D0000C14039D8000045D8000051D800005DD80000C100010069D8000075D8000081D800008DD8000099D80000C6
S32D0000C168A5D80000B1D80000BDD80000C9D80000D5D80000E1D80000EDD80000F9D8000005D9000011D90000A9
S32D0000C1901DD9000029D9000035D90000B9FC000081FB00001DFC0000C9D2000059FD000041D900004DD9000000
S32D0000C1B859D90000BC48020000000020D0160000BC4802000000FF1F00000000D0160020EC0400000000FF1FE3
S32D0000C1E00000000080B489B000AFF860B9607A60BB68FB61FB68BB6100237B617A697B689A420BD2BA69131DFB
S32D0000C208BB61FB69191DF96112681A607B6904337B61EFE700BF2437BD4680BC704780B485B000AF786039609E
S32D0000C2307B68FB600023BB60BA683B689A4208D2FB681A1DFA6000221A60BB680433BB60F2E700BF1437BD46FE
S32D0000C25880BC704780B586B000AF72B6234B4CF220521A80214B4DF628121A80204B4FF4E9721A801F4B7B615F
S32D0000C2807B691F4A934214D27B691A1D7A611B683B617B691A1D7A611B68FB607B691A1D7A611B68BB60BA68E9
S32D0000C2A8F9683869FFF79AFFE6E77B69134A93420ED27B691A1D7A611B68FB607B691A1D7A611B68BB60B9688B
S32D0000C2D0F868FFF7A8FFECE70B4B7B600B4A7B681A600FF0B9FE62B601F0B6F800F0B0FCFEE700BF0E2005406D
S32D0000C2F800200540BCC10000D4C10000E4C1000008ED00E000C0000080B400AFFEE780B400AFFEE780B400AFF4
S32D0000C320FEE780B400AFFEE780B400AFFEE780B400AFFEE780B400AFFEE780B400AFFEE780B400AFFEE780B426
S32D0000C34800AFFEE7FFFFFFFFFFFFFFFFFFFFFFFFFFFFFFFFFFFFFFFFFFFFFFFFFFFFFFFFFFFFFFFFFFFFFFFF57
S32D0000C370FFFFFFFFFFFFFFFFFFFFFFFFFFFFFFFFFFFFFFFFFFFFFFFFFFFFFFFFFFFFFFFFFFFFFFFFFFFFFFFFC7
S32D0000C398FFFFFFFFFFFFFFFFFFFFFFFFFFFFFFFFFFFFFFFFFFFFFFFFFFFFFFFFFFFFFFFFFFFFFFFFFFFFFFFF9F
S32D0000C3C0FFFFFFFFFFFFFFFFFFFFFFFFFFFFFFFFFFFFFFFFFFFFFFFFFFFFFFFFFFFFFFFFFFFFFFFFFFFFFFFF77
S32D0000C3E8FFFFFFFFFFFFFFFFFFFFFFFFFFFFFFFFFFFFFFFFFFFFFFFFFFFFFFFFFFFFFFFFFFFFFFFFFEFFFFFF50
S32D0000C44010B5054C237833B9044B13B10448AFF300800123237010BDD0160020000000007446020008B5034B5F
S32D0000C4681BB103490348AFF3008008BD00000000D41600207446020080B483B000AFC7E900013A68796821F03B
S32D0000C4900043104619460C37BD4680BC704790B587B000AF786039603B68DB0FFB75FB7D002B02D03B685B42FF
S32D0000C4B800E03B683B610A21386900F0F5FCF860FA7DFB68D41807F10803184605F00AFF07F108032D22214654
S32D0000C4E0786806F0DDF807F10803184605F000FFFB7D1946786806F009F903463A69F968184600F013FD00BF15
S32D0000C50878681C37BD4690BD80B588B002AFF860C7E900234FF4A4737B61F868D7E90023CDE90023044B4FF455
S32D0000C530A472044900F050FDF8681837BD4680BDB827020019EE010080B588B000AFF860C7E900230B46FB7260
S32D0000C558FB684FF000020021184601F001FAFB6808330021184603F091F9D7E900010EF059F80246F97A07F149
S32D0000C5801403184601F0F0F9FB681A4607F11403186810609B88938097F8302007F11C031146184603F076F939
S32D0000C5A8FB683A7F1A72F968D7E90A23C1E90C23F86800F005F8FB6818462037BD4680BD80B582B000AF786003
S32D0000C5D079684FF000024FF00003C1E9042379684FF000024FF00003C1E9082379684FF000024FF00003C1E9C1
S32D0000C5F806237B6800229A627B680833184603F005FC00BF0837BD4680BD90B585B000AFF860C7E90023FC6885
S32D0000C620D7E900010EF002F803461946204601F01BFAF86800F0BCF80246FB689A6200BF1437BD4690BD00001A
S32D0000C6482DE9B0438CB000AFF860C7E900234CA3D3E90023C7E90A234FF000024FF00003C7E9082348A3D3E9F5
S32D0000C6700023C7E90623D7E91201FFF701FF80468946FB68D3E90C45F86800F091F80246FB689B6AD31A1846FE
S32D0000C6980DF07CFC02460B46204629460DF0E0FC02460B4610461946D7E900230DF002FE02460B4640464946DC
S32D0000C6C00DF01AFB02460B46C7E90423FB68D3E90401D7E904230DF011FB02460B46F968C1E90423FB68D3E9CC
S32D0000C6E8084527A3D3E90023D7E904010DF0B8FC02460B4690469946FB68D3E904014FF000024FF000030DF0C6
S32D0000C710ABFC02460B46404649460DF0EFFA02460B4690469946FB68D3E90623D7E904010DF0E2FA02460B46F3
S32D0000C7381046194614A3D3E900230DF091FC02460B46404649460DF0D5FA02460B46204629460DF0CFFA024608
S32D0000C7600B46F968C1E90823F968D7E90423C1E90623FB68D3E90823104619463037BD46BDE8B083AFF30080A6
S32D0000C788CDCCCCCCCCCCEC3F333333333333D33F80B582B000AF78607B68184601F01EF900BF0837BD4680BDD6
S32D0000C7B080B582B000AF78607B680833184603F017FB034618460837BD4680BD80B483B000AF78600023184657
S32D0000C7D80C37BD4680BC7047B0B592B002AFC7E90201C7E9002388A3D3E90023C7E90C2301231C464FF000026C
S32D0000C8004FF00003D7E902010DF0BEFE0346002B01D100231C46E3B21C4601231D464FF000024FF00003D7E9C0
S32D0000C82802010DF08FFE0346002B01D100231D46EBB2E31AFB6201231C464FF000024FF00003D7E900010DF0CB
S32D0000C8509BFE0346002B01D100231C46E3B21C4601231D464FF000024FF00003D7E900010DF06CFE0346002BB9
S32D0000C87801D100231D46EBB2E31ABB62D7E90201FFF7FAFD04460D46D7E90001FFF7F4FD02460B462046294620
S32D0000C8A00DF02CFA02460B46104619465AA3D3E900230DF0D9FB02460B46C7E90823D7E91423D7E902010DF021
S32D0000C8C8F9FC02460B46C7E90623D7E91423D7E900010DF0EFFC02460B46C7E9042302F0A7FFC7E90E014C48E0
S32D0000C8F0FFF76AFE4B48FFF767FED7E90C0102F075FF4848FFF754FF04464548FFF750FF0346234418460DF09B
S32D0000C9183DFB02460B4601210C46D7E908010DF02FFE0346002B01D100231C46E3B2002B60D0F86A0DF02AFB7A
S32D0000C94004460D4602F078FFD7E90E230DF0D4F902460B4610461946D7E90623CDE9002302460B462E48FFF7F3
S32D0000C9686FFE02460B46204629460DF079FB02460B462948FFF749FEB86A0DF007FB04460D4602F055FFD7E94A
S32D0000C9900E230DF0B1F902460B4610461946D7E90423CDE9002302460B461E48FFF74CFE02460B4620462946E6
S32D0000C9B80DF056FB02460B461848FFF726FE02F037FFC7E90E01D7E90C0102F00BFF1248FFF7F8FE0346002B86
S32D0000C9E007D01048FFF7F2FE0346002B01D0012300E00023002B00D183E700BF0848FFF7CBFE0848FFF7C8FE68
S32D0000CA0800BF4037BD46B0BD333333333333C33FABAAAAAAAA2A4440F01600202817002080B598B002AFC7E9C2
S32D0000CA300201C7E90023D7E90023D7E902010DF03DFC02460B46CDE90023D7E90223D7E90201FFF7C5FE07F15B
S32D0000CA584001D7E902230846FFF756FD07F1280307F140021449184600F0E9FA07F1100307F12801114A184623
S32D0000CA8000F0F9FA07F12803184605F033FE07F14003184605F02EFE07F11003184605F05FFF03461946084890
S32D0000CAA804F0B3FA07F11003184605F01FFE00BF5837BD4680BD00BFBC270200C4270200401A002000000000AB
S32D0000CAD0B0B59AB002AFF860C7E90023F8680DF059FA4FF000022E4B0DF0E8FB02460B461046194628A3D3E98E
S32D0000CAF800230DF0B5FA02460B46C7E91623BC6DFB6D83F00045D7E90023D7E916010DF0D1FB02460B46CDE9A4
S32D0000CB200023D7E9162320462946FFF759FE07F14003F9681846FFF7B2FC07F1280307F140021849184600F0FF
S32D0000CB487EFA07F1100307F12801154A184600F08EFA07F12803184605F0C8FD07F14003184605F0C3FD07F165
S32D0000CB701003184605F0F4FE034619460B4804F048FA07F11003184605F0B4FD00BF6037BD46B0BDAFF3008017
S32D0000CB98D4F19881CAC6364000807640C8270200D0270200401A002080B582B000AF204803F04EF90346184692
S32D0000CBC00DF0FAF902460B46C7E90023D7E900231A4804F031FA16A3D3E90023D7E900010DF0B4FC0346002B0D
S32D0000CBE806D01549134804F010FA4FF47F0314E04FF00002114BD7E900010DF0A3FC0346002B05D00E490B48EC
S32D0000CC1004F0FFF9FF2304E00C49084804F0F9F9002318460837BD4680BD00BFAFF300809A9999999999D93FE9
S32D0000CC38EC160020401A0020DC2702000000F03FF02702000428020080B588B000AF0623BB614FF00002854B45
S32D0000CC60C7E904230021844803F065FF6FF07F41814803F0B1FF81497F4804F0CAF93A1D07F1080319467C483B
S32D0000CC8804F01AF8034683F00103DBB2002B00D0F1E73A1D07F108031946754804F00CF80346002B00D0F4E7CB
S32D0000CCB0FFF77EFF0346002B0CBF01230023DBB2002B00D0F4E74FF000026D4B0220FFF7FFFE4FF000006749FD
S32D0000CCD802F088FD4FF00002674B4FF000006749FFF79EFE4FF00000604902F07BFD4FF00002614B6FF027007E
S32D0000CD00FFF7E6FE4FF000005A4902F06FFD4FF000025B4B4FF000005B49FFF785FE4FF00000544902F062FD7B
S32D0000CD28FFF742FFF8604FF00000504902F05AFDFB68FF2B08D14FF000024F4B4FF000005049FFF76DFE0EE0C5
S32D0000CD50FB68B3F57F0F08D14FF00002484B4FF000004B49FFF760FE01E000237EE04FF00002434B2820FFF7D9
S32D0000CD78ABFE4FF000003D4902F034FD4FF000023F4B4248FFF741FC4FF000023C4B4048FFF73BFC0023FB6178
S32D0000CDA04FF000003D4902F021FD3A48FFF700FD0246FB69D31A0A2BCCBF01230023DBB2002B09D03348FFF779
S32D0000CDC8F3FCF8614FF00000324902F00BFDE8E74FF00002284B4FF000002F49FFF720FE4FF00000214902F058
S32D0000CDF0FDFC4FF00002224B6FF05900FFF768FE4FF000001B4902F0F1FCFB68FF2B08D14FF000021A4B4FF08D
S32D0000CE1800002249FFF704FE0BE0FB68B3F57F0F07D14FF00002144B4FF000001C49FFF7F7FD4FF00002104B63
S32D0000CE405A20FFF745FE4FF000000A4902F0CEFC4FF000020A4B4FF000001449FFF7E4FD4FF00000034902F03D
S32D0000CE68C1FC002318462037BD4680BD0000E03F401A002018280200000018400040414000003940000014C086
S32D0000CE9000002CC0F0160020281700200000D03F000032C000002AC0000018C0000039C080B487B000AF786055
S32D0000CEB8396001237B613B6803FB03F33B613A683B6902FB03F3FB603A68FB6802FB03F3BB603B687A689A4278
S32D0000CEE001D27B691DE07A683B699A4202D27B69013316E07A68FB689A4202D27B6902330FE07A68BB689A424E
S32D0000CF0802D27B69033308E07A68BB68B2FBF3F37B607B6904337B61DBE718461C37BD4680BC704780B489B0E5
S32D0000CF3000AFF860B9607A60BB68013BFB617B68632B25D97A68224BA3FB02135B09642101FB03F3D31A5B008A
S32D0000CF58BB617B681C4AA2FB03235B097B60BB695A1CF968FB690B4418498A5C1A70FB69013BFA68134415490E
S32D0000CF80BA690A4412781A70FB69023BFB61D6E77B68092B10D97B685B007B617B695A1CFB6801330B498A5CFF
S32D0000CFA81A700A4A7B6913441A78FB681A7005E07B68DBB23033DAB2FB681A7000BF2437BD4680BC704700BFC3
S32D0000CFD01F85EB515828020008B490B588B000AFF860B9607A607B680733DB08DB00ADEB030D6B460733DB084D
S32D0000CFF8DB00FB6107F130033B61BC683B69FA6A7968F869A047B861BB69FA69D41807F11403184605F066F96B
S32D0000D02007F114032246F969F86800F03BF807F11403184605F05CF9F8682037BD46BDE8904001B0704780B503
S32D0000D04884B000AFF860B9607A60BA680021786805F022FC0346184600F03BF803461946F86805F023FBF86811
S32D0000D0701037BD4680BD80B584B000AFF860B9607A607968B86805F053FC0346184600F024F803461946F868A8
S32D0000D09805F00CFBF8681037BD4680BD90B585B000AFF860B9607A603B60FC68F86805F03DFA03463A6819463E
S32D0000D0C0204605F04FFC7A68B968F86800F00FF8FB6818461437BD4690BD80B483B000AF78607B6818460C3774
S32D0000D0E8BD4680BC704780B584B000AFF860B9607A607A68B968F86800F004F800BF1037BD4680BD90B587B0B0
S32D0000D11000AFF860B9607A603B7023467A68B968F86800F005F800BF1C37BD4690BD000080B586B000AFF860BF
S32D0000D138B9607A603B70B86800F03EF80346002B05D0BA687B689A4201D0012300E00023002B02D0174805F072
S32D0000D160D9F87968B86800F03AF803467B617B690F2B10D907F1140300221946F86805F0E3F903461946F868B8
S32D0000D18805F0D0F97B691946F86805F0D1F9F86805F0CAF903467A68B968184605F01CFA7B691946F86805F0F4
S32D0000D1B0C5F900BF1837BD4680BD00BF2C28020080B483B000AF78607B68002B0CBF01230023DBB218460C37F4
S32D0000D1D8BD4680BC7047B0B582B000AF786039607C683B1D184600F00AF82A463968204600F00FF803461846DB
S32D0000D2000837BD46B0BD80B483B000AF786000BF18460C37BD4680BC704780B485B000AFF860B9603A71BA68B7
S32D0000D228FB68D31A18461437BD4680BC7047000080B586B004AF786039607B68012B24D13B684FF6FF72934228
S32D0000D2501FD11F21144802F0EFFD0023029310A3D3E90023CDE900234FF000020F4B03210F48FFF769F907238B
S32D0000D278029309A3D3E90023CDE900234FF00002084B00210948FFF75BF900BF0837BD4680BD00BFAFF3008020
S32D0000D2A0D8EAD9217063993FEC16002000002240F01600202817002080B500AF4FF6FF710120FFF7B9FF80BD4B
S32D0000D2C880B500AF0F4BD3F8A03003F48053002B14BF01230023DBB2002B10D0094BD3F8A030084A23F480538D
S32D0000D2F0C2F8A030064804F067FF064B1B68054A23F40053136000BF80BD00BF00C00440C81A0020C0F00F401E
S32D0000D31880B400AF124B4FF480725A63114B5B69104A43F4005353610E4B1B680D4A43F4005313600A4B0C4A22
S32D0000D3401A630C4BD3F888310A4A43F08063C2F88831084B9B68074A43F08063936000BFBD4680BC704700BF66
S32D0000D36800C00440C0F00F4003010A0000E100E080B400AF334B00225A70324B98221A70304B9B79DBB203F0A8
S32D0000D3901003002B14BF01230023DBB2002B00D0F2E72A4B9B79DBB29B08DBB203F00303022B14BF0123002330
S32D0000D3B8DBB2002B00D0F0E7224B18221A71214B00225A71204B03F580531A461F4B53641C4B54225A711B4B98
S32D0000D3E09B79DBB203F02003002B0CBF01230023DBB2002B00D0F2E7144B9B79DBB203F04003002B0CBF01237A
S32D0000D4080023DBB2002B00D0F2E70E4B1B78DBB20C4A03F03F03DBB213700A4B9B79DBB29B08DBB203F003033F
S32D0000D430032B14BF01230023DBB2002B00D0F0E700231846BD4680BC704700BF004006400070044000001301A3
S32D0000D45880B500AF314B03F580539B6B2F4A43F4785302F580529363FFF752FFFFF780FF2B4B58221A602A4BA0
S32D0000D4801B684FF47A7202FB03F3284A1360274B1B681A46234B03F580535B6C1B0E03F00F030133B2FBF3F3AA
S32D0000D4A81A46214B1A601D4B03F58053DB6B1B4A43F0225302F58052D363184B03F580531B6B164A43F00063E1
S32D0000D4D002F580521363174B4FF480721A61642002F05AF8134B5B69124A23F010035361104B00221A600F4B6C
S32D0000D4F810225A610E4803F0BDF902F091FD02F0EFFD0C4802F0A6F80B4804F0ADFE4FF4FA6002F051F900BF4E
S32D0000D52080BD00BF007004408C190020881900209019002000D00340401A002084190020381B002080B500AF3D
S32D0000D548FEF7FDFE00BF80BD80B500AFFEF7F7FE00BF80BD80B500AFFEF7F1FE00BF80BD80B500AFFEF7EBFE79
S32D0000D57000BF80BD80B500AFFEF7E5FE00BF80BD80B500AFFEF7DFFE00BF80BD80B500AFFEF7D9FE00BF80BD7B
S32D0000D59880B500AFFEF7D3FE00BF80BD80B500AFFEF7CDFE00BF80BD80B500AFFEF7C7FE00BF80BD80B500AFA1
S32D0000D5C0FEF7C1FE00BF80BD80B500AFFEF7BBFE00BF80BD80B500AFFEF7B5FE00BF80BD80B500AFFEF7AFFEF1
S32D0000D5E800BF80BD80B500AFFEF7A9FE00BF80BD80B500AFFEF7A3FE00BF80BD80B500AFFEF79DFE00BF80BDB7
S32D0000D61080B500AFFEF797FE00BF80BD80B500AFFEF791FE00BF80BD80B500AFFEF78BFE00BF80BD80B500AFDC
S32D0000D638FEF785FE00BF80BD80B500AFFEF77FFE00BF80BD80B500AFFEF779FE00BF80BD80B500AFFEF773FE68
S32D0000D66000BF80BD80B500AFFEF76DFE00BF80BD80B500AFFEF767FE00BF80BD80B500AFFEF761FE00BF80BDF2
S32D0000D68880B500AFFEF75BFE00BF80BD80B500AFFEF755FE00BF80BD80B500AFFEF74FFE00BF80BD80B500AF18
S32D0000D6B0FEF749FE00BF80BD80B500AFFEF743FE00BF80BD80B500AFFEF73DFE00BF80BD80B500AFFEF737FEE0
S32D0000D6D800BF80BD80B500AFFEF731FE00BF80BD80B500AFFEF72BFE00BF80BD80B500AFFEF725FE00BF80BD2E
S32D0000D70080B500AFFEF71FFE00BF80BD80B500AFFEF719FE00BF80BD80B500AFFEF713FE00BF80BD80B500AF53
S32D0000D728FEF70DFE00BF80BD80B500AFFEF707FE00BF80BD80B500AFFEF701FE00BF80BD80B500AFFEF7FBFD58
S32D0000D75000BF80BD80B500AFFEF7F5FD00BF80BD80B500AFFEF7EFFD00BF80BD80B500AFFEF7E9FD00BF80BD6C
S32D0000D77880B500AFFEF7E3FD00BF80BD80B500AFFEF7DDFD00BF80BD80B500AFFEF7D7FD00BF80BD80B500AF92
S32D0000D7A0FEF7D1FD00BF80BD80B500AFFEF7CBFD00BF80BD80B500AFFEF7C5FD00BF80BD80B500AFFEF7BFFDD3
S32D0000D7C800BF80BD80B500AFFEF7B9FD00BF80BD80B500AFFEF7B3FD00BF80BD80B500AFFEF7ADFD00BF80BDA8
S32D0000D7F080B500AFFEF7A7FD00BF80BD80B500AFFEF7A1FD00BF80BD80B500AFFEF79BFD00BF80BD80B500AFCE
S32D0000D818FEF795FD00BF80BD80B500AFFEF78FFD00BF80BD80B500AFFEF789FD00BF80BD80B500AFFEF783FD4A
S32D0000D84000BF80BD80B500AFFEF77DFD00BF80BD80B500AFFEF777FD00BF80BD80B500AFFEF771FD00BF80BDE3
S32D0000D86880B500AFFEF76BFD00BF80BD80B500AFFEF765FD00BF80BD80B500AFFEF75FFD00BF80BD80B500AF09
S32D0000D890FEF759FD00BF80BD80B500AFFEF753FD00BF80BD80B500AFFEF74DFD00BF80BD80B500AFFEF747FDC2
S32D0000D8B800BF80BD80B500AFFEF741FD00BF80BD80B500AFFEF73BFD00BF80BD80B500AFFEF735FD00BF80BD1F
S32D0000D8E080B500AFFEF72FFD00BF80BD80B500AFFEF729FD00BF80BD80B500AFFEF723FD00BF80BD80B500AF45
S32D0000D908FEF71DFD00BF80BD80B500AFFEF717FD00BF80BD80B500AFFEF711FD00BF80BD80B500AFFEF70BFD39
S32D0000D93000BF80BD80B500AFFEF705FD00BF80BD80B500AFFEF7FFFC00BF80BD80B500AFFEF7F9FC00BF80BD5C
S32D0000D95880B500AFFEF7F3FC00BF80BD0000000080B584B000AFF8600B467A60FB72FB68FA7A1A71FB680022EE
S32D0000D9805A71174978680DF06BF90346002B02D0134B7B600AE04FF07E5178680DF04CF90346002B02D04FF0EF
S32D0000D9A87E537B6078680CF003FB09A3D3E900230CF056FB02460B46104619460CF032FE0246FB681A60FB68F1
S32D0000D9D018461037BD4680BDABAAAAAAAAAA20400000404180B582B000AF78607B685B79002B09D07B680022B8
S32D0000D9F85A717B6819791E230022034801F064FE00BF0837BD4680BD8419002080B584B000AF786039603B6899
S32D0000DA207F2B02DD7F23FB7308E03B6813F1800F02DA8023FB7301E03B68FB737B685B79FA7B9A4209D07B687E
S32D0000DA48FA7B5A717B681979FA7B1E23034801F03BFE00BF1037BD4680BD00BF84190020B0B584B000AF7860EE
S32D0000DA703960374938680DF0D5F80346002B02D0334B3B6008E0334938680DF0E9F80346002B01D02F4B3B606A
S32D0000DA9838680CF08DFA04460D467B681B6818460CF086FA4FF00002294B0CF003FC02460B46204629460CF046
S32D0000DAC0D3FA02460B46104619460CF0AFFD03463B604FF0000138680DF0B8F80346002B10D038680CF068FAB2
S32D0000DAE817A3D3E900230CF0BBFA02460B46104619460CF04FFD0346FB6018E038680CF057FA4FF00002134B08
S32D0000DB100CF0AAFA02460B46104619464FF000020D4B0CF0CBFB02460B46104619460CF035FD0346FB60F9681D
S32D0000DB387868FFF76BFF00BF1037BD46B0BD00BF52B81E85EB51F43F0000C8C20000C842000059400000604061
S32D0000DB6080B483B000AF03460A46FB711346BB71BB79002B03D1134B00221A7002E0114B01221A703823FB7108
S32D0000DB880E4B1A78FB791343FB710D4B9B78DBB20B4A43F01003DBB29370094B9B78DBB2074A43F02003DBB203
S32D0000DBB09370054AFB79137100BF0C37BD4680BC704700BF601700200060064080B483B000AF01237B607B6811
S32D0000DBD8312B04DC00BF7B6801337B60F7E700BF0C37BD4680BC704780B582B000AF03460A46FB711346BB71BC
S32D0000DC00134B1B7800211846FFF7AAFF00F024F8104AFB79137100F01FF80E4ABB79137100F01AF80B4B9B7807
S32D0000DC28DBB20A4A23F02003DBB29370074B9B78DBB2064A23F01003DBB29370FFF7C2FF00BF0837BD4680BD3A
S32D0000DC50611700200060064080B483B000AF174B1B78002B24D100237B60154BDB78DBB203F00203002B0CBF11
S32D0000DC7801230023DBB2002B0DD07B6842F21072934203DD0B4B01221A7004E07B6801337B6000BFE5E7084B9D
S32D0000DCA0DB78DBB2064A43F00203DBB2D37000E000BF0C37BD4680BC704700BF621700200060064080B582B0E1
S32D0000DCC800AF0346FB71FB79184600F05FF800BF0837BD4680BD80B582B000AF03460A46FB711346BB7100F0E3
S32D0000DCF035F8FB795B00DBB21846FFF7E3FFBB791846FFF7DFFF00F037F800BF0837BD4680BD80B500AFFF2081
S32D0000DD1800F03CF80346184680BD80B584B000AF0346FB7100F016F8FB795B005BB243F001035BB2DBB21846FF
S32D0000DD40FFF7C0FFFFF7E5FF0346FB7300F014F8FB7B18461037BD4680BD000080B400AF044B9B68034A43F45F
S32D0000DD688013936000BFBD4680BC704740F00F4080B400AF044B5B68034A43F48013536000BFBD4680BC70475F
S32D0000DD9040F00F4080B485B000AF0346FB710023BB73164BDB6A03F00043012B0CBF01230023DBB2002B03D023
S32D0000DDB8FB7B0133FB73F0E70E4BDB6A0D4A43F00043D3620B4AFB7953630A4BDB6A03F40033002B0CBF012351
S32D0000DDE00023DBB2002B00D0F3E7044B9B6BBB73BB7B18461437BD4680BC704700C00A4080B582B000AF204BAD
S32D0000DE0803F580531B6B1E4A43F4805302F5805213631C4B4FF480721A651B4B5B691A4A43F480135361FFF7CD
S32D0000DE30A3FF164B4FF400725A65144B4FF400729A65124B4FF40072DA65124B124A1A60104B124ADA600023A2
S32D0000DE587B607B68092B06DCFF20FFF72FFF7B6801337B60F5E704A1D1E9000101F0BAFC00BF0837BD4680BD72
S32D0000DE809A9999999999B93F0070044000A0044040F00F4000C00A40000C00800500003E90B486B000AFF86074
S32D0000DEA8B9607A60FB68534A93420AD1524B03F580535B6B504A43F4806302F58052536345E0FB684D4A934254
S32D0000DED00AD14B4B03F580535B6B494A43F4006302F58052536336E0FB68474A93420AD1434B03F580535B6B9D
S32D0000DEF8414A43F4805302F58052536327E0FB68404A93420AD13C4B03F580535B6B3A4A43F4005302F5805255
S32D0000DF20536318E0FB683A4A93420AD1344B03F580539B6A324A43F4806302F58052936209E02F4B03F58053BD
S32D0000DF489B6A2D4A43F4006302F580529362FB68DB78DBB223F00C03DAB2FB68DA70FB6800229A70BB684FF444
S32D0000DF707A7203FB02F27B681B0192FBF3F39CB2FB681B78DBB223F01F03FB75230A9BB2DBB203F01F03DAB215
S32D0000DF98FB7D1343DAB2FB681A70E2B2FB685A70BB684FF4FA4203FB02F27B681B0192FBF3F39AB263019BB250
S32D0000DFC0D31A9CB2FB689B7ADBB223F01F03FB75E3B203F01F03DAB2FB7D1343DAB2FB689A72FB68DB78DBB20C
S32D0000DFE843F00C03DAB2FB68DA7000BF1837BD4690BC704700A006400070044000B0064000C0064000D00640D0
S32D0000E01000A00E4080B483B000AF78607B681B79DBB203F02003002B0CBF01230023DBB2002B00D0F2E77B686B
S32D0000E038DB79DBB218460C37BD4680BC704780B483B000AF78600B46FB707B681B79DBB25BB2DB43DBB2DB09F8
S32D0000E060DBB2002B00D0F4E77B68FA78DA7100BF0C37BD4680BC704780B487B000AFF860B9607A60FB687B61F3
S32D0000E0887B685A1E7A60002B14BF01230023DBB2002B06D07B695A1C7A61BA68D2B21A70EEE700BF1C37BD4613
S32D0000E0B080BC704780B584B000AF786039607B681B6BFB60FA683B689A4252D07B681B79002B35D07B685878A5
S32D0000E0D87B6803F134010123FA6801F0F7F80346002B14BF01230023DBB2002B01D001233CE07B6800221A71C1
S32D0000E1007B685A6A7B681B6A1344FA689A4217D27B68DB78FB72FB7A012B11D97B681B6AFA681344FB607B68D7
S32D0000E12858787B6803F134010123FA6801F0CEF8FB7A013BFB72EAE73B68002B15D07B6858787B6803F134014F
S32D0000E15001233A6800F0DAFF0346002B14BF01230023DBB2002B01D0012303E07B683A681A630023184610372A
S32D0000E178BD4680BD80B584B000AF786000217868FFF794FF0346FB73FB7B002B40F093807B681B78032B7DD132
S32D0000E1A07B685B79002B79D07B6800221A637B6834334FF4007200211846FFF75DFF7B68552283F832227B68C8
S32D0000E1C8AA2283F833227B68522283F834207B68522283F835207B68612283F836207B68412283F837207B680E
S32D0000E1F0722283F818227B68722283F819227B68412283F81A227B68612283F81B227B681B69DAB27B6883F81F
S32D0000E2181C227B681B699BB21B0A9BB2DAB27B6883F81D227B681B691B0CDAB27B6883F81E227B681B691B0E03
S32D0000E240DAB27B6883F81F227B68DB68DAB27B6883F820227B68DB689BB21B0A9BB2DAB27B6883F821227B683E
S32D0000E268DB681B0CDAB27B6883F822227B68DB681B0EDAB27B6883F823227B6858787B6803F134017B685A690D
S32D0000E290012301F01FF87B6800225A717B685B7800220021184601F0E1F80346002B14BF01230023DBB2002BFD
S32D0000E2B801D00123FB73FB7B18461037BD4680BD80B582B000AF78600B467B807B68002B08D07B681B78002BB9
S32D0000E2E004D07B68DB887A889A4201D0092311E07B685B78184601F03BF9034603F00103002B14BF012300236C
S32D0000E308DBB2002B01D0032300E0002318460837BD4680BD80B586B000AF78607B681A687B689B881946104646
S32D0000E330FFF7CAFF0346FB75FB7D002B40F0AC807B689B7903F02003002B00F0A5807B689B7903F04003002BA3
S32D0000E3581BD07B681B6858787B6803F128017B689A69012300F0B2FF0346002B14BF01230023DBB2002B01D0B4
S32D0000E38001238AE07B689B7923F04003DAB27B689A717B681A687B68DB6919461046FFF789FE0346FB75FB7D2B
S32D0000E3A8002B75D17B681B6A3B613B690B331A783B690B3342F02002D2B21A707B68DA683B691C33D2B21A70F4
S32D0000E3D07B68DB689BB21B0A9AB23B691D33D2B21A707B68DB681A0C3B691E33D2B21A707B68DB681A0E3B69F8
S32D0000E3F81F33D2B21A707B681A693B691A33D2B21A707B681B699BB21B0A9AB23B691B33D2B21A707B681B69A6
S32D0000E4201A0C3B691433D2B21A707B681B691B0C9BB21B0A9AB23B691533D2B21A700023FB603B691633FA689C
S32D0000E448D2B21A70FB689BB21B0A9AB23B691733D2B21A70FB681A0C3B691833D2B21A70FB681A0E3B6919337A
S32D0000E470D2B21A707B689B7923F02003DAB27B689A717B681B6801221A717B681B681846FFF774FE0346FB75D0
S32D0000E498FB7D18461837BD4680BD80B584B000AF78607868FFF736FF0346FB73FB7B002B02D17B6800221A604C
S32D0000E4C0FB7B18461037BD4680BD000080B588B000AF7860396080233B610F23FB604FF0FF337B610223FB61AC
S32D0000E4E8FB69B3F5807F23D80123BB61BB69102B1AD8FB69BA6902FB03F33A6803FB02F27B68D31ABB60BB6853
S32D0000E510002B09DBBB687A699A4205D9BB687B61FB693B61BB69FB60BB690133BB61E1E7FB695B00FB61D7E77B
S32D0000E5381D4BDB6A1C4A23F00803D3621A4BDB6A23F47F2323F47F63BB613B695B081B029AB2FB68013B1B01AC
S32D0000E560DBB21A43BB691343114A43F46023D3620F4B5B6A03F00803002B0CBF01230023DBB2002B03D00A20D0
S32D0000E58801F01AF9F0E7084BDB6A074A43F00803D362054B1B6B044A43F48013136300BF2037BD4680BD00BFB5
S32D0000E5B000100B4080B582B000AF786039607B6800221A60414B424ADA62404BDB6A03F08073002B14BF0123B0
S32D0000E5D80023DBB2002B00D0F3E73A4B0022C3F8C020384B4FF481325A60364B28229A62344B4FF001125A64C5
S32D0000E6003B689B6833491846FFF760FF2F4B5B6A03F00303002B14BF01230023DBB2002B00D0F3E72C4B40F28F
S32D0000E62843421A602A4B40F243425A60284B4FF488629A60264B40F24342DA60244B40F243421A61224B40F2A3
S32D0000E65043425A61214B03F580531B6B1F4A43F4003302F580521363184B4FF6FF721A63164B1B4A5A63154B14
S32D0000E678DB6A144A43F00063D362124BDB6A03F00063002B14BF01230023DBB2002B00D0F3E70C4B5B6A03F454
S32D0000E6A08033002B14BF01230023DBB2002B02D07B6801221A60054B1B6B044A43F0800313630023184608373A
S32D0000E6C8BD4680BD00100B400080000160CC050000D0044000700440B3007F0080B400AF064B5A6A40F2073379
S32D0000E6F01340002B14BF01230023DBB21846BD4680BC704700100B4080B485B000AF7860074B1B6B7A6813402B
S32D0000E718FB60FB68002B00D1F6E7FB6818461437BD4680BC704700BF00100B4080B584B000AF78607B681B78BA
S32D0000E74003F03F03764A52F82330FB60FB68002B05D17B681B78002B01D00123DCE0714B1B6B704A43F0800356
S32D0000E76813636E4B5B6A03F00103002B14BF01230023DBB2002B00D0F3E7684A7B685B689360FB6823F44003E9
S32D0000E790FB607B685B789B0503F44003FA681343FB607B685B78022B03D1FB6843F40013FB607B685B78042BB9
S32D0000E7B816D1FB6803F44033B3F5003F08D1FB6823F44033FB60FB6843F44033FB6007E0FB6823F44033FB60E0
S32D0000E7E0FB6843F40033FB604E4B5B684D4A9BB253607B68DB68002B2AD0FB6803F44033B3F5403F03D0FB687B
S32D0000E80843F40013FB607B681B7A002B03D0FB6843F01003FB607B68DB68012B03D9FB6843F02003FB607B689E
S32D0000E830DB68B3F1FF3F0BD03A4B5A687B68DB681B04384913434B60FB6843F00203FB60344B00221A60334A1E
S32D0000E858FB68D3603248FFF753FF0346012B14BF01230023DBB2002B09D02C4B1B6B2B4A43F4702343F00103A7
S32D0000E8801363012348E0274B1B6B03F08003002B14BF01230023DBB2002B07D0214B1B6B204A43F0011313634D
S32D0000E8A8012335E01D4B1B6B03F48033002B14BF01230023DBB2002B08D0184B1B6B174A43F0011313634FF056
S32D0000E8D0FF3321E0FB6803F44033002B15D0114B1A697B681A61FB6803F44033B3F5803F0BD10C4B5A697B68C0
S32D0000E8F85A610A4B9A697B689A61084BDA697B68DA61064B1B6B054A43F001031363002318461037BD4680BD72
S32D0000E9203029020000100B4001000E0080B592B000AF7860396000237B643B68BB63994B7B637B6B002B02D104
S32D0000E94840F601235FE3964B3B633B6B002B02D140F60B2357E33B6B1B68FB62FB6A002B02D140F60B234EE3C6
S32D0000E9707B6841F20932934200F23F837B68B3F5985F08D87B68032B00F01A837B68092B00F0098331E37B6815
S32D0000E998A3F59853013B082B00F22B8301A252F823F000BFD1E90000BDEC000019EF0000D3EC000011ED0000D8
S32D0000E9C037EE00007FEE0000C1ED0000DBED00007649786BFFF7EEFD78647B6C002B40F01083002387F84330D8
S32D0000E9E8002387F82B30002387F82A30002387F82930002387F84230002387F8283000233B7200237B720023FC
S32D0000EA10FB6000233B7400237B6107F108031846FFF788FE0346002B14BF01230023DBB2002B02D001237B64B4
S32D0000EA38E8E240F24C4000F0BFFE08233B7200237B724FF4D573FB6000233B7400237B6107F108031846FFF785
S32D0000EA6069FEF863FB6B002B09D1BA69FB689A4202D001237B64C9E2012387F84230012387F8283097F8283082
S32D0000EA88002B00F0A58037233B7200237B720023FB6000233B7400237B6107F108031846FFF744FEF863FB6B60
S32D0000EAB0002B02D001237B64A8E269233B7200237B720023FB6000233B7400237B6107F108031846FFF72EFE93
S32D0000EAD80346002B14BF01230023DBB2002B02D001237B648EE2BB6903F44013002B6FD00023FB630A2000F012
S32D0000EB005FFEFB6B0133FB6337233B7200237B720023FB6000233B7400237B6107F108031846FFF707FE034687
S32D0000EB28002B14BF01230023DBB2002B02D001237B6428E069233B7200237B7297F84230002B02D0184BFB60E0
S32D0000EB5002E04FF44013FB6000233B7400237B6107F108031846FFF7E5FD0346002B14BF01230023DBB2002B74
S32D0000EB7802D001237B6406E0BB69002B03DBFB6B632B00D8B6E77B6C002B40F03882FB6B632B0BD9002387F8A8
S32D0000EBA0423019E0781700207C1900202429020000003040012387F8433097F84230002B0AD0002387F8423089
S32D0000EBC8BB6903F08043002B02D0012387F8423097F82A30002B02D07B6B07221A6097F82930002B02D07B6BF9
S32D0000EBF008221A6097F82B30002B02D07B6B04221A6097F84330002B09D07B6B02221A6097F84230002B02D05E
S32D0000EC187B6B03221A6097F82B30002B0DD097F84330002B09D07B6B05221A6097F84230002B02D07B6B0622BE
S32D0000EC401A60924B00221A60904B00225A608F4B00229A608D4B0022DA608C4B00221A618A4B00225A61FB6A47
S32D0000EC689A68FB6A5B6819461046FFF72BFC854B40F243421A60834B40F243425A60814B4FF488629A607F4B85
S32D0000EC9040F24342DA607D4B40F243421A617B4B40F243425A617A4B03F580531B6B784A43F4003302F5805228
S32D0000ECB81363A7E1B86BFFF739FDF863FB6B002B00F09F8102237B649BE1BB6B002B02D10C237B6496E16D4B04
S32D0000ECE0DB6A1B0A5B0003F4FF73FB63694BDB6A1B0903F00F035A1CFB6B02FB03F3FB63FB6A9A68FB6BB2FBB1
S32D0000ED08F3F2BB6B1A607DE1BB6B002B02D10C237B6477E1BB6B1B68002B02D10C237B6470E1FFF7DBFC034654
S32D0000ED30002B0CBF01230023DBB2002B3CD0534B00221A60514B00225A60504B00229A604E4B0022DA604D4BBE
S32D0000ED5800221A614B4B00225A61FB6A9A68BB6B1B6819461046FFF7ADFB464B40F243421A60444B40F2434212
S32D0000ED805A60424B4FF488629A60404B40F24342DA603E4B40F243421A613C4B40F243425A613B4B03F5805376
S32D0000EDA81B6B394A43F4003302F58052136329E140F60A237B6425E1BB6B002B02D10C237B641FE1314B5B68C8
S32D0000EDD0C3F30C02BB6B1A6018E1BB6B002B02D10C237B6412E1FFF77DFC0346002B0CBF01230023DBB2002BE6
S32D0000EDF819D0BB6B1B68B3F5805F02D30C237B6400E1224B5B68214A23F4FF5323F01F0353601E4B5A68BB6BD3
S32D0000EE201B68C3F30C031B4913434B60EEE040F60A237B64EAE0BB6B002B02D10C237B64E4E0144B9B6A5B0880
S32D0000EE4803F00303FB63FB6B002B03D1BB6B00221A60D7E0FB6B012B03D1BB6B01221A60D0E0FB6B102B03D119
S32D0000EE70BB6B02221A60C9E005237B64C6E0BB6B002B09D10C237B64C0E000BF00D004400070044000100B409F
S32D0000EE98FFF724FC0346002B0CBF01230023DBB2002B31D0BB6B1B68002B0AD1584B9B6A574A23F006039362EE
S32D0000EEC0554B554A9B6A9362A0E0BB6B1B68012B0CD1514B9B6A504A23F0060393624E4B9B6A4D4A43F0020300
S32D0000EEE893628FE0BB6B1B68022B0AD1484B9B6A474A23F006039362454B454A9B6A936280E005237B647DE0D0
S32D0000EF1040F60A237B6479E0BB6B002B02D10C237B6473E03C4BDB6A3B4A43F00063D362394BDB6A03F0006378
S32D0000EF38002B14BF01230023DBB2002B00D0F3E7334B1B6B03F08003002B14BF01230023DBB2002B08D02E4B3C
S32D0000EF601B6B2D4A43F0800313637B6B00221A60294B5B6A03F48033002B14BF01230023DBB2002B07D07B6B3B
S32D0000EF881B68002B06D17B6B01221A6002E07B6B00221A607B6B1A68BB6B1A6032E0BB6B1C221A60BB6B04339A
S32D0000EFB004221A60BB6B08334FF41E721A6025E00220FFF7A1FB144B1B6B03F4E003002B14BF01230023DBB29B
S32D0000EFD8002B07D00E4B1B6B0D4A43F4E003136304237B640A4B1B6B094A43F03203136308E040F609237B6408
S32D0000F00004E000BF02E000BF00E000BF7B6C18464837BD4680BD00BF00100B4080B489B000AF786039607B6871
S32D0000F0287B61364B3B613B69002B01D100235FE03B691B68022B0BD03B691B68032B07D03B691B68072B03D037
S32D0000F0503B691B68082B0BD12B4B5B6A03F00403002B14BF01230023DBB2002B00D0F3E73B68FB61FB69002BF2
S32D0000F0783DD0FB69B3F5007F28BF4FF40073FB60FB6803339B08BB61BB69002B2AD01C4B1B6B03F4E003002B47
S32D0000F0A014BF01230023DBB2002B09D0164B1B6B154A43F4E00343F02003136300231BE0114B5B6A03F40063D2
S32D0000F0C8002B0CBF01230023DBB2002B00D0F3E70B497B691A1D7A610A6A1A60BB69013BBB61D1E7FA69FB6849
S32D0000F0F0D31AFB61BEE7012318462437BD4680BC704700BF7817002000100B4080B58EB000AFB9607A601A46F3
S32D0000F1180346FB731346BB73414B7B63FB7B002B02D1BB7B002B01D1042375E03D4B1B78DBB203F00103002B34
S32D0000F14014BF01230023DBB2002B01D0032367E0BB68002B01D1002362E07B6B1B7B002B02D17B685B027B6077
S32D0000F168BB7B012B28D111233B7500237B757B68BB6101233B77BB7B3B6207F11403194641F20230FFF7CEFBED
S32D0000F1900346002B0CBF01230023DBB2002B38D04FF40071B868FFF739FF0346002B14BF01230023DBB2002BC3
S32D0000F1B82BD00023BB7328E012233B7500237B757B68BB6101233B77BB7B3B6207F11403194641F20230FFF76C
S32D0000F1E0A5FB0346002B0CBF01230023DBB2002B0FD0BB7B5B021946B868FFF70FFF0346002B14BF01230023A0
S32D0000F208DBB2002B01D00023BB73BB7B002B01D0012300E0002300BF18463837BD4680BD64170020000000201E
S32D0000F23080B487B000AF786039607B68FB603B687B617B69002B3DD07B69B3F5007F28BF4FF400733B617A6925
S32D0000F2583B69D31A7B613B6903339B083B613B69002BEAD0184B1B6B03F4E003002B14BF01230023DBB2002BB9
S32D0000F2800AD0134B1B6B124A43F4E00343F0100313634FF0FF3316E00D4B5B6A03F48063002B0CBF01230023D5
S32D0000F2A8DBB2002B00D0F3E7FB681A1DFA60064A1B6813623B69013B3B61D0E7012318461C37BD4680BC70479C
S32D0000F2D000100B4080B58EB000AFB9607A601A460346FB731346BB735D4B7B63FB7B002B02D1BB7B002B01D1D5
S32D0000F2F80423ADE0594B1B78DBB203F00103002B14BF01230023DBB2002B01D003239FE0524B1B78DBB203F056
S32D0000F3200403002B14BF01230023DBB2002B01D0022391E0BB68002B01D100238CE07B6B1B7B002B02D17B6848
S32D0000F3485B027B60BB7B012B28D118233B7500237B757B68BB6100233B77BB7B3B6207F11403194641F202308C
S32D0000F370FFF7DCFA0346002B0CBF01230023DBB2002B38D04FF40071B868FFF751FF0346002B14BF01230023B5
S32D0000F398DBB2002B2BD00023BB7328E019233B7500237B757B68BB6100233B77BB7B3B6207F11403194641F2F4
S32D0000F3C00230FFF7B3FA0346002B0CBF01230023DBB2002B0FD0BB7B5B021946B868FFF727FF0346002B14BFB8
S32D0000F3E801230023DBB2002B01D00023BB730D233B7500237B757B6B1B69BB6100233B7700233B6207F11403B9
S32D0000F410194641F20230FFF789FA0346002B14BF01230023DBB2002B01D0012314E07A6A0D4B1340002B01D0D7
S32D0000F43801230DE07B6A03F4F853B3F5106F00D0D5E7BB7B002B01D0012300E0002300BF18463837BD4680BD96
S32D0000F46064170020000000200880D9FF80B58CB000AF03463A60FB710B46BB713A4BBB62FB79002B01D004233E
S32D0000F48869E0012387F82F30364B1B78DBB203F00103002B14BF01230023DBB2002B01D0032358E0BB79032BE5
S32D0000F4B050D801A252F823F0C9F40000D1F40000E1F40000F1F40000002387F82F3044E0BB6A9A683B681A6061
S32D0000F4D8002387F82F303CE03B684FF400721A80002387F82F3034E009233B7200237B72BB6A1B69FB600023D2
S32D0000F5003B7400237B6107F10803194641F20230FFF70CFA0346002B14BF01230023DBB2002B01D001231AE037
S32D0000F5287B6A03F44003002B0CD13B6A9B0C03F07F035A1C7B6A1B0A03F00303013B9A403B681A60002387F87F
S32D0000F5502F3002E0042387F82F3097F82F3018463037BD4680BD00BF641700200000002080B483B000AF03467B
S32D0000F578FB71FB79002B01D0012302E0034B1B78DBB218460C37BD4680BC70470000002080B483B000AF786070
S32D0000F5A0164B03F580539B6B144A43F0010302F580529363124A7B689360114B05225A600F4B1B680E4A43F0E0
S32D0000F5C8010313600C4B1B6803F08003002B0CBF01230023DBB2002B00D0F3E7064B1B68054A23F00103136002
S32D0000F5F000BF0C37BD4680BC704700BF007004400000044080B582B000AF786039607B68012B07D13B684FF6E8
S32D0000F618FF72934202D1034800F00EF800BF0837BD4680BD8419002080B500AF4FF6FF710120FFF7E3FF80BDA0
S32D0000F64080B483B000AF78607B6800221A707B6818460C37BD4680BC7047000080B582B000AF78607B681B7841
S32D0000F66883F00103DBB2002B21D0134B03F580531A464FF400639362104B4FF440721A620E4B4FF440725A625A
S32D0000F6900D4B1B68DA0F13445B104FF4614219460A48FEF7FDFB642000F08AF87B6801221A70012300E0002395
S32D0000F6B818460837BD4680BD0070044000D004408819002000B00E4080B582B000AF7860084611461A46034684
S32D0000F6E0FB700B46BB7013467B707F210E48FEF7AAFC08210C48FEF7A6FCFB7819460A48FEF7A1FCBB781946E4
S32D0000F7080748FEF79CFC7B7819460548FEF797FCFF210348FEF793FC00BF0837BD4680BD00B00E4080B487B03A
S32D0000F73000AFF860B9607A60FB681F4AA2FB03239B09BA6813447B61FB681B4AA2FB031292094FF47A7101FBEA
S32D0000F75802F29B1AFB60FB68DB03154AA2FB03239B097A6813443B613B69DB0B7A6913447B613B69C3F30E0398
S32D0000F7803B610E4B1B687A699A4209D80B4B1B687A699A4206D1094B5B683A699A4201D9012300E00023002B12
S32D0000F7A800D0EAE700BF1C37BD4680BC704700BFD34D621000D0034080B584B000AF7860074B1B68FB60064BB5
S32D0000F7D05B68BB607B68BA68F9681846FFF7A6FF00BF1037BD4680BD00D0034080B584B000AFC7E900010E4B53
S32D0000F7F81B68FB600C4B5B68BB604FF000020B4BD7E900010AF02CFC02460B46104619460AF0E8FE0346BA68BD
S32D0000F820F9681846FFF782FF00BF1037BD4680BD00D0034000408F4080B584B000AF134B1B68FB60114B5B68A9
S32D0000F848BB60F8680AF092FB02460B46C7E90023B8680AF08BFB4FF000020B4B0AF02AFD02460B46D7E9000172
S32D0000F8700AF044FA02460B46C7E90023D7E90023104619461037BD4680BD00BF00D003400000E04080B584B04C
S32D0000F89800AF78600B46FB700B23FB73FA7BFB781946786800F094F87B6818461037BD4680BD000080B485B08F
S32D0000F8C000AF78607B68103B002B00DA1F335B11FB60FB68022B53D0FB68022B75DCFB68002B03D0FB68012BC3
S32D0000F8E825D06EE0394BD3F880217B68103B594203F01F0301F01F0158BF4B42012101FA03F332491343C1F88F
S32D0000F9108031304B1A687B68103B594203F01F0301F01F0158BF4B42012101FA03F3294913430B6049E0274BA7
S32D0000F938D3F884217B68103B594203F01F0301F01F0158BF4B42012101FA03F31F491343C1F884311D4B5A6835
S32D0000F9607B68103B594203F01F0301F01F0158BF4B42012101FA03F3164913434B6024E0144BD3F888217B68B9
S32D0000F988103B594203F01F0301F01F0158BF4B42012101FA03F30D491343C1F888310B4B9A687B68103B59424F
S32D0000F9B003F01F0301F01F0158BF4B42012101FA03F3044913438B6000BF00BF1437BD4680BC704700E100E03E
S32D0000F9D880B584B000AF78600B46FB701346BB707B68FA781A70BB78FB737B681B781A46574B9B5C042B00F2C1
S32D0000FA00A68001A252F823F01DFA000069FA0000B5FA00004DFB000001FB0000FB7B1B0403F470234D497A68AE
S32D0000FA28127810464C4A52F8202043F4897343F0010341F82230494B5A697B681B781946454B53F8213003F070
S32D0000FA501F03012101FA03F3DB43424913404B616720FFF72BFF72E0FB7B1B0403F470233D497A68127810464B
S32D0000FA78394A52F8202043F4897343F0010341F82230384B5A697B681B781946324B53F8213003F01F030121F3
S32D0000FAA001FA03F3DB43314913404B616820FFF705FF4CE0FB7B1B0403F470232C497A6812781046264A52F8F2
S32D0000FAC8202043F4897343F0010341F82230274B5A697B681B7819461F4B53F8213003F01F03012101FA03F3A3
S32D0000FAF0DB43204913404B616920FFF7DFFE26E0FB7B1B0403F470231B497A6812781046134A52F8202043F49D
S32D0000FB18897343F0010341F82230164B5A697B681B7819460C4B53F8213003F01F03012101FA03F3DB430F4977
S32D0000FB4013404B616B20FFF7B9FE00E000BF00BF1037BD4680BD00BF302A020000900440742A020000F00F40AD
S32D0000FB6800A0044040F00F4000B0044080F00F4000D0044000F10F40B0B48BB000AF224B3C1D1D460FCD0FC4DF
S32D0000FB9095E80F0084E80F0000237B627B6A072B30DC1C4BD3F8A0207B6A9B0028333B4453F8243C012101FA09
S32D0000FBB803F31340002B14BF01230023DBB2002B18D0134A7B6A52F823305A1C10497B6A41F823200D4BD3F8BF
S32D0000FBE0A0207B6A9B0028333B4453F8243C012101FA03F307491340C1F8A0307B6A01337B62CBE700BF2C3729
S32D0000FC08BD46B0BC704700BF782B020000A00440B4190020B0B489B000AF224B3C1D1D460FCD0FC495E80300CF
S32D0000FC3084E803000023FB61FB69052B30DC1C4BD3F8A020FB699B0020333B4453F81C3C012101FA03F313404C
S32D0000FC58002B14BF01230023DBB2002B18D0FB690833124A52F823200132104941F823200D4BD3F8A020FB69C2
S32D0000FC809B0020333B4453F81C3C012101FA03F307491340C1F8A030FB690133FB61CBE700BF2437BD46B0BCD8
S32D0000FCA8704700BF982B020000B00440B4190020B0B48DB000AF234B3C461D460FCD0FC40FCD0FC495E807008D
S32D0000FCD084E807000023FB62FB6A0A2B30DC1C4BD3F8A020FB6A9B0030333B4453F8303C012101FA03F313407C
S32D0000FCF8002B14BF01230023DBB2002B18D0FB6A0E33124A52F823200132104941F823200D4BD3F8A020FB6A1A
S32D0000FD209B0030333B4453F8303C012101FA03F307491340C1F8A030FB6A0133FB62CBE700BF3437BD46B0BC01
S32D0000FD48704700BFB02B020000900440B4190020B0B487B000AF214B3C461D460FCD0FC42B68236000237B611A
S32D0000FD707B69042B30DC1C4BD3F8A0207B699B0018333B4453F8183C012101FA03F31340002B14BF01230023C1
S32D0000FD98DBB2002B18D07B691933124A52F823200132104941F823200D4BD3F8A0207B699B0018333B4453F805
S32D0000FDC0183C012101FA03F307491340C1F8A0307B6901337B61CBE700BF1C37BD46B0BC704700BFDC2B0200DC
S32D0000FDE800D00440B419002080B483B000AF78607B681B781A46044B53F8223018460C37BD4680BC704700BFE6
S32D0000FE10B419002080B483B000AF78607B681B781946044B002243F8212000BF0C37BD4680BC7047B419002042
S32D0000FE3880B483B000AF78600B46FB707B68FA781A707B6818460C37BD4680BC7047000080B586B000AF7860A7
S32D0000FE607B681B781A463E4B53F822303B617B681B781A463B4B9B5CFB733B69DBB203F01F03DAB2384B1A723A
S32D0000FE883B69DBB203F01F03DAB2354B5A72354B1022C3F88820FB7B002B13D13049324800F05AFA304B1B685F
S32D0000FEB003F08003802B14BF01230023DBB2002B00D0F3E72A4B1B697B6112E02649294800F046FA274B1B68BB
S32D0000FED803F08003802B14BF01230023DBB2002B00D0F3E7214B1B697B611E4BD3F888311C4A43F01003C2F840
S32D0000FF0088311A4B9B68194A43F0100393607B699BB218460AF02EF80DA3D3E900230AF0A3F802460B46104654
S32D0000FF2819460BA3D3E900230AF0C4F902460B46104619460AF076FB0346BB60BB6818461837BD4680BD00BF1C
S32D0000FF50A4703D0AD7A30A4000000000E0FFEF40F42A0200502A02009419002000E100E000B0034000B00B403E
S32D0000FF7880B586B000AF78607B681B781A46234B53F822303B617B681B781A46204B9B5CFB733B69DBB203F022
S32D0000FFA01F03DAB21D4B1A723B69DBB203F01F03DAB21A4B5A72FB7B002B13D11749184800F0CEF9164B1B68AE
S32D0000FFC803F08003802B14BF01230023DBB2002B00D0F3E7104B1B697B6112E00D490F4800F0BAF90D4B1B6896
S32D0000FFF003F08003802B14BF01230023DBB2002B00D0F3E7074B1B697B617B6918461837BD4680BDF42A0200A3
S32D00010018502A0200A419002000B0034000B00B4098B500AF204B5C221A701F4B10225A701D4B41F234225A80D2
S32D000100401B4B45F278629A80194B10229A71184B0722DA71164B4FF4C022DA60144B1F221A72134B1F225A7231
S32D000100681149124800F078F90F49114800F074F90F4800F0D2F80D4800F0CFF80A490C4800F06AF9084909488D
S32D0001009000F066F9094A064B14460FCB84E80F00064B5C221A70054B0422DA7100BF98BD9419002000B00340B1
S32D000100B800B00B40A419002080B500AF064B1B680133054A136000F03DF8044B0122C3F80C2100BF80BD00BF59
S32D000100E0381A00200070034080B500AF0C4B01221A600C4800F01AF8094B0322C3F80821094BD3F88831084A17
S32D0001010843F01003C2F88831054B9B68044A43F01003936000BF80BD00700340A086010000E100E080B483B037
S32D0001013000AF7860044A7B68C2F8003100BF0C37BD4680BC704700BF0070034080B584B000AF174B1B68FB603B
S32D00010158FB68002B24D0FB685B78FB71FB689B68184600F023F80346BB71BB79002B13D0FB685B68012B0FDD90
S32D00010180FB689B681B69BB60BB68002B08D0BB685B685A1CBB685A60BB681B69BB60F3E7FB68DB68FB60D7E791
S32D000101A800BF1037BD4680BD341A002080B584B000AF78607868FFF7DBFEF8607B689B695B78FB72FB7A002BB6
S32D000101D00FD17B68DB68FA689A420ADD7B689B6901225A707B685B685A1C7B685A60012313E0FB7A012B0FD1B0
S32D000101F87B689B68FA689A420ADA7B689B6900225A707B685B685A1C7B685A60012300E0002318461037BD4675
S32D0001022080BD80B485B000AF78607B681B6A23F040027B681A627B685B6A23F00B027B685A627B685B6A43F024
S32D0001024807027B685A627B685B6A43F080027B685A627B681B6803F08003002B0CBF01230023DBB2002B00D042
S32D00010270F3E77B685B6A03F04003402B0CBF01230023DBB2002B01D0012364E00023FB817B68DB6CFB817B6811
S32D000102989B6C9AB2FB891344FB817B685B6C9AB2FB891344FB817B681B6C9AB2FB891344FB817B68DB6B9AB2BE
S32D000102C0FB891344FB817B689B6B9AB2FB891344FB81FB895B08FB81FB896FEA43436FEA5343FB81FA897B6895
S32D000102E8DA620023FB817B68DB6EFB817B689B6E9AB2FB891344FB817B685B6E9AB2FB891344FB817B681B6E1A
S32D000103109AB2FB891344FB817B68DB6D9AB2FB891344FB817B689B6D9AB2FB891344FB81FB895B08FB81FB89D8
S32D000103386FEA43436FEA5343FB81FA897B681A637B685B6A23F080027B685A62002318461437BD4680BC7047CB
S32D0001036080B483B000AF786039603B681B781A467B689A603B685B781A467B68DA603B685B881A467B689A61BD
S32D000103883B689B881A467B68DA613B689B791A467B681A623B68DB791A467B685A623B68DA687B681A653B68AC
S32D000103B01B7A1A467B681A603B685B7A1A467B685A6000BF0C37BD4680BC704780B483B000AF78607B68184630
S32D000103D80C37BD4680BC704780B582B000AF786039607B68012B07D13B684FF6FF72934202D10348FFF7E6FF28
S32D0001040000BF0837BD4680BD3C1A002080B500AF4FF6FF710120FFF7E3FF80BD80B582B000AF7860B84B4FF416
S32D000104288072DA60B74B4FF480729A64B54B4FF480721A64B34B4FF480725A64B14B4FF48072DA60B04B5B6976
S32D00010450AF4A43F008035361AE4B5B69AD4A43F480235361AB4B5B69AA4A43F480335361A84B5B69A74A43F425
S32D0001047800335361A54B1B68A44A43F008031360A24B5B69A14A43F0080353619E4B1B689D4A43F008031360CA
S32D000104A09A4B4FF480725A62984B4FF480721A62954B4FF480721A61934B4FF480725A61914B4FF480729A6159
S32D000104C88F4B4FF48072DA618D4B4FF480721A638B4B4FF480725A63894B4FF480729A63874B4FF48072DA631F
S32D000104F0854B4FF480721A64834B4FF480725A64814B4FF480729A647F4B4FF48072DA64814B4FF480721A60E2
S32D000105187F4B4FF480729A607D4B4FF48072DA607B4B4FF480721A61784B5B69774A43F440735361744B5B69A5
S32D00010540734A43F47F2343F0F0035361734B5B69724A43F01D035361E221786800F082FD1D21786800F024FE55
S32D000105680221786800F020FE0421786800F01CFEE021786800F072FD0121786800F014FE6420FFF719F9E02173
S32D00010590786800F067FD0321786800F009FE0121786800F05FFD0120FFF70AF9E621786800F058FD0121786877
S32D000105B800F0FAFDA021786800F0F6FDFF21786800F0F2FDB021786800F048FD1C21786800F0EAFD0F217868E0
S32D000105E000F0E6FD0121786800F0E2FD3F21786800F0DEFD0021786800F0DAFDEF21786800F0D6FD00217868C1
S32D0001060800F0D2FDB421786800F028FD0121786800F0CAFD9921786800F0C6FD0021786800F0C2FD452178683E
S32D0001063000F0BEFD0221786800F0BAFD0021786800F0B6FD0021786800F0B2FD0021786800F0AEFDB6217868AF
S32D0001065800F004FD0121786800F0A6FD0921786800F0A2FD0021786800F09EFD0E21786800F09AFD022178682F
S32D0001068000F096FD0021786800F092FD0021786800F08EFDBA21786800F0E4FC0F21786800F086FD6420FFF744
S32D000106A88BF83A21786800F0D9FC6021786800F07BFD2A21786800F0D1FC0021786800F073FD0021786800F09D
S32D000106D06FFD0121786800F06BFD3F21786800F067FD2B21786800F0BDFC0021786800F05FFD0021786800F08E
S32D000106F85BFD0021786800F057FDEF2178680BE000B0044000A0044080F00F4040F00F4000C00440C0F00F4042
S32D0001072000F046FD3621786800F09CFC0021786800F03EFDF021786800F094FC0421786800F036FDB82178683A
S32D0001074800F08CFC0F21786800F02EFD0121786800F02AFD314B1B68304A43F0080313606420FFF729F83621AA
S32D00010770786800F077FC0021786800F019FDF021786800F06FFC0421786800F011FD0121786800F0BCF91E22DA
S32D000107986F21786800F082F8AF225621786800F0DBF80021786800F0FFF9012301221C49786800F020FA2921A4
S32D000107C0786800F04FFC6420FEF7FAFFBE21786800F048FC0E21786800F0EAFCF021786800F0E6FC01217868E0
S32D000107E800F0E2FC0021786800F0DEFC0021786800F0DAFC0F21786800F0D6FC786800F01DFA0121786800F0D7
S32D00010810CFF90021786800F0A4F900BF0837BD4680BD00BF40F00F40F02B020080B582B000AF78607B680022D7
S32D00010838DA617B6801221A627B680E225A607B681A229A607B6800225A617B6800229A617B684FF4A072DA60BC
S32D000108607B68F0221A617B6800221A70786801F0C7F87B6818460837BD4680BD80B582B000AF7860064B1B7848
S32D00010888002B05D1044B01221A707868FFF7C2FD00BF0837BD4680BD841A002080B58AB002AFF860B9607A6048
S32D000108B07E23009362237A68B968F86800F000FE40F24E733B610023FB61FA693B699A4240DA0023BB61214A5A
S32D000108D8FB6913441B781A46BB69934232DAFB6901331C4AD35C002B06D1FF23FB75FF23BB75FF237B7512E027
S32D00010900FB690133154AD35C012B06D1D423FB750023BB7526237B7505E0B523FB75BA23BB75B0237B757B7DB7
S32D00010928BA7DF97DF86800F0C9F80246FB68DA61F86801F061F8F86800F09AFFBB690133BB61C4E7FB690233B1
S32D00010950FB61BAE700BF2037BD4680BD0400002080B58AB002AFF860B9607A602723009395237A68B968F8689E
S32D0001097800F0A2FD40F2E6333B610023FB61FA693B699A4240DA0023BB61214AFB6913441B781A46BB6993420D
S32D000109A032DAFB6901331C4AD35C002B06D1FF23FB75FF23BB75FF237B7512E0FB690133154AD35C012B06D1DC
S32D000109C80023FB750023BB7500237B7505E0D423FB750023BB7526237B757B7DBA7DF97DF86800F06BF802468F
S32D000109F0FB68DA61F86801F003F8F86800F03CFFBB690133BB61C4E7FB690233FB61BAE700BF2037BD4680BD58
S32D00010A185407002080B485B000AF78600B46FB70FB78062B29D801A252F823F0590A0100510A01005F0A0100B9
S32D00010A40670A01006F0A0100750A01007D0A01006FF07F43FB6014E00023FB6011E04FF47F03FB600DE04FF464
S32D00010A687F43FB6009E0FF23FB6006E04FF41903FB6002E0044BFB6000BFFB6818461437BD4680BC704700BF30
S32D00010A909999990080B584B000AF786039603B681B0CFB733B681B0ABB733B687B737B7BBA7BF97B786800F0B5
S32D00010AB805F8034618461037BD4680BD80B487B000AF7860084611461A460346FB700B46BB7013467B70FB7806
S32D00010AE09B08DBB27B61BB789B08DBB23B617B789B08DBB2FB607B691A033B699B011A43FB68134318461C3756
S32D00010B08BD4680BC704780B582B000AF78600B46FB70FB7819467868FFF77CFF03461946786800F004F800BFC8
S32D00010B300837BD4680BD80B582B000AF7860396039687868FFF7A6FF02467B681A62786800F056FF786800F0D8
S32D00010B58C3FB00BF0837BD4680BD80B582B000AF78600B46FB70FB7819467868FFF752FF03461946786800F057
S32D00010B8004F800BF0837BD4680BD80B582B000AF7860396039687868FFF77CFF02467B681A62786800F02CFFF1
S32D00010BA800BF0837BD4680BD80B582B000AF78600B46FB70FB7819467868FFF72BFF03461946786800F004F8F0
S32D00010BD000BF0837BD4680BD80B582B000AF7860396039687868FFF755FF02467B68DA61786800F005FF00BF6D
S32D00010BF80837BD4680BD80B586B000AFF860B9607A603B6000237B617B69BA6813441B78002B0FD07B69BA6850
S32D00010C2013441B783A687968F86800F0E3FC7B680C337B607B6901337B61E9E700BF1837BD4680BD80B582B093
S32D00010C4800AF7860FDF7D8F867210120FDF743F800210220FDF73FF8A0210320FDF73BF850210420FDF737F829
S32D00010C7020210520FDF733F820210620FDF72FF877210720FDF72BF800210820FDF727F800210920FDF723F8C3
S32D00010C9800210A20FDF71FF804210B20FDF71BF87B684FF0FF32DA637B684FF0FF321A6400BF0837BD4680BDE1
S32D00010CC080B586B000AFF860B9607A600020FDF728F80346FB75FB7D03F00203002B00F0CE80FDF73BF8E020B3
S32D00010CE8FCF7ECFF0220FEF767FDFDF741F80120FEF762FDFDF72EF8A520FCF7DFFF0120FEF75AFDFDF701F8D8
S32D00010D1003469BB21B02BB82FCF7FBFF03469AB2BB8A1343BB82FCF7F4FF03469BB21B027B82FCF7EEFF0346AB
S32D00010D389AB27B8A13437B82BB8A1B09BB827B8A1B097B82FDF714F8FB68DB6BB3F1FF3F34D1FB681B6CB3F1FE
S32D00010D60FF3F2FD1BA8AFB68DA637A8AFB681A647B8AC3F57F630F337B82BB8A184609F009F949A3D3E9002316
S32D00010D8809F06EF902460B461046194609F04AFC0246BB681A607B8A184609F0F7F842A3D3E9002309F05CF90D
S32D00010DB002460B461046194609F038FC02467B681A605AE0FB68DA6BBB8AD31A1946F86800F074F80346632BEE
S32D00010DD80CDCFB681A6C7B8AD31A1946F86800F069F80346632B01DC012300E00023002B2FD0BA8AFB68DA6330
S32D00010E007A8AFB681A647B8AC3F57F630F337B82BB8A184609F0BEF823A3D3E9002309F023F902460B46104605
S32D00010E28194609F0FFFB0246BB681A607B8A184609F0ACF81CA3D3E9002309F011F902460B461046194609F07C
S32D00010E50EDFB02467B681A600FE0BB68164A1A607B68154A1A60FB684FF0FF32DA63FB684FF0FF321A640023BA
S32D00010E7810E001230EE0BB680D4A1A607B680C4A1A60FB684FF0FF32DA63FB684FF0FF321A6400231846183771
S32D00010EA0BD4680BDAFF30080144001144001B43F1EE0011EE001AE3F000080BF80B483B000AF786039603B68D0
S32D00010EC8002B02DA3B685B423B603B6818460C37BD4680BC704780B584B000AF786039600023FB60786800F008
S32D00010EF0BAFAFB683A6813441B78002B12D07B6859697B689869FB683A6813441B780246786800F054FB786864
S32D00010F1800F0B9FAFB680133FB60E6E700BF1037BD4680BD80B592B000AF786039604FF00001386809F086FE0E
S32D00010F400346002B1FD0386809F094FE03467B64786C09F075FC03461946386809F0BAFB03461F49184609F080
S32D00010F68BFFC0346184609F081FE03463B6407F10C003B6C7A6C19490BF0D8FF22E03B6883F000433B6038683D
S32D00010F9009F070FE03467B64786C09F051FC03461946386809F096FB03460D49184609F09BFC0346184609F07A
S32D00010FB85DFE03463B6407F10C003B6C7A6C08490BF0B4FF07F10C0319467868FFF783FF00BF4837BD4680BDFB
S32D00010FE000007A440C2C0200002C020080B584B000AFF860C7E90023D7E9000109F016FB03461946F868FFF7B0
S32D0001100891FF00BF1037BD4680BD80B582B000AF78603960786800F022FA39687868FFF75AFF786800F006FAD0
S32D0001103000BF0837BD4680BD80B584B000AFF860C7E90023F86800F00EFAD7E90023F868FFF7CCFFF86800F064
S32D00011058F1F900BF1037BD4680BD000080B483B000AF78600B46FB704D4B1B684C4A23F0080313604B4B1B6834
S32D000110804A4A23F480231360484B1B68474A43F480331360454B1B68444A23F440731360414B1B68404A23F4EE
S32D000110A8435323F0300313603E4B1A68FB785B0203F400733B4913430B603A4B1A68FB785B101B0203F4807354
S32D000110D0364913430B60344B1A68FB789B101B0103F01003304913430B602F4B1A68FB78DB105B0103F020036A
S32D000110F82B4913430B602A4B1A68FB781B119B0103F04003264913430B60254B1A68FB785B11DB01DBB2224957
S32D0001112013430B60204B1A68FB789B111B0303F480531D4913430B601B4B1A6897F90330DB115BB25B0303F4CB
S32D000111480053174913430B60164B1B68154A23F400331360134B1B68124A43F4003313600F4B1B680E4A43F082
S32D00011170080313600D4B1B680C4A43F440731360094B1B68084A43F4435343F030031360064B1B68054A43F41B
S32D000111988023136000BF0C37BD4680BC704700BF80F00F4040F00F4080B483B000AF78600B46FB70464B1B685F
S32D000111C0454A23F008031360444B1B68434A43F480331360414B1B68404A43F4802313603E4B1B683D4A23F454
S32D000111E8407313603A4B1B68394A23F4435323F030031360374B1A68FB785B0203F40073344913430B60334BC7
S32D000112101A68FB785B101B0203F480732F4913430B602D4B1A68FB789B101B0103F01003294913430B60284B2F
S32D000112381A68FB78DB105B0103F02003244913430B60234B1A68FB781B119B0103F040031F4913430B601E4B14
S32D000112601A68FB785B11DB01DBB21B4913430B60194B1A68FB789B111B0303F48053164913430B60144B1A6882
S32D0001128897F90330DB115BB25B0303F40053104913430B600F4B1B680E4A23F4003313600C4B1B680B4A43F461
S32D000112B000331360084B1B68074A43F008031360064B1B68054A23F48023136000BF0C37BD4680BC704700BF8A
S32D000112D880F00F4040F00F4080B586B000AF78607B6800225A617B6800229A617B681B6AFB60FB68FB72FB6801
S32D000113001B0ABB72FB681B0CDBB203F003037B722A217868FFF7A6FE00217868FFF748FF00217868FFF744FF32
S32D0001132801217868FFF740FF3F217868FFF73CFF2B217868FFF792FE00217868FFF734FF00217868FFF730FFEC
S32D0001135000217868FFF72CFFEF217868FFF728FF2C217868FFF77EFE314B1B68304A23F4407313602F4B1B68ED
S32D000113782E4A23F47F2323F0F00313602C4B1B682B4A23F01D031360274B1A687B681B6B254913430B60254B8B
S32D000113A01A687B685B6B234913430B60224B1A687B689B6B204913430B601E4B1B681D4A23F0080313601A4B7B
S32D000113C81B68194A43F48023136000237B617B69EF2B19D800233B613B69B3F5A07F0FD2114B1B68104A23F47A
S32D000113F0003313600E4B1B680D4A43F4003313603B6901333B61EBE77B6901337B61E2E7084B1B68074A43F0BB
S32D0001141808031360044B1B68034A23F48023136000BF1837BD4680BD40F00F4080F00F40C0F00F4080B483B0E9
S32D0001144000AF78607B689B69002B07DD7B685B695A1C7B685A617B6800229A6100BF0C37BD4680BC704780B518
S32D0001146882B000AF78607B685A697B685B689A4205DB7B6800225A617868FFF72DFF00BF0837BD4680BD80B55F
S32D0001149082B000AF78607B689B695A1C7B689A617B689A697B689B689A4205D17868FFF7C5FF7868FFF7D7FF75
S32D000114B800BF0837BD4680BD80B588B000AFF860B9607A603B60FB681B78022B03D0FB681B78032B11D17B68E6
S32D000114E0FB61BA6AFB691344013BBB61FB68DA68BB68D31A3B613B683A69D31A01337B610DE0BB68FB613A68A8
S32D00011508FB691344013BBB617B687B61BA6A7B691344013B3B612A21F868FFF79FFDFB691B0ADBB203F00F0353
S32D00011530DBB21946F868FFF73BFEFB69DBB21946F868FFF735FEBB691B0ADBB203F00F03DBB21946F868FFF71B
S32D000115582BFEBB69DBB21946F868FFF725FE2B21F868FFF77BFD7B691B0ADBB203F00F03DBB21946F868FFF7BB
S32D0001158017FE7B69DBB21946F868FFF711FE3B691B0ADBB203F00F03DBB21946F868FFF707FE3B69DBB21946C0
S32D000115A8F868FFF701FE2C21F868FFF757FD00BF2037BD4680BD80B584B000AFF860B9607A60FB707A68134669
S32D000115D05B0013449B00991CBA6813461B011344DA1CFB78F86800F005F800BF1037BD4680BD000080B58EB08D
S32D000115F802AFF860B9607A60FB70FB780A2B06D1F868FFF72CFFF868FFF714FFF2E0FB787D2B02D8FB781F2B70
S32D0001162001D82023FB70FB78203BFB70112300930C237A68B968F868FFF742FFFA7813469B0013446F4AD35CA6
S32D000116483B75FA7813469B00134401336B4AD35C7B75FA7813469B0013440233674AD35CBB75FA7813469B0096
S32D0001167013440333634AD35CFB75FA7813469B00134404335F4AD35C3B760023BB62BB6A062B00F3A180F868EB
S32D0001169800F050F9F86800F0B3F8002387F82F3000237B627B6A042B35DC07F114027B6A13441B7803F00103F5
S32D000116C0002B14BF01230023FB76FB7E002B11D097F82F3083F00103DBB2002B03D0F86800F0CAF802E0F8687C
S32D000116E800F08EF8F86800F08BF80DE097F82F30002B03D0F86800F01DF902E0F86800F07FF8F86800F07CF8DE
S32D00011710FB7E87F82F307B6A01337B62C6E797F82F30002B03D0F86800F008F902E0F86800F06AF8F86800F08F
S32D0001173867F8002387F82F3000233B623B6A042B42DC07F114023B6A13441B7803F00103002B14BF0123002397
S32D00011760BB76BB7E002B11D097F82F3083F00103DBB2002B03D0F86800F07EF802E0F86800F042F8F86800F072
S32D000117883FF80DE097F82F30002B03D0F86800F0D1F802E0F86800F033F8F86800F030F8BB7E87F82F3007F125
S32D000117B014023B6A13441B785B08D9B207F114023B6A13440A461A703B6A01333B62B9E7BB6A0133BB625AE7C6
S32D000117D8F86800F0AFF8002387F82F300123FB61FB69232B06DCF86800F00AF8FB690133FB61F5E73037BD464A
S32D0001180080BD00BF3C0B002080B483B000AF7860174B1B68164A43F480331360154B1B68144A23F008031360F4
S32D00011828114B1B68104A43F4802313600E4B1B680D4A23F4003313600B4B1B680A4A43F400331360094B1B683A
S32D00011850084A43F008031360054B1B68044A23F48023136000BF0C37BD4680BC704700BF40F00F4080F00F4023
S32D0001187880B483B000AF78602B4B1B682A4A43F480331360294B1B68284A23F008031360254B1B68244A43F4F7
S32D000118A080231360224B1B68214A23F440731360204B1B681F4A23F47F2323F0F00313601D4B1B681C4A23F07E
S32D000118C81D031360184B1A687B685B6A164913430B60164B1A687B689B6A144913430B60134B1A687B68DB6AC0
S32D000118F0114913430B600E4B1B680D4A23F4003313600B4B1B680A4A43F400331360094B1B68084A43F008034D
S32D000119181360054B1B68044A23F48023136000BF0C37BD4680BC704740F00F4080F00F40C0F00F4080B483B043
S32D0001194000AF78602B4B1B682A4A43F480331360294B1B68284A23F008031360254B1B68244A43F4802313607F
S32D00011968224B1B68214A23F440731360204B1B681F4A23F47F2323F0F00313601D4B1B681C4A23F01D03136038
S32D00011990184B1A687B681B6B164913430B60164B1A687B685B6B144913430B60134B1A687B689B6B1149134397
S32D000119B80B600E4B1B680D4A23F4003313600B4B1B680A4A43F400331360094B1B68084A43F008031360054B71
S32D000119E01B68044A23F48023136000BF0C37BD4680BC704740F00F4080F00F40C0F00F4080B485B000AF7860B5
S32D00011A087B681B6AFB60FB68FB72FB681B0ABB72FB681B0CDBB203F003037B727B6800225A627B6800229A62A8
S32D00011A307B680022DA627B6800221A637B6800225A637B6800229A637B681A6BFB7A5B0203F400731A437B681C
S32D00011A581A637B681A6BFB7A5B101B0203F480731A437B681A637B685A6BFB7A9B101B0103F010031A437B68AC
S32D00011A805A637B685A6BFB7ADB105B0103F020031A437B685A637B685A6BFB7A1B119B0103F040031A437B68A8
S32D00011AA85A637B685A6BFB7A5B11DB01DBB21A437B685A637B685A6BFB7A9B111B0303F480531A437B685A63B5
S32D00011AD07B685A6B97F90B30DB115BB25B0303F400531A437B685A637B685A6BBB7A9B0303F480431A437B6861
S32D00011AF85A637B685A6BBB7A5B10DB039BB21A437B685A637B685A6BBB7A9B101B0403F480331A437B685A6344
S32D00011B207B685A6BBB7ADB105B0403F400331A437B685A637B685A6BBB7A1B119B0403F480231A437B685A6309
S32D00011B487B685A6BBB7A5B11DB0403F400231A437B685A637B689A6BBB7A9B1103F001031A437B689A637B684F
S32D00011B709A6B97F90A30DB115BB29B0003F004031A437B689A637B689A6B7B7ADB0003F008031A437B689A63B9
S32D00011B987B689A6B7B7A5B101B0103F010031A437B689A637B68DB69FB60FB68FB72FB681B0ABB72FB681B0CE6
S32D00011BC0DBB203F003037B727B685A6AFB7A5B0203F400731A437B685A627B685A6AFB7A5B101B0203F4807316
S32D00011BE81A437B685A627B689A6AFB7A9B101B0103F010031A437B689A627B689A6AFB7ADB105B0103F02003B4
S32D00011C101A437B689A627B689A6AFB7A1B119B0103F040031A437B689A627B689A6AFB7A5B11DB01DBB21A4345
S32D00011C387B689A627B689A6AFB7A9B111B0303F480531A437B689A627B689A6A97F90B30DB115BB25B0303F472
S32D00011C6000531A437B689A627B689A6ABB7A9B0303F480431A437B689A627B689A6ABB7A5B10DB039BB21A4307
S32D00011C887B689A627B689A6ABB7A9B101B0403F480331A437B689A627B689A6ABB7ADB105B0403F400331A4395
S32D00011CB07B689A627B689A6ABB7A1B119B0403F480231A437B689A627B689A6ABB7A5B11DB0403F400231A438B
S32D00011CD87B689A627B68DA6ABB7A9B1103F001031A437B68DA627B68DA6A97F90A30DB115BB29B0003F0040304
S32D00011D001A437B68DA627B68DA6A7B7ADB0003F008031A437B68DA627B68DA6A7B7A5B101B0103F010031A43C1
S32D00011D287B68DA6200BF1437BD4680BC7047000080B582B000AF786039607B68012B07D13B684FF6FF729342D1
S32D00011D5002D10348FEF76AFD00BF0837BD4680BD401A002080B500AF4FF6FF710120FFF7E3FF80BD80B582B0FC
S32D00011D7800AF7860164B03F580535B6B144A43F0400302F580525363124B4FF400725A62104B4FF400721A6216
S32D00011DA00F4B14225A700E4B1B7ADBB20C4A43F00103DBB213720A4B80229A7002212B20FBF716FF3D212A2082
S32D00011DC8FBF712FF7B6818460837BD4680BD00BF0070044000C004400060064080B582B000AF786039607B68A2
S32D00011DF0012B07D13B684FF6FF72934202D10348FFF7B8FF00BF0837BD4680BD881A002080B500AF4FF6FF712E
S32D00011E180120FFF7E3FF80BD80B582B000AF78600B46FB707B68FA7811461846FEF700F87B6818460837BD4641
S32D00011E4080BD000080B582B000AF786039607B68012B08D13B684FF6FF72934203D120210348FFF7DDFF00BFA8
S32D00011E680837BD4680BD00BF8C1A002080B500AF4FF6FF710120FFF7E1FF80BD80B483B000AF78607B68002287
S32D00011E901A707B6818460C37BD4680BC7047000080B483B000AF78603960044A3B68136000BF0C37BD4680BCF3
S32D00011EB8704700BF901A002080B582B000AF3248FCF7A4F80346FB71304AFB791370304B01221A702F4B1B7841
S32D00011EE0022B33D0022B4FDC002B02D0012B14D04AE0FB79FF2B44D1284B01221A70284B00221A70264B1B781E
S32D00011F085A1CD1B2244A11701946244AFB79535433E0214B1B785A1CD1B21F4A117019461E4AFB7953541C4B9C
S32D00011F301B780D2B27D11C4B1B68194A1278114618489847154B02221A701CE0FB79FF2B10D1124B01221A70BF
S32D00011F58114B00221A70104B1B785A1CD1B20E4A117019460D4AFB79535409E00A4B00221A70084B00221A70D8
S32D00011F8002E000BF00E000BF00BF0837BD4680BD00A00640A71A0020A61A0020A51A0020A41A0020941A002082
S32D00011FA8901A002080B582B000AF78607B681846FFF764FF7B6811491846FFF76DFF7B684FF0FF325A600E4B55
S32D00011FD04FF000021A600D4B4FF000021A600C4B4FF000021A600B4B00221A600A4B00221A700A4B00221A700E
S32D00011FF87B6818460837BD4680BD00BF21200100B41A0020B81A0020BC1A0020C01A0020C41A0020C51A00202C
S32D0001202080B582B000AF78600B46FB70424B1B78002B7DD07B6801331B781B027A68023212781344184608F03B
S32D00012048FBFB03463B49184608F0FEFC03463A49184608F03BFB03461A46384B1A607B6803331B781B027A68AD
S32D00012070043212781344184608F0E2FB03462F49184608F0E5FC03462D49184608F022FB03461A462C4B1A6033
S32D000120987B6805331B781B027A68063212781344184608F0C9FB03462249184608F0CCFC03462149184608F05E
S32D000120C009FB03461A46214B1A607B6807331B781A067B6808331B781B041A437B6809331B781B0213437A685A
S32D000120E80A32127813431A46174B1A607B68DA7A164B1A707B680C331B78AA2B0CBF01230023DAB2124B1A7040
S32D00012110124B01221A70104B1B78002B08D0104800F052F80F4B1B680E4A23F40053136000BF0837BD4680BDC3
S32D00012138B01A0020000020410000C844B41A0020B81A0020BC1A0020C01A0020C41A0020C51A0020C61A002054
S32D00012160C81A0020C0F00F4080B582B000AF786039607B68012B07D13B684FF6FF72934202D10348FFF712FF8E
S32D0001218800BF0837BD4680BDA81A002080B500AF4FF6FF710120FFF7E3FF80BD80B483B000AF7860054B0022D9
S32D000121B01A60044B00225A607B6818460C37BD4680BC7047C81A002080B584B000AF7860154B1B68002B21D0F0
S32D000121D80023FB60124B5B68FA689A4214DA114AFB6852F82330002B0AD00E4AFB6852F823301846FCF751F9BB
S32D0001220003461A460A4B1A70FB680133FB60E5E7054B00225A60044B00221A60044B1B7818461037BD4680BD8B
S32D00012228C81A0020D41A0020D01A002080B582B000AF786039607B68012B07D13B684FF6FF72934202D10348B3
S32D00012250FFF7A8FF00BF0837BD4680BDC81A002080B500AF4FF6FF710120FFF7E3FF80BD80B483B000AF7860C5
S32D000122780A4B03F580531B6B084A43F0010302F580521363064B5B68054A43F03203536000BF0C37BD4680BC0A
S32D000122A0704700BF0070044000000A4000F078BB012838BF012010B50446204609F0F8FE00B110BD01F080F9EB
S32D000122C808B18047F5E7042000F0DAFB024B034A0349036001F022F96C2D020071290100482D0200704700BF2A
S32D000122F0704700BF08B5042000F0C6FB024B034A0349036001F00EF96C2D020071290100482D020010B50446BA
S32D00012318082000F0B5FB2146044601F055FB054A0549204601F0FAF8204600F0C1FB00F0E3FB00BF39380100E5
S32D00012340382F020010B50446082000F09DFB2146044601F07DFB054A0549204601F0E2F8204600F0A9FB00F074
S32D00012368CBFB00BF79380100442F02000FB4F0B583B000AF07F1200454F8046B30460AF07BFF00F2072323F060
S32D000123900703ADEB030D6D4600F500712346324628467C6000F06CF8082000F06DFB2946044601F057FB054A09
S32D000123B80549204601F0B2F8204600F079FB00F09BFB00BFB9380100502F0200F0B59DB000AF0C1A06460F49BA
S32D000123E06922381D0AF0A8F904F1700323F00703ADEB030D6D466822391D28460AF09CF92246314605F1680059
S32D000124082C440AF095F90023284684F86830FFF77DFF00BF242C02002DE9F84300AF84B06E4606F10C08DFF8BB
S32D000124304890124DC646A5FB0243DB0803EB830CA2EB4C0C1446092C19F80C200EF8012D1A46F0D8A8EB0E083F
S32D00012458884509D8C8F10C01424631440AF068F94046BD46BDE8F8834FF0FF38F8E700BF902C0200CDCCCCCCDD
S32D000124802DE9F041154612784E1E07460644002A44D0B04245D21946044607E02A7804F8012B01352A78F2B1E2
S32D000124A8B4423BD2252AF5D16A78732A1CD07A2A03D0252AEED10135EDE7AB78752BE9D18846204658F8042BC3
S32D000124D0311BFFF7A5FF002824DDEA78033504444146002AE0D1E01B00232370BDE8F08151F8042B137853B1BC
S32D000124F8A64202D809E0A64208D004F8013B12F8013F002BF7D10235C8E7264631463846FFF75CFF044610469D
S32D00012520E2E7044621463846FFF754FF016070470068704708307047816070470368416000225A54704700BF3B
S32D000125480868B0F1804F08B519D2904212D9B0EB420F4FEA42030DD2B3F1804F08D36FF040430B604FF080403C
S32D00012570BDE80840FFF79CBE0B601846BDE808400130FFF795BE0148FFF7DCFE9C2C020030B583B00F2901910A
S32D00012598044615460FD800680B463BB1012B12D01A4629460AF0DAF9019B206863600022C25403B030BD002258
S32D000125C001A9FFF7C1FF019B2060A360E9E70570019B206863600022C25403B030BD00BF521A012A03D002B985
S32D000125E870470AF0A5B80B78037070472DE9F04F83B04768DDF830B081469A46ABEB02033B44019359F8083B34
S32D00012610994501EB02060D4614BF82680F2201A90446FFF791FFBF1B80462DB1012D216829D02A460AF080F8FE
S32D00012638BAF1000F0BD0BBF1000F08D0BBF1010F08EB050022D051465A460AF071F857B123685D44012F08EBB4
S32D00012660050003EB060111D03A460AF065F82068814501D000F094F9019BC4F80080A36003B0BDE8F08F0B78C8
S32D000126880370D5E79B5D08F80530ECE79AF8003008F80530DBE700BF10B500F1080304460360FFF771FF204642
S32D000126B010BD00BF0B4630B500F10804046053F8082B934209D08C68026084604C6844600022C1E900320A72A0
S32D000126D830BD8D68D3F804E0D3F808C0DA6842618560C0F80CE0C0F810C0EBE7034610B5044653F8080B984257
S32D0001270001D000F04DF9204610BD00BF00680844704700BF2DE9F04F154685B042680E9E1F4605F18043013BF2
S32D000127289B1A9E4200F2B2800346A6EB050B53F808AB9A4518BF836802EB0B0908BF0F234B45044688463DD38E
S32D000127506B18BA455144A2EB030302911FD963B1B5420AD00AEB0802012B02EB060002EB050151D01A460AF0B4
S32D0001277879F836B1012E2BD002983246394609F0D7FF2368C4F804900022204603F8092005B0BDE8F08F52445A
S32D000127A09742DCD836B3B5421AD23BBB0AEB08031D44BB199D4237D3012E0DD0002EE4D00298324639460AF024
S32D000127C851F8DEE700963B462A46FFF70FFFD8E73B780AF80830D4E7012E44D0324639460AEB080003930AF01B
S32D000127F03DF8039B002BC8D0B542C6D00AEB0802012B02EB060002EB05010AD01A460AF02DF8B542CAD3B8E7FA
S32D00012818535D9355002EB4D0ACE7535D9355F4E7BD420AD8012E07EB0B0126D0002EA8D00298324609F07CFF11
S32D00012840A3E7ED1B012D18D025B1029839462A460AF00CF8029B721B012A03EB050003EB060113D0002A90D0BA
S32D0001286809F066FF8DE73A780AF80820002BCCD0BEE73B780AF80830E8E717F80B300AF808307EE71A469B5D2A
S32D0001289053557AE70148FFF755FD00BF042D020070B5054682B010460C4616460AF0E8FC6B689C4208D80090E8
S32D000128B83346002221462846FFF728FF02B070BD024903482246FFF751FD00BFEC2C0200B42C0200F0B5476834
S32D000128E0044650F8085B854218BFA36807EB020608BF0F239E4283B00DD832B1012A05EB070011D009F018FF4A
S32D000129082568666000232046AB5503B0F0BD00920B46002239462046FFF768FE2568F0E70B78EB552568ECE797
S32D0001293038B5044608460D460AF0A2FC61686FF040435B1A834205D3024629462046FFF7C5FF38BD0148FFF740
