S01100002E2E2F50726F746575732E73313966
S32D0000C000000000205DC2000011C3000017C300001DC3000023C3000029C3000000000000000000000000000073
S32D0000C028000000002FC3000035C30000000000003BC3000041C3000015C9000021C900002DC9000039C900003E
S32D0000C05045C9000051C900005DC9000069C9000075C9000081C900008DC9000099C90000A5C90000B1C900001A
S32D0000C078BDC90000C9C90000D5C90000E1C90000EDC90000F9C9000005CA000011CA00001DCA000029CA00003E
S32D0000C0A035CA000041CA00004DCA000059CA000065CA000071CA00007DCA000089CA000095CA0000A1CA000060
S32D0000C0C8ADCA0000B9CA0000C5CA0000D1CA0000DDCA0000E9CA0000F5CA000001CB00000DCB000019CB000085
S32D0000C0F025CB00000518010031CB00003DCB000049CB000055CB000061CB00006DCB000079CB000085CB0000E4
S32D0000C11891CB00009DCB0000A9CB0000B5CB0000C1CB0000CDCB0000D9CB0000E5CB0000F1CB0000FDCB000045
S32D0000C14009CC000015CC000021CC00002DCC000055F1000039CC000045CC000051CC00005DCC000069CC00005E
S32D0000C16875CC000081CC00008DCC000099CC0000A5CC0000B1CC0000BDCC0000C9CC0000D5CC0000E1CC000003
S32D0000C190EDCC0000F9CC000005CD000091EE000059ED0000F5ED000099C6000031EF000011CD00001DCD000043
S32D0000C1B829CD000070A8010000000020C816000070A801000000FF1F00000000C8160020C80400000000FF1F2D
S32D0000C1E00000000080B489B000AFF860B9607A60BB68FB61FB68BB6100237B617A697B689A420BD2BA69131DFB
S32D0000C208BB61FB69191DF96112681A607B6904337B61EFE700BF2437BD4680BC704780B485B000AF786039609E
S32D0000C2307B68FB600023BB60BA683B689A4208D2FB681A1DFA6000221A60BB680433BB60F2E700BF1437BD46FE
S32D0000C25880BC704780B586B000AF72B6234B4CF220521A80214B4DF628121A80204B4FF4E9721A801F4B7B615F
S32D0000C2807B691F4A934214D27B691A1D7A611B683B617B691A1D7A611B68FB607B691A1D7A611B68BB60BA68E9
S32D0000C2A8F9683869FFF79AFFE6E77B69134A93420ED27B691A1D7A611B68FB607B691A1D7A611B68BB60B9688B
S32D0000C2D0F868FFF7A8FFECE70B4B7B600B4A7B681A6007F0ADFB62B600F09EFA00F02EF9FEE700BF0E20054020
S32D0000C2F800200540BCC10000D4C10000E4C1000008ED00E000C0000080B400AFFEE780B400AFFEE780B400AFF4
S32D0000C320FEE780B400AFFEE780B400AFFEE780B400AFFEE780B400AFFEE780B400AFFEE780B400AFFEE780B426
S32D0000C34800AFFEE7FFFFFFFFFFFFFFFFFFFFFFFFFFFFFFFFFFFFFFFFFFFFFFFFFFFFFFFFFFFFFFFFFFFFFFFF57
S32D0000C370FFFFFFFFFFFFFFFFFFFFFFFFFFFFFFFFFFFFFFFFFFFFFFFFFFFFFFFFFFFFFFFFFFFFFFFFFFFFFFFFC7
S32D0000C398FFFFFFFFFFFFFFFFFFFFFFFFFFFFFFFFFFFFFFFFFFFFFFFFFFFFFFFFFFFFFFFFFFFFFFFFFFFFFFFF9F
S32D0000C3C0FFFFFFFFFFFFFFFFFFFFFFFFFFFFFFFFFFFFFFFFFFFFFFFFFFFFFFFFFFFFFFFFFFFFFFFFFFFFFFFF77
S32D0000C3E8FFFFFFFFFFFFFFFFFFFFFFFFFFFFFFFFFFFFFFFFFFFFFFFFFFFFFFFFFFFFFFFFFFFFFFFFFEFFFFFF50
S32D0000C44010B5054C237833B9044B13B10448AFF300800123237010BDC81600200000000010C4000008B5034B4F
S32D0000C4681BB103490348AFF3008008BD00000000CC16002010C4000080B588B000AFF860C7E900230B46FB7281
S32D0000C490FB684FF000020021184600F04DFCFB6808330021184602F0E1FAD7E9000106F001FE0246F97A07F1CF
S32D0000C4B81403184600F03CFCFB681A4607F11403186810609B88938097F8302007F11C031146184602F0C6FA64
S32D0000C4E0FB683A7F1A72F968D7E90A23C1E90C23F86800F005F8FB6818462037BD4680BD80B582B000AF7860CC
S32D0000C50879684FF000024FF00003C1E9042379684FF000024FF00003C1E9082379684FF000024FF00003C1E989
S32D0000C53006237B6800229A627B680833184602F043FD00BF0837BD4680BD000080B588B000AF0623FB614FF0E7
S32D0000C5580002264BC7E90423254805F055FD0021244803F02EFB6FF07F41224803F085FB2149204803F05EFDF2
S32D0000C5803A1D07F1080319461C4803F0F1FB034683F00103DBB2002B00D0F1E73A1D07F108031946154803F068
S32D0000C5A8E3FB0346002B00D0F4E7114805F04CFFF860F9680F4803F050FD3A1D07F1080319460C4803F0D0FBB4
S32D0000C5D0034683F00103DBB2002B00D0F1E73A1D07F108031946054803F0C2FB0346002BDFD0F4E70000E03F4A
S32D0000C5F8A01A0020381A0020AC9D01000000000080B586B004AF786039607B68012B24D13B684FF6FF729342BE
S32D0000C6201FD11F21144802F0E1FC0023029310A3D3E90023CDE900234FF000020F4B03210F48FFF71DFF07231C
S32D0000C648029309A3D3E90023CDE900234FF00002084B00210948FFF70FFF00BF0837BD4680BD00BFAFF30080A2
S32D0000C670D8EAD9217063993FE416002000002240E81600202017002080B500AF4FF6FF710120FFF7B9FF80BD9F
S32D0000C69880B500AF0F4BD3F8A03003F48053002B14BF01230023DBB2002B10D0094BD3F8A030084A23F48053C9
S32D0000C6C0C2F8A030064805F0D1FF064B1B68054A23F40053136000BF80BD00BF00C00440C01A0020C0F00F40F7
S32D0000C6E880B400AF124B4FF480725A63114B5B69104A43F4005353610E4B1B680D4A43F4005313600A4B0C4A5F
S32D0000C7101A630C4BD3F888310A4A43F08063C2F88831084B9B68074A43F08063936000BFBD4680BC704700BFA2
S32D0000C73800C00440C0F00F4003010A0000E100E080B400AF334B00225A70324B98221A70304B9B79DBB203F0E4
S32D0000C7601003002B14BF01230023DBB2002B00D0F2E72A4B9B79DBB29B08DBB203F00303022B14BF012300236C
S32D0000C788DBB2002B00D0F0E7224B18221A71214B00225A71204B03F580531A461F4B53641C4B54225A711B4BD4
S32D0000C7B09B79DBB203F02003002B0CBF01230023DBB2002B00D0F2E7144B9B79DBB203F04003002B0CBF0123B6
S32D0000C7D80023DBB2002B00D0F2E70E4B1B78DBB20C4A03F03F03DBB213700A4B9B79DBB29B08DBB203F003037C
S32D0000C800032B14BF01230023DBB2002B00D0F0E700231846BD4680BC704700BF004006400070044000001301DF
S32D0000C82880B500AF314B03F580539B6B2F4A43F4785302F580529363FFF752FFFFF780FF2B4B58221A602A4BDC
S32D0000C8501B684FF47A7202FB03F3284A1360274B1B681A46234B03F580535B6C1B0E03F00F030133B2FBF3F3E6
S32D0000C8781A46214B1A601D4B03F58053DB6B1B4A43F0225302F58052D363184B03F580531B6B164A43F000631D
S32D0000C8A002F580521363174B4FF480721A61642001F09EFF134B5B69124A23F010035361104B00221A600F4B5E
S32D0000C8C810225A610E4803F01FF802F0F3FB02F051FC0C4801F0EAFF0B4805F017FF4FF4FA6002F067F800BF9D
S32D0000C8F080BD00BF0070044084190020801900208819002000D00340381A00207C190020301B002080B500AFAA
S32D0000C918FFF715FD00BF80BD80B500AFFFF70FFD00BF80BD80B500AFFFF709FD00BF80BD80B500AFFFF703FD55
S32D0000C94000BF80BD80B500AFFFF7FDFC00BF80BD80B500AFFFF7F7FC00BF80BD80B500AFFFF7F1FC00BF80BD72
S32D0000C96880B500AFFFF7EBFC00BF80BD80B500AFFFF7E5FC00BF80BD80B500AFFFF7DFFC00BF80BD80B500AF98
S32D0000C990FFF7D9FC00BF80BD80B500AFFFF7D3FC00BF80BD80B500AFFFF7CDFC00BF80BD80B500AFFFF7C7FCD1
S32D0000C9B800BF80BD80B500AFFFF7C1FC00BF80BD80B500AFFFF7BBFC00BF80BD80B500AFFFF7B5FC00BF80BDAE
S32D0000C9E080B500AFFFF7AFFC00BF80BD80B500AFFFF7A9FC00BF80BD80B500AFFFF7A3FC00BF80BD80B500AFD4
S32D0000CA08FFF79DFC00BF80BD80B500AFFFF797FC00BF80BD80B500AFFFF791FC00BF80BD80B500AFFFF78BFC48
S32D0000CA3000BF80BD80B500AFFFF785FC00BF80BD80B500AFFFF77FFC00BF80BD80B500AFFFF779FC00BF80BDE9
S32D0000CA5880B500AFFFF773FC00BF80BD80B500AFFFF76DFC00BF80BD80B500AFFFF767FC00BF80BD80B500AF0F
S32D0000CA80FFF761FC00BF80BD80B500AFFFF75BFC00BF80BD80B500AFFFF755FC00BF80BD80B500AFFFF74FFCC0
S32D0000CAA800BF80BD80B500AFFFF749FC00BF80BD80B500AFFFF743FC00BF80BD80B500AFFFF73DFC00BF80BD25
S32D0000CAD080B500AFFFF737FC00BF80BD80B500AFFFF731FC00BF80BD80B500AFFFF72BFC00BF80BD80B500AF4B
S32D0000CAF8FFF725FC00BF80BD80B500AFFFF71FFC00BF80BD80B500AFFFF719FC00BF80BD80B500AFFFF713FC38
S32D0000CB2000BF80BD80B500AFFFF70DFC00BF80BD80B500AFFFF707FC00BF80BD80B500AFFFF701FC00BF80BD60
S32D0000CB4880B500AFFFF7FBFB00BF80BD80B500AFFFF7F5FB00BF80BD80B500AFFFF7EFFB00BF80BD80B500AF89
S32D0000CB70FFF7E9FB00BF80BD80B500AFFFF7E3FB00BF80BD80B500AFFFF7DDFB00BF80BD80B500AFFFF7D7FBB3
S32D0000CB9800BF80BD80B500AFFFF7D1FB00BF80BD80B500AFFFF7CBFB00BF80BD80B500AFFFF7C5FB00BF80BD9F
S32D0000CBC080B500AFFFF7BFFB00BF80BD80B500AFFFF7B9FB00BF80BD80B500AFFFF7B3FB00BF80BD80B500AFC5
S32D0000CBE8FFF7ADFB00BF80BD80B500AFFFF7A7FB00BF80BD80B500AFFFF7A1FB00BF80BD80B500AFFFF79BFB2B
S32D0000CC1000BF80BD80B500AFFFF795FB00BF80BD80B500AFFFF78FFB00BF80BD80B500AFFFF789FB00BF80BDDA
S32D0000CC3880B500AFFFF783FB00BF80BD80B500AFFFF77DFB00BF80BD80B500AFFFF777FB00BF80BD80B500AF00
S32D0000CC60FFF771FB00BF80BD80B500AFFFF76BFB00BF80BD80B500AFFFF765FB00BF80BD80B500AFFFF75FFBA2
S32D0000CC8800BF80BD80B500AFFFF759FB00BF80BD80B500AFFFF753FB00BF80BD80B500AFFFF74DFB00BF80BD16
S32D0000CCB080B500AFFFF747FB00BF80BD80B500AFFFF741FB00BF80BD80B500AFFFF73BFB00BF80BD80B500AF3C
S32D0000CCD8FFF735FB00BF80BD80B500AFFFF72FFB00BF80BD80B500AFFFF729FB00BF80BD80B500AFFFF723FB1A
S32D0000CD0000BF80BD80B500AFFFF71DFB00BF80BD80B500AFFFF717FB00BF80BD80B500AFFFF711FB00BF80BD51
S32D0000CD2880B500AFFFF70BFB00BF80BD0000000080B584B000AFF8600B467A60FB72FB68FA7A1A71FB68002212
S32D0000CD505A711749786806F0C7FC0346002B02D0134B7B600AE04FF07E51786806F0A8FC0346002B02D04FF07B
S32D0000CD787E537B60786805F05FFE09A3D3E9002305F0B2FE02460B461046194606F08EF90246FB681A60FB682C
S32D0000CDA018461037BD4680BDABAAAAAAAAAA20400000404180B483B000AF03460A46FB711346BB71BB79002BA3
S32D0000CDC803D1134B00221A7002E0114B01221A703823FB710E4B1A78FB791343FB710D4B9B78DBB20B4A43F00C
S32D0000CDF01003DBB29370094B9B78DBB2074A43F02003DBB29370054AFB79137100BF0C37BD4680BC704700BF49
S32D0000CE18581700200060064080B483B000AF01237B607B68312B04DC00BF7B6801337B60F7E700BF0C37BD46EF
S32D0000CE4080BC704780B582B000AF03460A46FB711346BB71134B1B7800211846FFF7AAFF00F024F8104AFB7948
S32D0000CE68137100F01FF80E4ABB79137100F01AF80B4B9B78DBB20A4A23F02003DBB29370074B9B78DBB2064AAD
S32D0000CE9023F01003DBB29370FFF7C2FF00BF0837BD4680BD591700200060064080B483B000AF174B1B78002B5D
S32D0000CEB824D100237B60154BDB78DBB203F00203002B0CBF01230023DBB2002B0DD07B6842F21072934203DD01
S32D0000CEE00B4B01221A7004E07B6801337B6000BFE5E7084BDB78DBB2064A43F00203DBB2D37000E000BF0C3753
S32D0000CF08BD4680BC704700BF5A1700200060064080B582B000AF0346FB71FB79184600F05FF800BF0837BD462A
S32D0000CF3080BD80B582B000AF03460A46FB711346BB7100F035F8FB795B00DBB21846FFF7E3FFBB791846FFF7BF
S32D0000CF58DFFF00F037F800BF0837BD4680BD80B500AFFF2000F03CF80346184680BD80B584B000AF0346FB7198
S32D0000CF8000F016F8FB795B005BB243F001035BB2DBB21846FFF7C0FFFFF7E5FF0346FB7300F014F8FB7B184664
S32D0000CFA81037BD4680BD000080B400AF044B9B68034A43F48013936000BFBD4680BC704740F00F4080B400AF7E
S32D0000CFD0044B5B68034A43F48013536000BFBD4680BC704740F00F4080B485B000AF0346FB710023BB73164BA4
S32D0000CFF8DB6A03F00043012B0CBF01230023DBB2002B03D0FB7B0133FB73F0E70E4BDB6A0D4A43F00043D36238
S32D0000D0200B4AFB7953630A4BDB6A03F40033002B0CBF01230023DBB2002B00D0F3E7044B9B6BBB73BB7B1846E9
S32D0000D0481437BD4680BC704700C00A400000000080B582B000AF204B03F580531B6B1E4A43F4805302F5805262
S32D0000D07013631C4B4FF480721A651B4B5B691A4A43F480135361FFF7A1FF164B4FF400725A65144B4FF4007276
S32D0000D0989A65124B4FF40072DA65124B124A1A60104B124ADA6000237B607B68092B06DCFF20FFF72DFF7B68DB
S32D0000D0C001337B60F5E704A1D1E9000101F08CFC00BF0837BD4680BD9A9999999999B93F0070044000A0044019
S32D0000D0E840F00F4000C00A40000C00800500003E90B486B000AFF860B9607A60FB68534A93420AD1524B03F509
S32D0000D11080535B6B504A43F4806302F58052536345E0FB684D4A93420AD14B4B03F580535B6B494A43F4006302
S32D0000D13802F58052536336E0FB68474A93420AD1434B03F580535B6B414A43F4805302F58052536327E0FB68F3
S32D0000D160404A93420AD13C4B03F580535B6B3A4A43F4005302F58052536318E0FB683A4A93420AD1344B03F5BC
S32D0000D18880539B6A324A43F4806302F58052936209E02F4B03F580539B6A2D4A43F4006302F580529362FB68E8
S32D0000D1B0DB78DBB223F00C03DAB2FB68DA70FB6800229A70BB684FF47A7203FB02F27B681B0192FBF3F39CB283
S32D0000D1D8FB681B78DBB223F01F03FB75230A9BB2DBB203F01F03DAB2FB7D1343DAB2FB681A70E2B2FB685A7051
S32D0000D200BB684FF4FA4203FB02F27B681B0192FBF3F39AB263019BB2D31A9CB2FB689B7ADBB223F01F03FB7518
S32D0000D228E3B203F01F03DAB2FB7D1343DAB2FB689A72FB68DB78DBB243F00C03DAB2FB68DA7000BF1837BD460A
S32D0000D25090BC704700A006400070044000B0064000C0064000D0064000A00E4080B483B000AF78607B681B79AE
S32D0000D278DBB203F02003002B0CBF01230023DBB2002B00D0F2E77B68DB79DBB218460C37BD4680BC704780B4B8
S32D0000D2A083B000AF78600B46FB707B681B79DBB25BB2DB43DBB2DB09DBB2002B00D0F4E77B68FA78DA7100BF88
S32D0000D2C80C37BD4680BC704780B487B000AFF860B9607A60FB687B617B685A1E7A60002B14BF01230023DBB254
S32D0000D2F0002B06D07B695A1C7A61BA68D2B21A70EEE700BF1C37BD4680BC704780B584B000AF786039607B6861
S32D0000D3181B6BFB60FA683B689A4252D07B681B79002B35D07B6858787B6803F134010123FA6801F0F7F80346EE
S32D0000D340002B14BF01230023DBB2002B01D001233CE07B6800221A717B685A6A7B681B6A1344FA689A4217D294
S32D0000D3687B68DB78FB72FB7A012B11D97B681B6AFA681344FB607B6858787B6803F134010123FA6801F0CEF8F1
S32D0000D390FB7A013BFB72EAE73B68002B15D07B6858787B6803F1340101233A6800F0DAFF0346002B14BF012314
S32D0000D3B80023DBB2002B01D0012303E07B683A681A63002318461037BD4680BD80B584B000AF78600021786899
S32D0000D3E0FFF794FF0346FB73FB7B002B40F093807B681B78032B7DD17B685B79002B79D07B6800221A637B6879
S32D0000D40834334FF4007200211846FFF75DFF7B68552283F832227B68AA2283F833227B68522283F834207B6858
S32D0000D430522283F835207B68612283F836207B68412283F837207B68722283F818227B68722283F819227B68FF
S32D0000D458412283F81A227B68612283F81B227B681B69DAB27B6883F81C227B681B699BB21B0A9BB2DAB27B684A
S32D0000D48083F81D227B681B691B0CDAB27B6883F81E227B681B691B0EDAB27B6883F81F227B68DB68DAB27B68BC
S32D0000D4A883F820227B68DB689BB21B0A9BB2DAB27B6883F821227B68DB681B0CDAB27B6883F822227B68DB68E6
S32D0000D4D01B0EDAB27B6883F823227B6858787B6803F134017B685A69012301F01FF87B6800225A717B685B78BF
S32D0000D4F800220021184601F0E1F80346002B14BF01230023DBB2002B01D00123FB73FB7B18461037BD4680BD97
S32D0000D52080B582B000AF78600B467B807B68002B08D07B681B78002B04D07B68DB887A889A4201D0092311E036
S32D0000D5487B685B78184601F03BF9034603F00103002B14BF01230023DBB2002B01D0032300E0002318460837A8
S32D0000D570BD4680BD80B586B000AF78607B681A687B689B8819461046FFF7CAFF0346FB75FB7D002B40F0AC80C4
S32D0000D5987B689B7903F02003002B00F0A5807B689B7903F04003002B1BD07B681B6858787B6803F128017B68BC
S32D0000D5C09A69012300F0B2FF0346002B14BF01230023DBB2002B01D001238AE07B689B7923F04003DAB27B6814
S32D0000D5E89A717B681A687B68DB6919461046FFF789FE0346FB75FB7D002B75D17B681B6A3B613B690B331A7832
S32D0000D6103B690B3342F02002D2B21A707B68DA683B691C33D2B21A707B68DB689BB21B0A9AB23B691D33D2B226
S32D0000D6381A707B68DB681A0C3B691E33D2B21A707B68DB681A0E3B691F33D2B21A707B681A693B691A33D2B2BE
S32D0000D6601A707B681B699BB21B0A9AB23B691B33D2B21A707B681B691A0C3B691433D2B21A707B681B691B0CD9
S32D0000D6889BB21B0A9AB23B691533D2B21A700023FB603B691633FA68D2B21A70FB689BB21B0A9AB23B691733D2
S32D0000D6B0D2B21A70FB681A0C3B691833D2B21A70FB681A0E3B691933D2B21A707B689B7923F02003DAB27B6893
S32D0000D6D89A717B681B6801221A717B681B681846FFF774FE0346FB75FB7D18461837BD4680BD80B584B000AFA3
S32D0000D70078607868FFF736FF0346FB73FB7B002B02D17B6800221A60FB7B18461037BD4680BD000080B588B0A6
S32D0000D72800AF7860396080233B610F23FB604FF0FF337B610223FB61FB69B3F5807F23D80123BB61BB69102B74
S32D0000D7501AD8FB69BA6902FB03F33A6803FB02F27B68D31ABB60BB68002B09DBBB687A699A4205D9BB687B61CF
S32D0000D778FB693B61BB69FB60BB690133BB61E1E7FB695B00FB61D7E71D4BDB6A1C4A23F00803D3621A4BDB6ADF
S32D0000D7A023F47F2323F47F63BB613B695B081B029AB2FB68013B1B01DBB21A43BB691343114A43F46023D362B4
S32D0000D7C80F4B5B6A03F00803002B0CBF01230023DBB2002B03D00A2001F0ECF8F0E7084BDB6A074A43F0080351
S32D0000D7F0D362054B1B6B044A43F48013136300BF2037BD4680BD00BF00100B4080B582B000AF786039607B6898
S32D0000D81800221A60414B424ADA62404BDB6A03F08073002B14BF01230023DBB2002B00D0F3E73A4B0022C3F833
S32D0000D840C020384B4FF481325A60364B28229A62344B4FF001125A643B689B6833491846FFF760FF2F4B5B6A3D
S32D0000D86803F00303002B14BF01230023DBB2002B00D0F3E72C4B40F243421A602A4B40F243425A60284B4FF4AE
S32D0000D89088629A60264B40F24342DA60244B40F243421A61224B40F243425A61214B03F580531B6B1F4A43F447
S32D0000D8B8003302F580521363184B4FF6FF721A63164B1B4A5A63154BDB6A144A43F00063D362124BDB6A03F054
S32D0000D8E00063002B14BF01230023DBB2002B00D0F3E70C4B5B6A03F48033002B14BF01230023DBB2002B02D07B
S32D0000D9087B6801221A60054B1B6B044A43F080031363002318460837BD4680BD00100B400080000160CC050014
S32D0000D93000D0044000700440B3007F0080B400AF064B5A6A40F207331340002B14BF01230023DBB21846BD46E5
S32D0000D95880BC704700100B4080B485B000AF7860074B1B6B7A681340FB60FB68002B00D1F6E7FB6818461437B3
S32D0000D980BD4680BC704700BF00100B4080B584B000AF78607B681B7803F03F03764A52F82330FB60FB68002B88
S32D0000D9A805D17B681B78002B01D00123DCE0714B1B6B704A43F0800313636E4B5B6A03F00103002B14BF01236A
S32D0000D9D00023DBB2002B00D0F3E7684A7B685B689360FB6823F44003FB607B685B789B0503F44003FA681343F9
S32D0000D9F8FB607B685B78022B03D1FB6843F40013FB607B685B78042B16D1FB6803F44033B3F5003F08D1FB682B
S32D0000DA2023F44033FB60FB6843F44033FB6007E0FB6823F44033FB60FB6843F40033FB604E4B5B684D4A9BB2F4
S32D0000DA4853607B68DB68002B2AD0FB6803F44033B3F5403F03D0FB6843F40013FB607B681B7A002B03D0FB680A
S32D0000DA7043F01003FB607B68DB68012B03D9FB6843F02003FB607B68DB68B3F1FF3F0BD03A4B5A687B68DB6855
S32D0000DA981B04384913434B60FB6843F00203FB60344B00221A60334AFB68D3603248FFF753FF0346012B14BF91
S32D0000DAC001230023DBB2002B09D02C4B1B6B2B4A43F4702343F001031363012348E0274B1B6B03F08003002B92
S32D0000DAE814BF01230023DBB2002B07D0214B1B6B204A43F001131363012335E01D4B1B6B03F48033002B14BF7F
S32D0000DB1001230023DBB2002B08D0184B1B6B174A43F0011313634FF0FF3321E0FB6803F44033002B15D0114B5E
S32D0000DB381A697B681A61FB6803F44033B3F5803F0BD10C4B5A697B685A610A4B9A697B689A61084BDA697B6867
S32D0000DB60DA61064B1B6B054A43F001031363002318461037BD4680BDF89D010000100B4001000E0080B592B00A
S32D0000DB8800AF7860396000237B643B68BB63994B7B637B6B002B02D140F601235FE3964B3B633B6B002B02D127
S32D0000DBB040F60B2357E33B6B1B68FB62FB6A002B02D140F60B234EE37B6841F20932934200F23F837B68B3F5C6
S32D0000DBD8985F08D87B68032B00F01A837B68092B00F0098331E37B68A3F59853013B082B00F22B8301A252F8A1
S32D0000DC0023F000BF29DC000015DF000071E100002BDF000069DF00008FE00000D7E0000019E0000033E0000055
S32D0000DC287649786BFFF7EEFD78647B6C002B40F01083002387F84330002387F82B30002387F82A30002387F8EA
S32D0000DC502930002387F84230002387F8283000233B7200237B720023FB6000233B7400237B6107F108031846AF
S32D0000DC78FFF788FE0346002B14BF01230023DBB2002B02D001237B64E8E240F24C4000F091FE08233B720023E5
S32D0000DCA07B724FF4D573FB6000233B7400237B6107F108031846FFF769FEF863FB6B002B09D1BA69FB689A42CC
S32D0000DCC802D001237B64C9E2012387F84230012387F8283097F82830002B00F0A58037233B7200237B7200233D
S32D0000DCF0FB6000233B7400237B6107F108031846FFF744FEF863FB6B002B02D001237B64A8E269233B7200239A
S32D0000DD187B720023FB6000233B7400237B6107F108031846FFF72EFE0346002B14BF01230023DBB2002B02D006
S32D0000DD4001237B648EE2BB6903F44013002B6FD00023FB630A2000F031FEFB6B0133FB6337233B7200237B7291
S32D0000DD680023FB6000233B7400237B6107F108031846FFF707FE0346002B14BF01230023DBB2002B02D00123A6
S32D0000DD907B6428E069233B7200237B7297F84230002B02D0184BFB6002E04FF44013FB6000233B7400237B61D5
S32D0000DDB807F108031846FFF7E5FD0346002B14BF01230023DBB2002B02D001237B6406E0BB69002B03DBFB6B70
S32D0000DDE0632B00D8B6E77B6C002B40F03882FB6B632B0BD9002387F8423019E07017002074190020EC9D010053
S32D0000DE0800003040012387F8433097F84230002B0AD0002387F84230BB6903F08043002B02D0012387F8423060
S32D0000DE3097F82A30002B02D07B6B07221A6097F82930002B02D07B6B08221A6097F82B30002B02D07B6B0422F3
S32D0000DE581A6097F84330002B09D07B6B02221A6097F84230002B02D07B6B03221A6097F82B30002B0DD097F894
S32D0000DE804330002B09D07B6B05221A6097F84230002B02D07B6B06221A60924B00221A60904B00225A608F4BE6
S32D0000DEA800229A608D4B0022DA608C4B00221A618A4B00225A61FB6A9A68FB6A5B6819461046FFF72BFC854BA5
S32D0000DED040F243421A60834B40F243425A60814B4FF488629A607F4B40F24342DA607D4B40F243421A617B4B46
S32D0000DEF840F243425A617A4B03F580531B6B784A43F4003302F580521363A7E1B86BFFF739FDF863FB6B002B46
S32D0000DF2000F09F8102237B649BE1BB6B002B02D10C237B6496E16D4BDB6A1B0A5B0003F4FF73FB63694BDB6A5D
S32D0000DF481B0903F00F035A1CFB6B02FB03F3FB63FB6A9A68FB6BB2FBF3F2BB6B1A607DE1BB6B002B02D10C23A5
S32D0000DF707B6477E1BB6B1B68002B02D10C237B6470E1FFF7DBFC0346002B0CBF01230023DBB2002B3CD0534B91
S32D0000DF9800221A60514B00225A60504B00229A604E4B0022DA604D4B00221A614B4B00225A61FB6A9A68BB6B66
S32D0000DFC01B6819461046FFF7ADFB464B40F243421A60444B40F243425A60424B4FF488629A60404B40F24342A5
S32D0000DFE8DA603E4B40F243421A613C4B40F243425A613B4B03F580531B6B394A43F4003302F58052136329E110
S32D0000E01040F60A237B6425E1BB6B002B02D10C237B641FE1314B5B68C3F30C02BB6B1A6018E1BB6B002B02D1A8
S32D0000E0380C237B6412E1FFF77DFC0346002B0CBF01230023DBB2002B19D0BB6B1B68B3F5805F02D30C237B6410
S32D0000E06000E1224B5B68214A23F4FF5323F01F0353601E4B5A68BB6B1B68C3F30C031B4913434B60EEE040F6C3
S32D0000E0880A237B64EAE0BB6B002B02D10C237B64E4E0144B9B6A5B0803F00303FB63FB6B002B03D1BB6B0022D3
S32D0000E0B01A60D7E0FB6B012B03D1BB6B01221A60D0E0FB6B102B03D1BB6B02221A60C9E005237B64C6E0BB6B83
S32D0000E0D8002B09D10C237B64C0E000BF00D004400070044000100B40FFF724FC0346002B0CBF01230023DBB25C
S32D0000E100002B31D0BB6B1B68002B0AD1584B9B6A574A23F006039362554B554A9B6A9362A0E0BB6B1B68012B2E
S32D0000E1280CD1514B9B6A504A23F0060393624E4B9B6A4D4A43F0020393628FE0BB6B1B68022B0AD1484B9B6A86
S32D0000E150474A23F006039362454B454A9B6A936280E005237B647DE040F60A237B6479E0BB6B002B02D10C2334
S32D0000E1787B6473E03C4BDB6A3B4A43F00063D362394BDB6A03F00063002B14BF01230023DBB2002B00D0F3E765
S32D0000E1A0334B1B6B03F08003002B14BF01230023DBB2002B08D02E4B1B6B2D4A43F0800313637B6B00221A60DE
S32D0000E1C8294B5B6A03F48033002B14BF01230023DBB2002B07D07B6B1B68002B06D17B6B01221A6002E07B6BBC
S32D0000E1F000221A607B6B1A68BB6B1A6032E0BB6B1C221A60BB6B043304221A60BB6B08334FF41E721A6025E0BD
S32D0000E2180220FFF7A1FB144B1B6B03F4E003002B14BF01230023DBB2002B07D00E4B1B6B0D4A43F4E0031363CB
S32D0000E24004237B640A4B1B6B094A43F03203136308E040F609237B6404E000BF02E000BF00E000BF7B6C18464D
S32D0000E2684837BD4680BD00BF00100B4080B489B000AF786039607B687B61364B3B613B69002B01D100235FE043
S32D0000E2903B691B68022B0BD03B691B68032B07D03B691B68072B03D03B691B68082B0BD12B4B5B6A03F004036E
S32D0000E2B8002B14BF01230023DBB2002B00D0F3E73B68FB61FB69002B3DD0FB69B3F5007F28BF4FF40073FB6073
S32D0000E2E0FB6803339B08BB61BB69002B2AD01C4B1B6B03F4E003002B14BF01230023DBB2002B09D0164B1B6BEB
S32D0000E308154A43F4E00343F02003136300231BE0114B5B6A03F40063002B0CBF01230023DBB2002B00D0F3E76A
S32D0000E3300B497B691A1D7A610A6A1A60BB69013BBB61D1E7FA69FB68D31AFB61BEE7012318462437BD4680BC83
S32D0000E358704700BF7017002000100B4080B58EB000AFB9607A601A460346FB731346BB73414B7B63FB7B002B61
S32D0000E38002D1BB7B002B01D1042375E03D4B1B78DBB203F00103002B14BF01230023DBB2002B01D0032367E013
S32D0000E3A8BB68002B01D1002362E07B6B1B7B002B02D17B685B027B60BB7B012B28D111233B7500237B757B68F8
S32D0000E3D0BB6101233B77BB7B3B6207F11403194641F20230FFF7CEFB0346002B0CBF01230023DBB2002B38D082
S32D0000E3F84FF40071B868FFF739FF0346002B14BF01230023DBB2002B2BD00023BB7328E012233B7500237B7563
S32D0000E4207B68BB6101233B77BB7B3B6207F11403194641F20230FFF7A5FB0346002B0CBF01230023DBB2002B7F
S32D0000E4480FD0BB7B5B021946B868FFF70FFF0346002B14BF01230023DBB2002B01D00023BB73BB7B002B01D017
S32D0000E470012300E0002300BF18463837BD4680BD5C1700200000002080B487B000AF786039607B68FB603B686C
S32D0000E4987B617B69002B3DD07B69B3F5007F28BF4FF400733B617A693B69D31A7B613B6903339B083B613B690D
S32D0000E4C0002BEAD0184B1B6B03F4E003002B14BF01230023DBB2002B0AD0134B1B6B124A43F4E00343F010030F
S32D0000E4E813634FF0FF3316E00D4B5B6A03F48063002B0CBF01230023DBB2002B00D0F3E7FB681A1DFA60064A4F
S32D0000E5101B6813623B69013B3B61D0E7012318461C37BD4680BC704700100B4080B58EB000AFB9607A601A4617
S32D0000E5380346FB731346BB735D4B7B63FB7B002B02D1BB7B002B01D10423ADE0594B1B78DBB203F00103002BB0
S32D0000E56014BF01230023DBB2002B01D003239FE0524B1B78DBB203F00403002B14BF01230023DBB2002B01D0C0
S32D0000E588022391E0BB68002B01D100238CE07B6B1B7B002B02D17B685B027B60BB7B012B28D118233B75002322
S32D0000E5B07B757B68BB6100233B77BB7B3B6207F11403194641F20230FFF7DCFA0346002B0CBF01230023DBB2F4
S32D0000E5D8002B38D04FF40071B868FFF751FF0346002B14BF01230023DBB2002B2BD00023BB7328E019233B7542
S32D0000E60000237B757B68BB6100233B77BB7B3B6207F11403194641F20230FFF7B3FA0346002B0CBF0123002336
S32D0000E628DBB2002B0FD0BB7B5B021946B868FFF727FF0346002B14BF01230023DBB2002B01D00023BB730D2367
S32D0000E6503B7500237B757B6B1B69BB6100233B7700233B6207F11403194641F20230FFF789FA0346002B14BF2B
S32D0000E67801230023DBB2002B01D0012314E07A6A0D4B1340002B01D001230DE07B6A03F4F853B3F5106F00D0D2
S32D0000E6A0D5E7BB7B002B01D0012300E0002300BF18463837BD4680BD5C170020000000200880D9FF80B58CB0E7
S32D0000E6C800AF03463A60FB710B46BB713A4BBB62FB79002B01D0042369E0012387F82F30364B1B78DBB203F091
S32D0000E6F00103002B14BF01230023DBB2002B01D0032358E0BB79032B50D801A252F823F021E7000029E700002A
S32D0000E71839E7000049E70000002387F82F3044E0BB6A9A683B681A60002387F82F303CE03B684FF400721A800B
S32D0000E740002387F82F3034E009233B7200237B72BB6A1B69FB6000233B7400237B6107F10803194641F2023011
S32D0000E768FFF70CFA0346002B14BF01230023DBB2002B01D001231AE07B6A03F44003002B0CD13B6A9B0C03F0EC
S32D0000E7907F035A1C7B6A1B0A03F00303013B9A403B681A60002387F82F3002E0042387F82F3097F82F301846F9
S32D0000E7B83037BD4680BD00BF5C1700200000002080B483B000AF0346FB71FB79002B01D0012302E0034B1B78F8
S32D0000E7E0DBB218460C37BD4680BC70470000002080B483B000AF7860164B03F580539B6B144A43F0010302F51B
S32D0000E80880529363124A7B689360114B05225A600F4B1B680E4A43F0010313600C4B1B6803F08003002B0CBF86
S32D0000E83001230023DBB2002B00D0F3E7064B1B68054A23F00103136000BF0C37BD4680BC704700BF00700440F9
S32D0000E8580000044080B582B000AF786039607B68012B07D13B684FF6FF72934202D1034800F00EF800BF0837A0
S32D0000E880BD4680BD7C19002080B500AF4FF6FF710120FFF7E3FF80BD80B483B000AF78607B6800221A707B6846
S32D0000E8A818460C37BD4680BC7047000080B582B000AF78607B681B7883F00103DBB2002B21D0134B03F58053FE
S32D0000E8D01A464FF400639362104B4FF440721A620E4B4FF440725A620D4B1B68DA0F13445B104FF4614219467E
S32D0000E8F80A48FEF7FDFB642000F05CF87B6801221A70012300E0002318460837BD4680BD0070044000D004408F
S32D0000E9208019002000B00E4080B487B000AFF860B9607A60FB681F4AA2FB03239B09BA6813447B61FB681B4A5D
S32D0000E948A2FB031292094FF47A7101FB02F29B1AFB60FB68DB03154AA2FB03239B097A6813443B613B69DB0BC0
S32D0000E9707A6913447B613B69C3F30E033B610E4B1B687A699A4209D80B4B1B687A699A4206D1094B5B683A69B7
S32D0000E9989A4201D9012300E00023002B00D0EAE700BF1C37BD4680BC704700BFD34D621000D0034080B584B0D3
S32D0000E9C000AF7860074B1B68FB60064B5B68BB607B68BA68F9681846FFF7A6FF00BF1037BD4680BD00D003408B
S32D0000E9E880B584B000AFC7E900010E4B1B68FB600C4B5B68BB604FF000020B4BD7E9000104F072F802460B467D
S32D0000EA101046194604F02EFB0346BA68F9681846FFF782FF00BF1037BD4680BD00D0034000408F4080B483B096
S32D0000EA3800AF0B4B1B684FF47A7202FB03F37B60074B5B684FF47A7202FB03F3DB0B7A6813447B607B681846B9
S32D0000EA600C37BD4680BC704700D0034080B584B000AF78600B46FB700B23FB73FA7BFB781946786800F094F851
S32D0000EA887B6818461037BD4680BD000080B485B000AF78607B68103B002B00DA1F335B11FB60FB68022B53D0A9
S32D0000EAB0FB68022B75DCFB68002B03D0FB68012B25D06EE0394BD3F880217B68103B594203F01F0301F01F0145
S32D0000EAD858BF4B42012101FA03F332491343C1F88031304B1A687B68103B594203F01F0301F01F0158BF4B428E
S32D0000EB00012101FA03F3294913430B6049E0274BD3F884217B68103B594203F01F0301F01F0158BF4B420121E1
S32D0000EB2801FA03F31F491343C1F884311D4B5A687B68103B594203F01F0301F01F0158BF4B42012101FA03F3D2
S32D0000EB50164913434B6024E0144BD3F888217B68103B594203F01F0301F01F0158BF4B42012101FA03F30D4964
S32D0000EB781343C1F888310B4B9A687B68103B594203F01F0301F01F0158BF4B42012101FA03F3044913438B601B
S32D0000EBA000BF00BF1437BD4680BC704700E100E080B584B000AF78600B46FB701346BB707B68FA781A70BB7885
S32D0000EBC8FB737B681B781A46574B9B5C042B00F2A68001A252F823F0F5EB000041EC00008DEC000025ED000063
S32D0000EBF0D9EC0000FB7B1B0403F470234D497A68127810464C4A52F8202043F4897343F0010341F82230494B12
S32D0000EC185A697B681B781946454B53F8213003F01F03012101FA03F3DB43424913404B616720FFF72BFF72E041
S32D0000EC40FB7B1B0403F470233D497A6812781046394A52F8202043F4897343F0010341F82230384B5A697B6814
S32D0000EC681B781946324B53F8213003F01F03012101FA03F3DB43314913404B616820FFF705FF4CE0FB7B1B0471
S32D0000EC9003F470232C497A6812781046264A52F8202043F4897343F0010341F82230274B5A697B681B7819469C
S32D0000ECB81F4B53F8213003F01F03012101FA03F3DB43204913404B616920FFF7DFFE26E0FB7B1B0403F47023F9
S32D0000ECE01B497A6812781046134A52F8202043F4897343F0010341F82230164B5A697B681B7819460C4B53F869
S32D0000ED08213003F01F03012101FA03F3DB430F4913404B616B20FFF7B9FE00E000BF00BF1037BD4680BD00BF13
S32D0000ED30F89E0100009004403C9F010000F00F4000A0044040F00F4000B0044080F00F4000D0044000F10F40C5
S32D0000ED58B0B48BB000AF224B3C1D1D460FCD0FC495E80F0084E80F0000237B627B6A072B30DC1C4BD3F8A0204B
S32D0000ED807B6A9B0028333B4453F8243C012101FA03F31340002B14BF01230023DBB2002B18D0134A7B6A52F889
S32D0000EDA823305A1C10497B6A41F823200D4BD3F8A0207B6A9B0028333B4453F8243C012101FA03F3074913401C
S32D0000EDD0C1F8A0307B6A01337B62CBE700BF2C37BD46B0BC704700BF40A0010000A00440AC190020B0B489B096
S32D0000EDF800AF224B3C1D1D460FCD0FC495E8030084E803000023FB61FB69052B30DC1C4BD3F8A020FB699B0067
S32D0000EE2020333B4453F81C3C012101FA03F31340002B14BF01230023DBB2002B18D0FB690833124A52F823207C
S32D0000EE480132104941F823200D4BD3F8A020FB699B0020333B4453F81C3C012101FA03F307491340C1F8A030FE
S32D0000EE70FB690133FB61CBE700BF2437BD46B0BC704700BF60A0010000B00440AC190020B0B48DB000AF234B37
S32D0000EE983C461D460FCD0FC40FCD0FC495E8070084E807000023FB62FB6A0A2B30DC1C4BD3F8A020FB6A9B00FA
S32D0000EEC030333B4453F8303C012101FA03F31340002B14BF01230023DBB2002B18D0FB6A0E33124A52F82320B1
S32D0000EEE80132104941F823200D4BD3F8A020FB6A9B0030333B4453F8303C012101FA03F307491340C1F8A03039
S32D0000EF10FB6A0133FB62CBE700BF3437BD46B0BC704700BF78A0010000900440AC190020B0B487B000AF214B94
S32D0000EF383C461D460FCD0FC42B68236000237B617B69042B30DC1C4BD3F8A0207B699B0018333B4453F8183C09
S32D0000EF60012101FA03F31340002B14BF01230023DBB2002B18D07B691933124A52F823200132104941F8232017
S32D0000EF880D4BD3F8A0207B699B0018333B4453F8183C012101FA03F307491340C1F8A0307B6901337B61CBE7AB
S32D0000EFB000BF1C37BD46B0BC704700BFA4A0010000D00440AC19002080B483B000AF78607B681B781946044BEC
S32D0000EFD8002243F8212000BF0C37BD4680BC7047AC19002080B483B000AF78600B46FB707B68FA781A707B6824
S32D0000F00018460C37BD4680BC7047000080B586B000AF78607B681B781A46234B53F822303B617B681B781A4606
S32D0000F028204B9B5CFB733B69DBB203F01F03DAB21D4B1A723B69DBB203F01F03DAB21A4B5A72FB7B002B13D19C
S32D0000F0501749184800F0CEF9164B1B6803F08003802B14BF01230023DBB2002B00D0F3E7104B1B697B6112E0ED
S32D0000F0780D490F4800F0BAF90D4B1B6803F08003802B14BF01230023DBB2002B00D0F3E7074B1B697B617B690C
S32D0000F0A018461837BD4680BDBC9F0100189F01009C19002000B0034000B00B4098B500AF204B5C221A701F4BA5
S32D0000F0C810225A701D4B41F234225A801B4B45F278629A80194B10229A71184B0722DA71164B4FF4C022DA608A
S32D0000F0F0144B1F221A72134B1F225A721149124800F078F90F49114800F074F90F4800F0D2F80D4800F0CFF81B
S32D0000F1180A490C4800F06AF90849094800F066F9094A064B14460FCB84E80F00064B5C221A70054B0422DA7171
S32D0000F14000BF98BD8C19002000B0034000B00B409C19002080B500AF064B1B680133054A136000F03DF8044BE3
S32D0000F1680122C3F80C2100BF80BD00BF301A00200070034080B500AF0C4B01221A600C4800F01AF8094B0322EF
S32D0000F190C3F80821094BD3F88831084A43F01003C2F88831054B9B68044A43F01003936000BF80BD0070034001
S32D0000F1B8A086010000E100E080B483B000AF7860044A7B68C2F8003100BF0C37BD4680BC704700BF00700340CD
S32D0000F1E080B584B000AF174B1B68FB60FB68002B24D0FB685B78FB71FB689B68184600F023F80346BB71BB790D
S32D0000F208002B13D0FB685B68012B0FDDFB689B681B69BB60BB68002B08D0BB685B685A1CBB685A60BB681B6981
S32D0000F230BB60F3E7FB68DB68FB60D7E700BF1037BD4680BD2C1A002080B584B000AF78607868FFF7DBFEF86059
S32D0000F2587B689B695B78FB72FB7A002B0FD17B68DB68FA689A420ADD7B689B6901225A707B685B685A1C7B68C3
S32D0000F2805A60012313E0FB7A012B0FD17B689B68FA689A420ADA7B689B6900225A707B685B685A1C7B685A607A
S32D0000F2A8012300E0002318461037BD4680BD80B485B000AF78607B681B6A23F040027B681A627B685B6A23F065
S32D0000F2D00B027B685A627B685B6A43F007027B685A627B685B6A43F080027B685A627B681B6803F08003002BDE
S32D0000F2F80CBF01230023DBB2002B00D0F3E77B685B6A03F04003402B0CBF01230023DBB2002B01D0012364E028
S32D0000F3200023FB817B68DB6CFB817B689B6C9AB2FB891344FB817B685B6C9AB2FB891344FB817B681B6C9AB2EA
S32D0000F348FB891344FB817B68DB6B9AB2FB891344FB817B689B6B9AB2FB891344FB81FB895B08FB81FB896FEAA8
S32D0000F37043436FEA5343FB81FA897B68DA620023FB817B68DB6EFB817B689B6E9AB2FB891344FB817B685B6E5A
S32D0000F3989AB2FB891344FB817B681B6E9AB2FB891344FB817B68DB6D9AB2FB891344FB817B689B6D9AB2FB890C
S32D0000F3C01344FB81FB895B08FB81FB896FEA43436FEA5343FB81FA897B681A637B685B6A23F080027B685A625C
S32D0000F3E8002318461437BD4680BC704780B483B000AF786039603B681B781A467B689A603B685B781A467B6882
S32D0000F410DA603B685B881A467B689A613B689B881A467B68DA613B689B791A467B681A623B68DB791A467B68DC
S32D0000F4385A623B68DA687B681A653B681B7A1A467B681A603B685B7A1A467B685A6000BF0C37BD4680BC704741
S32D0000F46080B483B000AF78607B6818460C37BD4680BC704780B582B000AF786039607B68012B07D13B684FF6C0
S32D0000F488FF72934202D10348FFF7E6FF00BF0837BD4680BD341A002080B500AF4FF6FF710120FFF7E3FF80BD9C
S32D0000F4B080B582B000AF7860B84B4FF48072DA60B74B4FF480729A64B54B4FF480721A64B34B4FF480725A64F5
S32D0000F4D8B14B4FF48072DA60B04B5B69AF4A43F008035361AE4B5B69AD4A43F480235361AB4B5B69AA4A43F4CA
S32D0000F50080335361A84B5B69A74A43F400335361A54B1B68A44A43F008031360A24B5B69A14A43F00803536110
S32D0000F5289E4B1B689D4A43F0080313609A4B4FF480725A62984B4FF480721A62954B4FF480721A61934B4FF496
S32D0000F55080725A61914B4FF480729A618F4B4FF48072DA618D4B4FF480721A638B4B4FF480725A63894B4FF421
S32D0000F57880729A63874B4FF48072DA63854B4FF480721A64834B4FF480725A64814B4FF480729A647F4B4FF4E2
S32D0000F5A08072DA64814B4FF480721A607F4B4FF480729A607D4B4FF48072DA607B4B4FF480721A61784B5B6965
S32D0000F5C8774A43F440735361744B5B69734A43F47F2343F0F0035361734B5B69724A43F01D035361E22178689B
S32D0000F5F000F060FD1D21786800F002FE0221786800F0FEFD0421786800F0FAFDE021786800F050FD0121786898
S32D0000F61800F0F2FD6420FFF7CDF9E021786800F045FD0321786800F0E7FD0121786800F03DFD0120FFF7BEF9C0
S32D0000F640E621786800F036FD0121786800F0D8FDA021786800F0D4FDFF21786800F0D0FDB021786800F026FDE8
S32D0000F6681C21786800F0C8FD0F21786800F0C4FD0121786800F0C0FD3F21786800F0BCFD0021786800F0B8FDA3
S32D0000F690EF21786800F0B4FD0021786800F0B0FDB421786800F006FD0121786800F0A8FD9921786800F0A4FDB3
S32D0000F6B80021786800F0A0FD4521786800F09CFD0221786800F098FD0021786800F094FD0021786800F090FD3F
S32D0000F6E00021786800F08CFDB621786800F0E2FC0121786800F084FD0921786800F080FD0021786800F07CFDA9
S32D0000F7080E21786800F078FD0221786800F074FD0021786800F070FD0021786800F06CFDBA21786800F0C2FCDA
S32D0000F7300F21786800F064FD6420FFF73FF93A21786800F0B7FC6021786800F059FD2A21786800F0AFFC00212C
S32D0000F758786800F051FD0021786800F04DFD0121786800F049FD3F21786800F045FD2B21786800F09BFC0021AC
S32D0000F780786800F03DFD0021786800F039FD0021786800F035FDEF2178680BE000B0044000A0044080F00F4095
S32D0000F7A840F00F4000C00440C0F00F4000F024FD3621786800F07AFC0021786800F01CFDF021786800F072FCAA
S32D0000F7D00421786800F014FDB821786800F06AFC0F21786800F00CFD0121786800F008FD314B1B68304A43F04A
S32D0000F7F8080313606420FFF7DDF83621786800F055FC0021786800F0F7FCF021786800F04DFC0421786800F09B
S32D0000F820EFFC0121786800F0BCF91E226F21786800F082F8AF225621786800F0DBF80021786800F00AFA01230A
S32D0000F84801221C49786800F02BFA2921786800F02DFC6420FFF7AEF8BE21786800F026FC0E21786800F0C8FC1E
S32D0000F870F021786800F0C4FC0121786800F0C0FC0021786800F0BCFC0021786800F0B8FC0F21786800F0B4FC1D
S32D0000F898786800F028FA0121786800F0DAF90021786800F0AFF900BF0837BD4680BD00BF40F00F40B8A001001D
S32D0000F8C080B582B000AF78607B680022DA617B6801221A627B680E225A607B681A229A607B6800225A617B68E1
S32D0000F8E800229A617B684FF4A072DA607B68F0221A617B6800221A70786801F0B1F97B6818460837BD4680BD29
S32D0000F91080B582B000AF7860064B1B78002B05D1044B01221A707868FFF7C2FD00BF0837BD4680BD7C1A002071
S32D0000F93880B58AB002AFF860B9607A607E23009362237A68B968F86800F045FE40F24E733B610023FB61FA6976
S32D0000F9603B699A4240DA0023BB61214AFB6913441B781A46BB69934232DAFB6901331C4AD35C002B06D1FF2331
S32D0000F988FB75FF23BB75FF237B7512E0FB690133154AD35C012B06D1D423FB750023BB7526237B7505E0B523B2
S32D0000F9B0FB75BA23BB75B0237B757B7DBA7DF97DF86800F0C9F80246FB68DA61F86801F04BF9F86801F084F8EB
S32D0000F9D8BB690133BB61C4E7FB690233FB61BAE700BF2037BD4680BD0400002080B58AB002AFF860B9607A6067
S32D0000FA002723009395237A68B968F86800F0E7FD40F2E6333B610023FB61FA693B699A4240DA0023BB61214AFF
S32D0000FA28FB6913441B781A46BB69934232DAFB6901331C4AD35C002B06D1FF23FB75FF23BB75FF237B7512E0E6
S32D0000FA50FB690133154AD35C012B06D10023FB750023BB7500237B7505E0D423FB750023BB7526237B757B7D96
S32D0000FA78BA7DF97DF86800F06BF80246FB68DA61F86801F0EDF8F86801F026F8BB690133BB61C4E7FB690233BD
S32D0000FAA0FB61BAE700BF2037BD4680BD5407002080B485B000AF78600B46FB70FB78062B29D801A252F823F019
S32D0000FAC8EDFA0000E5FA0000F3FA0000FBFA000003FB000009FB000011FB00006FF07F43FB6014E00023FB606C
S32D0000FAF011E04FF47F03FB600DE04FF47F43FB6009E0FF23FB6006E04FF41903FB6002E0044BFB6000BFFB68D6
S32D0000FB1818461437BD4680BC704700BF9999990080B584B000AF786039603B681B0CFB733B681B0ABB733B683C
S32D0000FB407B737B7BBA7BF97B786800F005F8034618461037BD4680BD80B487B000AF7860084611461A460346CF
S32D0000FB68FB700B46BB7013467B70FB789B08DBB27B61BB789B08DBB23B617B789B08DBB2FB607B691A033B69A3
S32D0000FB909B011A43FB68134318461C37BD4680BC704780B582B000AF78600B46FB70FB7819467868FFF77CFF21
S32D0000FBB803461946786800F004F800BF0837BD4680BD80B582B000AF7860396039687868FFF7A6FF02467B689F
S32D0000FBE01A62786801F040F8786800F0A1FB00BF0837BD4680BD80B582B000AF7860786800F096FB00BF08377B
S32D0000FC08BD4680BD80B582B000AF78600B46FB70FB7819467868FFF747FF03461946786800F004F800BF083784
S32D0000FC30BD4680BD80B582B000AF7860396039687868FFF771FF02467B681A62786801F00BF800BF0837BD467C
S32D0000FC5880BD80B582B000AF78600B46FB70FB7819467868FFF720FF03461946786800F004F800BF0837BD465B
S32D0000FC8080BD80B582B000AF7860396039687868FFF74AFF02467B68DA61786800F0E4FF00BF0837BD4680BD7B
S32D0000FCA880B586B000AFF860B9607A603B6000237B617B69BA6813441B78002B0FD07B69BA6813441B783A68A3
S32D0000FCD07968F86800F0C2FD7B680C337B607B6901337B61E9E700BF1837BD4680BD80B582B000AF7860FDF725
S32D0000FCF8AFF967210120FDF718F900210220FDF714F9A0210320FDF710F950210420FDF70CF920210520FDF77B
S32D0000FD2008F920210620FDF704F977210720FDF700F900210820FDF7FCF800210920FDF7F8F800210A20FDF712
S32D0000FD48F4F804210B20FDF7F0F87B684FF0FF32DA637B684FF0FF321A6400BF0837BD4680BD000000000000D6
S32D0000FD7080B586B000AFF860B9607A600020FDF7FAF80346FB75FB7D03F00203002B00F0CE80FDF70DF9E0206E
S32D0000FD98FDF7BEF80220FEF70DFEFDF713F90120FEF708FEFDF700F9A520FDF7B1F80120FEF700FEFDF7D3F833
S32D0000FDC003469BB21B02BB82FDF7CDF803469AB2BB8A1343BB82FDF7C6F803469BB21B027B82FDF7C0F80346A8
S32D0000FDE89AB27B8A13437B82BB8A1B09BB827B8A1B097B82FDF7E6F8FB68DB6BB3F1FF3F34D1FB681B6CB3F18D
S32D0000FE10FF3F2FD1BA8AFB68DA637A8AFB681A647B8AC3F57F630F337B82BB8A184602F0F5FD49A3D3E900238D
S32D0000FE3802F05AFE02460B461046194603F036F90246BB681A607B8A184602F0E3FD42A3D3E9002302F048FECC
S32D0000FE6002460B461046194603F024F902467B681A605AE0FB68DA6BBB8AD31A1946F86800F074F80346632B6B
S32D0000FE880CDCFB681A6C7B8AD31A1946F86800F069F80346632B01DC012300E00023002B2FD0BA8AFB68DA6390
S32D0000FEB07A8AFB681A647B8AC3F57F630F337B82BB8A184602F0AAFD23A3D3E9002302F00FFE02460B46104692
S32D0000FED8194603F0EBF80246BB681A607B8A184602F098FD1CA3D3E9002302F0FDFD02460B461046194603F02D
S32D0000FF00D9F802467B681A600FE0BB68164A1A607B68154A1A60FB684FF0FF32DA63FB684FF0FF321A64002331
S32D0000FF2810E001230EE0BB680D4A1A607B680C4A1A60FB684FF0FF32DA63FB684FF0FF321A64002318461837D1
S32D0000FF50BD4680BDAFF30080144001144001B43F1EE0011EE001AE3F000080BF80B483B000AF786039603B6830
S32D0000FF78002B02DA3B685B423B603B6818460C37BD4680BC704780B584B000AF786039600023FB60786800F068
S32D0000FFA08AFAFB683A6813441B78002B12D07B6859697B689869FB683A6813441B780246786800F031FC786816
S32D0000FFC800F089FAFB680133FB60E6E700BF1037BD4680BD80B590B000AF7860396007F10C033A6806491846A8
S32D0000FFF004F016FC07F10C0319467868FFF7C7FF00BF4037BD4680BDC4A0010080B582B000AF78600B46FB7056
S32D00010018786800F04CFA7B6859697B689A69FB78786800F0FDFB786800F055FA00BF0837BD4680BD80B582B019
S32D0001004000AF78603960786800F035FA39687868FFF79DFF786800F019FA00BF0837BD4680BD80B582B000AF28
S32D0001006878603960786800F022FA39687868FFF7B1FF786800F006FA00BF0837BD4680BD80B582B000AF7860E9
S32D000100900B46FB70786800F00EFAFB7819467868FFF7B4FF786800F0F1F900BF0837BD4680BD000080B483B0F3
S32D000100B800AF78600B46FB704D4B1B684C4A23F0080313604B4B1B684A4A23F480231360484B1B68474A43F4DC
S32D000100E080331360454B1B68444A23F440731360414B1B68404A23F4435323F0300313603E4B1A68FB785B0213
S32D0001010803F400733B4913430B603A4B1A68FB785B101B0203F48073364913430B60344B1A68FB789B101B01B2
S32D0001013003F01003304913430B602F4B1A68FB78DB105B0103F020032B4913430B602A4B1A68FB781B119B012D
S32D0001015803F04003264913430B60254B1A68FB785B11DB01DBB2224913430B60204B1A68FB789B111B0303F48B
S32D0001018080531D4913430B601B4B1A6897F90330DB115BB25B0303F40053174913430B60164B1B68154A23F48F
S32D000101A800331360134B1B68124A43F4003313600F4B1B680E4A43F0080313600D4B1B680C4A43F440731360F4
S32D000101D0094B1B68084A43F4435343F030031360064B1B68054A43F48023136000BF0C37BD4680BC704700BF0A
S32D000101F880F00F4040F00F4080B483B000AF78600B46FB70464B1B68454A23F008031360444B1B68434A43F4E6
S32D0001022080331360414B1B68404A43F4802313603E4B1B683D4A23F4407313603A4B1B68394A23F4435323F088
S32D0001024830031360374B1A68FB785B0203F40073344913430B60334B1A68FB785B101B0203F480732F491343B2
S32D000102700B602D4B1A68FB789B101B0103F01003294913430B60284B1A68FB78DB105B0103F0200324491343FF
S32D000102980B60234B1A68FB781B119B0103F040031F4913430B601E4B1A68FB785B11DB01DBB21B4913430B60EA
S32D000102C0194B1A68FB789B111B0303F48053164913430B60144B1A6897F90330DB115BB25B0303F40053104964
S32D000102E813430B600F4B1B680E4A23F4003313600C4B1B680B4A43F400331360084B1B68074A43F00803136050
S32D00010310064B1B68054A23F48023136000BF0C37BD4680BC704700BF80F00F4040F00F4080B586B000AF786087
S32D000103387B6800225A617B6800229A617B681B6AFB60FB68FB72FB681B0ABB72FB681B0CDBB203F003037B7291
S32D000103602A217868FFF7A6FE00217868FFF748FF00217868FFF744FF01217868FFF740FF3F217868FFF73CFF89
S32D000103882B217868FFF792FE00217868FFF734FF00217868FFF730FF00217868FFF72CFFEF217868FFF728FF15
S32D000103B02C217868FFF77EFE314B1B68304A23F4407313602F4B1B682E4A23F47F2323F0F00313602C4B1B6828
S32D000103D82B4A23F01D031360274B1A687B681B6B254913430B60254B1A687B685B6B234913430B60224B1A6898
S32D000104007B689B6B204913430B601E4B1B681D4A23F0080313601A4B1B68194A43F48023136000237B617B695B
S32D00010428EF2B19D800233B613B69B3F5A07F0FD2114B1B68104A23F4003313600E4B1B680D4A43F40033136089
S32D000104503B6901333B61EBE77B6901337B61E2E7084B1B68074A43F008031360044B1B68034A23F48023136056
S32D0001047800BF1837BD4680BD40F00F4080F00F40C0F00F4080B483B000AF78607B689B69002B07DD7B685B693F
S32D000104A05A1C7B685A617B6800229A6100BF0C37BD4680BC704780B582B000AF78607B685A697B685B689A420B
S32D000104C805DB7B6800225A617868FFF72DFF00BF0837BD4680BD80B582B000AF78607B689B695A1C7B689A61FC
S32D000104F07B689A697B689B689A4205D17868FFF7C5FF7868FFF7D7FF00BF0837BD4680BD80B586B002AFF86067
S32D00010518B9607A600123009301237A68B968F86800F059F8F86800F0D7FA00BF1037BD4680BD80B485B000AFC3
S32D00010540786039607B681B68FB603B681A687B681A603B68FA681A6000BF1437BD4680BC704780B586B002AF3D
S32D00010568F860B9607A603B60BA683B681A447B68009313467A68B968F86800F0ABF8BA683B68D118BA683B6823
S32D00010590D0187A68BB691344009303467A68F86800F09CF8BA683B68D1187A68BB69D0187A68BB6913440093C9
S32D000105B8BB680246F86800F08DF87A68BB691A447B680093BB68B968F86800F083F800BF1037BD4680BD80B570
S32D000105E088B000AFF860B9607A603B60FB681B78022B03D0FB681B78032B11D17B68FB61BA6AFB691344013BC9
S32D00010608BB61FB68DA68BB68D31A3B613B683A69D31A01337B610DE0BB68FB613A68FB691344013BBB617B680F
S32D000106307B61BA6A7B691344013B3B612A21F868FFF738FDFB691B0ADBB203F00F03DBB21946F868FFF7D4FD84
S32D00010658FB69DBB21946F868FFF7CEFDBB691B0ADBB203F00F03DBB21946F868FFF7C4FDBB69DBB21946F868B4
S32D00010680FFF7BEFD2B21F868FFF714FD7B691B0ADBB203F00F03DBB21946F868FFF7B0FD7B69DBB21946F8682D
S32D000106A8FFF7AAFD3B691B0ADBB203F00F03DBB21946F868FFF7A0FD3B69DBB21946F868FFF79AFD2C21F86822
S32D000106D0FFF7F0FC00BF2037BD4680BD90B58BB000AFF860B9607A603B603A68BB68D31A1946F868FFF73AFC11
S32D000106F8F861BA6B7B68D31A1946F868FFF732FCB861BA69FB699A42CCBF01230023FB75FB7D002B0CD03A1D0E
S32D0001072007F1080311461846FFF707FF3B4607F138011846FFF701FFBA683B689A420CDD3A4607F1080311468C
S32D000107481846FFF7F6FE3B1D07F138011846FFF7F0FE3A68BB689A4206D1BB687A681946F868FFF7D1FE55E039
S32D00010770BA6B7B68D31A184602F0A6FD04463A68BB68D31A184602F09FFD03461946204602F0A2FE03463B6105
S32D000107987B68184602F094FD03467B62BB683B623B683A6A9A4235DCFB7D002B14D0786A02F042F94FF000027D
S32D000107C0184B01F0DFFF02460B461046194602F029FC03463A6A1946F868FFF799FE13E0786A02F02DF94FF00E
S32D000107E800020E4B01F0CAFF02460B461046194602F014FC03461A46396AF868FFF784FE3969786A02F0A8FC3F
S32D0001081003467B623B6A01333B62C5E72C37BD4690BD00BF0000E03F80B584B000AFF860B9607A60FB707A6830
S32D0001083813465B0013449B00991CBA6813461B011344DA1CFB78F86800F004F800BF1037BD4680BD80B58EB0DA
S32D0001086002AFF860B9607A60FB70FB780A2B06D1F868FFF720FEF868FFF708FEF2E0FB787D2B02D8FB781F2B2F
S32D0001088801D82023FB70FB78203BFB70112300930C237A68B968F868FFF79DFEFA7813469B0013446F4AD35CF2
S32D000108B03B75FA7813469B00134401336B4AD35C7B75FA7813469B0013440233674AD35CBB75FA7813469B003C
S32D000108D813440333634AD35CFB75FA7813469B00134404335F4AD35C3B760023BB62BB6A062B00F3A180F86891
S32D0001090000F050F9F86800F0B3F8002387F82F3000237B627B6A042B35DC07F114027B6A13441B7803F001039A
S32D00010928002B14BF01230023FB76FB7E002B11D097F82F3083F00103DBB2002B03D0F86800F0CAF802E0F86821
S32D0001095000F08EF8F86800F08BF80DE097F82F30002B03D0F86800F01DF902E0F86800F07FF8F86800F07CF883
S32D00010978FB7E87F82F307B6A01337B62C6E797F82F30002B03D0F86800F008F902E0F86800F06AF8F86800F035
S32D000109A067F8002387F82F3000233B623B6A042B42DC07F114023B6A13441B7803F00103002B14BF012300233D
S32D000109C8BB76BB7E002B11D097F82F3083F00103DBB2002B03D0F86800F07EF802E0F86800F042F8F86800F018
S32D000109F03FF80DE097F82F30002B03D0F86800F0D1F802E0F86800F033F8F86800F030F8BB7E87F82F3007F1CB
S32D00010A1814023B6A13441B785B08D9B207F114023B6A13440A461A703B6A01333B62B9E7BB6A0133BB625AE76B
S32D00010A40F86800F0AFF8002387F82F300123FB61FB69232B06DCF86800F00AF8FB690133FB61F5E73037BD46EF
S32D00010A6880BD00BF3C0B002080B483B000AF7860174B1B68164A43F480331360154B1B68144A23F0080313609A
S32D00010A90114B1B68104A43F4802313600E4B1B680D4A23F4003313600B4B1B680A4A43F400331360094B1B68E0
S32D00010AB8084A43F008031360054B1B68044A23F48023136000BF0C37BD4680BC704700BF40F00F4080F00F40C9
S32D00010AE080B483B000AF78602B4B1B682A4A43F480331360294B1B68284A23F008031360254B1B68244A43F49D
S32D00010B0880231360224B1B68214A23F440731360204B1B681F4A23F47F2323F0F00313601D4B1B681C4A23F023
S32D00010B301D031360184B1A687B685B6A164913430B60164B1A687B689B6A144913430B60134B1A687B68DB6A65
S32D00010B58114913430B600E4B1B680D4A23F4003313600B4B1B680A4A43F400331360094B1B68084A43F00803F2
S32D00010B801360054B1B68044A23F48023136000BF0C37BD4680BC704740F00F4080F00F40C0F00F4080B483B0E9
S32D00010BA800AF78602B4B1B682A4A43F480331360294B1B68284A23F008031360254B1B68244A43F48023136025
S32D00010BD0224B1B68214A23F440731360204B1B681F4A23F47F2323F0F00313601D4B1B681C4A23F01D031360DE
S32D00010BF8184B1A687B681B6B164913430B60164B1A687B685B6B144913430B60134B1A687B689B6B114913433D
S32D00010C200B600E4B1B680D4A23F4003313600B4B1B680A4A43F400331360094B1B68084A43F008031360054B16
S32D00010C481B68044A23F48023136000BF0C37BD4680BC704740F00F4080F00F40C0F00F4080B485B000AF78605A
S32D00010C707B681B6AFB60FB68FB72FB681B0ABB72FB681B0CDBB203F003037B727B6800225A627B6800229A624E
S32D00010C987B680022DA627B6800221A637B6800225A637B6800229A637B681A6BFB7A5B0203F400731A437B68C2
S32D00010CC01A637B681A6BFB7A5B101B0203F480731A437B681A637B685A6BFB7A9B101B0103F010031A437B6852
S32D00010CE85A637B685A6BFB7ADB105B0103F020031A437B685A637B685A6BFB7A1B119B0103F040031A437B684E
S32D00010D105A637B685A6BFB7A5B11DB01DBB21A437B685A637B685A6BFB7A9B111B0303F480531A437B685A635A
S32D00010D387B685A6B97F90B30DB115BB25B0303F400531A437B685A637B685A6BBB7A9B0303F480431A437B6806
S32D00010D605A637B685A6BBB7A5B10DB039BB21A437B685A637B685A6BBB7A9B101B0403F480331A437B685A63E9
S32D00010D887B685A6BBB7ADB105B0403F400331A437B685A637B685A6BBB7A1B119B0403F480231A437B685A63AF
S32D00010DB07B685A6BBB7A5B11DB0403F400231A437B685A637B689A6BBB7A9B1103F001031A437B689A637B68F5
S32D00010DD89A6B97F90A30DB115BB29B0003F004031A437B689A637B689A6B7B7ADB0003F008031A437B689A635F
S32D00010E007B689A6B7B7A5B101B0103F010031A437B689A637B68DB69FB60FB68FB72FB681B0ABB72FB681B0C8B
S32D00010E28DBB203F003037B727B685A6AFB7A5B0203F400731A437B685A627B685A6AFB7A5B101B0203F48073BB
S32D00010E501A437B685A627B689A6AFB7A9B101B0103F010031A437B689A627B689A6AFB7ADB105B0103F0200359
S32D00010E781A437B689A627B689A6AFB7A1B119B0103F040031A437B689A627B689A6AFB7A5B11DB01DBB21A43EB
S32D00010EA07B689A627B689A6AFB7A9B111B0303F480531A437B689A627B689A6A97F90B30DB115BB25B0303F418
S32D00010EC800531A437B689A627B689A6ABB7A9B0303F480431A437B689A627B689A6ABB7A5B10DB039BB21A43AD
S32D00010EF07B689A627B689A6ABB7A9B101B0403F480331A437B689A627B689A6ABB7ADB105B0403F400331A433B
S32D00010F187B689A627B689A6ABB7A1B119B0403F480231A437B689A627B689A6ABB7A5B11DB0403F400231A4330
S32D00010F407B689A627B68DA6ABB7A9B1103F001031A437B68DA627B68DA6A97F90A30DB115BB29B0003F00403A9
S32D00010F681A437B68DA627B68DA6A7B7ADB0003F008031A437B68DA627B68DA6A7B7A5B101B0103F010031A4367
S32D00010F907B68DA6200BF1437BD4680BC704780B483B000AF78607B6818460C37BD4680BC704780B584B000AF93
S32D00010FB8F860B9607A603B60FB682033B968184603F04AFCFB687A681A60FB683A689A60FB68BA691A61FB6894
S32D00010FE0FA695A61FB681A68FB681B691A44FB685A60FB689A68FB685B691A44FB68DA60FB683A6A9A61FB6891
S32D000110087A6ADA61FB680022C3F8E82000BF1037BD4680BDF0B585B002AF78607B689B6919461F48FEF729FEE0
S32D000110307B6819687B689A687B6818697B685B69009303461848FFF78CFA7B68DB6919461548FEF716FE7B68B6
S32D0001105803F120047B681B681D467B681B691E467B682033184603F067FC024613465B0013449B00F31A5B0875
S32D000110802B4418467B689A687B685B69113BD90F0B445B101344024621460348FEF704FE00BF0C37BD46F0BD00
S32D000110A8381A002080B584B002AF78607B689B6919461F48FEF7E1FD7B681B68591C7B689B685A1C7B681B6997
S32D000110D0981E7B685B69023B009303461648FFF740FA7B681B68991C7B689B689A1C7B681B69181F7B685B69F1
S32D000110F8043B009303460E48FFF72FFA7B681B68D91C7B689B68DA1C7B681B69981F7B685B69063B0093034620
S32D000111200548FFF71EFA7B680122C3F8E82000BF0837BD4680BD00BF381A002080B584B002AF786000211F4893
S32D00011148FEF79BFD7B681B68D91C7B689B68DA1C7B681B69981F7B685B69063B009303461648FFF7FAF97B68A8
S32D000111701B68991C7B689B689A1C7B681B69181F7B685B69043B009303460E48FFF7E9F97B681B68591C7B6830
S32D000111989B685A1C7B681B69981E7B685B69023B009303460548FFF7D8F97B680022C3F8E82000BF0837BD46F5
S32D000111C080BD00BF381A002080B584B000AFF860B9607A603B60FB681B68184602F074F80246BB6819461046D2
S32D000111E802F06AFA0346002B00F08180FB685B68184602F065F80246BB681946104602F065FA0346002B72D023
S32D00011210FB689B68184602F057F802467B681946104602F04DFA0346002B64D0FB68DB68184602F049F802466A
S32D000112387B681946104602F049FA0346002B56D03A1D07F1080319462B48FEF78DFDFB681B68184602F034F813
S32D000112600246BB681946104602F02AFA0346002B3FD0FB685B68184602F026F80246BB681946104602F026FAE0
S32D000112880346002B31D0FB689B68184602F018F802467B681946104602F00EFA0346002B23D0FB68DB681846B7
S32D000112B002F00AF802467B681946104602F00AFA0346002B15D03B68002B10D1FB68D3F8E830002B03D1F86898
S32D000112D8FFF7E8FE07E0FB68D3F8E830002B02D0F868FFF727FF012302E0002300E0002318461037BD4680BD54
S32D00011300381A002080B586B000AFF860B9607A60BB687B617B683B6179693A690123F868FFF752FF0346002BA5
S32D0001132814BF01230023DBB2002B08D007F1100207F1140319460448FEF716FDE8E700BF1837BD4680BD00BF44
S32D00011350381A0020B0B592B004AFF860B9607A603B60FB6C7B633B683B63F86C01F056FB02460B464FF00000B8
S32D000113784E4901F001FA02460B4614461D46386D01F048FB02460B462046294601F0F4F902460B4610461946FA
S32D000113A001F088FE03463B62386801F037FB02460B464FF00000404901F0E2F902460B4614461D46B86C01F066
S32D000113C829FB02460B462046294601F0D5F902460B461046194601F069FE0346FB61786801F06EFF0346194674
S32D000113F0386A02F071F80346184602F07FF90346BB61B86801F060FF03461946F86902F063F80346184602F0FC
S32D0001141871F903467B6100237B620123BB62BA6ABB689A423DDC0123FB62FA6A7B689A422DDC7B6AEC2202FBFC
S32D0001144003F3FA68D0187A6A13469B0013449B001A467B6D9918FB6D0393BB6D02937B690193BB6900933B6BEA
S32D000114687A6BFFF7A2FD7B6AEC2202FB03F3FA6813441846FFF7CEFD7B6A01337B627A6BBB6913447B63FB6A84
S32D000114900133FB62CDE73A6B7B6913443B63FB6C7B63BB6A0133BB62BDE700BF3837BD46B0BD00BF00007440FA
S32D000114B800006E4080B582B000AF786039607B68012B07D13B684FF6FF72934202D10348FEF7F2F900BF0837BF
S32D000114E0BD4680BD381A002080B500AF4FF6FF710120FFF7E3FF80BD80B582B000AF7860164B03F580535B6B7C
S32D00011508144A43F0400302F580525363124B4FF400725A62104B4FF400721A620F4B14225A700E4B1B7ADBB232
S32D000115300C4A43F00103DBB213720A4B80229A7002212B20FBF77EFC3D212A20FBF77AFC7B6818460837BD467F
S32D0001155880BD00BF0070044000C004400060064080B582B000AF786039607B68012B07D13B684FF6FF7293426E
S32D0001158002D10348FFF7B8FF00BF0837BD4680BD801A002080B500AF4FF6FF710120FFF7E3FF80BD80B582B043
S32D000115A800AF78600B46FB707B68FA7811461846FDF718FD7B6818460837BD4680BD000080B582B000AF786010
S32D000115D039607B68012B08D13B684FF6FF72934203D120210348FFF7DDFF00BF0837BD4680BD00BF841A002050
S32D000115F880B500AF4FF6FF710120FFF7E1FF80BD80B483B000AF78607B6800221A707B6818460C37BD4680BCB7
S32D000116207047000080B582B000AF78607B681B7883F00103DBB2002B52D07B6801221A702A4B03F580535B6B99
S32D00011648284A43F4806302F580525363264B4FF400725A60244B4FF400729A60234B1B684FF416521946224805
S32D00011670FBF742FD204BDB78DBB21F4A23F00C03DBB2D3701C4BDB78DBB21B4A43F02003DBB2D370184BDB7AEA
S32D00011698DBB2174A23F02003DBB2D372154BD3F88431144A43F40053C2F88431114B5B68104A43F40053536040
S32D000116C00D4BDB78DBB20C4A43F00C03DBB2D3706420FDF773F97B6801221A70012300E0002318460837BD4620
S32D000116E880BD00BF00700440009004408019002000A0064000E100E080B483B000AF78607B681B7818460C37EA
S32D00011710BD4680BC7047000080B487B000AFF860B9607A60FB700023FB7400237B617A697B689A422BD2194B50
S32D000117381B78002B00D1FAE7BA687B691344164A12781A70134B00221A70BA687B6913441B780D2B16D0FB7CB2
S32D0001176083F00103DBB2002B0CD0BA687B6913441B78FA789A4202D10123FB7402E07B69013B7B617B690133B5
S32D000117887B61D0E700BF7B6918461C37BD4680BC704700BF9E1A00209F1A002080B586B000AFF860B9607A6080
S32D000117B000237B617A697B689A420BD2BA687B6913441B7819460648FBF769FD7B6901337B61EFE77B6918468B
S32D000117D81837BD4680BD00BF00A0064080B483B000AF78603960044A3B68136000BF0C37BD4680BC704700BF0C
S32D00011800881A002080B582B000AF3248FBF72EFD0346FB71304AFB791370304B01221A702F4B1B78022B33D0BF
S32D00011828022B4FDC002B02D0012B14D04AE0FB79FF2B44D1284B01221A70284B00221A70264B1B785A1CD1B213
S32D00011850244A11701946244AFB79535433E0214B1B785A1CD1B21F4A117019461E4AFB7953541C4B1B780D2B89
S32D0001187827D11C4B1B68194A1278114618489847154B02221A701CE0FB79FF2B10D1124B01221A70114B0022CB
S32D000118A01A70104B1B785A1CD1B20E4A117019460D4AFB79535409E00A4B00221A70084B00221A7002E000BF74
S32D000118C800E000BF00BF0837BD4680BD00A006409F1A00209E1A00209D1A00209C1A00208C1A0020881A002048
S32D000118F080B582B000AF78607B681846FFF784FE7B6811491846FFF76DFF7B684FF0FF325A600E4B4FF000027E
S32D000119181A600D4B4FF000021A600C4B4FF000021A600B4B00221A600A4B00221A700A4B00221A707B681846CC
S32D000119400837BD4680BD00BFC5240100AC1A0020B01A0020B41A0020B81A0020BC1A0020BD1A002080B594B03A
S32D0001196800AF786039607B681846FFF7C5FE034683F00103DBB2002B03D07B681846FFF74DFEAC4B1B7883F06C
S32D000119900103DBB2002B00F00A837B681846FFF741FEA64B1B7883F00103DBB2002B00F0FE823B68002B02DAAC
S32D000119B800233B6004E03B680B2B01DD0B233B607B683A685A609C48FEF711F900233B620023FB64002387F8D8
S32D000119E04B3097F84B30002B66D196499448FEF7CEFA2B233B752B237B752B23BB757B6807F11401032218464C
S32D00011A08FFF7CCFE3862786807F108014F230A22FFF77EFEF864FB6C012B02D93B7A4F2B42D087498448FEF7C8
S32D00011A3005FB86498248FEF701FB40F6C410FCF7BDFF786807F1080130230A22FFF764FEF864FB6C012B02D9C2
S32D00011A583B7A4F2B24D07C497748FEF7EBFA7B497548FEF790FA00237B647B6CFA6C9A420CD907F108027B6CE5
S32D00011A8013441B7819466E48FEF7C0FA7B6C01337B64EEE76C496A48FEF7D0FA6E496848FEF7CCFA00BF06E0CD
S32D00011AA8012387F84B3002E0012387F84B3094E768496148FEF767FA00233B643B6CFA6C9A420CD907F1080234
S32D00011AD03B6C13441B7819465948FEF797FA3B6C01333B64EEE758495548FEF7A7FA5C495348FEF74CFA4123CE
S32D00011AF83B7554237B754D23BB755923FB757B685B68002B00DA03339B10DBB23133DBB23B7631237B763023C9
S32D00011B20BB767B685B685A4203F0030302F0030258BF5342DBB23033DBB2FB760D233B777B6807F1140109229C
S32D00011B481846FFF72BFE3862786807F108014F230A22FFF7DDFDF864FB6C012B02D93B7A4F2B04D03D49344839
S32D00011B70FEF764FA1BE20023FB63FB6BFA6C9A420CD907F10802FB6B13441B7819462C48FEF73CFAFB6B0133FE
S32D00011B98FB63EEE72A492848FEF74CFA30492648FEF7F1F941233B7554237B754923BB754423FB757B685B6873
S32D00011BC0002B00DA03339B10DBB23133DBB23B7630237B763023BB763023FB760D233B777B6807F11401092258
S32D00011BE81846FFF7DBFD3862786807F108014F230A22FFF78DFDF864FB6C012B02D93B7A4F2B04D015490C488A
S32D00011C10FEF714FACBE10023BB63BB6BFA6C9A4224D907F10802BB6B13441B7819460448FEF7ECF9BB6B01335F
S32D00011C38BB63EEE7A81A0020381A0020ECA0010000A1010004A101001CA1010034A1010040A1010050A10100F9
S32D00011C6058A101006CA101008CA10100AB49AC48FEF7E4F9AB49AA48FEF789F941233B7554237B754423BB75F6
S32D00011C884C23FB757B685B68002B00DA03339B10DBB23133DBB23B7630237B763023BB767B685B685A4203F096
S32D00011CB0030302F0030258BF5342DBB23033DBB2FB760D233B777B6807F1140109221846FFF768FD386278683E
S32D00011CD807F108014F230A22FFF71AFDF864FB6C012B02D93B7A4F2B04D08D498A48FEF7A1F958E100237B63F3
S32D00011D007B6BFA6C9A420CD907F108027B6B13441B7819468248FEF779F97B6B01337B63EEE77E497E48FEF7F6
S32D00011D2889F980497C48FEF72EF941233B7554237B754423BB754823FB7530233B7630237B763023BB76302355
S32D00011D50FB760D233B777B6807F1140109221846FFF720FD3862786807F108014F230A22FFF7D2FCF864FB6CE5
S32D00011D78012B02D93B7A4F2B04D069496648FEF759F910E100233B633B6BFA6C9A420CD907F108023B6B13440D
S32D00011DA01B7819465E48FEF731F93B6B01333B63EEE75A495A48FEF741F95D495848FEF7E6F841233B755423F8
S32D00011DC87B754323BB754823FB7530233B7630237B763123BB764123FB760D233B777B6807F11401092218468E
S32D00011DF0FFF7D8FC3862786807F108014F230A22FFF78AFCF864FB6C012B02D93B7A4F2B04D045494248FEF78B
S32D00011E1811F9C8E00023FB62FB6AFA6C9A420CD907F10802FB6A13441B7819463A48FEF7E9F8FB6A0133FB62DF
S32D00011E40EEE736493648FEF7F9F83A493448FEF79EF841233B7554237B755723BB755223FB750D233B767B6863
S32D00011E6807F1140105221846FFF798FC3862786807F108014F230A22FFF74AFCF864FB6C012B02D93B7A4F2BE1
S32D00011E9004D025492248FEF7D1F888E00023BB62BB6AFA6C9A420CD907F10802BB6A13441B7819461A48FEF7FE
S32D00011EB8A9F8BB6A0133BB62EEE716491648FEF7B9F81B491448FEF75EF841233B7554237B754323BB754E231F
S32D00011EE0FB750D233B767B6807F1140105221846FFF758FC3862786807F108014F230A22FFF70AFCF864FB6CEB
S32D00011F08012B02D93B7A4F2B14D005490248FEF791F848E000A10100381A0020A0A101006CA10100B8A1010094
S32D00011F30D0A10100E8A10100FCA1010000237B627B6AFA6C9A420CD907F108027B6A13441B7819461748FEF758
S32D00011F5859F87B6A01337B62EEE715491348FEF769F814491148FEF70EF8786800F05EFA034619460D48FEF764
S32D00011F8083F80F4B01221A70786800F06FFA0346002B0CBF01230023DBB2002B00D0F3E708490448FEF74AF8BB
S32D00011FA80248FDF724FE5037BD4680BD381A002000A1010014A20100A81A002038A2010080B582B000AF78606D
S32D00011FD00B46FB70FB78402B09D9FB784C2B06D8FB78413B19467868FFF7BCFC0BE0FB78602B08D9FB786C2BEE
S32D00011FF805D8FB78613B19467868FFF7AFFC00BF0837BD4680BD0000B0B5ADF50E6D06AF07F6C803A3F6C40351
S32D0001202018600123C7F8C4380023C7F8C0380023C7F8BC3807F2BC7300241D46002C05DB2846FEF7ACFFEC35A0
S32D00012048013CF7E707F6C803A3F59073994A1C4615460FCD0FC42B68236007F57E7303241D46002C05DB284695
S32D00012070FEF795FFEC35013CF7E707F6C803A3F5B8638F4A18461146F0231A4602F010F807F5077300241D4609
S32D00012098002C05DB2846FEF77EFFEC35013CF7E707F6C803A3F5D86300221A60043300221A605A609A60DA60F9
S32D000120C007F1300301241D46002C05DB2846FEF766FFEC35013CF7E707F6C803A3F50C63784A1C4615460FCD04
S32D000120E80FC40FCD0FC495E8030084E80300D7F8C438002B00F086810023C7F8C0380023C7F8BC3800216E48E4
S32D00012110FDF75BFD0123C7F8B03807F2BC706FF07F4305930023049307F5F56303930123029301230193C923AA
S32D000121380093012301220121FFF708F907F57E706FF07F4305936FF07F43049307F54273039301230293012306
S32D0001216001930223009328230422D7F8B018FFF7F1F8D7F8C038002B42D107F6A80207F6AC0319465048FDF7DA
S32D00012188F3FD0346002BF0D00023C7F8B838D7F8B838072BE9DC07F57E72D7F8B838EC2101FB03F3D018D7F81B
S32D000121B0AC18D7F8A8280023FFF706F80346002B14BF01230023DBB2002B13D007F57E72D7F8B838EC2101FBA9
S32D000121D803F31344D7F8AC18D7F8A8281846FFF78DF8D7F8B8380133C7F8C038D7F8B8380133C7F8B838CAE783
S32D00012200D7F8C038013B072B78D801A252F823F03122010045220100592201006D220100812201009522010006
S32D00012228A9220100E9220100412387F8B73807F50273244A07CA03C31A805BE0422387F8B73807F50273204AE4
S32D0001225007CA03C31A8051E0432387F8B73807F502731C4A07CA03C31A8047E0442387F8B73807F50273184A52
S32D0001227807CA03C31A803DE0452387F8B73807F50273144A07CA03C31A8033E0462387F8B73807F50273104A5E
S32D000122A007CA03C31A8029E0472387F8B73807F502730C4A07CA03C31A801FE0FCA2010010A3010000A401000E
S32D000122C8381A00209CA20100A8A20100B4A20100C0A20100CCA20100D8A20100E4A20100482387F8B73807F5EB
S32D000122F002734E4A07CA03C31A8000BF00214C48FDF763FC07F507706FF07F4305930023049307F502730393CD
S32D000123180123029301230193C92300933C2301220121FFF713F807F130006FF07F4305936FF07F43049307F170
S32D000123400803039301230293012301933C2300933C2302220121FEF7FDFFD7F8BC38002B42D107F6A80207F62F
S32D00012368AC0319463048FDF7FFFC0346002BF0D00023C7F8B838D7F8B838012BE9DC07F13002D7F8B838EC2125
S32D0001239001FB03F3D018D7F8AC18D7F8A8280023FEF712FF0346002B14BF01230023DBB2002B13D007F1300296
S32D000123B8D7F8B838EC2101FB03F31344D7F8AC18D7F8A8281846FEF799FFD7F8B8380133C7F8BC38D7F8B8385F
S32D000123E00133C7F8B838CAE7D7F8BC38012B04D0D7F8BC38022B04D007E00023C7F8C43803E00123C7F8C4382C
S32D0001240800BF74E697F8B72807F6C803A3F6C40311461868FFF7D4FD00BF07F6C807BD46B0BD00BFF0A201000B
S32D00012430381A002080B483B000AF78607B685B68DBB24133DBB218460C37BD4680BC704780B483B000AF786064
S32D00012458034B1B6818460C37BD4680BC704700BFB81A002080B584B000AF7860FCF7DEFAF860114B1B7883F0C7
S32D000124800103DBB2002B09D0FCF7D4FA0246FB68D31AB3F57A7F01D2012300E00023002B00D0EAE7064B1B78F4
S32D000124A8002B04D0044B00221A70FF2300E0002318461037BD4680BDBE1A002080B582B000AF78600B46FB705F
S32D000124D0424B1B78002B7DD07B6801331B781B027A68023212781344184600F0EDFE03463B49184600F0F0FF44
S32D000124F803463A49184600F02DFE03461A46384B1A607B6803331B781B027A68043212781344184600F0D4FEE8
S32D0001252003462F49184600F0D7FF03462D49184600F014FE03461A462C4B1A607B6805331B781B027A68063209
S32D0001254812781344184600F0BBFE03462249184600F0BEFF03462149184600F0FBFD03461A46214B1A607B6852
S32D0001257007331B781A067B6808331B781B041A437B6809331B781B0213437A680A32127813431A46174B1A60C3
S32D000125987B68DA7A164B1A707B680C331B78AA2B0CBF01230023DAB2124B1A70124B01221A70104B1B78002BC0
S32D000125C008D0104800F052F80F4B1B680E4A23F40053136000BF0837BD4680BDA81A0020000020410000C844E3
S32D000125E8AC1A0020B01A0020B41A0020B81A0020BC1A0020BD1A0020BE1A0020C01A0020C0F00F4080B582B0CF
S32D0001261000AF786039607B68012B07D13B684FF6FF72934202D10348FFF762F900BF0837BD4680BDA01A0020DF
S32D0001263880B500AF4FF6FF710120FFF7E3FF80BD80B483B000AF7860054B00221A60044B00225A607B6818465E
S32D000126600C37BD4680BC7047C01A002080B584B000AF7860154B1B68002B21D00023FB60124B5B68FA689A424D
S32D0001268814DA114AFB6852F82330002B0AD00E4AFB6852F823301846FBF72BF803461A460A4B1A70FB680133EB
S32D000126B0FB60E5E7054B00225A60044B00221A60044B1B7818461037BD4680BDC01A0020CC1A0020C81A0020F4
S32D000126D880B582B000AF786039607B68012B07D13B684FF6FF72934202D10348FFF7A8FF00BF0837BD4680BD3E
S32D00012700C01A002080B500AF4FF6FF710120FFF7E3FF80BD80B483B000AF78600A4B03F580531B6B084A43F0C8
S32D00012728010302F580521363064B5B68054A43F03203536000BF0C37BD4680BC704700BF0070044000000A400C
S32D0001275038B5084C4FF41E652846E56001F09CF9A06020B10023C0E90053606038BDE060606038BD341B002011
S32D0001277881F0004102E000BF83F0004330B54FEA41044FEA430594EA050F08BF90EA020F1FBF54EA000C55EAFA
S32D000127A0020C7FEA645C7FEA655C00F0E2804FEA5454D4EB5555B8BF6D420CDD2C4480EA020281EA030382EA43
S32D000127C8000083EA010180EA020281EA0303362D88BF30BD11F0004F4FEA01314FF4801C4CEA113102D0404297
S32D000127F061EB410113F0004F4FEA03334CEA133302D0524263EB430394EA050F00F0A780A4F10104D5F1200EBE
S32D000128180DDB02FA0EFC22FA05F2801841F1000103FA0EF2801843FA05F359410EE0A5F120050EF1200E012A60
S32D0001284003FA0EFC28BF4CF0020C43FA05F3C01851EBE37101F0004507D54FF0000EDCF1000C7EEB00006EEB9A
S32D000128680101B1F5801F1BD3B1F5001F0CD349085FEA30004FEA3C0C04F101044FEA445212F5800F80F09A8034
S32D00012890BCF1004F08BF5FEA500C50F1000041EB045141EA050130BD5FEA4C0C404141EB0101013C28BFB1F5B7
S32D000128B8801FE9D291F0000F04BF01460020B1FA81F308BF2033A3F10B03B3F120020CDA0C3208DD02F1140C20
S32D000128E0C2F10C0201FA0CF021FA02F10CE002F11402D8BFC2F1200C01FA02F120FA0CFCDCBF41EA0C019040E5
S32D00012908E41AA2BF01EB0451294330BD6FEA04041F3C1CDA0C340EDC04F11404C4F1200220FA04F001FA02F3E9
S32D0001293040EA030021FA04F345EA030130BDC4F10C04C4F1200220FA02F001FA04F340EA0300294630BD21FADB
