S01100002E2E2F50726F746575732E73313966
S32D0000C000000000205DC2000011C3000017C300001DC3000023C3000029C3000000000000000000000000000073
S32D0000C028000000002FC3000035C30000000000003BC3000041C300005DEA000069EA000075EA000081EA00009A
S32D0000C0508DEA000099EA0000A5EA0000B1EA0000BDEA0000C9EA0000D5EA0000E1EA0000EDEA0000F9EA000000
S32D0000C07805EB000011EB00001DEB000029EB000035EB000041EB00004DEB000059EB000065EB000071EB00001E
S32D0000C0A07DEB000089EB000095EB0000A1EB0000ADEB0000B9EB0000C5EB0000D1EB0000DDEB0000E9EB000046
S32D0000C0C8F5EB000001EC00000DEC000019EC000025EC000031EC00003DEC000049EC000055EC000061EC000065
S32D0000C0F06DEC00000168010079EC000085EC000091EC00009DEC0000A9EC0000B5EC0000C1EC0000CDEC0000E7
S32D0000C118D9EC0000E5EC0000F1EC0000FDEC000009ED000015ED000021ED00002DED000039ED000045ED000025
S32D0000C14051ED00005DED000069ED000075ED0000913F010081ED00008DED000099ED0000A5ED0000B1ED000022
S32D0000C168BDED0000C9ED0000D5ED0000E1ED0000EDED0000F9ED000005EE000011EE00001DEE000029EE0000E5
S32D0000C19035EE000041EE00004DEE0000893B0100513A0100ED3A0100E1E70000293C010059EE000065EE0000B3
S32D0000C1B871EE0000A8B2020000000020D0160000A8B202000000FF1F00000000D0160020680700000000FF1F8B
S32D0000C1E00000000080B489B000AFF860B9607A60BB68FB61FB68BB6100237B617A697B689A420BD2BA69131DFB
S32D0000C208BB61FB69191DF96112681A607B6904337B61EFE700BF2437BD4680BC704780B485B000AF786039609E
S32D0000C2307B68FB600023BB60BA683B689A4208D2FB681A1DFA6000221A60BB680433BB60F2E700BF1437BD46FE
S32D0000C25880BC704780B586B000AF72B6234B4CF220521A80214B4DF628121A80204B4FF4E9721A801F4B7B615F
S32D0000C2807B691F4A934214D27B691A1D7A611B683B617B691A1D7A611B68FB607B691A1D7A611B68BB60BA68E9
S32D0000C2A8F9683869FFF79AFFE6E77B69134A93420ED27B691A1D7A611B68FB607B691A1D7A611B68BB60B9688B
S32D0000C2D0F868FFF7A8FFECE70B4B7B600B4A7B681A6016F035F862B602F042FB01F0D0FCFEE700BF0E2005403F
S32D0000C2F800200540BCC10000D4C10000E4C1000008ED00E000C0000080B400AFFEE780B400AFFEE780B400AFF4
S32D0000C320FEE780B400AFFEE780B400AFFEE780B400AFFEE780B400AFFEE780B400AFFEE780B400AFFEE780B426
S32D0000C34800AFFEE7FFFFFFFFFFFFFFFFFFFFFFFFFFFFFFFFFFFFFFFFFFFFFFFFFFFFFFFFFFFFFFFFFFFFFFFF57
S32D0000C370FFFFFFFFFFFFFFFFFFFFFFFFFFFFFFFFFFFFFFFFFFFFFFFFFFFFFFFFFFFFFFFFFFFFFFFFFFFFFFFFC7
S32D0000C398FFFFFFFFFFFFFFFFFFFFFFFFFFFFFFFFFFFFFFFFFFFFFFFFFFFFFFFFFFFFFFFFFFFFFFFFFFFFFFFF9F
S32D0000C3C0FFFFFFFFFFFFFFFFFFFFFFFFFFFFFFFFFFFFFFFFFFFFFFFFFFFFFFFFFFFFFFFFFFFFFFFFFFFFFFFF77
S32D0000C3E8FFFFFFFFFFFFFFFFFFFFFFFFFFFFFFFFFFFFFFFFFFFFFFFFFFFFFFFFFFFFFFFFFFFFFFFFFEFFFFFF50
S32D0000C44010B5054C237833B9044B13B10448AFF300800123237010BDD01600200000000030B0020008B5034B39
S32D0000C4681BB103490348AFF3008008BD00000000D416002030B0020080B483B000AFC7E900013A68796821F015
S32D0000C4900043104619460C37BD4680BC704790B587B000AF786039603B68DB0FFB75FB7D002B02D03B685B42FF
S32D0000C4B800E03B683B610A21386901F09DFEF860FA7DFB68D41807F1080318460BF01AFB07F108032D22214697
S32D0000C4E078680BF0EDFC07F1080318460BF010FBFB7D194678680BF023FD03463A69F968184601F0BBFE00BF1D
S32D0000C50878681C37BD4690BD80B586B002AF786039603A23FB60386813F0AAFE02460B467868CDE90023044B51
S32D0000C5303A22044901F0F8FE78681037BD4680BD408B0200D951020080B588B002AFF860C7E900234FF4A4734A
S32D0000C5587B61F868D7E90023CDE90023044B4FF4A472044901F0DCFEF8681837BD4680BD408B0200D951020015
S32D0000C58080B588B000AFF860C7E900230B46FB72FB684FF000020021184602F071FCFB6808330021184607F0F2
S32D0000C5A8DDF8D7E9000114F0B3F90246F97A07F11403184602F060FCFB681A4607F11403186810609B889380B1
S32D0000C5D097F8302007F11C031146184607F0C2F8FB683A7F1A72F968D7E90A23C1E90C23F86800F005F8FB6862
S32D0000C5F818462037BD4680BD80B582B000AF786079684FF000024FF00003C1E9042379684FF000024FF0000399
S32D0000C620C1E9082379684FF000024FF00003C1E906237B6800229A627B680833184607F051FB00BF0837BD461F
S32D0000C64880BD90B585B000AFF860C7E90023FC68D7E9000114F05CF903461946204602F08BFCF86800F0BCF82A
S32D0000C6700246FB689A6200BF1437BD4690BD00002DE9B0438CB000AFF860C7E900234AA3D3E90023C7E90A23D3
S32D0000C69849A3D3E90023C7E9082349A3D3E90023C7E90623D7E91201FFF7E6FE80468946FB68D3E90C45F86818
S32D0000C6C000F092F80246FB689B6AD31A184613F0C1FD02460B462046294613F025FE02460B4610461946D7E974
S32D0000C6E8002313F047FF02460B464046494613F05FFC02460B46C7E90423FB68D3E90401D7E9042313F056FCDC
S32D0000C71002460B46F968C1E90423FB68D3E9084525A3D3E90023D7E9040113F0FDFD02460B4690469946FB68AA
S32D0000C738D3E9040120A3D3E9002313F0F1FD02460B464046494613F035FC02460B4690469946FB68D3E9062307
S32D0000C760D7E9040113F028FC02460B461046194615A3D3E9002313F0D7FD02460B464046494613F01BFC0246F3
S32D0000C7880B462046294613F015FC02460B46F968C1E90823F968D7E90423C1E90623FB68D3E908231046194660
S32D0000C7B03037BD46BDE8B083CDCCCCCCCCCCEC3F0AD7A3703D0AB73F333333333333D33F80B582B000AF7860C2
S32D0000C7D87B68184602F08EFB00BF0837BD4680BD80B582B000AF78607B680833184607F063FA03461846083795
S32D0000C800BD4680BD80B483B000AF7860002318460C37BD4680BC704790B589B000AFF8607A603B600B46FB726A
S32D0000C828FB680021184607F05DFDFA7A07F114031146184607F056FDFB681C4607F1140393E8070084E8070064
S32D0000C850FB687968184607F065FDFB683968184607F07DFDF9684FF000024FF00003C1E90423FB68184624371B
S32D0000C878BD4690BD90B585B000AFF860C7E90023FC68D7E9000114F043F803461946204607F07EFDF968D7E9E9
S32D0000C8A00023C1E9042300BF1437BD4690BD0000B0B588B000AFF860B960C7E90023B86813F0C8FCFB68D3E986
S32D0000C8C8042313F075FB02460B4610461946D7E9002313F04FFE02460B46C7E9042306F0F3FEC7E90601B868F9
S32D0000C8F013F0B0FCFB68D3E9042313F05DFB02460B461046194613F0BFFF0346002BB8BF5B42012B25DDFB68A2
S32D0000C918D3E9044506F0D8FED7E9062313F048FB02460B4610461946D7E9042313F0F8FC02460B462046294657
S32D0000C94013F03CFB02460B46F868FFF797FF06F0BFFEC7E9060106A1D1E9000106F092FEC5E700BF2037BD46F3
S32D0000C968B0BD00BFAFF300809A9999999999A93F80B500AF044B1B68044A194604480AF0C7FF00BF80BD00BFAA
S32D0000C99090170020448B0200081B002090B589B000AF786078680BF013FC03461946104808F034FB0F4B1C68AA
S32D0000C9B807F108030E4A7968184601F0E8FC07F1080318460BF000FC03461A46214609480AF09EFF07F108038F
S32D0000C9E018460BF097FA00BF2437BD4690BD00BF801A002090170020448B0200081B0020B0B592B002AFC7E979
S32D0000CA080201C7E9002388A3D3E90023C7E90C2301231C464FF000024FF00003D7E9020113F00EFF0346002BF1
S32D0000CA3001D100231C46E3B21C4601231D464FF000024FF00003D7E9020113F0DFFE0346002B01D100231D4611
S32D0000CA58EBB2E31AFB6201231C464FF000024FF00003D7E9000113F0EBFE0346002B01D100231C46E3B21C4641
S32D0000CA8001231D464FF000024FF00003D7E9000113F0BCFE0346002B01D100231D46EBB2E31ABB62D7E90201BA
S32D0000CAA8FFF7EAFC04460D46D7E90001FFF7E4FC02460B462046294613F07CFA02460B46104619465AA3D3E962
S32D0000CAD0002313F029FC02460B46C7E90823D7E91423D7E9020113F049FD02460B46C7E90623D7E91423D7E94D
S32D0000CAF8000113F03FFD02460B46C7E9042306F0E3FDC7E90E014C48FFF776FD4B48FFF773FDD7E90C0106F012
S32D0000CB20B1FD4848FFF760FE04464548FFF75CFE03462344184613F08DFB02460B4601210C46D7E9080113F0BC
S32D0000CB487FFE0346002B01D100231C46E3B2002B60D0F86A13F07AFB04460D4606F0B4FDD7E90E2313F024FA57
S32D0000CB7002460B4610461946D7E90623CDE9002302460B462E48FFF77BFD02460B462046294613F0C9FB02468D
S32D0000CB980B462948FFF755FDB86A13F057FB04460D4606F091FDD7E90E2313F001FA02460B4610461946D7E9D0
S32D0000CBC00423CDE9002302460B461E48FFF758FD02460B462046294613F0A6FB02460B461848FFF732FD06F0D7
S32D0000CBE873FDC7E90E01D7E90C0106F047FD1248FFF704FE0346002B07D01048FFF7FEFD0346002B01D001239A
S32D0000CC1000E00023002B00D183E700BF0848FFF7D7FD0848FFF7D4FD00BF4037BD46B0BD333333333333C33FC3
S32D0000CC38ABAAAAAAAA2A4440F01600202817002080B586B002AFC7E90201C7E90023D7E90023D7E9020113F0FD
S32D0000CC608DFC02460B46CDE90023D7E90223D7E90201FFF7C5FE4FF00000034906F002FD00BF1037BD4680BD84
S32D0000CC880000E03F00000000B0B588B002AFF860C7E90023F86813F0D9FA4FF000021A4B13F068FC02460B460A
S32D0000CCB01046194614A3D3E9002313F035FB02460B46104619464FF00002124B13F02CFB02460B46C7E9042352
S32D0000CCD83C697B6983F00045D7E90023D7E9040113F048FC02460B46CDE90023D7E9042320462946FFF780FE5C
S32D0000CD0000BF1837BD46B0BDD4F19881CAC63640008076400000E83F80B590B000AFC7E900012BA3D3E90023C4
S32D0000CD28D7E9000113F06EFD0346002B1ED007F1200318460AF0E6FE07F1200207F10803234918460BF08CFA8D
S32D0000CD5007F108031846FFF721FE07F1080318460BF0D8F807F1200318460AF0D1FE4FF47F0329E04FF00002C2
S32D0000CD784FF08043D7E9000113F044FD0346002B1DD007F13C0318460AF0BCFE07F13C0207F124030F491846D1
S32D0000CDA00BF062FA07F124031846FFF7F7FD07F1240318460BF0AEF807F13C0318460AF0A7FEFF2300E0002330
S32D0000CDC818464037BD4680BD9A9999999999E13F488B02005C8B02002DE9B043ACB002AF534B07F140041D4660
S32D0000CDF00FCD0FC40FCD0FC40FCD0FC495E80F0084E80F004D4B3C461D460FCD0FC40FCD0FC40FCD0FC495E8FA
S32D0000CE180F0084E80F0042A3D3E90023C7E928230023C7F89C30D7F89C30072B6FDCD7F89C30DB00A8333B440D
S32D0000CE40683BD3E90045D7F89C30DB00A8333B44A83BD3E90089D7F89C30DB00A8333B44683BD3E90023104680
S32D0000CE681946FFF709FB02460B46C7E92023D7F89C30DB00A8333B44A83BD3E9002310461946FFF7F9FA02463F
S32D0000CE900B46C7E9222307F1880207F180031146184601F08BFA0346D3E9000120A3D3E9002313F039FA0246E0
S32D0000CEB80B46CDE9002342464B4620462946FFF79BFD1D4806F02CFF0346184613F0D0F902460B46C7E924231D
S32D0000CEE0D7E92401FFF718FFD7E9240112F036FDD7E92823D7E9240113F088FC0346002B03D0D7E92423C7E9A3
S32D0000CF082823D7F89C300133C7F89C308BE7D7E9282310461946A837BD46BDE8B08300BF6666666666660A40FD
S32D0000CF309A9999999999B93F708B0200B08B0200EC1600200000000090B58BB000AFC7E90201C7E900234648A5
S32D0000CF580AF0CEFA0346012214464FF00001184613F0D2FF0346002B01D100231C46E3B2002B00D0EBE73C4800
S32D0000CF800AF09EFA0346184613F076F902460B46D7E9020113F010F802460B46C7E9082333480AF09BFA0346AA
S32D0000CFA8184613F065F902460B46D7E9000112F0FFFF02460B46C7E90623D7E90823D7E9060113F0D7FA024602
S32D0000CFD00B461046194612F027FB23A3D3E9002313F0A2F902460B46C7E904234FF000024FF00003D7E908010A
S32D0000CFF813F008FC0346002B0ED04FF000021B4BD7E9040112F0D6FF02460B461046194613F036FC03461EE0A5
S32D0000D0204FF000024FF00003D7E9040113F002FC0346002B05D0D7E9040113F025FC03460DE04FF000020C4B99
S32D0000D048D7E9040112F0B6FF02460B461046194613F016FC034618462C37BD4690BD00BFE8C35CB0DDA54C40FD
S32D0000D070E81A002000806640008076400000000080B582B000AF0346FB71FB79012B03D14FF00002144B02E053
S32D0000D0984FF00002134B1448FFF7D3FAFB79002B03D14FF000020E4B02E04FF000020D4B0E48FFF7C6FA08A16F
S32D0000D0C0D1E9000106F0DEFA0948FFF781FB0948FFF77EFB00BF0837BD4680BDAFF30080EC51B81E85EBB13F63
S32D0000D0E800003440000034C0F01600202817002080B500AF4FF000020D4B0E48FFF7A1FA4FF000020A4B0C48DF
S32D0000D110FFF79BFA06A1D1E9000106F0B3FA0748FFF756FB0648FFF753FB00BF80BD00BFEC51B81E85EBC13FFB
S32D0000D13800003440F0160020281700200000000080B500AF4FF000020D4B0E48FFF779FA4FF000020A4B0C48AA
S32D0000D160FFF773FA06A1D1E9000106F08BFA0748FFF72EFB0648FFF72BFB00BF80BD00BFEC51B81E85EBC13F4B
S32D0000D188000034C0F01600202817002080B483B000AF78607B68002B02DB7B68B42B07DD7B6813F1B30F05DAF9
S32D0000D1B07B6813F5B47F01DB012300E0002318460C37BD4680BC704780B586B000AF786039603A687B68D31A9C
S32D0000D1D83B613B69002BB8BF5B42144A82FB03121A441112DA178A1A4FF4B47101FB02F29B1AFB60FB68B42BFA
S32D0000D20003DDFB68C3F5B47300E0FB687B613869FFF7C0FF0346012B0CBF01230023DBB2002B02D07B695B42D7
S32D0000D2287B617B6918461837BD4680BDB7600BB690B58FB000AF78603F480AF059F904467B68023B184613F0AA
S32D0000D2506DFC03461946204613F05AFE0346002B10D137480AF048F904467B680233184613F05CFC034619460C
S32D0000D278204613F067FE0346002B01D0012300E00023002B30D0786813F04CFC04462A480AF02EF90346194673
S32D0000D2A0204613F08DFB0346184613F059FE03461846FFF76FFF03461846FFF7E1FE4FF00000204906F0DEF972
S32D0000D2C81D480AF015F90346012214464FF00001184613F019FE0346002B01D100231C46E3B2002BA8D0EBE778
S32D0000D2F0FFF742FB12480AF0FFF8024607F1200311461846FFF704F907F1080307F120020D49184601F069F864
S32D0000D31807F108031846FFF73DFB07F1080318460AF0F4FD07F1200318460AF0EFFD00BF3C37BD4690BD00BF6C
S32D0000D340E81A00200000E03FF08B0200B0B590B000AFC7E902011346FB7155480AF0BEF80346184612F088FFB8
S32D0000D36804460D464FF00002504BD7E9020112F01FFE02460B462046294613F043FA0346002B18D148480AF0A7
S32D0000D390A5F80346184612F06FFF04460D464FF00002444BD7E9020112F008FE02460B462046294613F048FAD0
S32D0000D3B80346002B01D0012300E00023002B4CD0FB79002B0FD038480AF084F80346184612F04EFF02460B4691
S32D0000D3E0D7E9020113F012FA0346002B15D1FB7983F00103DBB2002B11D02D480AF06EF80346184612F038FFBA
S32D0000D40802460B46D7E9020113F01AFA0346002B01D0012300E00023002B02D0FFF768FE01E0FFF78DFE4FF01D
S32D0000D4300000214906F026F91D480AF05DF80346012214464FF00001184613F061FD0346002B01D100231C460B
S32D0000D458E3B2002B3FF47DAFEAE7FFF789FA12480AF038F8024607F1280311461846FFF74BF807F1100307F15D
S32D0000D48028020E49184600F0B0FF07F110031846FFF784FA07F1100318460AF03BFD07F1280318460AF036FDDA
S32D0000D4A800BF4037BD46B0BDE81A00200000D03F0000E03F088C0200B0B590B000AFC7E902011346FB71554861
S32D0000D4D009F0F6FF0346184612F0CEFE04460D464FF00002504BD7E9020112F065FD02460B462046294613F0BA
S32D0000D4F889F90346002B18D1484809F0DDFF0346184612F0B5FE04460D464FF00002444BD7E9020112F04EFDE9
S32D0000D52002460B462046294613F08EF90346002B01D0012300E00023002B4CD0FB79002B0FD0384809F0BCFF80
S32D0000D5480346184612F094FE02460B46D7E9020113F058F90346002B15D1FB7983F00103DBB2002B11D02D4877
S32D0000D57009F0A6FF0346184612F07EFE02460B46D7E9020113F060F90346002B01D0012300E00023002B02D0A9
S32D0000D598FFF7AEFD01E0FFF7D3FD4FF00000214906F06CF81D4809F0A3FF0346012214464FF00001184613F0B3
S32D0000D5C0A7FC0346002B01D100231C46E3B2002B3FF47DAFEAE7FFF7CFF9124809F070FF024607F1280311469D
S32D0000D5E81846FEF791FF07F1100307F128020E49184600F0F6FE07F110031846FFF7CAF907F1100318460AF0E7
S32D0000D61081FC07F1280318460AF07CFC00BF4037BD46B0BDE81A00200000D03F0000E03F188C020080B586B075
S32D0000D63800AFF860B9607A603B607A68FB68D31A7B613A68BB68D31A3B617B6903FB03F23B6903FB03F313440D
S32D0000D660184600F0DAFE02460B46104619461837BD4680BD2DE9B043B0B000AFF860C7E90023FFF779F907F1F6
S32D0000D6885803F9681846FEF706FF07F1400307F158026949184600F0A4FE07F1280307F14001664A184600F0D7
S32D0000D6B0C8FE654809F020FF024607F1700311461846FEF725FF07F1100307F1700207F12801184600F0D6FE88
S32D0000D6D807F110031846FFF75DF907F1100318460AF014FC07F1700318460AF00FFC07F1280318460AF00AFCAD
S32D0000D70007F1400318460AF005FC07F1580318460AF000FC4FF000024C4BC7E92E234A4809F0EAFE0346012208
S32D0000D72814464FF00001184613F0EEFB0346002B01D100231C46E3B2002B00D0EBE74FF00000414905F09AFF6B
S32D0000D7503D4809F0D1FE0346184613F001FC0346F9681846FFF730FD0346002BB8BF5B420A2BCCBF01230023FD
S32D0000D778DBB2002B57D0324809F0BAFE0346184613F0EAFB0346F9681846FFF719FD0346184612F05BFD80460F
S32D0000D7A08946D7E92E454FF00002284B2046294612F004FC02460B46C7E92E2322462B464046494612F0DAFE6C
S32D0000D7C802460B461046194613F05AF80146D7E900230846FFF758FA4FF000001A4905F04DFF174809F084FE13
S32D0000D7F0024607F1A00311461846FEF789FE07F1880307F1A0021349184600F0EEFD07F188031846FFF7C2F8B4
S32D0000D81807F1880318460AF079FB07F1A00318460AF074FB90E7F868FFF702FD00BFC037BD46BDE8B08300BF15
S32D0000D840288C0200348C0200E81A00200000F03F0000E03F3C8C0200F0B5E9B000AFC7E90201C7E90023FFF79F
S32D0000D86887F807F1B801D7E902230846FEF768FE07F5D073A3F5807307F1B802AA49184600F0AFFD07F5D0732C
S32D0000D890A3F58C7307F1A001A64A184600F0D1FD07F1D001D7E900230846FEF74DFE07F5D073A3F5987307F11A
S32D0000D8B8D00207F18801184600F0E0FD07F5D073A3F5A47307F17001994A184600F0B5FD984809F0F1FD02467B
S32D0000D8E007F1E80311461846FEF712FE07F5D073A3F5B07307F1E80207F15801184600F0C1FD07F5D073A3F56D
S32D0000D908BC7307F14001894A184600F096FD894809F0E0FD024607F5807311461846FEF7F3FD07F5D073A3F586
S32D0000D930C87307F5807207F12801184600F0A2FD07F110031846FFF729F807F1100318460AF0E0FA07F58073E6
S32D0000D95818460AF0DBFA07F1280318460AF0D6FA07F1400318460AF0D1FA07F1E80318460AF0CCFA07F1580377
S32D0000D98018460AF0C7FA07F1700318460AF0C2FA07F1D00318460AF0BDFA07F1880318460AF0B8FA07F1A003DF
S32D0000D9A818460AF0B3FA07F1B80318460AF0AEFA97F8C031184612F049FC59A3D3E9002312F0AEFC02460B4654
S32D0000D9D04FF000005A4912F0EFFA02460B46C7E96423D7E90023D7E90201FFF7ADFA0146D7E96E230846FFF76D
S32D0000D9F83DFE504809F060FD0346012214464FF00001184613F080FA0346002B01D100231C46E3B2002B00D09C
S32D0000DA20EBE7464809F04CFD0346184613F098FA0446424809F052FD0346184613F090FA0546D7E9020112F09A
S32D0000DA481FFF0646D7E9000112F01AFF0346324629462046FFF7EAFDC7E966014FF00002364BD7E9640112F0F7
S32D0000DA705BFC02460B46D7E9660112F0E5FE0346002B63D0D7E90023D7E90201FFF75CFA03461846FFF7D0FB8B
S32D0000DA984FF000022A4BD7E9640112F041FC02460B4610461946D7E96E23FFF7C9F8214809F002FD0346012223
S32D0000DAC014464FF00001184613F022FA0346002B01D100231C46E3B2002B00D0EBE7174809F0EEFC034618460B
S32D0000DAE813F03AFA0446134809F0F4FC0346184613F032FA0546D7E9020112F0C1FE0646D7E9000112F0BCFEDD
S32D0000DB100346324629462046FFF78CFDC7E96601A0E700BFAFF30080C3F5285C8FC2D53F448C0200508C020002
S32D0000DB38348C0200E81A00200000F03F00002E4000001C40D7E90023D7E90201FFF7F8F903461846FFF76CFB51
S32D0000DB60D7E96E23D7E96601FFF76EF8FEF704FF274809F0A5FC024607F5B07311461846FEF7C6FC07F5A473DC
S32D0000DB8807F5B0722149184600F02BFC07F5987307F5A4711E4A184600F04FFC1A4809F099FC024607F5BC73F6
S32D0000DBB011461846FEF7ACFC07F58C7307F5BC7207F59871184600F05DFC07F58C731846FEF7E4FE07F58C73F9
S32D0000DBD818460AF09BF907F5BC7318460AF096F907F5987318460AF091F907F5A47318460AF08CF907F5B07329
S32D0000DC0018460AF087F900BF07F5D277BD46F0BDE81A0020548C0200508C020080B582B000AF4FF00002164BD0
S32D0000DC281648FEF70EFD4FF00002134B1448FEF708FD00237B604FF00000124905F01EFD0E48FEF7CDFD024676
S32D0000DC507B68D31A0A2BCCBF01230023DBB2002B09D00848FEF7C0FD78604FF00000074905F008FDE8E700BF4D
S32D0000DC780837BD4680BD00BF00003940F0160020281700200000D03F80B588B004AFBA4ABA49BB4809F024FDEF
S32D0000DCA00346BA4A1360A8A3D3E90023B848FEF7E5FD0021B74806F078FF6FF07F41B54806F0CFFFB34807F036
S32D0000DCC80FFBB349B14807F0A5F93A1D07F108031946AE4807F038F8034683F00103DBB2002B00D0F1E73A1D4D
S32D0000DCF007F108031946A74807F02AF80346002B00D0F4E74FF00002A44BA548FEF7B6FD4FF00000A34905F098
S32D0000DD18B5FCA34809F076F94FF00002A14B9A48FEF7A8FD994807F0DBFA9F49974807F071F93A1D07F1080301
S32D0000DD401946944807F004F8034683F00103DBB2002B00D0F1E73A1D07F1080319468D4806F0F6FF0346002B7A
S32D0000DD6800D0F4E79149894807F054F9904805F0D7FF0346184612F07BFA02460B4610461946FEF7C5FF0346E2
S32D0000DD90002B0CBF01230023DBB2002B00D0E9E769A3D3E900237A48FEF768FD002302934FF00002814BCDE94E
S32D0000DDB800234FF00002804B4FF000007F49FFF747FD4FF000027B4B5A20FFF74FFC4FF00002784B4FF00000C8
S32D0000DDE07949FEF731FF002259A1D1E90001FFF7ADFA4FF00002754B23216548FEF758FD002302934FF0000285
S32D0000DE086C4BCDE900234FF000026F4B4FF000006E49FFF71DFD4FF00002664B5A20FFF725FC5F4809F048FBF5
S32D0000DE300346184612F020FA002302934FF000025E4BCDE9002344A3D3E90023FFF704FD00224FF000006049BF
S32D0000DE58FFF778FA3AA3D3E900234B48FEF70AFD4FF00002534B4FF000005A49FEF7E8FE012302934FF0000253
S32D0000DE804E4BCDE9002336A3D3E900234FF000005349FFF7E1FC4FF00002484BB420FFF7E9FB01224FF00000B8
S32D0000DEA84549FFF709FB4FF000024C4B3A48FEF7E1FC4FF00000394905F0E0FB4FF00002344B3548FEF7D6FC03
S32D0000DED0002302934FF00002384BCDE9002322A3D3E9002322A1D1E90001FFF7B5FCFEF777FF02460B461046AC
S32D0000DEF81946FEF70DFFF8604FF000022D4B8720FFF7B4FB4FF000022A4B4FF000003449FEF796FEFB68B3F539
S32D0000DF207F0F65D1002302934FF00002234BCDE9002311A3D3E900234FF000002B49FFF78BFC64E0AFF30080A6
S32D0000DF480000000000C06240CDCCCCCCCC4C44400000000000E04640CDCCCCCCCC4C46403333333333B34E4007
S32D0000DF7033333333333329406666666666664D40608C0200648C0200081B00209017002060170020801A0020BC
S32D0000DF986C8C020000406540781700200000F03FE81A002000806540808C0200908C0200EC16002000002440A5
S32D0000DFC00000324000004040000034400000E03F0000464000803D4000804740000008C00000334000805140D8
S32D0000DFE8000024C000803740002302934FF00002734BCDE900234FF00002724B5EA1D1E90001FFF725FC4FF092
S32D0000E01000026D4B5A20FFF72DFBFFF7FFFD4FF00002694B4FF000006949FEF70DFE002302934FF00002644B10
S32D0000E038CDE900234FF00002644B4FF000006449FFF706FC4FF000025D4B4FF48770FFF70DFB4FF000025A4B06
S32D0000E0604FF000005D49FEF7EFFD01224FF000005B49FFF76BF95B4809F0E8F90346002B02D0012B14D02FE08A
S32D0000E088002302934FF000024D4BCDE900234FF00002534B3AA1D1E90001FFF7D9FB4FF49570FFF7C5F82FE0B7
S32D0000E0B0002302934FF00002434BCDE9002334A3D3E9002334A1D1E90001FFF7C5FB40F21F10FFF7B1F84FF0A7
S32D0000E0D800023B4B30A1D1E90001FEF7B1FD13E0002302934FF00002354BCDE900234FF000023C4B2AA1D1E9D1
S32D0000E1000001FFF7A9FB40F20D10FFF795F800BF4FF00002364B3748FEF7B0FB4FF00000354905F0AFFA22A3C4
S32D0000E128D3E900233148FEF7A5FB002302934FF00002234BCDE900231DA3D3E900231EA1D1E90001FFF784FB0E
S32D0000E150002302934FF000021B4BCDE900234FF000024FF000034FF000002449FFF774FB002318461037BD460A
S32D0000E17880BD00BFAFF300809A999999999931406666666666661C406666666666663740CDCCCCCCCCCC164099
S32D0000E1A0333333333333C3BF66666666666614400000000000C062403333333333B33640666666666666314086
S32D0000E1C80000244000404D40000014C0008046400000144000002E4000803940E81A0020000037400000384052
S32D0000E1F00080414060170020000016400000424080B487B000AF7860396001237B613B6803FB03F33B613A6831
S32D0000E2183B6902FB03F3FB603A68FB6802FB03F3BB603B687A689A4201D27B691DE07A683B699A4202D27B69A4
S32D0000E240013316E07A68FB689A4202D27B6902330FE07A68BB689A4202D27B69033308E07A68BB68B2FBF3F33A
S32D0000E2687B607B6904337B61DBE718461C37BD4680BC704780B489B000AFF860B9607A60BB68013BFB617B6848
S32D0000E290632B25D97A68224BA3FB02135B09642101FB03F3D31A5B00BB617B681C4AA2FB03235B097B60BB6924
S32D0000E2B85A1CF968FB690B4418498A5C1A70FB69013BFA6813441549BA690A4412781A70FB69023BFB61D6E7E7
S32D0000E2E07B68092B10D97B685B007B617B695A1CFB6801330B498A5C1A700A4A7B6913441A78FB681A7005E04E
S32D0000E3087B68DBB23033DAB2FB681A7000BF2437BD4680BC704700BF1F85EB51D08C020008B490B588B000AFA6
S32D0000E330F860B9607A607B680733DB08DB00ADEB030D6B460733DB08DB00FB6107F130033B61BC683B69FA6AF9
S32D0000E3587968F869A047B861BB69FA69D41807F11403184609F0CEFB07F114032246F969F86800F0FEF807F19C
S32D0000E3801403184609F0C4FBF8682037BD46BDE8904001B0704780B584B000AFF860B9607A60B968F86809F0CE
S32D0000E3A819FF7968F86809F0F7FE00BFF8681037BD4680BD80B582B000AF786039607B68D3E900013B68D3E9D4
S32D0000E3D0002312F01BFA0346002B01D03B6800E07B6818460837BD4680BD80B584B000AFF860B9607A60BA68D8
S32D0000E3F80021786809F082FE0346184600F0D4F803461946F86809F061FDF8681037BD4680BD80B582B000AFBE
S32D0000E4207860786811F016FF02460B461046194611F0C8FA02460B46104619460837BD4680BD80B584B000AF0A
S32D0000E448F860B9607A607968B86809F0A5FE0346184600F0A9F803461946F86809F036FDF8681037BD4680BD6B
S32D0000E47080B483B000AF7860012318460C37BD4680BC704790B58BB000AFF860B9607A60002387F8273007F16A
S32D0000E49814031846FFF7E8FF0346002B03D0012387F8273024E007F11803B968184609F08DFE07F11C037968B1
S32D0000E4C0184609F087FE07F11C0207F118031146184600F077F803461C4607F11C03184609F016FB07F11803D8
S32D0000E4E8184609F011FB002C02D0012387F8273097F82730002B2BD0B86809F013FD0446786809F00FFD0346FE
S32D0000E51023443B62B86809F00BFD02463B6A934208D9786809F004FD02463B6A934201D8012300E00023002B4E
S32D0000E5380ED0BA680021786809F0C8FD0346184600F032F803461946F86809F0BFFC0CE07968B86809F01AFE7B
S32D0000E5600346184600F024F803461946F86809F0B1FCF8682C37BD4690BD90B585B000AFF860B9607A603B600A
S32D0000E588FC68F86809F0E2FB03463A681946204609F01EFE7A68B968F86800F01AF8FB6818461437BD4690BD45
S32D0000E5B080B483B000AF78607B6818460C37BD4680BC704780B483B000AF78603960012318460C37BD4680BC4A
S32D0000E5D8704780B584B000AFF860B9607A607A68B968F86800F004F800BF1037BD4680BD90B587B000AFF860E3
S32D0000E600B9607A603B7023467A68B968F86800F005F800BF1C37BD4690BD000080B586B000AFF860B9607A60CE
S32D0000E6283B70B86800F03EF80346002B05D0BA687B689A4201D0012300E00023002B02D0174809F073FA79680E
S32D0000E650B86800F03AF803467B617B690F2B10D907F1140300221946F86809F07DFB03461946F86809F06AFB67
S32D0000E6787B691946F86809F06BFBF86809F064FB03467A68B968184609F0B6FB7B691946F86809F05FFB00BFB1
S32D0000E6A01837BD4680BD00BFA48C020080B483B000AF78607B68002B0CBF01230023DBB218460C37BD4680BC51
S32D0000E6C87047B0B582B000AF786039607C683B1D184600F00AF82A463968204600F00FF8034618460837BD46D3
S32D0000E6F0B0BD80B483B000AF786000BF18460C37BD4680BC704780B485B000AFF860B9603A71BA68FB68D31AA5
S32D0000E71818461437BD4680BC704700000000000080B586B004AF786039607B68012B34D13B684FF6FF72934263
S32D0000E7402FD11F211C4805F0DFFA0023029318A3D3E90023CDE900234FF00002174B03211748FDF70DFF0723BE
S32D0000E768029311A3D3E90023CDE900234FF00002104B00211148FDF7FFFE40F61C134FF42D7200210E48FEF7C8
S32D0000E79043F840F66F134FF4FA7201210B48FEF73BF800BF0837BD4680BD00BFAFF30080D8EAD9217063993F96
S32D0000E7B8EC16002000002240F016002028170020601700207817002080B500AF4FF6FF710120FFF7A5FF80BD53
S32D0000E7E080B500AF0F4BD3F8A03003F48053002B14BF01230023DBB2002B10D0094BD3F8A030084A23F4805360
S32D0000E808C2F8A030064809F04DF8064B1B68054A23F40053136000BF80BD00BF00C00440081B0020C0F00F40CB
S32D0000E83080B400AF124B4FF480725A63114B5B69104A43F4005353610E4B1B680D4A43F4005313600A4B0C4AF5
S32D0000E8581A630C4BD3F888310A4A43F08063C2F88831084B9B68074A43F08063936000BFBD4680BC704700BF39
S32D0000E88000C00440C0F00F4003010A0000E100E080B400AF334B00225A70324B98221A70304B9B79DBB203F07B
S32D0000E8A81003002B14BF01230023DBB2002B00D0F2E72A4B9B79DBB29B08DBB203F00303022B14BF0123002303
S32D0000E8D0DBB2002B00D0F0E7224B18221A71214B00225A71204B03F580531A461F4B53641C4B54225A711B4B6B
S32D0000E8F89B79DBB203F02003002B0CBF01230023DBB2002B00D0F2E7144B9B79DBB203F04003002B0CBF01234D
S32D0000E9200023DBB2002B00D0F2E70E4B1B78DBB20C4A03F03F03DBB213700A4B9B79DBB29B08DBB203F0030312
S32D0000E948032B14BF01230023DBB2002B00D0F0E700231846BD4680BC704700BF00400640007004400000130176
S32D0000E97080B500AF314B03F580539B6B2F4A43F4785302F580529363FFF752FFFFF780FF2B4B58221A602A4B73
S32D0000E9981B684FF47A7202FB03F3284A1360274B1B681A46234B03F580535B6C1B0E03F00F030133B2FBF3F37D
S32D0000E9C01A46214B1A601D4B03F58053DB6B1B4A43F0225302F58052D363184B03F580531B6B164A43F00063B4
S32D0000E9E802F580521363174B4FF480721A61642004F01AFD134B5B69124A23F010035361104B00221A600F4B78
S32D0000EA1010225A610E4805F06BFF05F06DFA05F0CBFA0C4804F066FD0B4809F031F84FF4FA6004F011FE00BFA1
S32D0000EA3880BD00BF00700440CC190020C8190020D019002000D00340801A0020C4190020B41D002080B500AF52
S32D0000EA60FDF771FC00BF80BD80B500AFFDF76BFC00BF80BD80B500AFFDF765FC00BF80BD80B500AFFDF75FFC88
S32D0000EA8800BF80BD80B500AFFDF759FC00BF80BD80B500AFFDF753FC00BF80BD80B500AFFDF74DFC00BF80BDFB
S32D0000EAB080B500AFFDF747FC00BF80BD80B500AFFDF741FC00BF80BD80B500AFFDF73BFC00BF80BD80B500AF21
S32D0000EAD8FDF735FC00BF80BD80B500AFFDF72FFC00BF80BD80B500AFFDF729FC00BF80BD80B500AFFDF723FC00
S32D0000EB0000BF80BD80B500AFFDF71DFC00BF80BD80B500AFFDF717FC00BF80BD80B500AFFDF711FC00BF80BD36
S32D0000EB2880B500AFFDF70BFC00BF80BD80B500AFFDF705FC00BF80BD80B500AFFDF7FFFB00BF80BD80B500AF5D
S32D0000EB50FDF7F9FB00BF80BD80B500AFFDF7F3FB00BF80BD80B500AFFDF7EDFB00BF80BD80B500AFFDF7E7FB7B
S32D0000EB7800BF80BD80B500AFFDF7E1FB00BF80BD80B500AFFDF7DBFB00BF80BD80B500AFFDF7D5FB00BF80BD75
S32D0000EBA080B500AFFDF7CFFB00BF80BD80B500AFFDF7C9FB00BF80BD80B500AFFDF7C3FB00BF80BD80B500AF9B
S32D0000EBC8FDF7BDFB00BF80BD80B500AFFDF7B7FB00BF80BD80B500AFFDF7B1FB00BF80BD80B500AFFDF7ABFBF3
S32D0000EBF000BF80BD80B500AFFDF7A5FB00BF80BD80B500AFFDF79FFB00BF80BD80B500AFFDF799FB00BF80BDB1
S32D0000EC1880B500AFFDF793FB00BF80BD80B500AFFDF78DFB00BF80BD80B500AFFDF787FB00BF80BD80B500AFD6
S32D0000EC40FDF781FB00BF80BD80B500AFFDF77BFB00BF80BD80B500AFFDF775FB00BF80BD80B500AFFDF76FFB6A
S32D0000EC6800BF80BD80B500AFFDF769FB00BF80BD80B500AFFDF763FB00BF80BD80B500AFFDF75DFB00BF80BDEC
S32D0000EC9080B500AFFDF757FB00BF80BD80B500AFFDF751FB00BF80BD80B500AFFDF74BFB00BF80BD80B500AF12
S32D0000ECB8FDF745FB00BF80BD80B500AFFDF73FFB00BF80BD80B500AFFDF739FB00BF80BD80B500AFFDF733FBE2
S32D0000ECE000BF80BD80B500AFFDF72DFB00BF80BD80B500AFFDF727FB00BF80BD80B500AFFDF721FB00BF80BD28
S32D0000ED0880B500AFFDF71BFB00BF80BD80B500AFFDF715FB00BF80BD80B500AFFDF70FFB00BF80BD80B500AF4D
S32D0000ED30FDF709FB00BF80BD80B500AFFDF703FB00BF80BD80B500AFFDF7FDFA00BF80BD80B500AFFDF7F7FA5B
S32D0000ED5800BF80BD80B500AFFDF7F1FA00BF80BD80B500AFFDF7EBFA00BF80BD80B500AFFDF7E5FA00BF80BD66
S32D0000ED8080B500AFFDF7DFFA00BF80BD80B500AFFDF7D9FA00BF80BD80B500AFFDF7D3FA00BF80BD80B500AF8C
S32D0000EDA8FDF7CDFA00BF80BD80B500AFFDF7C7FA00BF80BD80B500AFFDF7C1FA00BF80BD80B500AFFDF7BBFAD5
S32D0000EDD000BF80BD80B500AFFDF7B5FA00BF80BD80B500AFFDF7AFFA00BF80BD80B500AFFDF7A9FA00BF80BDA2
S32D0000EDF880B500AFFDF7A3FA00BF80BD80B500AFFDF79DFA00BF80BD80B500AFFDF797FA00BF80BD80B500AFC8
S32D0000EE20FDF791FA00BF80BD80B500AFFDF78BFA00BF80BD80B500AFFDF785FA00BF80BD80B500AFFDF77FFA4C
S32D0000EE4800BF80BD80B500AFFDF779FA00BF80BD80B500AFFDF773FA00BF80BD80B500AFFDF76DFA00BF80BDDD
S32D0000EE7080B500AFFDF767FA00BF80BD0000000080B584B000AFF8600B467A60FB72FB68FA7A1A71FB68002250
S32D0000EE985A711749786812F055F80346002B02D0134B7B600AE04FF07E51786812F036F80346002B02D04FF0E6
S32D0000EEC07E537B60786811F0D7F909A3D3E9002311F02AFA02460B461046194611F01CFD0246FB681A60FB6827
S32D0000EEE818461037BD4680BDABAAAAAAAAAA20400000404180B582B000AF78607B685B79002B09D07B6800228B
S32D0000EF105A717B6819791E230022034804F024FB00BF0837BD4680BDC419002080B584B000AF786039603B686B
S32D0000EF387F2B02DD7F23FB7308E03B6813F1800F02DA8023FB7301E03B68FB737B685B79FA7B9A4209D07B6851
S32D0000EF60FA7B5A717B681979FA7B1E23034804F0FBFA00BF1037BD4680BD00BFC4190020B0B584B000AF7860C2
S32D0000EF8839603749386811F0BFFF0346002B02D0334B3B6008E03349386811F0D3FF0346002B01D02F4B3B6053
S32D0000EFB0386811F061F904460D467B681B68184611F05AF94FF00002294B11F0D7FA02460B462046294611F08D
S32D0000EFD8A7F902460B461046194611F099FC03463B604FF00001386811F0A2FF0346002B10D0386811F03CF9F7
S32D0000F00017A3D3E9002311F08FF902460B461046194611F039FC0346FB6018E0386811F02BF94FF00002134B3C
S32D0000F02811F07EF902460B46104619464FF000020D4B11F09FFA02460B461046194611F01FFC0346FB60F96852
S32D0000F0507868FFF76BFF00BF1037BD46B0BD00BF52B81E85EB51F43F0000C8C20000C842000059400000604034
S32D0000F07880B483B000AF03460A46FB711346BB71BB79002B03D1134B00221A7002E0114B01221A703823FB71DB
S32D0000F0A00E4B1A78FB791343FB710D4B9B78DBB20B4A43F01003DBB29370094B9B78DBB2074A43F02003DBB2D6
S32D0000F0C89370054AFB79137100BF0C37BD4680BC704700BF941700200060064080B483B000AF01237B607B68B0
S32D0000F0F0312B04DC00BF7B6801337B60F7E700BF0C37BD4680BC704780B582B000AF03460A46FB711346BB718F
S32D0000F118134B1B7800211846FFF7AAFF00F024F8104AFB79137100F01FF80E4ABB79137100F01AF80B4B9B78DA
S32D0000F140DBB20A4A23F02003DBB29370074B9B78DBB2064A23F01003DBB29370FFF7C2FF00BF0837BD4680BD0D
S32D0000F168951700200060064080B483B000AF174B1B78002B24D100237B60154BDB78DBB203F00203002B0CBFB0
S32D0000F19001230023DBB2002B0DD07B6842F21072934203DD0B4B01221A7004E07B6801337B6000BFE5E7084B70
S32D0000F1B8DB78DBB2064A43F00203DBB2D37000E000BF0C37BD4680BC704700BF961700200060064080B582B080
S32D0000F1E000AF0346FB71FB79184600F05FF800BF0837BD4680BD80B582B000AF03460A46FB711346BB7100F0B6
S32D0000F20835F8FB795B00DBB21846FFF7E3FFBB791846FFF7DFFF00F037F800BF0837BD4680BD80B500AFFF2053
S32D0000F23000F03CF80346184680BD80B584B000AF0346FB7100F016F8FB795B005BB243F001035BB2DBB21846D2
S32D0000F258FFF7C0FFFFF7E5FF0346FB7300F014F8FB7B18461037BD4680BD000080B400AF044B9B68034A43F432
S32D0000F2808013936000BFBD4680BC704740F00F4080B400AF044B5B68034A43F48013536000BFBD4680BC704732
S32D0000F2A840F00F4080B485B000AF0346FB710023BB73164BDB6A03F00043012B0CBF01230023DBB2002B03D0F6
S32D0000F2D0FB7B0133FB73F0E70E4BDB6A0D4A43F00043D3620B4AFB7953630A4BDB6A03F40033002B0CBF012324
S32D0000F2F80023DBB2002B00D0F3E7044B9B6BBB73BB7B18461437BD4680BC704700C00A4080B582B000AF204B80
S32D0000F32003F580531B6B1E4A43F4805302F5805213631C4B4FF480721A651B4B5B691A4A43F480135361FFF7A0
S32D0000F348A3FF164B4FF400725A65144B4FF400729A65124B4FF40072DA65124B124A1A60104B124ADA60002375
S32D0000F3707B607B68092B06DCFF20FFF72FFF7B6801337B60F5E704A1D1E9000104F07AF900BF0837BD4680BD85
S32D0000F3989A9999999999B93F0070044000A0044040F00F4000C00A40000C00800500003E90B486B000AFF86047
S32D0000F3C0B9607A60FB68534A93420AD1524B03F580535B6B504A43F4806302F58052536345E0FB684D4A934227
S32D0000F3E80AD14B4B03F580535B6B494A43F4006302F58052536336E0FB68474A93420AD1434B03F580535B6B70
S32D0000F410414A43F4805302F58052536327E0FB68404A93420AD13C4B03F580535B6B3A4A43F4005302F5805227
S32D0000F438536318E0FB683A4A93420AD1344B03F580539B6A324A43F4806302F58052936209E02F4B03F5805390
S32D0000F4609B6A2D4A43F4006302F580529362FB68DB78DBB223F00C03DAB2FB68DA70FB6800229A70BB684FF417
S32D0000F4887A7203FB02F27B681B0192FBF3F39CB2FB681B78DBB223F01F03FB75230A9BB2DBB203F01F03DAB2E8
S32D0000F4B0FB7D1343DAB2FB681A70E2B2FB685A70BB684FF4FA4203FB02F27B681B0192FBF3F39AB263019BB223
S32D0000F4D8D31A9CB2FB689B7ADBB223F01F03FB75E3B203F01F03DAB2FB7D1343DAB2FB689A72FB68DB78DBB2DF
S32D0000F50043F00C03DAB2FB68DA7000BF1837BD4690BC704700A006400070044000B0064000C0064000D00640A2
S32D0000F52800A00E4080B483B000AF78607B681B79DBB203F02003002B0CBF01230023DBB2002B00D0F2E77B683E
S32D0000F550DB79DBB218460C37BD4680BC704780B483B000AF78600B46FB707B681B79DBB25BB2DB43DBB2DB09CB
S32D0000F578DBB2002B00D0F4E77B68FA78DA7100BF0C37BD4680BC704780B487B000AFF860B9607A60FB687B61C6
S32D0000F5A0BB683B617B685A1E7A60002B14BF01230023DBB2002B08D03A69531C3B617B69591C796112781A707F
S32D0000F5C8ECE700BF1C37BD4680BC704780B487B000AFF860B9607A60FB687B617B685A1E7A60002B14BF01233F
S32D0000F5F00023DBB2002B06D07B695A1C7A61BA68D2B21A70EEE700BF1C37BD4680BC704780B489B000AFF86086
S32D0000F618B9607A60FB68FB61BB68BB6100237B617B685A1E7A60002B0FD0FB695A1CFA611B781946BB695A1CD4
S32D0000F640BA611B78CB1A7B617B69002B01D1012300E00023002B00D0E6E77B6918462437BD4680BC704780B496
S32D0000F66883B000AF786039607B681B78002B09D07B681B781A463B68934203D07B6801337B60F1E77B681B7846
S32D0000F69018460C37BD4680BC704780B584B000AF786039607B681B6BFB60FA683B689A4252D07B681B79002BC3
S32D0000F6B835D07B6858787B6803F134010123FA6803F050FD0346002B14BF01230023DBB2002B01D001233CE043
S32D0000F6E07B6800221A717B685A6A7B681B6A1344FA689A4217D27B68DB78FB72FB7A012B11D97B681B6AFA68E7
S32D0000F7081344FB607B6858787B6803F134010123FA6803F027FDFB7A013BFB72EAE73B68002B15D07B68587870
S32D0000F7307B6803F1340101233A6803F033FC0346002B14BF01230023DBB2002B01D0012303E07B683A681A6397
S32D0000F758002318461037BD4680BD80B584B000AF786000217868FFF794FF0346FB73FB7B002B40F093807B6883
S32D0000F7801B78032B7DD17B685B79002B79D07B6800221A637B6834334FF4007200211846FFF718FF7B685522BA
S32D0000F7A883F832227B68AA2283F833227B68522283F834207B68522283F835207B68612283F836207B6841221B
S32D0000F7D083F837207B68722283F818227B68722283F819227B68412283F81A227B68612283F81B227B681B695E
S32D0000F7F8DAB27B6883F81C227B681B699BB21B0A9BB2DAB27B6883F81D227B681B691B0CDAB27B6883F81E22B4
S32D0000F8207B681B691B0EDAB27B6883F81F227B68DB68DAB27B6883F820227B68DB689BB21B0A9BB2DAB27B6859
S32D0000F84883F821227B68DB681B0CDAB27B6883F822227B68DB681B0EDAB27B6883F823227B6858787B6803F151
S32D0000F87034017B685A69012303F078FC7B6800225A717B685B7800220021184603F03AFD0346002B14BF012348
S32D0000F8980023DBB2002B01D00123FB73FB7B18461037BD4680BD80B483B000AF786039603B68023B3B607B68C4
S32D0000F8C0DB69023B3A689A4201D3002308E07B689B781A463B6803FB02F27B68DB6A134418460C37BD4680BCF2
S32D0000F8E8704780B586B000AF786039603B68012B04D97B68DB693A689A4201D30123B5E07B681B78032B7AD0E4
S32D0000F910032B00F3AD80012B02D0022B4DD0A7E03B683B613B695B083A6913443B617B685A6A3B695B0A1344C9
S32D0000F93819467868FFF7ADFE0346002B14BF01230023DBB2002B40F088803B69C3F308037A68134493F83430B6
S32D0000F960FB603B6901333B617B685A6A3B695B0A134419467868FFF790FE0346002B14BF01230023DBB2002B9A
S32D0000F9886DD13B69C3F308037A68134493F834301B021A46FB681343FB603B6803F00103002B02D0FB681B09D7
S32D0000F9B060E0FB68C3F30B035CE07B685A6A3B681B0A134419467868FFF767FE0346002B14BF01230023DBB20B
S32D0000F9D8002B46D13B685B0003F4FF7330337A68134404337B617B6901331B781B021AB27B691B781BB213437B
S32D0000FA001BB29BB236E07B685A6A3B68DB09134419467868FFF741FE0346002B14BF01230023DBB2002B22D176
S32D0000FA283B689B0003F4FE7330337A68134404337B617B6903331B781A067B6902331B781B0413437A69013257
S32D0000FA501278120213437A691278134323F0704308E000BF04E000BF02E000BF00E000BF4FF0FF331846183763
S32D0000FA78BD4680BD80B588B000AFF860B9607A60BB68012B04D9FB68DB69BA689A4202D30223FB77EEE0FB684B
S32D0000FAA01B78032B00F09780032B00F3DA80012B02D0022B6BD0D4E0BB687B617B695B087A6913447B61FB681C
S32D0000FAC85A6A7B695B0A13441946F868FFF7E1FD0346FB77FB7F002B40F0C2807B69C3F308033033FA68134486
S32D0000FAF00433BB61BB6803F00103002B0DD0BB691B785BB203F00F035AB27B68DBB21B015BB213435BB2DBB215
S32D0000FB1801E07B68DBB2BA6913707B6901337B61FB6801221A71FB685A6A7B695B0A13441946F868FFF7ADFD9D
S32D0000FB400346FB77FB7F002B40F090807B69C3F308033033FA6813440433BB61BB6803F00103002B03D07B68E8
S32D0000FB681B09DBB20CE0BB691B7823F00F03DAB27B681B0ADBB203F00F03DBB21343DBB2BA69137073E0FB6804
S32D0000FB905A6ABB681B0A13441946F868FFF77DFD0346FB77FB7F002B62D1BB685B0003F4FF733033FA6813441F
S32D0000FBB80433BB617B68DAB2BB691A707B689BB21B0A9AB2BB690133D2B21A704FE0FB685A6ABB68DB091344F4
S32D0000FBE01946F868FFF759FD0346FB77FB7F002B40D1BB689B0003F4FE733033FA6813440433BB61BB6903338C
S32D0000FC081B781A06BB6902331B781B041343BA690132127812021343BA691278134303F070437A6813437B60B4
S32D0000FC307B68DAB2BB691A707B689BB21B0A9AB2BB690133D2B21A707B681A0CBB690233D2B21A707B681A0E07
S32D0000FC58BB690333D2B21A7009E00223FB7706E000BF04E000BF02E000BF00E000BFFB6801221A71FB7F184625
S32D0000FC802037BD4680BD80B584B000AF786039603B68012B04D97B68DB693A689A4202D30223FB7338E0002342
S32D0000FCA8FB737B68DB693A689A4231D239687868FFF717FEB860BB68002B26D0BB68012B02D10223FB7323E078
S32D0000FCD0BB68B3F1FF3F02D10123FB731CE0002239687868FFF7CAFE0346FB73FB7B002B11D17B681B69B3F1FA
S32D0000FCF8FF3F07D07B681B695A1C7B681A617B6801225A71BB683B60CBE700BF00E000BFFB7B18461037BD46D1
S32D0000FD2080BD80B586B000AF786039603B68002B0DD17B68DB683B613B69002B04D07B68DB693A699A4215D34E
S32D0000FD4801233B6112E039687868FFF7CAFDB860BB68012B01D8012364E07B68DB69BA689A4201D2BB685DE09D
S32D0000FD703B683B613B697B617B6901337B617B68DB697A699A4207D302237B617A693B699A4201D9002349E068
S32D0000FD9879697868FFF7A5FDB860BB68002B0ED0BB68B3F1FF3F02D0BB68012B01D1BB6838E07A693B699A4209
S32D0000FDC0DAD1002332E000BF6FF0704279697868FFF754FE0346FB73FB7B002B09D13B68002B06D07A69396801
S32D0000FDE87868FFF747FE0346FB73FB7B002B10D17B687A69DA607B681B69B3F1FF3F10D07B681B695A1E7B68AE
S32D0000FE101A617B6801225A7107E0FB7B012B02D14FF0FF3300E001237B617B6918461837BD4680BD80B487B08F
S32D0000FE3800AF786039607B685B6A04333B613B685B0A7A6812689278B3FBF2F37B613B691A1D3A611B68FB60D0
S32D0000FE60FB68002B01D1002310E07A69FB689A4207D37A69FB68D31A7B613B6904333B61E9E700BF3B691A68CA
S32D0000FE887B69134418461C37BD4680BC704780B584B000AF78600B467B807B687A88DA807B689B68FB60FB684B
S32D0000FEB0012B05D07B681B68DB69FA689A4201D3022364E0FB68002B08D17B681B681B78032B03D17B681B6836
S32D0000FED89B6AFB60FB68002B13D17B68FA68DA607B681B681B897A889A4201D302234AE07B681B689A6A7B8833
S32D0000FF001B091A447B681A6135E07B681B689B789BB21B017B817A887B899A421CD37B681B68F9681846FFF714
S32D0000FF28E0FCF860FB68B3F1FF3F01D101232AE0FB68012B05D97B681B68DB69FA689A4201D302231FE07A88E3
S32D0000FF507B89D31A7B80DEE77B68FA68DA607B681B68F9681846FFF7A2FC02467B881B091A447B681A617B688C
S32D0000FF781B6803F134027B8803F00F035B011A447B685A61002318461037BD4680BD90B585B000AF78603960AC
S32D0000FFA07B68DB8801333B813B89002B03D07B681B69002B01D10423C4E03B8903F00F03002B40F0B0807B68D5
S32D0000FFC81B695A1C7B681A617B68DB68002B08D17B681B681B893A899A42C0F0A0800423ACE03B891B097A6893
S32D0000FFF012689278013A1340002B40F094807B681A687B68DB6819461046FFF76EFCF860FB68012B01D80223DD
S32D0001001894E0FB68B3F1FF3F01D101238EE07B681B68DB69FA689A426DD33B68002B01D1042383E07B681A68E5
S32D000100407B68DB6819461046FFF76BFEF860FB68002B01D1072375E0FB68012B01D1022370E0FB68B3F1FF3F05
S32D0001006801D101236AE07B681B6800211846FFF710FB0346002B14BF01230023DBB2002B01D001235AE07B68EB
S32D000100901B6834334FF4007200211846FFF79AFA7B681A687B681C68F9681046FFF7FFFB034623630023FB72C7
S32D000100B87B681B689B78FA7A9A421CD27B681B6801221A717B681B6800211846FFF7E1FA0346002B14BF01232D
S32D000100E00023DBB2002B01D001232BE07B681B681A6B01321A63FB7A0133FB72DCE77B681B68196BFA7A7B6861
S32D000101081B688A1A1A637B68FA68DA607B681B68F9681846FFF7C7FB02467B681A617B683A89DA807B681B68BC
S32D0001013003F134023B8903F00F035B011A447B685A61002318461437BD4690BD80B586B000AF78600021786846
S32D00010158FFF79DFE0346FB75FB7D002B01D0FB7D3CE07B681A687B681B6919461046FFF790FA0346FB75FB7DF4
S32D00010180002B2BD17B685B693B613B691B78FB73FB7B002B02D10423FB7522E03B690B331B7803F00803002B96
S32D000101A80BD17B689B690B2219463869FFF72CFA0346002B01D1012300E00023002B0BD100217868FFF7E3FED0
S32D000101D00346FB75FB7D002B03D1C6E700BF00E000BFFB7D18461837BD4680BD80B584B000AF7860002178686F
S32D000101F8FFF74DFE0346FB73FB7B002B21D17B681A687B681B6919461046FFF742FA0346FB73FB7B002B13D15E
S32D000102207B685B691B78BB73BB7BE52B0DD0BB7B002B0AD001217868FFF7ADFE0346FB73FB7B002B01D1DEE757
S32D0001024800BFFB7B002B1FD17B681A687B681B6919461046FFF71DFA0346FB73FB7B002B12D17B685B69BB60AC
S32D0001027020220021B868FFF7ADF97B689B690B221946B868FFF784F97B681B6801221A71FB7B18461037BD4608
S32D0001029880BD000080B588B000AF786039603B681B68FB60FB681B782F2B03D0FB681B785C2B03D1FB680133E1
S32D000102C0FB60F3E77B689B69BB600B222021B868FFF780F90023FB7700233B613B697B610823BB61FA687B697A
S32D000102E813441B782E2B2FD17B695A1C7A61FA6813441B78BB77BB7F2E2B0AD17B69022B07D83B695A1C3A61DE
S32D00010310BA681344BA7F1A70EAE7BB7F2F2B07D0BB7F5C2B04D0BB7F202B01D90623A7E0FA687B691A443B685B
S32D000103381A60BB7F202B01D8242200E02022BB680B331A70002397E07B695A1C7A61FA6813441B78BB77BB7FE4
S32D00010360202B58D9BB7F2F2B55D0BB7F5C2B52D0BB7F2E2B03D03A69BB699A420FD3BB69082B02D1BB7F2E2BAE
S32D0001038801D0062378E008233B610B23BB61FB7F9B00FB773AE097F91E30002B08DAFB7F43F00303FB77BB7FF8
S32D000103B0803B354AD35CBB77BB7F19463348FFF752F90346002B14BF01230023DBB2002B01D0062354E0BB7F80
S32D000103D8402B07D9BB7F5A2B04D8FB7F43F00203FB770CE0BB7F602B09D9BB7F7A2B06D8FB7F43F00103FB7779
S32D00010400BB7F203BBB773B695A1C3A61BA681344BA7F1A709CE7FA687B691A443B681A60BB7F202B01D804234C
S32D0001042800E00023BB773B69002B01D1062323E0BB681B78E52B02D1BB6805221A70BB69082B02D1FB7F9B00F7
S32D00010450FB77FB7F03F00303012B03D1BB7F43F01003BB77FB7F03F00C03042B03D1BB7F43F00803BB77BB689A
S32D000104780B33BA7F1A70002318462037BD4680BD9C8D02001C8E020080B584B000AF786039603B681B782F2B4C
S32D000104A003D03B681B785C2B06D13B6801333B607B6800229A6004E07B681B689A697B689A603B681B781F2BAB
S32D000104C809D800217868FFF7E2FC0346FB737B6800225A6169E03B4619467868FFF7DAFE0346FB73FB7B002BA9
S32D000104F058D17868FFF72AFE0346FB737B689B69DB7ABB73FB7B002B1DD0FB7B042B4BD1BB7B03F02003002BCF
S32D000105180DD07B6800229A607B6800225A610023FB73BB7B03F00403002B3BD135E0BB7B03F00403002B35D1AA
S32D000105400523FB7332E0BB7B03F00403002B2FD17B685B69BB60BB680B331B7803F01003002B02D10523FB7339
S32D0001056823E0BB6815331B781B021AB2BB6814331B781BB213431BB29BB21B04BA681B321278120211B2BA682F
S32D000105901A32127812B20A4312B292B21A437B689A609CE700BF04E000BF02E000BF00E000BFFB7B18461037D3
S32D000105B8BD4680BD80B582B000AF786039607B6858787B6803F1340101233A6802F0E6FC0346002B14BF012389
S32D000105E00023DBB2002B01D003234AE07B6803F2322301331B781B021AB27B6893F832321BB213431BB2214AE6
S32D00010608934201D0022338E07B686A3303331B781A067B686A3302331B781B0413437A686A320132127812026B
S32D0001063013437A6892F86A20134323F07F43144A934201D100231CE07B68863303331B781A067B6886330233AA
S32D000106581B781B0413437A68863201321278120213437A6892F88620134323F07F43064A934201D1002300E073
S32D00010680012318460837BD4680BD00BF55AAFFFF4641540080B592B000AFF860B9601346FB71FB681B68FB6214
S32D000106A8FB6A1B78303B3B643B6C092B0BD8FB6A01331B783A2B06D1FB6A0233FB62FB68FA6A1A6002E0A34BF3
S32D000106D01B783B643B6C002B01D00B2367E2A04A3B6C52F82330BB62BB68BA6A1A60BB6A002B01D10C235AE216
S32D000106F8BB6A1B78002B1AD0BB6A5B78184602F07FFE034687F8273097F8273003F00103002B0CD1FB79002B9E
S32D0001072007D097F8273003F00403002B01D00A233DE200233BE2BB6A00221A703B6CDAB2BB6A5A70BB6A5B7880
S32D00010748184602F0F1F9034687F8273097F8273003F00103002B01D0032324E2FB79002B07D097F8273003F0D5
S32D000107700403002B01D00A2319E20023FB63F96BB86AFFF71BFF034687F8473097F84730012B22D1BB6A03F597
S32D00010798F9733B623B6A04331B78002B19D03B6A0B331B781A063B6A0A331B781B0413433A6A093212781202A9
S32D000107C013433A6A083212781343FB63F96BB86AFFF7F4FE034687F8473097F84730032B01D10123E3E197F86E
S32D000107E84730002B01D00D23DDE1BB6A93F840301B021AB2BB6A93F83F301BB213431BB2B3F5007F01D00D2341
S32D00010810CDE1BB6A93F84B301B021AB2BB6A93F84A301BB213431BB29BB2BB63BB6B002B12D1BB6A93F85B3003
S32D000108381A06BB6A93F85A301B041343BA6A92F8592012021343BA6A92F858201343BB63BB6ABA6B1A62BB6AAC
S32D0001086093F84430FB77BB6AFA7FDA70FB7F012B04D0FB7F022B01D00D2398E1FA7FBB6B02FB03F3BB63BB6AA0
S32D0001088893F84130FB77BB6AFA7F9A70FB7F002B05D0FA7FFB7F013B1340002B01D00D2381E1BB6A93F846307B
S32D000108B01B021AB2BB6A93F845301BB213431BB29AB2BB6A1A81BB6A1B8903F00F03002B01D00D236BE1BB6AA4
S32D000108D893F848301B021AB2BB6A93F847301BB213431BB29BB27B637B6B002B12D1BB6A93F857301A06BB6A53
S32D0001090093F856301B041343BA6A92F8552012021343BA6A92F8542013437B63BB6A93F843301B021AB2BB6A2E
S32D0001092893F842301BB213431BB2BB83BB8B002B01D10D2337E1BA8BBB6B1A44BB6A1B891B091344BB617A6BDC
S32D00010950BB699A4206D20D2329E100BF9E170020981700207A6BBB69D31ABA6A9278B3FBF2F37B617B69002B61
S32D0001097801D10D2317E1012387F847307B6940F6F572934202D9022387F847307B694FF6F572934202D903238A
S32D000109A087F847307B699A1CBB6ADA61FA6BBB691A44BB6ADA62BA8BFB6B1A44BB6A5A6297F84730032B1ED1E3
S32D000109C8BB6A1B89002B01D00D23ECE0BB6A93F863301A06BB6A93F862301B041343BA6A92F86120120213438C
S32D000109F0BA6A92F860201A43BB6A9A62BB6ADB699B003B631FE0BB6A1B89002B01D10D23CDE0BB6A5A6ABB6BD9
S32D00010A181A44BB6A9A6297F84730022B03D1BB6ADB695B000AE0BB6ADA6913465B0013445A08BB6ADB6903F04A
S32D00010A40010313443B63BB6A1A6A3B6B03F2FF135B0A9A4201D20D23A9E0BB6A4FF0FF321A61BB6A0022DA60DA
S32D00010A6897F84730032B40F08680BB6A00225A71BB6A93F865301B021AB2BB6A93F864301BB213431BB29BB234
S32D00010A901A46FB6B1A44BB6A5A61BB6A5878BB6A03F13401BB6A5A69012302F07BFA0346002B39D1BB6A93F84F
S32D00010AB833321B021AB2BB6A93F832321BB213431BB23B4A93422BD1BB6A93F837301A06BB6A93F836301B04FB
S32D00010AE01343BA6A92F8352012021343BA6A92F834201343314A934216D1BB6A93F81B321A06BB6A93F81A327C
S32D00010B081B041343BA6A92F8192212021343BA6A92F818221343284A934201D1012300E00023002B27D0BB6A31
S32D00010B3093F823321A06BB6A93F822321B041343BA6A92F8212212021343BA6A92F820221A43BB6ADA60BB6AF1
S32D00010B5893F81F321A06BB6A93F81E321B041343BA6A92F81D2212021343BA6A92F81C221A43BB6A1A61BB6A98
S32D00010B8097F847201A700F4B1B8801339AB20D4B1A800C4B1A88BB6ADA80BB6A00221A63BB6A00221A71BB6A24
S32D00010BA800229A61002318464837BD4680BD00BF55AAFFFF52526141727241619C17002080B582B000AF786078
S32D00010BD00B467B807B68002B08D07B681B78002B04D07B68DB887A889A4201D0092311E07B685B78184602F037
S32D00010BF807FC034603F00103002B14BF01230023DBB2002B01D0032300E0002318460837BD4680BD80B485B04E
S32D00010C2000AF03463960FB71FB79002B01D00B2316E0FB790D4A52F82330FB60FB68002B02D0FB6800221A70E2
S32D00010C483B68002B02D03B6800221A70FB7905493A6841F82320002318461437BD4680BC704700BF981700205E
S32D00010C7080B592B000AFF860B9601346FB71FB6800221A60FB7903F01F03FB71FB7923F00103DAB207F11C01D9
S32D00010C9807F108031846FFF7F9FC034687F8473007F110037B6397F84730002B09D1BA6807F11C0311461846C0
S32D00010CC0FFF7E6FB034687F847303B6B3B6497F84730002B05D13B6C002B02D1062387F84730FB7903F01C0359
S32D00010CE8002B00F0B18097F84730002B12D097F84730042B07D107F11C031846FFF772FA034687F84730FB79E7
S32D00010D1043F00803FB713B6B3B6412E03B6C0B331B7803F01103002B03D0072387F8473007E0FB7903F00403E1
S32D00010D38002B02D0082387F8473097F84730002B40F0A080FB7903F00803002B00F09A800023FB633B6C0E33DD
S32D00010D60FA6BD2B21A70FB6B9BB21B0A9AB23B6C0F33D2B21A70FB6B1A0C3B6C1033D2B21A70FB6B1A0E3B6C1D
S32D00010D881133D2B21A703B6C0B3300221A703B6C1C3300221A703B6C1D3300221A703B6C1E3300221A703B6CC9
S32D00010DB01F3300221A703B6C15331B781B021AB23B6C14331B781BB213431BB29BB21B043A6C1B32127812023D
S32D00010DD811B23A6C1A32127812B20A4312B292B21343BB633B6C1A3300221A703B6C1B3300221A703B6C1433F1
S32D00010E0000221A703B6C153300221A70FB6901221A71BB6B002B39D0FB691B6BFB63FB69B96B1846FEF72FFFBF
S32D00010E28034687F8473097F84730002B2AD1FB69BA6B013ADA60FB69F96B1846FEF729FC034687F847301DE0B6
S32D00010E5097F84730002B19D13B6C0B331B7803F01003002B03D0042387F847300EE0FB7903F00203002B09D061
S32D00010E783B6C0B331B7803F00103002B02D0072387F8473097F84730002B0FD1FB7903F00803002B03D0FB79CA
S32D00010EA043F02003FB71FB691A6BFB68DA61FB683A6C1A6297F84730002B42D1FB68FA799A713B6C15331B78AE
S32D00010EC81B021AB23B6C14331B781BB213431BB29BB21B043A6C1B321278120211B23A6C1A32127812B20A4354
S32D00010EF012B292B21A43FB681A613B6C1F331B781A063B6C1E331B781B0413433A6C1D321278120213433A6C55
S32D00010F181C3212781A43FB68DA60FB6800229A60FB6800229A61FB6800225A62FA69FB681A60FB69DA88FB682F
S32D00010F409A8097F8473018464837BD4680BD80B58AB000AFF860B9607A603B60BB68BB613B6800221A60FB6860
S32D00010F681A68FB689B8819461046FFF729FE0346FB75FB7D002B01D0FB7D7EE1FB689B795BB2002B01DA0223CD
S32D00010F9077E1FB689B7903F00203002B01D107236FE1FB68DA687B681A44FB68DB689A4201D200237B607B68D8
S32D00010FB8002B00F05081FB689B68C3F30803002B40F01381FB689B685B0ADAB2FB681B689B78013BDBB213409C
S32D00010FE0BB75BB7D002B49D1FB689B68002B10D1FB681B697B627B6A002B1FD1FB681B6800211846FEF78DFE1A
S32D000110087862FB687A6A1A6114E0FB685B6A002B07D0FB689B681946F868FEF707FF786208E0FB681A68FB68D5
S32D000110305B6919461046FEF774FE78627B6A002B00F00C817B6A012B08D1FB689B7963F07F03DAB2FB689A711A
S32D00011058022312E17B6AB3F1FF3F08D1FB689B7963F07F03DAB2FB689A71012305E1FB687A6A5A61FB689B79E8
S32D0001108003F04003002B22D0FB681B685878FB6803F12801FB689A69012302F067F80346002B14BF012300234F
S32D000110A8DBB2002B08D0FB689B7963F07F03DAB2FB689A710123E0E0FB689B7923F04003DAB2FB689A71FB6835
S32D000110D01A68FB685B6919461046FEF7E8FB38613B69002B08D1FB689B7963F07F03DAB2FB689A710223C4E06B
S32D000110F8BB7D3A6913443B617B685B0AFB61FB69002B49D0BA7DFB691344FA6812689278934206D9FB681B683D
S32D000111209B781A46BB7DD31AFB61FB681B685878FB69DBB23A69B96902F018F80346002B14BF01230023DBB223
S32D00011148002B08D0FB689B7963F07F03DAB2FB689A71012391E0FB689A693B69D31AFA699A4215D9FB6803F11F
S32D000111702800FB689A693B69D31A5B02BA6913444FF400721946FEF703FAFB689B7923F04003DAB2FB689A718D
S32D00011198FB695B023B6248E0FB689B693A699A4220D0FB689A68FB68DB689A420ED2FB681B685878FB6803F1F8
S32D000111C0280101233A6901F0EDFE0346002B01D0012300E00023002B08D0FB689B7963F07F03DAB2FB689A717F
S32D000111E801234AE0FB683A699A61FB689B68C3F30803C3F500733B623A6A7B689A4201D97B683B62FB689B6877
S32D00011210C3F308032833FA6813443A6AB9691846FEF7B6F9FB689B7943F04003DAB2FB689A71BA693B6A13440C
S32D00011238BB61FB689A683B6A1A44FB689A603B681A683B6A1A443B681A607A683B6AD31A7B60ACE600BFFB685E
S32D000112609A68FB68DB689A4203D9FB689A68FB68DA60FB689B7943F02003DAB2FB689A71002318462837BD4653
S32D0001128880BD80B586B000AF78607B681A687B689B8819461046FFF793FC0346FB75FB7D002B40F0AC807B68C8
S32D000112B09B7903F02003002B00F0A5807B689B7903F04003002B1BD07B681B6858787B6803F128017B689A6946
S32D000112D8012301F047FF0346002B14BF01230023DBB2002B01D001238AE07B689B7923F04003DAB27B689A7120
S32D000113007B681A687B68DB6919461046FEF7C5F90346FB75FB7D002B75D17B681B6A3B613B690B331A783B690C
S32D000113280B3342F02002D2B21A707B68DA683B691C33D2B21A707B68DB689BB21B0A9AB23B691D33D2B21A70EA
S32D000113507B68DB681A0C3B691E33D2B21A707B68DB681A0E3B691F33D2B21A707B681A693B691A33D2B21A7068
S32D000113787B681B699BB21B0A9AB23B691B33D2B21A707B681B691A0C3B691433D2B21A707B681B691B0C9BB2C0
S32D000113A01B0A9AB23B691533D2B21A700023FB603B691633FA68D2B21A70FB689BB21B0A9AB23B691733D2B245
S32D000113C81A70FB681A0C3B691833D2B21A70FB681A0E3B691933D2B21A707B689B7923F02003DAB27B689A71B6
S32D000113F07B681B6801221A717B681B681846FEF7B0F90346FB75FB7D18461837BD4680BD80B584B000AF78604A
S32D000114187868FFF736FF0346FB73FB7B002B02D17B6800221A60FB7B18461037BD4680BD80B590B000AF786099
S32D0001144039607B681A687B689B8819461046FFF7BBFB034687F83F3097F83F30002B02D097F83F3043E27B68E0
S32D000114689B795BB2002B01DA02233CE27B685B6A002B00F0F8803B68B3F1FF3F66D17B685B6AFB62FB6A1A1D53
S32D00011490FA621B687B6102233B637B681B69BB63BB6B002B46D0BB6B3B6100237B633B6B02333B63BB6BFB6006
S32D000114B87B6B01337B637B681B68B96B1846FEF710FAB863BB6B012B08D87B689B7963F07F03DAB27B689A7193
S32D000114E0022304E2BB6BB3F1FF3F08D17B689B7963F07F03DAB27B689A710123F7E1FB680133BA6B9A4200D146
S32D00011508D4E73A6B7B699A4209D8FB6A1A1DFA627A6B1A60FB6A1A1DFA623A691A607B681B68DB69BA6B9A429C
S32D0001153000D2B8E77B685B6A3A6B1A603A6B7B699A4203D8FB6A00221A60CEE1112387F83F30CAE17B68DB6871
S32D000115583A689A4202D97B68DB683B607B683A689A603B68002B00F0BC813B68013B19467868FEF75BFC02461E
S32D000115807B685A617B681A687B685B6919461046FEF78DF9B861BB69002B08D17B689B7963F07F03DAB27B68E6
S32D000115A89A7102239FE13B68013B5B0A7A6812689278013A1340BA691344BB617B689B68C3F30803002B00F0D4
S32D000115D08C817B689B69BA699A4200F086817B689B7903F04003002B22D07B681B6858787B6803F128017B689F
S32D000115F89A69012301F0B6FD0346002B14BF01230023DBB2002B08D07B689B7963F07F03DAB27B689A71012371
S32D0001162065E17B689B7923F04003DAB27B689A717B681B6858787B6803F128010123BA6901F0B0FC0346002B00
S32D0001164814BF01230023DBB2002B08D07B689B7963F07F03DAB27B689A71012343E17B68BA699A613DE17B6839
S32D00011670DB683A689A4208D97B689B7903F00203002B02D17B68DB683B607B689B683B6200237B627B687A6AB1
S32D000116989A603B68002B00F0C1807B681B689B785B02FB613B6A002B1BD03B685A1EFB69B2FBF3F23B6A591E10
S32D000116C0FB69B1FBF3F39A420FD33B6A5A1EFB695B421A407B689A607B689B683A68D31A3B607B685B69BB621E
S32D000116E82BE07B681B69BB62BB6A002B22D17B681B6800211846FEF710FBB862BB6A012B08D17B689B7963F08E
S32D000117107F03DAB27B689A710223E8E0BB6AB3F1FF3F08D17B689B7963F07F03DAB27B689A710123DBE07B68D9
S32D00011738BA6A1A617B68BA6A5A61BB6A002B6DD03A68FB699A4246D97B689B7903F00203002B0CD07B681B6837
S32D00011760B96A1846FEF7DDFAB862BB6A002B09D1FB693B6033E07B681B68B96A1846FEF7B4F8B862BB6AB3F14C
S32D00011788FF3F08D17B689B7963F07F03DAB27B689A710123A7E0BB6A012B05D97B681B68DB69BA6A9A4208D376
S32D000117B07B689B7963F07F03DAB27B689A71022395E07B68BA6A5A617B689A68FB691A447B689A603A68FB69DE
S32D000117D8D31A3B60B4E77B689A683B681A447B689A603B68C3F30803002B17D07B681B68B96A1846FEF757F85B
S32D0001180078627B6A002B08D17B689B7963F07F03DAB27B689A71022369E03B685B0A7A6A13447B627B689B683C
S32D00011828C3F30803002B4BD07B689B697A6A9A4246D07B689B7903F04003002B22D07B681B6858787B6803F176
S32D0001185028017B689A69012301F088FC0346002B14BF01230023DBB2002B08D07B689B7963F07F03DAB27B6868
S32D000118789A71012337E07B689B7923F04003DAB27B689A717B681B6858787B6803F1280101237A6A01F082FB88
S32D000118A00346002B14BF01230023DBB2002B08D07B689B7963F07F03DAB27B689A71012315E07B687A6A9A61DA
S32D000118C87B689A687B68DB689A420AD97B689A687B68DA607B689B7943F02003DAB27B689A7197F83F30184602
S32D000118F04037BD4680BD80B586B000AF03463960FB71FB793B7301237B6107F1100307F10C017A693868FFF7FF
S32D000119181AFB3B697A699A4201D1012301E04FF0FF3318461837BD4680BD80B584B000AF786039600023FB60EC
S32D000119407B681B78002B18D07B681B7839681846FFF7D1FF0346B3F1FF3F0CBF01230023DBB2002B02D04FF0AE
S32D00011968FF3307E07B6801337B60FB680133FB60E2E7FB6818461037BD4680BD80B485B000AF78603960012395
S32D00011990FB600023BB600023BB60BA683B689A4208DAFB687A6802FB03F3FB60BB680133BB60F2E7FB6818462F
S32D000119B81437BD4680BC7047B0B59AB000AF78613961FA600023BB64BB6C7B647B6CB3F1FF3F00F0F5823B6978
S32D000119E05A1C3A611B7887F84F3097F84F30002B00F0E78297F84F30252B0ED097F84F3079691846FFF777FFAE
S32D00011A0878647B6CB3F1FF3F00F0CD8201237B64C9E2002387F867300023BB653B695A1C3A611B7887F84F305B
S32D00011A3097F84F30302B09D1012387F867303B695A1C3A611B7887F84F300CE097F84F302D2B08D1022387F8F5
S32D00011A5867303B695A1C3A611B7887F84F3097F84F302E2B05D13B695A1C3A611B7887F84F3097F84F302F2B97
S32D00011A8015D997F84F30392B11D8BA6D13469B0013445B001A4697F84F301344303BBB653B695A1C3A611B7889
S32D00011AA887F84F30E5E797F84F306C2B03D097F84F304C2B0BD197F8673043F0040387F867303B695A1C3A6141
S32D00011AD01B7887F84F3097F84F30002B00F0738297F84F3087F84E3097F84E30602B08D997F84E307A2B04D826
S32D00011AF897F84E30203B87F84E3097F84E30423B162B00F2788101A252F823F0DF1D0100C91D0100EF1D0100B3
S32D00011B20FF1D0100191C0100FF1D0100FF1D0100FF1D0100FF1D0100FF1D0100FF1D0100FF1D0100FF1D01005B
S32D00011B48E71D0100FF1D0100FF1D0100FF1D0100711B0100FF1D0100EF1D0100FF1D0100FF1D0100F71D01000C
S32D00011B70FB681A1DFA601B68FB620023FB65FA6AFB6D13441B78002B03D0FB6D0133FB65F5E70023BB6497F892
S32D00011B98673003F00203002B07D1FB6D5A1CFA65BA6D9A4201D9012300E00023002B09D079692020FFF79BFE96
S32D00011BC078647B6CBA6C1344BB64E4E77969F86AFFF7AFFE78647B6CBA6C1344BB64FB6D5A1CFA65BA6D9A4246
S32D00011BE88CBF01230023DBB2002B09D079692020FFF77DFE78647B6CBA6C1344BB64EAE77B6CB3F1FF3F00F02F
S32D00011C10D081BB6C7B64CCE1FB68073323F0070303F10802FA60D3E90023C7E90E23D7E90E23C7E90C230023DC
S32D00011C387B654FF000024FF00003D7E90E010EF0E1FD0346002B18D079692D20FFF74FFE78647B6CBA6C134461
S32D00011C60BB64BC6BFB6B83F00045C7E90E453B6B3B607B6B83F000437B60D7E90023C7E90C23D7E90C010EF0A9
S32D00011C88FFFD0346002B0ED04FF00002AB4BD7E90C010EF06FFC02460B46C7E90C237B6D01337B65E9E77B6D46
S32D00011CB0013BFB65FB6DB3F1FF3F35D0FB6D19460A20FFF75FFE034618460EF0C3FA02460B46D7E90E010EF00E
S32D00011CD851FC02460B46104619460EF0D1FD0346BB62BA6A964B83FB02139910D317C91A0B469B000B445B006C
S32D00011D00D31ABB62BB6A3033BB62BB6ADBB279691846FFF7F0FD78647B6CBA6C1344BB64FB6D013BFB65C5E721
S32D00011D2879692E20FFF7E3FD78647B6CBA6C1344BB64BB6D002B01D10323BB6501233B663A6EBB6D9A4233D840
S32D00011D503B6E19460A20FFF715FE034618460EF079FAD7E90E230EF0DFFA02460B46104619460EF089FD03462E
S32D00011D78BB62BA6A724B83FB02139910D317C91A0B469B000B445B00D31ABB62BB6A3033BB62BB6ADBB279695C
S32D00011DA01846FFF7A8FD78647B6CBA6C1344BB643B6E01333B66C7E77B6CB3F1FF3F00F0FA80BB6C7B64F6E081
S32D00011DC8FB681A1DFA601B68DBB279691846FFF78EFD7864ECE0022387F8663013E0082387F866300FE00A23F6
S32D00011DF087F866300BE0102387F8663007E097F84F3079691846FFF776FD7864D4E097F8673003F00403002B03
S32D00011E1804D0FB681A1DFA601B680CE097F84E30442B04D1FB681A1DFA601B6803E0FB681A1DFA601B683B65A2
S32D00011E4097F84E30442B0BD13B6D002B08DA3B6D5B423B6597F8673043F0080387F8673000233B6697F866202E
S32D00011E683B6DB3FBF2F101FB02F29B1A87F84E3097F866303A6DB2FBF3F33B6597F84E30092B0BD997F84F303E
S32D00011E90782B01D1272200E0072297F84E30134487F84E303B6E5A1C3A6697F84E203032D2B2603307F10801C5
S32D00011EB80B4403F8502C3B6D002B03D03B6E0F2B00D8CBE797F8673003F00803002B09D03B6E5A1C3A666033A8
S32D00011EE007F1080213442D2203F8502C3B6EFB6597F8673003F00103002B01D0302300E0202387F84E300023FC
S32D00011F08BB6497F8673003F00203002B07D1FB6D5A1CFA65BA6D9A4201D9012300E00023002B0FD097F84E3012
S32D00011F3079691846FFF7DFFC78647B6CBA6C1344BB64E2E700002440676666663B6E013B3B6607F118023B6E0B
S32D00011F5813441B7879691846FFF7C9FC78647B6CBA6C1344BB643B6E002B00D0EAE7FB6D5A1CFA65BA6D9A4261
S32D00011F808CBF01230023DBB2002B09D079692020FFF7B1FC78647B6CBA6C1344BB64EAE77B6CB3F1FF3F07D07A
S32D00011FA8BB6C7B6404E000BF02E000BF00E000BFBA6C7B6C1344BB6408E500BF00E000BF7B6CB3F1FF3F01D1B8
S32D00011FD07B6C00E0BB6C18466837BD46B0BD00BF80B588B000AF7860396080233B610F23FB604FF0FF337B6122
S32D00011FF80223FB61FB69B3F5807F23D80123BB61BB69102B1AD8FB69BA6902FB03F33A6803FB02F27B68D31AC4
S32D00012020BB60BB68002B09DBBB687A699A4205D9BB687B61FB693B61BB69FB60BB690133BB61E1E7FB695B000B
S32D00012048FB61D7E71D4BDB6A1C4A23F00803D3621A4BDB6A23F47F2323F47F63BB613B695B081B029AB2FB689E
S32D00012070013B1B01DBB21A43BB691343114A43F46023D3620F4B5B6A03F00803002B0CBF01230023DBB2002B29
S32D0001209803D00A2001F0DCFAF0E7084BDB6A074A43F00803D362054B1B6B044A43F48013136300BF2037BD46A5
S32D000120C080BD00BF00100B4080B582B000AF786039607B6800221A60414B424ADA62404BDB6A03F08073002B5F
S32D000120E814BF01230023DBB2002B00D0F3E73A4B0022C3F8C020384B4FF481325A60364B28229A62344B4FF053
S32D0001211001125A643B689B6833491846FFF760FF2F4B5B6A03F00303002B14BF01230023DBB2002B00D0F3E71B
S32D000121382C4B40F243421A602A4B40F243425A60284B4FF488629A60264B40F24342DA60244B40F243421A614D
S32D00012160224B40F243425A61214B03F580531B6B1F4A43F4003302F580521363184B4FF6FF721A63164B1B4A46
S32D000121885A63154BDB6A144A43F00063D362124BDB6A03F00063002B14BF01230023DBB2002B00D0F3E70C4BA7
S32D000121B05B6A03F48033002B14BF01230023DBB2002B02D07B6801221A60054B1B6B044A43F0800313630023CF
S32D000121D818460837BD4680BD00100B400080000160CC050000D0044000700440B3007F0080B400AF064B5A6AFC
S32D0001220040F207331340002B14BF01230023DBB21846BD4680BC704700100B4080B485B000AF7860074B1B6BA7
S32D000122287A681340FB60FB68002B00D1F6E7FB6818461437BD4680BC704700BF00100B4080B584B000AF7860AF
S32D000122507B681B7803F03F03764A52F82330FB60FB68002B05D17B681B78002B01D00123DCE0714B1B6B704A4A
S32D0001227843F0800313636E4B5B6A03F00103002B14BF01230023DBB2002B00D0F3E7684A7B685B689360FB6841
S32D000122A023F44003FB607B685B789B0503F44003FA681343FB607B685B78022B03D1FB6843F40013FB607B6815
S32D000122C85B78042B16D1FB6803F44033B3F5003F08D1FB6823F44033FB60FB6843F44033FB6007E0FB6823F460
S32D000122F04033FB60FB6843F40033FB604E4B5B684D4A9BB253607B68DB68002B2AD0FB6803F44033B3F5403F97
S32D0001231803D0FB6843F40013FB607B681B7A002B03D0FB6843F01003FB607B68DB68012B03D9FB6843F020035A
S32D00012340FB607B68DB68B3F1FF3F0BD03A4B5A687B68DB681B04384913434B60FB6843F00203FB60344B00228B
S32D000123681A60334AFB68D3603248FFF753FF0346012B14BF01230023DBB2002B09D02C4B1B6B2B4A43F470239B
S32D0001239043F001031363012348E0274B1B6B03F08003002B14BF01230023DBB2002B07D0214B1B6B204A43F054
S32D000123B801131363012335E01D4B1B6B03F48033002B14BF01230023DBB2002B08D0184B1B6B174A43F0011335
S32D000123E013634FF0FF3321E0FB6803F44033002B15D0114B1A697B681A61FB6803F44033B3F5803F0BD10C4B65
S32D000124085A697B685A610A4B9A697B689A61084BDA697B68DA61064B1B6B054A43F001031363002318461037BF
S32D00012430BD4680BD388E020000100B4001000E0080B592B000AF7860396000237B643B68BB63994B7B637B6B09
S32D00012458002B02D140F601235FE3964B3B633B6B002B02D140F60B2357E33B6B1B68FB62FB6A002B02D140F6DB
S32D000124800B234EE37B6841F20932934200F23F837B68B3F5985F08D87B68032B00F01A837B68092B00F0098361
S32D000124A831E37B68A3F59853013B082B00F22B8301A252F823F000BFE5240100D12701002D2A0100E727010053
S32D000124D0252801004B29010093290100D5280100EF2801007649786BFFF7EEFD78647B6C002B40F010830023F0
S32D000124F887F84330002387F82B30002387F82A30002387F82930002387F84230002387F8283000233B720023CE
S32D000125207B720023FB6000233B7400237B6107F108031846FFF788FE0346002B14BF01230023DBB2002B02D05B
S32D0001254801237B64E8E240F24C4001F081F808233B7200237B724FF4D573FB6000233B7400237B6107F10803CD
S32D000125701846FFF769FEF863FB6B002B09D1BA69FB689A4202D001237B64C9E2012387F84230012387F82830C9
S32D0001259897F82830002B00F0A58037233B7200237B720023FB6000233B7400237B6107F108031846FFF744FEEE
S32D000125C0F863FB6B002B02D001237B64A8E269233B7200237B720023FB6000233B7400237B6107F108031846A8
S32D000125E8FFF72EFE0346002B14BF01230023DBB2002B02D001237B648EE2BB6903F44013002B6FD00023FB63BE
S32D000126100A2001F021F8FB6B0133FB6337233B7200237B720023FB6000233B7400237B6107F108031846FFF7B2
S32D0001263807FE0346002B14BF01230023DBB2002B02D001237B6428E069233B7200237B7297F84230002B02D004
S32D00012660184BFB6002E04FF44013FB6000233B7400237B6107F108031846FFF7E5FD0346002B14BF0123002322
S32D00012688DBB2002B02D001237B6406E0BB69002B03DBFB6B632B00D8B6E77B6C002B40F03882FB6B632B0BD946
S32D000126B0002387F8423019E0B8170020BC1900202C8E020000003040012387F8433097F84230002B0AD000239F
S32D000126D887F84230BB6903F08043002B02D0012387F8423097F82A30002B02D07B6B07221A6097F82930002B74
S32D0001270002D07B6B08221A6097F82B30002B02D07B6B04221A6097F84330002B09D07B6B02221A6097F8423056
S32D00012728002B02D07B6B03221A6097F82B30002B0DD097F84330002B09D07B6B05221A6097F84230002B02D083
S32D000127507B6B06221A60924B00221A60904B00225A608F4B00229A608D4B0022DA608C4B00221A618A4B00220D
S32D000127785A61FB6A9A68FB6A5B6819461046FFF72BFC854B40F243421A60834B40F243425A60814B4FF48862DD
S32D000127A09A607F4B40F24342DA607D4B40F243421A617B4B40F243425A617A4B03F580531B6B784A43F40033E1
S32D000127C802F580521363A7E1B86BFFF739FDF863FB6B002B00F09F8102237B649BE1BB6B002B02D10C237B641E
S32D000127F096E16D4BDB6A1B0A5B0003F4FF73FB63694BDB6A1B0903F00F035A1CFB6B02FB03F3FB63FB6A9A6849
S32D00012818FB6BB2FBF3F2BB6B1A607DE1BB6B002B02D10C237B6477E1BB6B1B68002B02D10C237B6470E1FFF715
S32D00012840DBFC0346002B0CBF01230023DBB2002B3CD0534B00221A60514B00225A60504B00229A604E4B002224
S32D00012868DA604D4B00221A614B4B00225A61FB6A9A68BB6B1B6819461046FFF7ADFB464B40F243421A60444BAB
S32D0001289040F243425A60424B4FF488629A60404B40F24342DA603E4B40F243421A613C4B40F243425A613B4B3E
S32D000128B803F580531B6B394A43F4003302F58052136329E140F60A237B6425E1BB6B002B02D10C237B641FE1F0
S32D000128E0314B5B68C3F30C02BB6B1A6018E1BB6B002B02D10C237B6412E1FFF77DFC0346002B0CBF0123002313
S32D00012908DBB2002B19D0BB6B1B68B3F5805F02D30C237B6400E1224B5B68214A23F4FF5323F01F0353601E4BB6
S32D000129305A68BB6B1B68C3F30C031B4913434B60EEE040F60A237B64EAE0BB6B002B02D10C237B64E4E0144BB4
