S01100002E2E2F50726F746575732E73313966
S32D0000C000000000205DC2000011C3000017C300001DC3000023C3000029C3000000000000000000000000000073
S32D0000C028000000002FC3000035C30000000000003BC3000041C3000095EC0000A1EC0000ADEC0000B9EC0000B2
S32D0000C050C5EC0000D1EC0000DDEC0000E9EC0000F5EC000001ED00000DED000019ED000025ED000031ED0000B7
S32D0000C0783DED000049ED000055ED000061ED00006DED000079ED000085ED000091ED00009DED0000A9ED0000DA
S32D0000C0A0B5ED0000C1ED0000CDED0000D9ED0000E5ED0000F1ED0000FDED000009EE000015EE000021EE0000FF
S32D0000C0C82DEE000039EE000045EE000051EE00005DEE000069EE000075EE000081EE00008DEE000099EE000020
S32D0000C0F0A5EE0000396A0100B1EE0000BDEE0000C9EE0000D5EE0000E1EE0000EDEE0000F9EE000005EF0000A2
S32D0000C11811EF00001DEF000029EF000035EF000041EF00004DEF000059EF000065EF000071EF00007DEF0000DD
S32D0000C14089EF000095EF0000A1EF0000ADEF0000C9410100B9EF0000C5EF0000D1EF0000DDEF0000E9EF0000DE
S32D0000C168F5EF000001F000000DF0000019F0000025F0000031F000003DF0000049F0000055F0000061F000009C
S32D0000C1906DF0000079F0000085F00000C13D0100893C0100253D010019EA0000613E010091F000009DF000006D
S32D0000C1B8A9F0000048B5020000000020D016000048B502000000FF1F00000000D0160020680700000000FF1F0B
S32D0000C1E00000000080B489B000AFF860B9607A60BB68FB61FB68BB6100237B617A697B689A420BD2BA69131DFB
S32D0000C208BB61FB69191DF96112681A607B6904337B61EFE700BF2437BD4680BC704780B485B000AF786039609E
S32D0000C2307B68FB600023BB60BA683B689A4208D2FB681A1DFA6000221A60BB680433BB60F2E700BF1437BD46FE
S32D0000C25880BC704780B586B000AF72B6234B4CF220521A80214B4DF628121A80204B4FF4E9721A801F4B7B615F
S32D0000C2807B691F4A934214D27B691A1D7A611B683B617B691A1D7A611B68FB607B691A1D7A611B68BB60BA68E9
S32D0000C2A8F9683869FFF79AFFE6E77B69134A93420ED27B691A1D7A611B68FB607B691A1D7A611B68BB60B9688B
S32D0000C2D0F868FFF7A8FFECE70B4B7B600B4A7B681A6016F075F962B602F05EFC01F0F4FCFEE700BF0E200540BD
S32D0000C2F800200540BCC10000D4C10000E4C1000008ED00E000C0000080B400AFFEE780B400AFFEE780B400AFF4
S32D0000C320FEE780B400AFFEE780B400AFFEE780B400AFFEE780B400AFFEE780B400AFFEE780B400AFFEE780B426
S32D0000C34800AFFEE7FFFFFFFFFFFFFFFFFFFFFFFFFFFFFFFFFFFFFFFFFFFFFFFFFFFFFFFFFFFFFFFFFFFFFFFF57
S32D0000C370FFFFFFFFFFFFFFFFFFFFFFFFFFFFFFFFFFFFFFFFFFFFFFFFFFFFFFFFFFFFFFFFFFFFFFFFFFFFFFFFC7
S32D0000C398FFFFFFFFFFFFFFFFFFFFFFFFFFFFFFFFFFFFFFFFFFFFFFFFFFFFFFFFFFFFFFFFFFFFFFFFFFFFFFFF9F
S32D0000C3C0FFFFFFFFFFFFFFFFFFFFFFFFFFFFFFFFFFFFFFFFFFFFFFFFFFFFFFFFFFFFFFFFFFFFFFFFFFFFFFFF77
S32D0000C3E8FFFFFFFFFFFFFFFFFFFFFFFFFFFFFFFFFFFFFFFFFFFFFFFFFFFFFFFFFFFFFFFFFFFFFFFFFEFFFFFF50
S32D0000C44010B5054C237833B9044B13B10448AFF300800123237010BDD016002000000000C8B2020008B5034B9F
S32D0000C4681BB103490348AFF3008008BD00000000D4160020C8B2020080B483B000AFC7E900013A68796821F07B
S32D0000C4900043104619460C37BD4680BC704790B587B000AF786039603B68DB0FFB75FB7D002B02D03B685B42FF
S32D0000C4B800E03B683B610A21386901F0B9FFF860FA7DFB68D41807F1080318460BF036FC07F108032D2221465D
S32D0000C4E078680BF009FE07F1080318460BF02CFCFB7D194678680BF03FFE03463A69F968184601F0D7FF00BFA8
S32D0000C50878681C37BD4690BD80B586B002AF786039603A23FB60386813F0EAFF02460B467868CDE90023044B10
S32D0000C5303A22044902F014F878681037BD4680BDC08D02005954020080B588B002AFF860C7E900234FF4A4732E
S32D0000C5587B61F868D7E90023CDE90023044B4FF4A472044901F0F8FFF8681837BD4680BDC08D020059540200F3
S32D0000C58080B588B000AFF860C7E900230B46FB72FB684FF000020021184602F08DFDFB6808330021184607F0D5
S32D0000C5A8F9F9D7E9000114F0F3FA0246F97A07F11403184602F07CFDFB681A4607F11403186810609B88938036
S32D0000C5D097F8302007F11C031146184607F0DEF9FB683A7F1A72F968D7E90A23C1E90C23F86800F005F8FB6845
S32D0000C5F818462037BD4680BD80B582B000AF786079684FF000024FF00003C1E9042379684FF000024FF0000399
S32D0000C620C1E9082379684FF000024FF00003C1E906237B6800229A627B680833184607F06DFC00BF0837BD4602
S32D0000C64880BD90B585B000AFF860C7E90023FC68D7E9000114F09CFA03461946204602F0A7FDF86800F0BCF8CC
S32D0000C6700246FB689A6200BF1437BD4690BD00002DE9B0438CB000AFF860C7E900234AA3D3E90023C7E90A23D3
S32D0000C69849A3D3E90023C7E9082349A3D3E90023C7E90623D7E91201FFF7E6FE80468946FB68D3E90C45F86818
S32D0000C6C000F092F80246FB689B6AD31A184613F001FF02460B462046294613F065FF02460B4610461946D7E9F1
S32D0000C6E8002314F087F802460B464046494613F09FFD02460B46C7E90423FB68D3E90401D7E9042313F096FD20
S32D0000C71002460B46F968C1E90423FB68D3E9084525A3D3E90023D7E9040113F03DFF02460B4690469946FB6868
S32D0000C738D3E9040120A3D3E9002313F031FF02460B464046494613F075FD02460B4690469946FB68D3E9062384
S32D0000C760D7E9040113F068FD02460B461046194615A3D3E9002313F017FF02460B464046494613F05BFD02462F
S32D0000C7880B462046294613F055FD02460B46F968C1E90823F968D7E90423C1E90623FB68D3E90823104619461F
S32D0000C7B03037BD46BDE8B083CDCCCCCCCCCCEC3F0AD7A3703D0AB73F333333333333D33F80B582B000AF7860C2
S32D0000C7D87B68184602F0AAFC00BF0837BD4680BD80B582B000AF78607B680833184607F07FFB0346184608375B
S32D0000C800BD4680BD90B589B000AFF8607A603B600B46FB72FB680021184607F083FEFA7A07F114031146184680
S32D0000C82807F07CFEFB681C4607F1140393E8070084E80700FB687968184607F08BFEFB683968184607F0A3FE8C
S32D0000C850F9684FF000024FF00003C1E90423FB6818462437BD4690BD90B585B000AFF860C7E90023FC68D7E921
S32D0000C878000114F08DF903461946204607F0A4FEF968D7E90023C1E9042300BF1437BD4690BD000000000000F1
S32D0000C8A0B0B588B000AFF860B960C7E90023B86813F010FEFB68D3E9042313F0BDFC02460B4610461946D7E999
S32D0000C8C8002313F097FF02460B46C7E9042307F017F8C7E90601B86813F0F8FDFB68D3E9042313F0A5FC02460F
S32D0000C8F00B461046194614F007F90346002BB8BF5B42012B25DDFB68D3E9044506F0FCFFD7E9062313F090FC89
S32D0000C91802460B4610461946D7E9042313F040FE02460B462046294613F084FC02460B46F868FFF795FF06F011
S32D0000C940E3FFC7E9060106A1D1E9000106F0B6FFC5E700BF2037BD46B0BD00BFAFF300809A9999999999A93F91
S32D0000C96880B500AF044B1B68044A194604480BF0EBF800BF80BD00BF90170020C48D0200081B002090B589B07E
S32D0000C99000AF786078680BF059FD03461946104808F058FC0F4B1C6807F108030E4A7968184601F00CFE07F10A
S32D0000C9B8080318460BF046FD03461A46214609480BF0C2F807F1080318460BF0BBFB00BF2437BD4690BD00BF59
S32D0000C9E0801A002090170020C48D0200081B0020B0B592B002AFC7E90201C7E9002380A3D3E90023C7E90C2353
S32D0000CA0801231C464FF000024FF00003D7E9020114F056F80346002B01D100231C46E3B21C4601231D464FF05A
S32D0000CA3000024FF00003D7E9020114F027F80346002B01D100231D46EBB2E31AFB6201231C464FF000024FF0E5
S32D0000CA580003D7E9000114F033F80346002B01D100231C46E3B21C4601231D464FF000024FF00003D7E9000130
S32D0000CA8014F004F80346002B01D100231D46EBB2E31ABB62D7E90201FFF7F2FC04460D46D7E90001FFF7ECFC22
S32D0000CAA802460B462046294613F0C4FB02460B461046194652A3D3E9002313F071FD02460B46C7E90823D7E969
S32D0000CAD01423D7E9020113F091FE02460B46C7E90623D7E91423D7E9000113F087FE02460B46C7E9042306F094
S32D0000CAF807FFC7E90E014448FFF77EFD4348FFF77BFD3DA1D1E9000106F0D4FE3F48FFF767FE04463C48FFF74E
S32D0000CB2063FE03462344184613F0D4FC02460B4601210C46D7E9080113F0C6FF0346002B01D100231C46E3B2A7
S32D0000CB48002B4FD0F86A13F0C1FC04460D4606F0D7FED7E90E2313F06BFB02460B4610461946D7E90623CDE9A4
S32D0000CB70002302460B462648FFF782FD02460B462046294613F010FD02460B462048FFF75CFDB86A13F09EFC6B
S32D0000CB9804460D4606F0B4FED7E90E2313F048FB02460B4610461946D7E90423CDE9002302460B461548FFF7F9
S32D0000CBC05FFD02460B462046294613F0EDFC02460B461048FFF739FD06F096FEC7E90E0107A1D1E9000106F0D2
S32D0000CBE869FE93E70848FFF7EFFD0848FFF7ECFD00BF4037BD46B0BD333333333333C33FABAAAAAAAA2A444002
S32D0000CC10F01600202817002080B586B002AFC7E90201C7E90023D7E90023D7E9020113F0E5FD02460B46CDE9F5
S32D0000CC380023D7E90223D7E90201FFF7D5FE04A1D1E9000106F036FE00BF1037BD4680BD1F85EB51B81ED53FA0
S32D0000CC60B0B588B002AFF860C7E90023F86813F031FC4FF000021A4B13F0C0FD02460B461046194614A3D3E976
S32D0000CC88002313F08DFC02460B46104619464FF00002124B13F084FC02460B46C7E904233C697B6983F00045AF
S32D0000CCB0D7E90023D7E9040113F0A0FD02460B46CDE90023D7E9042320462946FFF790FE00BF1837BD46B0BDDE
S32D0000CCD8D4F19881CAC63640008076400000E83F80B590B000AFC7E900012BA3D3E90023D7E9000113F0C6FEE3
S32D0000CD000346002B1ED007F1200318460BF01AF807F1200207F10803234918460BF0E2FB07F108031846FFF707
S32D0000CD2831FE07F1080318460BF00CFA07F1200318460BF005F84FF47F0329E04FF000024FF08043D7E9000109
S32D0000CD5013F09CFE0346002B1DD007F13C0318460AF0F0FF07F13C0207F124030F4918460BF0B8FB07F1240361
S32D0000CD781846FFF707FE07F1240318460BF0E2F907F13C0318460AF0DBFFFF2300E0002318464037BD4680BD3E
S32D0000CDA09A9999999999D93FC88D0200DC8D02002DE9B043ACB002AF534B07F140041D460FCD0FC40FCD0FC443
S32D0000CDC80FCD0FC495E80F0084E80F004D4B3C461D460FCD0FC40FCD0FC40FCD0FC495E80F0084E80F0042A311
S32D0000CDF0D3E90023C7E928230023C7F89C30D7F89C30072B6FDCD7F89C30DB00A8333B44683BD3E90045D7F832
S32D0000CE189C30DB00A8333B44A83BD3E90089D7F89C30DB00A8333B44683BD3E9002310461946FFF721FB024662
S32D0000CE400B46C7E92023D7F89C30DB00A8333B44A83BD3E9002310461946FFF711FB02460B46C7E9222307F1B1
S32D0000CE68880207F180031146184601F0BFFB0346D3E9000120A3D3E9002313F091FB02460B46CDE90023424606
S32D0000CE904B4620462946FFF7ABFD1D4807F060F80346184613F028FB02460B46C7E92423D7E92401FFF718FF6D
S32D0000CEB8D7E9240112F08EFED7E92823D7E9240113F0E0FD0346002B03D0D7E92423C7E92823D7F89C300133F1
S32D0000CEE0C7F89C308BE7D7E9282310461946A837BD46BDE8B08300BF6666666666660A409A9999999999B93FB1
S32D0000CF08F08D0200308E0200EC1600200000000090B58BB000AFC7E90201C7E9002346480AF002FC03460122F3
S32D0000CF3014464FF00001184614F02AF90346002B01D100231C46E3B2002B00D0EBE73C480AF0D2FB0346184695
S32D0000CF5813F0CEFA02460B46D7E9020113F068F902460B46C7E9082333480AF0CFFB0346184613F0BDFA0246C4
S32D0000CF800B46D7E9000113F057F902460B46C7E90623D7E90823D7E9060113F02FFC02460B461046194612F07C
S32D0000CFA87FFC23A3D3E9002313F0FAFA02460B46C7E904234FF000024FF00003D7E9080113F060FD0346002BB4
S32D0000CFD00ED04FF000021B4BD7E9040113F02EF902460B461046194613F08EFD03461EE04FF000024FF0000319
S32D0000CFF8D7E9040113F05AFD0346002B05D0D7E9040113F07DFD03460DE04FF000020C4BD7E9040113F00EF9C4
S32D0000D02002460B461046194613F06EFD034618462C37BD4690BD00BFE8C35CB0DDA54C40E81A00200080664000
S32D0000D048008076400000000080B582B000AF0346FB71FB79012B03D14FF00002144B02E04FF00002134B1448C8
S32D0000D070FFF7EBFAFB79002B03D14FF000020E4B02E04FF000020D4B0E48FFF7DEFA08A1D1E9000106F012FCA3
S32D0000D0980948FFF799FB0948FFF796FB00BF0837BD4680BDAFF30080EC51B81E85EBB13F00003440000034C07C
S32D0000D0C0F01600202817002080B500AF4FF000020D4B0E48FFF7B9FA4FF000020A4B0C48FFF7B3FA06A1D1E953
S32D0000D0E8000106F0E7FB0748FFF76EFB0648FFF76BFB00BF80BD00BFEC51B81E85EBC13F00003440F016002011
S32D0000D110281700200000000080B500AF4FF000020D4B0E48FFF791FA4FF000020A4B0C48FFF78BFA06A1D1E978
S32D0000D138000106F0BFFB0748FFF746FB0648FFF743FB00BF80BD00BFEC51B81E85EBC13F000034C0F0160020B8
S32D0000D1602817002080B483B000AF78607B68002B02DB7B68B42B07DD7B6813F1B30F05DA7B6813F5B47F01DB41
S32D0000D188012300E0002318460C37BD4680BC704780B586B000AF786039603A687B68D31A3B613B69002BB8BFDC
S32D0000D1B05B42144A82FB03121A441112DA178A1A4FF4B47101FB02F29B1AFB60FB68B42B03DDFB68C3F5B473E2
S32D0000D1D800E0FB687B613869FFF7C0FF0346012B0CBF01230023DBB2002B02D07B695B427B617B6918461837B5
S32D0000D200BD4680BDB7600BB690B58FB000AF786041480AF08DFA04467B68023B184613F0C5FD03461946204638
S32D0000D22813F0B2FF0346002B10D139480AF07CFA04467B680233184613F0B4FD03461946204613F0BFFF034652
S32D0000D250002B01D0012300E00023002B30D0786813F0A4FD04462C480AF062FA03461946204613F0E5FC03468F
S32D0000D278184613F0B1FF03461846FFF76FFF03461846FFF7E1FE20A1D1E9000106F012FB1F480AF049FA034684
S32D0000D2A0012214464FF00001184613F071FF0346002B01D100231C46E3B2002BA8D0EBE7FFF752FB14480AF064
S32D0000D2C833FA024607F1200311461846FFF71CF907F1080307F120020E49184601F09DF907F108031846FFF738
S32D0000D2F04DFB07F1080318460AF028FF07F1200318460AF023FF00BF3C37BD4690BD00BF1F85EB51B81ED53FA6
S32D0000D318E81A0020708E0200B0B590B000AFC7E902011346FB7158480AF0F0F90346184613F0DEF804460D4659
S32D0000D3404FF00002534BD7E9020112F075FF02460B462046294613F099FB0346002B18D14B480AF0D7F903469F
S32D0000D368184613F0C5F804460D464FF00002474BD7E9020112F05EFF02460B462046294613F09EFB0346002B69
S32D0000D39001D0012300E00023002B4CD0FB79002B0FD03B480AF0B6F90346184613F0A4F802460B46D7E90201E4
S32D0000D3B813F068FB0346002B15D1FB7983F00103DBB2002B11D030480AF0A0F90346184613F08EF802460B462F
S32D0000D3E0D7E9020113F070FB0346002B01D0012300E00023002B02D0FFF766FE01E0FFF78BFE21A1D1E900014E
S32D0000D40806F058FA20480AF08FF90346012214464FF00001184613F0B7FE0346002B01D100231C46E3B2002B1D
S32D0000D4303FF47DAFEAE7FFF797FA15480AF06AF9024607F1280311461846FFF761F807F1100307F12802104968
S32D0000D458184601F0E2F807F110031846FFF792FA07F1100318460AF06DFE07F1280318460AF068FE00BF4037AD
S32D0000D480BD46B0BDAFF300801F85EB51B81ED53FE81A00200000D03F888E020000000000B0B590B000AFC7E9D5
S32D0000D4A802011346FB7158480AF022F90346184613F01EF804460D464FF00002534BD7E9020112F0B5FE0246DD
S32D0000D4D00B462046294613F0D9FA0346002B18D14B480AF009F90346184613F005F804460D464FF00002474B2F
S32D0000D4F8D7E9020112F09EFE02460B462046294613F0DEFA0346002B01D0012300E00023002B4CD0FB79002B0A
S32D0000D5200FD03B480AF0E8F80346184612F0E4FF02460B46D7E9020113F0A8FA0346002B15D1FB7983F00103CF
S32D0000D548DBB2002B11D030480AF0D2F80346184612F0CEFF02460B46D7E9020113F0B0FA0346002B01D00123F8
S32D0000D57000E00023002B02D0FFF7A6FD01E0FFF7CBFD21A1D1E9000106F098F920480AF0CFF803460122144662
S32D0000D5984FF00001184613F0F7FD0346002B01D100231C46E3B2002B3FF47DAFEAE7FFF7D7F915480AF09CF864
S32D0000D5C0024607F1280311461846FEF7A1FF07F1100307F128021049184601F022F807F110031846FFF7D2F96F
S32D0000D5E807F1100318460AF0ADFD07F1280318460AF0A8FD00BF4037BD46B0BDAFF300801F85EB51B81ED53F56
S32D0000D610E81A00200000D03F988E020080B586B000AFF860B9607A603B607A68FB68D31A7B613A68BB68D31AD3
S32D0000D6383B617B6903FB03F23B6903FB03F31344184601F002F802460B46104619461837BD4680BD000000003C
S32D0000D6602DE9B043B0B000AFF860C7E90023FFF77BF907F15803F9681846FEF710FF07F1400307F158026C4997
S32D0000D688184600F0CAFF07F1280307F14001694A184600F0EEFF68480AF046F8024607F1700311461846FEF7CE
S32D0000D6B02FFF07F1100307F1700207F12801184600F0FCFF07F110031846FFF75FF907F1100318460AF03AFDEE
S32D0000D6D807F1700318460AF035FD07F1280318460AF030FD07F1400318460AF02BFD07F1580318460AF026FDFE
S32D0000D7004FF000024F4BC7E92E234D480AF010F80346012214464FF00001184613F038FD0346002B01D1002383
S32D0000D7281C46E3B2002B00D0EBE73FA1D1E9000106F0C0F8404809F0F7FF0346184613F04BFD0346F968184655
S32D0000D750FFF722FD0346002BB8BF5B420A2BCCBF01230023DBB2002B57D0354809F0E0FF0346184613F034FDF8
S32D0000D7780346F9681846FFF70BFD0346184612F0A5FE80468946D7E92E454FF000022B4B2046294612F04EFD90
S32D0000D7A002460B46C7E92E2322462B464046494613F024F802460B461046194613F0A4F90146D7E9002308464E
S32D0000D7C8FFF74AFA18A1D1E9000106F073F81A4809F0AAFF024607F1A00311461846FEF793FE07F1880307F187
S32D0000D7F0A0021549184600F014FF07F188031846FFF7C4F807F1880318460AF09FFC07F1A00318460AF09AFC18
S32D0000D81890E7F868FFF7F4FC00BFC037BD46BDE8B08300BFAFF300801F85EB51B81ED53FA88E0200B48E02006D
S32D0000D840E81A00200000F03FBC8E020000000000F0B5E9B000AFC7E90201C7E90023FFF783F807F1B801D7E9C8
S32D0000D86802230846FEF76CFE07F5D073A3F5807307F1B802AA49184600F0CFFE07F5D073A3F58C7307F1A001C7
S32D0000D890A64A184600F0F1FE07F1D001D7E900230846FEF751FE07F5D073A3F5987307F1D00207F18801184674
S32D0000D8B800F000FF07F5D073A3F5A47307F17001994A184600F0D5FE984809F011FF024607F1E803114618462F
S32D0000D8E0FEF716FE07F5D073A3F5B07307F1E80207F15801184600F0E1FE07F5D073A3F5BC7307F14001894AA5
S32D0000D908184600F0B6FE894809F000FF024607F5807311461846FEF7F7FD07F5D073A3F5C87307F5807207F159
S32D0000D9302801184600F0C2FE07F110031846FFF725F807F1100318460AF000FC07F5807318460AF0FBFB07F182
S32D0000D958280318460AF0F6FB07F1400318460AF0F1FB07F1E80318460AF0ECFB07F1580318460AF0E7FB07F107
S32D0000D980700318460AF0E2FB07F1D00318460AF0DDFB07F1880318460AF0D8FB07F1A00318460AF0D3FB07F16F
S32D0000D9A8B80318460AF0CEFB97F8C031184612F08DFD59A3D3E9002312F0F2FD02460B464FF000005A4912F0C2
S32D0000D9D033FC02460B46C7E96423D7E90023D7E90201FFF799FA0146D7E96E230846FFF737FE504809F080FEDB
S32D0000D9F80346012214464FF00001184613F0C4FB0346002B01D100231C46E3B2002B00D0EBE7464809F06CFEBD
S32D0000DA200346184613F0DCFB0446424809F072FE0346184613F0D4FB0546D7E9020113F063F80646D7E9000128
S32D0000DA4813F05EF80346324629462046FFF7E2FDC7E966014FF00002364BD7E9640112F09FFD02460B46D7E9F7
S32D0000DA70660113F029F80346002B63D0D7E90023D7E90201FFF748FA03461846FFF7BCFB4FF000022A4BD7E9AE
S32D0000DA98640112F085FD02460B4610461946D7E96E23FFF7B5F8214809F022FE0346012214464FF0000118464F
S32D0000DAC013F066FB0346002B01D100231C46E3B2002B00D0EBE7174809F00EFE0346184613F07EFB044613487B
S32D0000DAE809F014FE0346184613F076FB0546D7E9020113F005F80646D7E9000113F000F803463246294620463E
S32D0000DB10FFF784FDC7E96601A0E700BFAFF30080C3F5285C8FC2D53FC48E0200D08E0200B48E0200E81A002036
S32D0000DB380000F03F00002E4000001C404FF00000424905F0B7FE424809F0D2FD0346184613F042FB04463E4849
S32D0000DB6009F0D8FD0346184613F03AFB0546D7E9020112F0C9FF0646D7E9000112F0C4FF0346324629462046AA
S32D0000DB88FFF748FDC7E96601D7E90023D7E90201FFF7BEF903461846FFF732FBD7E96E23D7E96601FFF734F866
S32D0000DBB0FEF7DAFE284809F09FFD024607F5B07311461846FEF7A4FC07F5A47307F5B0722249184600F025FDB8
S32D0000DBD807F5987307F5A4711F4A184600F049FD1B4809F093FD024607F5BC7311461846FEF78AFC07F58C7380
S32D0000DC0007F5BC7207F59871184600F057FD07F58C731846FEF7BAFE07F58C7318460AF095FA07F5BC731846B4
S32D0000DC280AF090FA07F5987318460AF08BFA07F5A47318460AF086FA07F5B07318460AF081FA00BF07F5D27785
S32D0000DC50BD46F0BD0000E03FE81A0020D48E0200D08E020080B582B000AF4FF00002164B1648FEF7EAFC4FF0C1
S32D0000DC780002134B1448FEF7E4FC00237B604FF00000124905F016FE0E48FEF7A9FD02467B68D31A0A2BCCBF83
S32D0000DCA001230023DBB2002B09D00848FEF79CFD78604FF00000074905F000FEE8E700BF0837BD4680BD00BF7A
S32D0000DCC800003940F0160020281700200000D03F90B5A5B004AF9E4A9E499F4809F01CFE03469E4A136096A32E
S32D0000DCF0D3E900239C48FEF7B7FD00219B4807F070F86FF07F41994807F0C7F8974807F007FC9749954807F0F4
S32D0000DD189DFA07F1180207F11C031946914807F02FF9034683F00103DBB2002B00D0F0E707F1180207F11C037E
S32D0000DD4019468A4807F020F90346002B00D0F3E74FF00002874B8848FEF786FD4FF00000864905F0ABFD864882
S32D0000DD6809F06CFA4FF00002844B7D48FEF778FD814809F075FC034687F87F3007F12003184609F0DBFF07F101
S32D0000DD9020023B467C4918460AF0A4FB07F12003184609F0D1FF97F87F203B46114618460AF0E6F93A4607F10F
S32D0000DDB82403114618460AF04BFB07F124031846FEF7E0FD07F1240318460AF0BBF9654807F0A2FB6B49634807
S32D0000DDE007F038FA07F1180207F11C0319465F4807F0CAF8034683F00103DBB2002B00D0F0E707F1180207F1DB
S32D0000DE081C031946574807F0BBF80346002B00D0F3E75D49534807F019FA5C4806F09CF80346184612F064FB86
S32D0000DE3002460B4610461946FEF756FF0346002B0CBF01230023DBB2002B00D0E9E73EA3D3E900234448FEF70D
S32D0000DE5807FD97F87F30442B0FD1002302934FF000024B4BCDE900234FF00002494B4FF000004949FFF7E8FC23
S32D0000DE800EE0002302934FF00002434BCDE900234FF00002414B4FF000004249FFF7D8FC97F87F30442B06D141
S32D0000DEA84FF000023A4B5A20FFF7D6FB05E04FF00002374B5A20FFF7CFFB4FF00002344B4FF000003649FEF7F0
S32D0000DED0A3FE00221EA1D1E90001FFF721FA4FF00002324B23212048FEF7DAFC002302934FF00002284BCDE97F
S32D0000DEF800234FF000022C4B4FF000002B49FFF7A3FC4FF00002224B5A20FFF7A5FB97F87F30432B06D1002276
S32D0000DF204FF000002449FFF7FBF953E097F87F30422B45D100224FF000002049FFF7F0F948E000BFAFF3008097
S32D0000DF480000000000C06240CDCCCCCCCC4C4440E08E0200E48E0200081B00209017002060170020801A00203D
S32D0000DF70EC8E020000406540781700200000F03FE81A002000806540008F0200088F0200188F0200EC16002008
S32D0000DF98000024400000324000003F4000004040000034400000E03F0000464000803D400080474000404740A2
S32D0000DFC097F87F30002B05D00022ADA1D1E90001FFF7A6F9ACA3D3E90023C548FEF744FC4FF00002C34B4FF037
S32D0000DFE80000C349FEF714FE012302934FF00002BE4BCDE90023A4A3D3E900234FF00000BC49FFF721FC4FF060
S32D0000E0100002B84BB420FFF723FB01224FF00000B749FFF73DFA4FF00002B64BB648FEF71BFC4FF00000B549DD
S32D0000E03805F040FC4FF00002B34BB148FEF710FC002302934FF00002A84BCDE9002390A3D3E9002390A1D1E98E
S32D0000E0600001FFF7F5FBFEF7A3FEC7E91C0107F15401D7E91C230846FEF766FA07F13C0307F15402A34918468A
S32D0000E08800F0CBFA07F13C031846FEF77BFC07F13C0318460AF056F807F1540318460AF051F8D7E91C01FEF715
S32D0000E0B01BFEF8664FF000028E4B8720FFF7D0FAFB6EB3F57F0F17D14FF00002894B4FF000009149FEF7A0FD03
S32D0000E0D8002302934FF00002844BCDE9002370A3D3E900234FF000008A49FFF7ADFB16E04FF000027D4B4FF099
S32D0000E10000008749FEF788FD002302934FF00002784BCDE900234FF00002824B64A1D1E90001FFF795FB4FF07F
S32D0000E1280002724B5A20FFF797FAFFF797FD4FF000026E4B4FF000007949FEF769FD002302934FF00002694B7C
S32D0000E150CDE900234FF00002744B4FF000007449FFF776FB4FF00002624B4FF48770FFF777FA4FF000025F4BEB
S32D0000E1784FF000006D49FEF74BFD01224FF000006B49FFF7C9F86B4809F078FA0346002B02D0012B2DD0D3E03A
S32D0000E1A0002302934FF00002524BCDE900234FF00002634B40A1D1E90001FFF749FB97F87F30422B0CD140F263
S32D0000E1C82510FFF71DF84FF00002484B3AA1D1E90001FEF71DFDCFE04FF49570FFF710F84FF00002414B36A1D7
S32D0000E1F0D1E90001FEF710FDC2E0002302934FF000023C4BCDE9002331A3D3E9002332A1D1E90001FFF71CFBFB
S32D0000E21840F21D10FEF7F4FF97F87F30422B08D14FF00002314B4FF000004449FEF7F0FCA2E097F87F30412B77
S32D0000E24008D14FF000022B4B25A1D1E90001FEF7E3FC95E097F87F30432B08D14FF00002244B21A1D1E90001A4
S32D0000E268FEF7D6FC88E04FF00002204B1CA1D1E90001FEF7CDFC7FE000000000006047400000000000C06240CF
S32D0000E290CDCCCCCCCC4C46403333333333B34E4033333333333329406666666666664D409A99999999993140BD
S32D0000E2B86666666666661C409A9999999999A93F9A9999999999C9BF6666666666663740CDCCCCCCCCCC1640E0
S32D0000E2E0666666666666D6BFCDCCCCCCCCCCE4BF6017002000002440000008C0000033400000324000805140F2
S32D0000E308781700200000F03F004065402C8F020000002AC000803740000022C000404D40000014C000804640FD
S32D0000E3300000144000002E4000803940E81A0020000037400000E0BF002302934FF00002334BCDE900234FF03D
S32D0000E3580002324B26A1D1E90001FFF775FA40F20D10FEF74DFF4FF000022B4B22A1D1E90001FEF74DFC00BF6F
S32D0000E3804FF00002284B2948FEF76EFA4FF00000274905F093FA1CA3D3E900232348FEF763FA002302934FF06A
S32D0000E3A800021D4BCDE9002317A3D3E9002318A1D1E90001FFF748FA002302934FF00002154BCDE900234FF04E
S32D0000E3D000024FF000034FF000001649FFF738FA00243B46184609F0B1FE234618468437BD4690BDAFF3008076
S32D0000E3F866666666666614409A9999999999C9BF0000000000C062403333333333B336406666666666663140C1
S32D0000E42000002440000038400080414060170020000016400000424080B487B000AF7860396001237B613B6854
S32D0000E44803FB03F33B613A683B6902FB03F3FB603A68FB6802FB03F3BB603B687A689A4201D27B691DE07A6878
S32D0000E4703B699A4202D27B69013316E07A68FB689A4202D27B6902330FE07A68BB689A4202D27B69033308E068
S32D0000E4987A68BB68B2FBF3F37B607B6904337B61DBE718461C37BD4680BC704780B489B000AFF860B9607A601C
S32D0000E4C0BB68013BFB617B68632B25D97A68224BA3FB02135B09642101FB03F3D31A5B00BB617B681C4AA2FBDD
S32D0000E4E803235B097B60BB695A1CF968FB690B4418498A5C1A70FB69013BFA6813441549BA690A4412781A70E6
S32D0000E510FB69023BFB61D6E77B68092B10D97B685B007B617B695A1CFB6801330B498A5C1A700A4A7B691344C5
S32D0000E5381A78FB681A7005E07B68DBB23033DAB2FB681A7000BF2437BD4680BC704700BF1F85EB51688F02005D
S32D0000E56008B490B588B000AFF860B9607A607B680733DB08DB00ADEB030D6B460733DB08DB00FB6107F13003A7
S32D0000E5883B61BC683B69FA6A7968F869A047B861BB69FA69D41807F11403184609F0CEFB07F114032246F969E0
S32D0000E5B0F86800F0FEF807F11403184609F0C4FBF8682037BD46BDE8904001B0704780B584B000AFF860B960B2
S32D0000E5D87A60B968F86809F03BFF7968F86809F019FF00BFF8681037BD4680BD80B582B000AF786039607B6825
S32D0000E600D3E900013B68D3E9002312F03FFA0346002B01D03B6800E07B6818460837BD4680BD80B584B000AFD2
S32D0000E628F860B9607A60BA680021786809F0A4FE0346184600F0D4F803461946F86809F061FDF8681037BD464F
S32D0000E65080BD80B582B000AF7860786811F03AFF02460B461046194611F0ECFA02460B46104619460837BD4692
S32D0000E67880BD80B584B000AFF860B9607A607968B86809F0C7FE0346184600F0A9F803461946F86809F036FDA9
S32D0000E6A0F8681037BD4680BD80B483B000AF7860012318460C37BD4680BC704790B58BB000AFF860B9607A6042
S32D0000E6C8002387F8273007F114031846FFF7E8FF0346002B03D0012387F8273024E007F11803B968184609F011
S32D0000E6F0AFFE07F11C037968184609F0A9FE07F11C0207F118031146184600F077F803461C4607F11C031846FC
S32D0000E71809F016FB07F11803184609F011FB002C02D0012387F8273097F82730002B2BD0B86809F013FD0446DC
S32D0000E740786809F00FFD034623443B62B86809F00BFD02463B6A934208D9786809F004FD02463B6A934201D840
S32D0000E768012300E00023002B0ED0BA680021786809F0EAFD0346184600F032F803461946F86809F0BFFC0CE0E7
S32D0000E7907968B86809F03CFE0346184600F024F803461946F86809F0B1FCF8682C37BD4690BD90B585B000AF8A
S32D0000E7B8F860B9607A603B60FC68F86809F0E2FB03463A681946204609F040FE7A68B968F86800F01AF8FB6804
S32D0000E7E018461437BD4690BD80B483B000AF78607B6818460C37BD4680BC704780B483B000AF786039600123FF
S32D0000E80818460C37BD4680BC704780B584B000AFF860B9607A607A68B968F86800F004F800BF1037BD4680BD53
S32D0000E83090B587B000AFF860B9607A603B7023467A68B968F86800F005F800BF1C37BD4690BD000080B586B013
S32D0000E85800AFF860B9607A603B70B86800F03EF80346002B05D0BA687B689A4201D0012300E00023002B02D088
S32D0000E880174809F073FA7968B86800F03AF803467B617B690F2B10D907F1140300221946F86809F07DFB0346AC
S32D0000E8A81946F86809F06AFB7B691946F86809F06BFBF86809F064FB03467A68B968184609F0B6FB7B691946D4
S32D0000E8D0F86809F05FFB00BF1837BD4680BD00BF3C8F020080B483B000AF78607B68002B0CBF01230023DBB2F2
S32D0000E8F818460C37BD4680BC7047B0B582B000AF786039607C683B1D184600F00AF82A463968204600F00FF8AA
S32D0000E920034618460837BD46B0BD80B483B000AF786000BF18460C37BD4680BC704780B485B000AFF860B960A6
S32D0000E9483A71BA68FB68D31A18461437BD4680BC704700000000000080B586B004AF786039607B68012B34D142
S32D0000E9703B684FF6FF7293422FD11F211C4805F0DFFA0023029318A3D3E90023CDE900234FF00002174B0321E7
S32D0000E9981748FDF7F1FD0723029311A3D3E90023CDE900234FF00002104B00211148FDF7E3FD40F61C134FF453
S32D0000E9C02D7200210E48FDF71DFF40F66F134FF4FA7201210B48FDF715FF00BF0837BD4680BD00BFAFF3008000
S32D0000E9E8D8EAD9217063993FEC16002000002240F016002028170020601700207817002080B500AF4FF6FF71B2
S32D0000EA100120FFF7A5FF80BD80B500AF0F4BD3F8A03003F48053002B14BF01230023DBB2002B10D0094BD3F841
S32D0000EA38A030084A23F48053C2F8A030064809F04DF8064B1B68054A23F40053136000BF80BD00BF00C00440CF
S32D0000EA60081B0020C0F00F4080B400AF124B4FF480725A63114B5B69104A43F4005353610E4B1B680D4A43F4F2
S32D0000EA88005313600A4B0C4A1A630C4BD3F888310A4A43F08063C2F88831084B9B68074A43F08063936000BF4B
S32D0000EAB0BD4680BC704700BF00C00440C0F00F4003010A0000E100E080B400AF334B00225A70324B98221A70A3
S32D0000EAD8304B9B79DBB203F01003002B14BF01230023DBB2002B00D0F2E72A4B9B79DBB29B08DBB203F0030309
S32D0000EB00022B14BF01230023DBB2002B00D0F0E7224B18221A71214B00225A71204B03F580531A461F4B5364FF
S32D0000EB281C4B54225A711B4B9B79DBB203F02003002B0CBF01230023DBB2002B00D0F2E7144B9B79DBB203F069
S32D0000EB504003002B0CBF01230023DBB2002B00D0F2E70E4B1B78DBB20C4A03F03F03DBB213700A4B9B79DBB2AC
S32D0000EB789B08DBB203F00303032B14BF01230023DBB2002B00D0F0E700231846BD4680BC704700BF00400640E3
S32D0000EBA0007004400000130180B500AF314B03F580539B6B2F4A43F4785302F580529363FFF752FFFFF780FF58
S32D0000EBC82B4B58221A602A4B1B684FF47A7202FB03F3284A1360274B1B681A46234B03F580535B6C1B0E03F045
S32D0000EBF00F030133B2FBF3F31A46214B1A601D4B03F58053DB6B1B4A43F0225302F58052D363184B03F5805325
S32D0000EC181B6B164A43F0006302F580521363174B4FF480721A61642004F01AFD134B5B69124A23F0100353611A
S32D0000EC40104B00221A600F4B10225A610E4805F06BFF05F06DFA05F0CBFA0C4804F066FD0B4809F031F84FF43A
S32D0000EC68FA6004F011FE00BF80BD00BF00700440CC190020C8190020D019002000D00340801A0020C4190020D9
S32D0000EC90B41D002080B500AFFDF755FB00BF80BD80B500AFFDF74FFB00BF80BD80B500AFFDF749FB00BF80BD0B
S32D0000ECB880B500AFFDF743FB00BF80BD80B500AFFDF73DFB00BF80BD80B500AFFDF737FB00BF80BD80B500AF26
S32D0000ECE0FDF731FB00BF80BD80B500AFFDF72BFB00BF80BD80B500AFFDF725FB00BF80BD80B500AFFDF71FFB0A
S32D0000ED0800BF80BD80B500AFFDF719FB00BF80BD80B500AFFDF713FB00BF80BD80B500AFFDF70DFB00BF80BD3B
S32D0000ED3080B500AFFDF707FB00BF80BD80B500AFFDF701FB00BF80BD80B500AFFDF7FBFA00BF80BD80B500AF62
S32D0000ED58FDF7F5FA00BF80BD80B500AFFDF7EFFA00BF80BD80B500AFFDF7E9FA00BF80BD80B500AFFDF7E3FA85
S32D0000ED8000BF80BD80B500AFFDF7DDFA00BF80BD80B500AFFDF7D7FA00BF80BD80B500AFFDF7D1FA00BF80BD7A
S32D0000EDA880B500AFFDF7CBFA00BF80BD80B500AFFDF7C5FA00BF80BD80B500AFFDF7BFFA00BF80BD80B500AFA0
S32D0000EDD0FDF7B9FA00BF80BD80B500AFFDF7B3FA00BF80BD80B500AFFDF7ADFA00BF80BD80B500AFFDF7A7FAFD
S32D0000EDF800BF80BD80B500AFFDF7A1FA00BF80BD80B500AFFDF79BFA00BF80BD80B500AFFDF795FA00BF80BDB6
S32D0000EE2080B500AFFDF78FFA00BF80BD80B500AFFDF789FA00BF80BD80B500AFFDF783FA00BF80BD80B500AFDB
S32D0000EE48FDF77DFA00BF80BD80B500AFFDF777FA00BF80BD80B500AFFDF771FA00BF80BD80B500AFFDF76BFA74
S32D0000EE7000BF80BD80B500AFFDF765FA00BF80BD80B500AFFDF75FFA00BF80BD80B500AFFDF759FA00BF80BDF1
S32D0000EE9880B500AFFDF753FA00BF80BD80B500AFFDF74DFA00BF80BD80B500AFFDF747FA00BF80BD80B500AF17
S32D0000EEC0FDF741FA00BF80BD80B500AFFDF73BFA00BF80BD80B500AFFDF735FA00BF80BD80B500AFFDF72FFAEC
S32D0000EEE800BF80BD80B500AFFDF729FA00BF80BD80B500AFFDF723FA00BF80BD80B500AFFDF71DFA00BF80BD2D
S32D0000EF1080B500AFFDF717FA00BF80BD80B500AFFDF711FA00BF80BD80B500AFFDF70BFA00BF80BD80B500AF52
S32D0000EF38FDF705FA00BF80BD80B500AFFDF7FFF900BF80BD80B500AFFDF7F9F900BF80BD80B500AFFDF7F3F966
S32D0000EF6000BF80BD80B500AFFDF7EDF900BF80BD80B500AFFDF7E7F900BF80BD80B500AFFDF7E1F900BF80BD6B
S32D0000EF8880B500AFFDF7DBF900BF80BD80B500AFFDF7D5F900BF80BD80B500AFFDF7CFF900BF80BD80B500AF91
S32D0000EFB0FDF7C9F900BF80BD80B500AFFDF7C3F900BF80BD80B500AFFDF7BDF900BF80BD80B500AFFDF7B7F9DF
S32D0000EFD800BF80BD80B500AFFDF7B1F900BF80BD80B500AFFDF7ABF900BF80BD80B500AFFDF7A5F900BF80BDA7
S32D0000F00080B500AFFDF79FF900BF80BD80B500AFFDF799F900BF80BD80B500AFFDF793F900BF80BD80B500AFCC
S32D0000F028FDF78DF900BF80BD80B500AFFDF787F900BF80BD80B500AFFDF781F900BF80BD80B500AFFDF77BF956
S32D0000F05000BF80BD80B500AFFDF775F900BF80BD80B500AFFDF76FF900BF80BD80B500AFFDF769F900BF80BDE2
S32D0000F07880B500AFFDF763F900BF80BD80B500AFFDF75DF900BF80BD80B500AFFDF757F900BF80BD80B500AF08
S32D0000F0A0FDF751F900BF80BD80B500AFFDF74BF900BF80BD0000000080B584B000AFF8600B467A60FB72FB6885
S32D0000F0C8FA7A1A71FB6800225A711749786812F079F80346002B02D0134B7B600AE04FF07E51786812F05AF86D
S32D0000F0F00346002B02D04FF07E537B60786811F0FBF909A3D3E9002311F04EFA02460B461046194611F040FD8C
S32D0000F1180246FB681A60FB6818461037BD4680BDABAAAAAAAAAA20400000404180B582B000AF78607B685B79D9
S32D0000F140002B09D07B6800225A717B6819791E230022034804F024FB00BF0837BD4680BDC419002080B584B0F3
S32D0000F16800AF786039603B687F2B02DD7F23FB7308E03B6813F1800F02DA8023FB7301E03B68FB737B685B7969
S32D0000F190FA7B9A4209D07B68FA7B5A717B681979FA7B1E23034804F0FBFA00BF1037BD4680BD00BFC4190020A3
S32D0000F1B8B0B584B000AF786039603749386811F0E3FF0346002B02D0334B3B6008E03349386811F0F7FF0346CA
S32D0000F1E0002B01D02F4B3B60386811F085F904460D467B681B68184611F07EF94FF00002294B11F0FBFA024605
S32D0000F2080B462046294611F0CBF902460B461046194611F0BDFC03463B604FF00001386811F0C6FF0346002BE7
S32D0000F23010D0386811F060F917A3D3E9002311F0B3F902460B461046194611F05DFC0346FB6018E0386811F0AB
S32D0000F2584FF94FF00002134B11F0A2F902460B46104619464FF000020D4B11F0C3FA02460B461046194611F011
S32D0000F28043FC0346FB60F9687868FFF76BFF00BF1037BD46B0BD00BF52B81E85EB51F43F0000C8C20000C842F7
S32D0000F2A8000059400000604080B483B000AF03460A46FB711346BB71BB79002B03D1134B00221A7002E0114BE4
S32D0000F2D001221A703823FB710E4B1A78FB791343FB710D4B9B78DBB20B4A43F01003DBB29370094B9B78DBB264
S32D0000F2F8074A43F02003DBB29370054AFB79137100BF0C37BD4680BC704700BF941700200060064080B483B0DB
S32D0000F32000AF01237B607B68312B04DC00BF7B6801337B60F7E700BF0C37BD4680BC704780B582B000AF03460C
S32D0000F3480A46FB711346BB71134B1B7800211846FFF7AAFF00F024F8104AFB79137100F01FF80E4ABB791371D2
S32D0000F37000F01AF80B4B9B78DBB20A4A23F02003DBB29370074B9B78DBB2064A23F01003DBB29370FFF7C2FFAE
S32D0000F39800BF0837BD4680BD951700200060064080B483B000AF174B1B78002B24D100237B60154BDB78DBB22E
S32D0000F3C003F00203002B0CBF01230023DBB2002B0DD07B6842F21072934203DD0B4B01221A7004E07B68013309
S32D0000F3E87B6000BFE5E7084BDB78DBB2064A43F00203DBB2D37000E000BF0C37BD4680BC704700BF96170020A2
S32D0000F4100060064080B582B000AF0346FB71FB79184600F05FF800BF0837BD4680BD80B582B000AF03460A4657
S32D0000F438FB711346BB7100F035F8FB795B00DBB21846FFF7E3FFBB791846FFF7DFFF00F037F800BF0837BD4680
S32D0000F46080BD80B500AFFF2000F03CF80346184680BD80B584B000AF0346FB7100F016F8FB795B005BB243F05C
S32D0000F48801035BB2DBB21846FFF7C0FFFFF7E5FF0346FB7300F014F8FB7B18461037BD4680BD000080B400AFDA
S32D0000F4B0044B9B68034A43F48013936000BFBD4680BC704740F00F4080B400AF044B5B68034A43F480135360DF
S32D0000F4D800BFBD4680BC704740F00F4080B485B000AF0346FB710023BB73164BDB6A03F00043012B0CBF0123BD
S32D0000F5000023DBB2002B03D0FB7B0133FB73F0E70E4BDB6A0D4A43F00043D3620B4AFB7953630A4BDB6A03F490
S32D0000F5280033002B0CBF01230023DBB2002B00D0F3E7044B9B6BBB73BB7B18461437BD4680BC704700C00A4081
S32D0000F55080B582B000AF204B03F580531B6B1E4A43F4805302F5805213631C4B4FF480721A651B4B5B691A4A61
S32D0000F57843F480135361FFF7A3FF164B4FF400725A65144B4FF400729A65124B4FF40072DA65124B124A1A60E3
S32D0000F5A0104B124ADA6000237B607B68092B06DCFF20FFF72FFF7B6801337B60F5E704A1D1E9000104F07AF97D
S32D0000F5C800BF0837BD4680BD9A9999999999B93F0070044000A0044040F00F4000C00A40000C00800500003E58
S32D0000F5F090B486B000AFF860B9607A60FB68534A93420AD1524B03F580535B6B504A43F4806302F58052536368
S32D0000F61845E0FB684D4A93420AD14B4B03F580535B6B494A43F4006302F58052536336E0FB68474A93420AD168
S32D0000F640434B03F580535B6B414A43F4805302F58052536327E0FB68404A93420AD13C4B03F580535B6B3A4A29
S32D0000F66843F4005302F58052536318E0FB683A4A93420AD1344B03F580539B6A324A43F4806302F58052936239
S32D0000F69009E02F4B03F580539B6A2D4A43F4006302F580529362FB68DB78DBB223F00C03DAB2FB68DA70FB6849
S32D0000F6B800229A70BB684FF47A7203FB02F27B681B0192FBF3F39CB2FB681B78DBB223F01F03FB75230A9BB252
S32D0000F6E0DBB203F01F03DAB2FB7D1343DAB2FB681A70E2B2FB685A70BB684FF4FA4203FB02F27B681B0192FBA6
S32D0000F708F3F39AB263019BB2D31A9CB2FB689B7ADBB223F01F03FB75E3B203F01F03DAB2FB7D1343DAB2FB6818
S32D0000F7309A72FB68DB78DBB243F00C03DAB2FB68DA7000BF1837BD4690BC704700A006400070044000B006403D
S32D0000F75800C0064000D0064000A00E4080B483B000AF78607B681B79DBB203F02003002B0CBF01230023DBB2A7
S32D0000F780002B00D0F2E77B68DB79DBB218460C37BD4680BC704780B483B000AF78600B46FB707B681B79DBB27E
S32D0000F7A85BB2DB43DBB2DB09DBB2002B00D0F4E77B68FA78DA7100BF0C37BD4680BC704780B487B000AFF8602A
S32D0000F7D0B9607A60FB687B61BB683B617B685A1E7A60002B14BF01230023DBB2002B08D03A69531C3B617B697E
S32D0000F7F8591C796112781A70ECE700BF1C37BD4680BC704780B487B000AFF860B9607A60FB687B617B685A1EA6
S32D0000F8207A60002B14BF01230023DBB2002B06D07B695A1C7A61BA68D2B21A70EEE700BF1C37BD4680BC7047CB
S32D0000F84880B489B000AFF860B9607A60FB68FB61BB68BB6100237B617B685A1E7A60002B0FD0FB695A1CFA61BA
S32D0000F8701B781946BB695A1CBA611B78CB1A7B617B69002B01D1012300E00023002B00D0E6E77B691846243702
S32D0000F898BD4680BC704780B483B000AF786039607B681B78002B09D07B681B781A463B68934203D07B68013313
S32D0000F8C07B60F1E77B681B7818460C37BD4680BC704780B584B000AF786039607B681B6BFB60FA683B689A422C
S32D0000F8E852D07B681B79002B35D07B6858787B6803F134010123FA6803F050FD0346002B14BF01230023DBB289
S32D0000F910002B01D001233CE07B6800221A717B685A6A7B681B6A1344FA689A4217D27B68DB78FB72FB7A012B2C
S32D0000F93811D97B681B6AFA681344FB607B6858787B6803F134010123FA6803F027FDFB7A013BFB72EAE73B684D
S32D0000F960002B15D07B6858787B6803F1340101233A6803F033FC0346002B14BF01230023DBB2002B01D0012387
S32D0000F98803E07B683A681A63002318461037BD4680BD80B584B000AF786000217868FFF794FF0346FB73FB7BBD
S32D0000F9B0002B40F093807B681B78032B7DD17B685B79002B79D07B6800221A637B6834334FF40072002118469E
S32D0000F9D8FFF718FF7B68552283F832227B68AA2283F833227B68522283F834207B68522283F835207B68612299
S32D0000FA0083F836207B68412283F837207B68722283F818227B68722283F819227B68412283F81A227B68612233
S32D0000FA2883F81B227B681B69DAB27B6883F81C227B681B699BB21B0A9BB2DAB27B6883F81D227B681B691B0C8C
S32D0000FA50DAB27B6883F81E227B681B691B0EDAB27B6883F81F227B68DB68DAB27B6883F820227B68DB689BB2DE
S32D0000FA781B0A9BB2DAB27B6883F821227B68DB681B0CDAB27B6883F822227B68DB681B0EDAB27B6883F82322C8
S32D0000FAA07B6858787B6803F134017B685A69012303F078FC7B6800225A717B685B7800220021184603F03AFDF7
S32D0000FAC80346002B14BF01230023DBB2002B01D00123FB73FB7B18461037BD4680BD80B483B000AF7860396085
S32D0000FAF03B68023B3B607B68DB69023B3A689A4201D3002308E07B689B781A463B6803FB02F27B68DB6A134442
S32D0000FB1818460C37BD4680BC704780B586B000AF786039603B68012B04D97B68DB693A689A4201D30123B5E0BF
S32D0000FB407B681B78032B7AD0032B00F3AD80012B02D0022B4DD0A7E03B683B613B695B083A6913443B617B68CD
S32D0000FB685A6A3B695B0A134419467868FFF7ADFE0346002B14BF01230023DBB2002B40F088803B69C3F3080388
S32D0000FB907A68134493F83430FB603B6901333B617B685A6A3B695B0A134419467868FFF790FE0346002B14BF3F
S32D0000FBB801230023DBB2002B6DD13B69C3F308037A68134493F834301B021A46FB681343FB603B6803F001032A
S32D0000FBE0002B02D0FB681B0960E0FB68C3F30B035CE07B685A6A3B681B0A134419467868FFF767FE0346002BFC
S32D0000FC0814BF01230023DBB2002B46D13B685B0003F4FF7330337A68134404337B617B6901331B781B021AB23B
S32D0000FC307B691B781BB213431BB29BB236E07B685A6A3B68DB09134419467868FFF741FE0346002B14BF012378
S32D0000FC580023DBB2002B22D13B689B0003F4FE7330337A68134404337B617B6903331B781A067B6902331B78E2
S32D0000FC801B0413437A6901321278120213437A691278134323F0704308E000BF04E000BF02E000BF00E000BFC4
S32D0000FCA84FF0FF3318461837BD4680BD80B588B000AFF860B9607A60BB68012B04D9FB68DB69BA689A4202D3C3
S32D0000FCD00223FB77EEE0FB681B78032B00F09780032B00F3DA80012B02D0022B6BD0D4E0BB687B617B695B089B
S32D0000FCF87A6913447B61FB685A6A7B695B0A13441946F868FFF7E1FD0346FB77FB7F002B40F0C2807B69C3F302
S32D0000FD2008033033FA6813440433BB61BB6803F00103002B0DD0BB691B785BB203F00F035AB27B68DBB21B01B8
S32D0000FD485BB213435BB2DBB201E07B68DBB2BA6913707B6901337B61FB6801221A71FB685A6A7B695B0A1344CD
S32D0000FD701946F868FFF7ADFD0346FB77FB7F002B40F090807B69C3F308033033FA6813440433BB61BB6803F03C
S32D0000FD980103002B03D07B681B09DBB20CE0BB691B7823F00F03DAB27B681B0ADBB203F00F03DBB21343DBB249
S32D0000FDC0BA69137073E0FB685A6ABB681B0A13441946F868FFF77DFD0346FB77FB7F002B62D1BB685B0003F41F
S32D0000FDE8FF733033FA6813440433BB617B68DAB2BB691A707B689BB21B0A9AB2BB690133D2B21A704FE0FB6856
S32D0000FE105A6ABB68DB0913441946F868FFF759FD0346FB77FB7F002B40D1BB689B0003F4FE733033FA681344E4
S32D0000FE380433BB61BB6903331B781A06BB6902331B781B041343BA690132127812021343BA691278134303F09B
S32D0000FE6070437A6813437B607B68DAB2BB691A707B689BB21B0A9AB2BB690133D2B21A707B681A0CBB69023328
S32D0000FE88D2B21A707B681A0EBB690333D2B21A7009E00223FB7706E000BF04E000BF02E000BF00E000BFFB6860
S32D0000FEB001221A71FB7F18462037BD4680BD80B584B000AF786039603B68012B04D97B68DB693A689A4202D358
S32D0000FED80223FB7338E00023FB737B68DB693A689A4231D239687868FFF717FEB860BB68002B26D0BB68012BE1
S32D0000FF0002D10223FB7323E0BB68B3F1FF3F02D10123FB731CE0002239687868FFF7CAFE0346FB73FB7B002B4B
S32D0000FF2811D17B681B69B3F1FF3F07D07B681B695A1C7B681A617B6801225A71BB683B60CBE700BF00E000BFCF
S32D0000FF50FB7B18461037BD4680BD80B586B000AF786039603B68002B0DD17B68DB683B613B69002B04D07B68A9
S32D0000FF78DB693A699A4215D301233B6112E039687868FFF7CAFDB860BB68012B01D8012364E07B68DB69BA68CF
S32D0000FFA09A4201D2BB685DE03B683B613B697B617B6901337B617B68DB697A699A4207D302237B617A693B6929
S32D0000FFC89A4201D9002349E079697868FFF7A5FDB860BB68002B0ED0BB68B3F1FF3F02D0BB68012B01D1BB6850
S32D0000FFF038E07A693B699A42DAD1002332E000BF6FF0704279697868FFF754FE0346FB73FB7B002B09D13B68D9
S32D00010018002B06D07A6939687868FFF747FE0346FB73FB7B002B10D17B687A69DA607B681B69B3F1FF3F10D0B7
S32D000100407B681B695A1E7B681A617B6801225A7107E0FB7B012B02D14FF0FF3300E001237B617B691846183745
S32D00010068BD4680BD80B487B000AF786039607B685B6A04333B613B685B0A7A6812689278B3FBF2F37B613B69A2
S32D000100901A1D3A611B68FB60FB68002B01D1002310E07A69FB689A4207D37A69FB68D31A7B613B6904333B619C
S32D000100B8E9E700BF3B691A687B69134418461C37BD4680BC704780B584B000AF78600B467B807B687A88DA8007
S32D000100E07B689B68FB60FB68012B05D07B681B68DB69FA689A4201D3022364E0FB68002B08D17B681B681B78C7
S32D00010108032B03D17B681B689B6AFB60FB68002B13D17B68FA68DA607B681B681B897A889A4201D302234AE004
S32D000101307B681B689A6A7B881B091A447B681A6135E07B681B689B789BB21B017B817A887B899A421CD37B68AC
S32D000101581B68F9681846FFF7E0FCF860FB68B3F1FF3F01D101232AE0FB68012B05D97B681B68DB69FA689A4272
S32D0001018001D302231FE07A887B89D31A7B80DEE77B68FA68DA607B681B68F9681846FFF7A2FC02467B881B09FE
S32D000101A81A447B681A617B681B6803F134027B8803F00F035B011A447B685A61002318461037BD4680BD90B52F
S32D000101D085B000AF786039607B68DB8801333B813B89002B03D07B681B69002B01D10423C4E03B8903F00F03BB
S32D000101F8002B40F0B0807B681B695A1C7B681A617B68DB68002B08D17B681B681B893A899A42C0F0A080042348
S32D00010220ACE03B891B097A6812689278013A1340002B40F094807B681A687B68DB6819461046FFF76EFCF860E0
S32D00010248FB68012B01D8022394E0FB68B3F1FF3F01D101238EE07B681B68DB69FA689A426DD33B68002B01D115
S32D00010270042383E07B681A687B68DB6819461046FFF76BFEF860FB68002B01D1072375E0FB68012B01D1022379
S32D0001029870E0FB68B3F1FF3F01D101236AE07B681B6800211846FFF710FB0346002B14BF01230023DBB2002B36
S32D000102C001D001235AE07B681B6834334FF4007200211846FFF79AFA7B681A687B681C68F9681046FFF7FFFBE2
S32D000102E8034623630023FB727B681B689B78FA7A9A421CD27B681B6801221A717B681B6800211846FFF7E1FA07
S32D000103100346002B14BF01230023DBB2002B01D001232BE07B681B681A6B01321A63FB7A0133FB72DCE77B6821
S32D000103381B68196BFA7A7B681B688A1A1A637B68FA68DA607B681B68F9681846FFF7C7FB02467B681A617B68AF
S32D000103603A89DA807B681B6803F134023B8903F00F035B011A447B685A61002318461437BD4690BD80B586B019
S32D0001038800AF786000217868FFF79DFE0346FB75FB7D002B01D0FB7D3CE07B681A687B681B6919461046FFF7F5
S32D000103B090FA0346FB75FB7D002B2BD17B685B693B613B691B78FB73FB7B002B02D10423FB7522E03B690B3365
S32D000103D81B7803F00803002B0BD17B689B690B2219463869FFF72CFA0346002B01D1012300E00023002B0BD1BA
S32D0001040000217868FFF7E3FE0346FB75FB7D002B03D1C6E700BF00E000BFFB7D18461837BD4680BD80B584B0EC
S32D0001042800AF786000217868FFF74DFE0346FB73FB7B002B21D17B681A687B681B6919461046FFF742FA034696
S32D00010450FB73FB7B002B13D17B685B691B78BB73BB7BE52B0DD0BB7B002B0AD001217868FFF7ADFE0346FB736A
S32D00010478FB7B002B01D1DEE700BFFB7B002B1FD17B681A687B681B6919461046FFF71DFA0346FB73FB7B002BE7
S32D000104A012D17B685B69BB6020220021B868FFF7ADF97B689B690B221946B868FFF784F97B681B6801221A714F
S32D000104C8FB7B18461037BD4680BD000080B588B000AF786039603B681B68FB60FB681B782F2B03D0FB681B7883
S32D000104F05C2B03D1FB680133FB60F3E77B689B69BB600B222021B868FFF780F90023FB7700233B613B697B61E3
S32D000105180823BB61FA687B6913441B782E2B2FD17B695A1C7A61FA6813441B78BB77BB7F2E2B0AD17B69022BB2
S32D0001054007D83B695A1C3A61BA681344BA7F1A70EAE7BB7F2F2B07D0BB7F5C2B04D0BB7F202B01D90623A7E0DC
S32D00010568FA687B691A443B681A60BB7F202B01D8242200E02022BB680B331A70002397E07B695A1C7A61FA68C1
S32D0001059013441B78BB77BB7F202B58D9BB7F2F2B55D0BB7F5C2B52D0BB7F2E2B03D03A69BB699A420FD3BB69BF
S32D000105B8082B02D1BB7F2E2B01D0062378E008233B610B23BB61FB7F9B00FB773AE097F91E30002B08DAFB7F12
S32D000105E043F00303FB77BB7F803B354AD35CBB77BB7F19463348FFF752F90346002B14BF01230023DBB2002BD1
S32D0001060801D0062354E0BB7F402B07D9BB7F5A2B04D8FB7F43F00203FB770CE0BB7F602B09D9BB7F7A2B06D801
S32D00010630FB7F43F00103FB77BB7F203BBB773B695A1C3A61BA681344BA7F1A709CE7FA687B691A443B681A607C
S32D00010658BB7F202B01D8042300E00023BB773B69002B01D1062323E0BB681B78E52B02D1BB6805221A70BB695B
S32D00010680082B02D1FB7F9B00FB77FB7F03F00303012B03D1BB7F43F01003BB77FB7F03F00C03042B03D1BB7FE0
S32D000106A843F00803BB77BB680B33BA7F1A70002318462037BD4680BD34900200B490020080B584B000AF78607B
S32D000106D039603B681B782F2B03D03B681B785C2B06D13B6801333B607B6800229A6004E07B681B689A697B68CA
S32D000106F89A603B681B781F2B09D800217868FFF7E2FC0346FB737B6800225A6169E03B4619467868FFF7DAFE55
S32D000107200346FB73FB7B002B58D17868FFF72AFE0346FB737B689B69DB7ABB73FB7B002B1DD0FB7B042B4BD1BB
S32D00010748BB7B03F02003002B0DD07B6800229A607B6800225A610023FB73BB7B03F00403002B3BD135E0BB7B2C
S32D0001077003F00403002B35D10523FB7332E0BB7B03F00403002B2FD17B685B69BB60BB680B331B7803F0100370
S32D00010798002B02D10523FB7323E0BB6815331B781B021AB2BB6814331B781BB213431BB29BB21B04BA681B32EC
S32D000107C01278120211B2BA681A32127812B20A4312B292B21A437B689A609CE700BF04E000BF02E000BF00E0F8
S32D000107E800BFFB7B18461037BD4680BD80B582B000AF786039607B6858787B6803F1340101233A6802F0E6FCE8
S32D000108100346002B14BF01230023DBB2002B01D003234AE07B6803F2322301331B781B021AB27B6893F83232A3
S32D000108381BB213431BB2214A934201D0022338E07B686A3303331B781A067B686A3302331B781B0413437A684B
S32D000108606A3201321278120213437A6892F86A20134323F07F43144A934201D100231CE07B68863303331B78FC
S32D000108881A067B68863302331B781B0413437A68863201321278120213437A6892F88620134323F07F43064AFA
S32D000108B0934201D1002300E0012318460837BD4680BD00BF55AAFFFF4641540080B592B000AFF860B9601346E7
S32D000108D8FB71FB681B68FB62FB6A1B78303B3B643B6C092B0BD8FB6A01331B783A2B06D1FB6A0233FB62FB68C0
S32D00010900FA6A1A6002E0A34B1B783B643B6C002B01D00B2367E2A04A3B6C52F82330BB62BB68BA6A1A60BB6A9D
S32D00010928002B01D10C235AE2BB6A1B78002B1AD0BB6A5B78184602F07FFE034687F8273097F8273003F00103AA
S32D00010950002B0CD1FB79002B07D097F8273003F00403002B01D00A233DE200233BE2BB6A00221A703B6CDAB28E
S32D00010978BB6A5A70BB6A5B78184602F0F1F9034687F8273097F8273003F00103002B01D0032324E2FB79002B6C
S32D000109A007D097F8273003F00403002B01D00A2319E20023FB63F96BB86AFFF71BFF034687F8473097F84730F1
S32D000109C8012B22D1BB6A03F5F9733B623B6A04331B78002B19D03B6A0B331B781A063B6A0A331B781B041343B8
S32D000109F03A6A09321278120213433A6A083212781343FB63F96BB86AFFF7F4FE034687F8473097F84730032B08
S32D00010A1801D10123E3E197F84730002B01D00D23DDE1BB6A93F840301B021AB2BB6A93F83F301BB213431BB2ED
S32D00010A40B3F5007F01D00D23CDE1BB6A93F84B301B021AB2BB6A93F84A301BB213431BB29BB2BB63BB6B002BC7
S32D00010A6812D1BB6A93F85B301A06BB6A93F85A301B041343BA6A92F8592012021343BA6A92F858201343BB6347
S32D00010A90BB6ABA6B1A62BB6A93F84430FB77BB6AFA7FDA70FB7F012B04D0FB7F022B01D00D2398E1FA7FBB6BB9
S32D00010AB802FB03F3BB63BB6A93F84130FB77BB6AFA7F9A70FB7F002B05D0FA7FFB7F013B1340002B01D00D239B
S32D00010AE081E1BB6A93F846301B021AB2BB6A93F845301BB213431BB29AB2BB6A1A81BB6A1B8903F00F03002B5C
S32D00010B0801D00D236BE1BB6A93F848301B021AB2BB6A93F847301BB213431BB29BB27B637B6B002B12D1BB6A05
S32D00010B3093F857301A06BB6A93F856301B041343BA6A92F8552012021343BA6A92F8542013437B63BB6A93F826
S32D00010B5843301B021AB2BB6A93F842301BB213431BB2BB83BB8B002B01D10D2337E1BA8BBB6B1A44BB6A1B89A5
S32D00010B801B091344BB617A6BBB699A4206D20D2329E100BF9E170020981700207A6BBB69D31ABA6A9278B3FB83
S32D00010BA8F2F37B617B69002B01D10D2317E1012387F847307B6940F6F572934202D9022387F847307B694FF6C5
S32D00010BD0F572934202D9032387F847307B699A1CBB6ADA61FA6BBB691A44BB6ADA62BA8BFB6B1A44BB6A5A6297
S32D00010BF897F84730032B1ED1BB6A1B89002B01D00D23ECE0BB6A93F863301A06BB6A93F862301B041343BA6AAC
S32D00010C2092F8612012021343BA6A92F860201A43BB6A9A62BB6ADB699B003B631FE0BB6A1B89002B01D10D23ED
S32D00010C48CDE0BB6A5A6ABB6B1A44BB6A9A6297F84730022B03D1BB6ADB695B000AE0BB6ADA6913465B0013441A
S32D00010C705A08BB6ADB6903F0010313443B63BB6A1A6A3B6B03F2FF135B0A9A4201D20D23A9E0BB6A4FF0FF32E6
S32D00010C981A61BB6A0022DA6097F84730032B40F08680BB6A00225A71BB6A93F865301B021AB2BB6A93F8643043
S32D00010CC01BB213431BB29BB21A46FB6B1A44BB6A5A61BB6A5878BB6A03F13401BB6A5A69012302F07BFA0346C5
S32D00010CE8002B39D1BB6A93F833321B021AB2BB6A93F832321BB213431BB23B4A93422BD1BB6A93F837301A0619
S32D00010D10BB6A93F836301B041343BA6A92F8352012021343BA6A92F834201343314A934216D1BB6A93F81B3230
S32D00010D381A06BB6A93F81A321B041343BA6A92F8192212021343BA6A92F818221343284A934201D1012300E04D
S32D00010D600023002B27D0BB6A93F823321A06BB6A93F822321B041343BA6A92F8212212021343BA6A92F8202236
S32D00010D881A43BB6ADA60BB6A93F81F321A06BB6A93F81E321B041343BA6A92F81D2212021343BA6A92F81C22A7
S32D00010DB01A43BB6A1A61BB6A97F847201A700F4B1B8801339AB20D4B1A800C4B1A88BB6ADA80BB6A00221A63C7
S32D00010DD8BB6A00221A71BB6A00229A61002318464837BD4680BD00BF55AAFFFF52526141727241619C1700203D
S32D00010E0080B582B000AF78600B467B807B68002B08D07B681B78002B04D07B68DB887A889A4201D0092311E01C
S32D00010E287B685B78184602F007FC034603F00103002B14BF01230023DBB2002B01D0032300E0002318460837BE
S32D00010E50BD4680BD80B485B000AF03463960FB71FB79002B01D00B2316E0FB790D4A52F82330FB60FB68002BE8
S32D00010E7802D0FB6800221A703B68002B02D03B6800221A70FB7905493A6841F82320002318461437BD4680BC90
S32D00010EA0704700BF9817002080B592B000AFF860B9601346FB71FB6800221A60FB7903F01F03FB71FB7923F007
S32D00010EC80103DAB207F11C0107F108031846FFF7F9FC034687F8473007F110037B6397F84730002B09D1BA68B5
S32D00010EF007F11C0311461846FFF7E6FB034687F847303B6B3B6497F84730002B05D13B6C002B02D1062387F858
S32D00010F184730FB7903F01C03002B00F0B18097F84730002B12D097F84730042B07D107F11C031846FFF772FA6A
S32D00010F40034687F84730FB7943F00803FB713B6B3B6412E03B6C0B331B7803F01103002B03D0072387F8473051
S32D00010F6807E0FB7903F00403002B02D0082387F8473097F84730002B40F0A080FB7903F00803002B00F09A80BF
S32D00010F900023FB633B6C0E33FA6BD2B21A70FB6B9BB21B0A9AB23B6C0F33D2B21A70FB6B1A0C3B6C1033D2B241
S32D00010FB81A70FB6B1A0E3B6C1133D2B21A703B6C0B3300221A703B6C1C3300221A703B6C1D3300221A703B6C7C
S32D00010FE01E3300221A703B6C1F3300221A703B6C15331B781B021AB23B6C14331B781BB213431BB29BB21B04F8
S32D000110083A6C1B321278120211B23A6C1A32127812B20A4312B292B21343BB633B6C1A3300221A703B6C1B33C7
S32D0001103000221A703B6C143300221A703B6C153300221A70FB6901221A71BB6B002B39D0FB691B6BFB63FB6998
S32D00011058B96B1846FEF72FFF034687F8473097F84730002B2AD1FB69BA6B013ADA60FB69F96B1846FEF729FC1B
S32D00011080034687F847301DE097F84730002B19D13B6C0B331B7803F01003002B03D0042387F847300EE0FB79EF
S32D000110A803F00203002B09D03B6C0B331B7803F00103002B02D0072387F8473097F84730002B0FD1FB7903F019
S32D000110D00803002B03D0FB7943F02003FB71FB691A6BFB68DA61FB683A6C1A6297F84730002B42D1FB68FA798C
S32D000110F89A713B6C15331B781B021AB23B6C14331B781BB213431BB29BB21B043A6C1B321278120211B23A6C7C
S32D000111201A32127812B20A4312B292B21A43FB681A613B6C1F331B781A063B6C1E331B781B0413433A6C1D32D5
S32D000111481278120213433A6C1C3212781A43FB68DA60FB6800229A60FB6800229A61FB6800225A62FA69FB6806
S32D000111701A60FB69DA88FB689A8097F8473018464837BD4680BD80B58AB000AFF860B9607A603B60BB68BB612D
S32D000111983B6800221A60FB681A68FB689B8819461046FFF729FE0346FB75FB7D002B01D0FB7D7EE1FB689B7931
S32D000111C05BB2002B01DA022377E1FB689B7903F00203002B01D107236FE1FB68DA687B681A44FB68DB689A4222
S32D000111E801D200237B607B68002B00F05081FB689B68C3F30803002B40F01381FB689B685B0ADAB2FB681B68E5
S32D000112109B78013BDBB21340BB75BB7D002B49D1FB689B68002B10D1FB681B697B627B6A002B1FD1FB681B68B7
S32D0001123800211846FEF78DFE7862FB687A6A1A6114E0FB685B6A002B07D0FB689B681946F868FEF707FF7862D4
S32D0001126008E0FB681A68FB685B6919461046FEF774FE78627B6A002B00F00C817B6A012B08D1FB689B7963F034
S32D000112887F03DAB2FB689A71022312E17B6AB3F1FF3F08D1FB689B7963F07F03DAB2FB689A71012305E1FB6850
S32D000112B07A6A5A61FB689B7903F04003002B22D0FB681B685878FB6803F12801FB689A69012302F067F803464C
S32D000112D8002B14BF01230023DBB2002B08D0FB689B7963F07F03DAB2FB689A710123E0E0FB689B7923F040031B
S32D00011300DAB2FB689A71FB681A68FB685B6919461046FEF7E8FB38613B69002B08D1FB689B7963F07F03DAB212
S32D00011328FB689A710223C4E0BB7D3A6913443B617B685B0AFB61FB69002B49D0BA7DFB691344FA68126892786D
S32D00011350934206D9FB681B689B781A46BB7DD31AFB61FB681B685878FB69DBB23A69B96902F018F80346002BFE
S32D0001137814BF01230023DBB2002B08D0FB689B7963F07F03DAB2FB689A71012391E0FB689A693B69D31AFA6967
S32D000113A09A4215D9FB6803F12800FB689A693B69D31A5B02BA6913444FF400721946FEF703FAFB689B7923F077
S32D000113C84003DAB2FB689A71FB695B023B6248E0FB689B693A699A4220D0FB689A68FB68DB689A420ED2FB6833
S32D000113F01B685878FB6803F1280101233A6901F0EDFE0346002B01D0012300E00023002B08D0FB689B7963F01F
S32D000114187F03DAB2FB689A7101234AE0FB683A699A61FB689B68C3F30803C3F500733B623A6A7B689A4201D9AE
S32D000114407B683B62FB689B68C3F308032833FA6813443A6AB9691846FEF7B6F9FB689B7943F04003DAB2FB681E
S32D000114689A71BA693B6A1344BB61FB689A683B6A1A44FB689A603B681A683B6A1A443B681A607A683B6AD31A91
S32D000114907B60ACE600BFFB689A68FB68DB689A4203D9FB689A68FB68DA60FB689B7943F02003DAB2FB689A7175
S32D000114B8002318462837BD4680BD80B586B000AF78607B681A687B689B8819461046FFF793FC0346FB75FB7D1D
S32D000114E0002B40F0AC807B689B7903F02003002B00F0A5807B689B7903F04003002B1BD07B681B6858787B68AD
S32D0001150803F128017B689A69012301F047FF0346002B14BF01230023DBB2002B01D001238AE07B689B7923F0A7
S32D000115304003DAB27B689A717B681A687B68DB6919461046FEF7C5F90346FB75FB7D002B75D17B681B6A3B6135
S32D000115583B690B331A783B690B3342F02002D2B21A707B68DA683B691C33D2B21A707B68DB689BB21B0A9AB2A2
S32D000115803B691D33D2B21A707B68DB681A0C3B691E33D2B21A707B68DB681A0E3B691F33D2B21A707B681A6933
S32D000115A83B691A33D2B21A707B681B699BB21B0A9AB23B691B33D2B21A707B681B691A0C3B691433D2B21A706A
S32D000115D07B681B691B0C9BB21B0A9AB23B691533D2B21A700023FB603B691633FA68D2B21A70FB689BB21B0AF6
S32D000115F89AB23B691733D2B21A70FB681A0C3B691833D2B21A70FB681A0E3B691933D2B21A707B689B7923F063
S32D000116202003DAB27B689A717B681B6801221A717B681B681846FEF7B0F90346FB75FB7D18461837BD4680BD6A
S32D0001164880B584B000AF78607868FFF736FF0346FB73FB7B002B02D17B6800221A60FB7B18461037BD4680BD73
S32D0001167080B590B000AF786039607B681A687B689B8819461046FFF7BBFB034687F83F3097F83F30002B02D0B8
S32D0001169897F83F3043E27B689B795BB2002B01DA02233CE27B685B6A002B00F0F8803B68B3F1FF3F66D17B68D9
S32D000116C05B6AFB62FB6A1A1DFA621B687B6102233B637B681B69BB63BB6B002B46D0BB6B3B6100237B633B6B6A
S32D000116E802333B63BB6BFB607B6B01337B637B681B68B96B1846FEF710FAB863BB6B012B08D87B689B7963F009
S32D000117107F03DAB27B689A71022304E2BB6BB3F1FF3F08D17B689B7963F07F03DAB27B689A710123F7E1FB681D
S32D000117380133BA6B9A4200D1D4E73A6B7B699A4209D8FB6A1A1DFA627A6B1A60FB6A1A1DFA623A691A607B682C
S32D000117601B68DB69BA6B9A4200D2B8E77B685B6A3A6B1A603A6B7B699A4203D8FB6A00221A60CEE1112387F8B7
S32D000117883F30CAE17B68DB683A689A4202D97B68DB683B607B683A689A603B68002B00F0BC813B68013B194620
S32D000117B07868FEF75BFC02467B685A617B681A687B685B6919461046FEF78DF9B861BB69002B08D17B689B7984
S32D000117D863F07F03DAB27B689A7102239FE13B68013B5B0A7A6812689278013A1340BA691344BB617B689B683A
S32D00011800C3F30803002B00F08C817B689B69BA699A4200F086817B689B7903F04003002B22D07B681B68587873
S32D000118287B6803F128017B689A69012301F0B6FD0346002B14BF01230023DBB2002B08D07B689B7963F07F03F9
S32D00011850DAB27B689A71012365E17B689B7923F04003DAB27B689A717B681B6858787B6803F128010123BA6941
S32D0001187801F0B0FC0346002B14BF01230023DBB2002B08D07B689B7963F07F03DAB27B689A71012343E17B6815
S32D000118A0BA699A613DE17B68DB683A689A4208D97B689B7903F00203002B02D17B68DB683B607B689B683B6227
S32D000118C800237B627B687A6A9A603B68002B00F0C1807B681B689B785B02FB613B6A002B1BD03B685A1EFB69C5
S32D000118F0B2FBF3F23B6A591EFB69B1FBF3F39A420FD33B6A5A1EFB695B421A407B689A607B689B683A68D31A9D
S32D000119183B607B685B69BB622BE07B681B69BB62BB6A002B22D17B681B6800211846FEF710FBB862BB6A012B1F
S32D0001194008D17B689B7963F07F03DAB27B689A710223E8E0BB6AB3F1FF3F08D17B689B7963F07F03DAB27B6851
S32D000119689A710123DBE07B68BA6A1A617B68BA6A5A61BB6A002B6DD03A68FB699A4246D97B689B7903F00203A5
S32D00011990002B0CD07B681B68B96A1846FEF7DDFAB862BB6A002B09D1FB693B6033E07B681B68B96A1846FEF73C
S32D000119B8B4F8B862BB6AB3F1FF3F08D17B689B7963F07F03DAB27B689A710123A7E0BB6A012B05D97B681B68D4
S32D000119E0DB69BA6A9A4208D37B689B7963F07F03DAB27B689A71022395E07B68BA6A5A617B689A68FB691A4470
S32D00011A087B689A603A68FB69D31A3B60B4E77B689A683B681A447B689A603B68C3F30803002B17D07B681B680A
S32D00011A30B96A1846FEF757F878627B6A002B08D17B689B7963F07F03DAB27B689A71022369E03B685B0A7A6A5F
S32D00011A5813447B627B689B68C3F30803002B4BD07B689B697A6A9A4246D07B689B7903F04003002B22D07B6854
S32D00011A801B6858787B6803F128017B689A69012301F088FC0346002B14BF01230023DBB2002B08D07B689B7950
S32D00011AA863F07F03DAB27B689A71012337E07B689B7923F04003DAB27B689A717B681B6858787B6803F1280188
S32D00011AD001237A6A01F082FB0346002B14BF01230023DBB2002B08D07B689B7963F07F03DAB27B689A710123E9
S32D00011AF815E07B687A6A9A617B689A687B68DB689A420AD97B689A687B68DA607B689B7943F02003DAB27B6880
S32D00011B209A7197F83F3018464037BD4680BD80B586B000AF03463960FB71FB793B7301237B6107F1100307F1EB
S32D00011B480C017A693868FFF71AFB3B697A699A4201D1012301E04FF0FF3318461837BD4680BD80B584B000AF23
S32D00011B70786039600023FB607B681B78002B18D07B681B7839681846FFF7D1FF0346B3F1FF3F0CBF0123002356
S32D00011B98DBB2002B02D04FF0FF3307E07B6801337B60FB680133FB60E2E7FB6818461037BD4680BD80B485B0DE
S32D00011BC000AF786039600123FB600023BB600023BB60BA683B689A4208DAFB687A6802FB03F3FB60BB6801336E
S32D00011BE8BB60F2E7FB6818461437BD4680BC7047B0B59AB000AF78613961FA600023BB64BB6C7B647B6CB3F1DA
S32D00011C10FF3F00F0F5823B695A1C3A611B7887F84F3097F84F30002B00F0E78297F84F30252B0ED097F84F30DE
S32D00011C3879691846FFF777FF78647B6CB3F1FF3F00F0CD8201237B64C9E2002387F867300023BB653B695A1CA9
S32D00011C603A611B7887F84F3097F84F30302B09D1012387F867303B695A1C3A611B7887F84F300CE097F84F306C
S32D00011C882D2B08D1022387F867303B695A1C3A611B7887F84F3097F84F302E2B05D13B695A1C3A611B7887F877
S32D00011CB04F3097F84F302F2B15D997F84F30392B11D8BA6D13469B0013445B001A4697F84F301344303BBB65B8
S32D00011CD83B695A1C3A611B7887F84F30E5E797F84F306C2B03D097F84F304C2B0BD197F8673043F0040387F813
S32D00011D0067303B695A1C3A611B7887F84F3097F84F30002B00F0738297F84F3087F84E3097F84E30602B08D935
S32D00011D2897F84E307A2B04D897F84E30203B87F84E3097F84E30423B162B00F2788101A252F823F017200100AB
S32D00011D50012001002720010037200100511E010037200100372001003720010037200100372001003720010022
S32D00011D7837200100372001001F200100372001003720010037200100A91D010037200100272001003720010085
S32D00011DA0372001002F200100FB681A1DFA601B68FB620023FB65FA6AFB6D13441B78002B03D0FB6D0133FB6565
S32D00011DC8F5E70023BB6497F8673003F00203002B07D1FB6D5A1CFA65BA6D9A4201D9012300E00023002B09D068
S32D00011DF079692020FFF79BFE78647B6CBA6C1344BB64E4E77969F86AFFF7AFFE78647B6CBA6C1344BB64FB6D3B
S32D00011E185A1CFA65BA6D9A428CBF01230023DBB2002B09D079692020FFF77DFE78647B6CBA6C1344BB64EAE7DD
S32D00011E407B6CB3F1FF3F00F0D081BB6C7B64CCE1FB68073323F0070303F10802FA60D3E90023C7E90E23D7E924
S32D00011E680E23C7E90C2300237B654FF000024FF00003D7E90E010EF005FE0346002B18D079692D20FFF74FFE17
S32D00011E9078647B6CBA6C1344BB64BC6BFB6B83F00045C7E90E453B6B3B607B6B83F000437B60D7E90023C7E931
S32D00011EB80C23D7E90C010EF023FE0346002B0ED04FF00002AB4BD7E90C010EF093FC02460B46C7E90C237B6D9D
S32D00011EE001337B65E9E77B6D013BFB65FB6DB3F1FF3F35D0FB6D19460A20FFF75FFE034618460EF0E7FA02460A
S32D00011F080B46D7E90E010EF075FC02460B46104619460EF0F5FD0346BB62BA6A964B83FB02139910D317C91A69
S32D00011F300B469B000B445B00D31ABB62BB6A3033BB62BB6ADBB279691846FFF7F0FD78647B6CBA6C1344BB6409
S32D00011F58FB6D013BFB65C5E779692E20FFF7E3FD78647B6CBA6C1344BB64BB6D002B01D10323BB6501233B6615
S32D00011F803A6EBB6D9A4233D83B6E19460A20FFF715FE034618460EF09DFAD7E90E230EF003FB02460B46104628
S32D00011FA819460EF0ADFD0346BB62BA6A724B83FB02139910D317C91A0B469B000B445B00D31ABB62BB6A30338B
S32D00011FD0BB62BB6ADBB279691846FFF7A8FD78647B6CBA6C1344BB643B6E01333B66C7E77B6CB3F1FF3F00F0F4
S32D00011FF8FA80BB6C7B64F6E0FB681A1DFA601B68DBB279691846FFF78EFD7864ECE0022387F8663013E008239F
S32D0001202087F866300FE00A2387F866300BE0102387F8663007E097F84F3079691846FFF776FD7864D4E097F85B
S32D00012048673003F00403002B04D0FB681A1DFA601B680CE097F84E30442B04D1FB681A1DFA601B6803E0FB6868
S32D000120701A1DFA601B683B6597F84E30442B0BD13B6D002B08DA3B6D5B423B6597F8673043F0080387F8673021
S32D0001209800233B6697F866203B6DB3FBF2F101FB02F29B1A87F84E3097F866303A6DB2FBF3F33B6597F84E3059
S32D000120C0092B0BD997F84F30782B01D1272200E0072297F84E30134487F84E303B6E5A1C3A6697F84E20303285
S32D000120E8D2B2603307F108010B4403F8502C3B6D002B03D03B6E0F2B00D8CBE797F8673003F00803002B09D0B0
S32D000121103B6E5A1C3A66603307F1080213442D2203F8502C3B6EFB6597F8673003F00103002B01D0302300E0DA
S32D00012138202387F84E300023BB6497F8673003F00203002B07D1FB6D5A1CFA65BA6D9A4201D9012300E0002394
S32D00012160002B0FD097F84E3079691846FFF7DFFC78647B6CBA6C1344BB64E2E700002440676666663B6E013B1E
S32D000121883B6607F118023B6E13441B7879691846FFF7C9FC78647B6CBA6C1344BB643B6E002B00D0EAE7FB6DAB
S32D000121B05A1CFA65BA6D9A428CBF01230023DBB2002B09D079692020FFF7B1FC78647B6CBA6C1344BB64EAE710
S32D000121D87B6CB3F1FF3F07D0BB6C7B6404E000BF02E000BF00E000BFBA6C7B6C1344BB6408E500BF00E000BF81
S32D000122007B6CB3F1FF3F01D17B6C00E0BB6C18466837BD46B0BD00BF80B588B000AF7860396080233B610F23FC
S32D00012228FB604FF0FF337B610223FB61FB69B3F5807F23D80123BB61BB69102B1AD8FB69BA6902FB03F33A68AB
S32D0001225003FB02F27B68D31ABB60BB68002B09DBBB687A699A4205D9BB687B61FB693B61BB69FB60BB690133BA
S32D00012278BB61E1E7FB695B00FB61D7E71D4BDB6A1C4A23F00803D3621A4BDB6A23F47F2323F47F63BB613B69F8
S32D000122A05B081B029AB2FB68013B1B01DBB21A43BB691343114A43F46023D3620F4B5B6A03F00803002B0CBFC7
S32D000122C801230023DBB2002B03D00A2001F0DCFAF0E7084BDB6A074A43F00803D362054B1B6B044A43F4801303
S32D000122F0136300BF2037BD4680BD00BF00100B4080B582B000AF786039607B6800221A60414B424ADA62404BF4
S32D00012318DB6A03F08073002B14BF01230023DBB2002B00D0F3E73A4B0022C3F8C020384B4FF481325A60364BCE
S32D0001234028229A62344B4FF001125A643B689B6833491846FFF760FF2F4B5B6A03F00303002B14BF0123002347
S32D00012368DBB2002B00D0F3E72C4B40F243421A602A4B40F243425A60284B4FF488629A60264B40F24342DA605A
S32D00012390244B40F243421A61224B40F243425A61214B03F580531B6B1F4A43F4003302F580521363184B4FF627
S32D000123B8FF721A63164B1B4A5A63154BDB6A144A43F00063D362124BDB6A03F00063002B14BF01230023DBB2ED
S32D000123E0002B00D0F3E70C4B5B6A03F48033002B14BF01230023DBB2002B02D07B6801221A60054B1B6B044AC0
S32D0001240843F080031363002318460837BD4680BD00100B400080000160CC050000D0044000700440B3007F0072
S32D0001243080B400AF064B5A6A40F207331340002B14BF01230023DBB21846BD4680BC704700100B4080B485B0DC
S32D0001245800AF7860074B1B6B7A681340FB60FB68002B00D1F6E7FB6818461437BD4680BC704700BF00100B400E
S32D0001248080B584B000AF78607B681B7803F03F03764A52F82330FB60FB68002B05D17B681B78002B01D00123E0
S32D000124A8DCE0714B1B6B704A43F0800313636E4B5B6A03F00103002B14BF01230023DBB2002B00D0F3E7684A53
S32D000124D07B685B689360FB6823F44003FB607B685B789B0503F44003FA681343FB607B685B78022B03D1FB686F
S32D000124F843F40013FB607B685B78042B16D1FB6803F44033B3F5003F08D1FB6823F44033FB60FB6843F4403362
S32D00012520FB6007E0FB6823F44033FB60FB6843F40033FB604E4B5B684D4A9BB253607B68DB68002B2AD0FB6839
S32D0001254803F44033B3F5403F03D0FB6843F40013FB607B681B7A002B03D0FB6843F01003FB607B68DB68012B2C
S32D0001257003D9FB6843F02003FB607B68DB68B3F1FF3F0BD03A4B5A687B68DB681B04384913434B60FB6843F0C5
S32D000125980203FB60344B00221A60334AFB68D3603248FFF753FF0346012B14BF01230023DBB2002B09D02C4B2D
S32D000125C01B6B2B4A43F4702343F001031363012348E0274B1B6B03F08003002B14BF01230023DBB2002B07D0EC
S32D000125E8214B1B6B204A43F001131363012335E01D4B1B6B03F48033002B14BF01230023DBB2002B08D0184BA2
S32D000126101B6B174A43F0011313634FF0FF3321E0FB6803F44033002B15D0114B1A697B681A61FB6803F440339E
S32D00012638B3F5803F0BD10C4B5A697B685A610A4B9A697B689A61084BDA697B68DA61064B1B6B054A43F0010331
S32D000126601363002318461037BD4680BDD090020000100B4001000E0080B592B000AF7860396000237B643B68C5
S32D00012688BB63994B7B637B6B002B02D140F601235FE3964B3B633B6B002B02D140F60B2357E33B6B1B68FB627C
S32D000126B0FB6A002B02D140F60B234EE37B6841F20932934200F23F837B68B3F5985F08D87B68032B00F01A8329
S32D000126D87B68092B00F0098331E37B68A3F59853013B082B00F22B8301A252F823F000BF1D270100092A01007F
S32D00012700652C01001F2A01005D2A0100832B0100CB2B01000D2B0100272B01007649786BFFF7EEFD78647B6CCE
S32D00012728002B40F01083002387F84330002387F82B30002387F82A30002387F82930002387F84230002387F8D5
S32D00012750283000233B7200237B720023FB6000233B7400237B6107F108031846FFF788FE0346002B14BF01238B
S32D000127780023DBB2002B02D001237B64E8E240F24C4001F081F808233B7200237B724FF4D573FB6000233B74F0
S32D000127A000237B6107F108031846FFF769FEF863FB6B002B09D1BA69FB689A4202D001237B64C9E2012387F802
S32D000127C84230012387F8283097F82830002B00F0A58037233B7200237B720023FB6000233B7400237B6107F1F0
S32D000127F008031846FFF744FEF863FB6B002B02D001237B64A8E269233B7200237B720023FB6000233B74002312
S32D000128187B6107F108031846FFF72EFE0346002B14BF01230023DBB2002B02D001237B648EE2BB6903F4401339
S32D00012840002B6FD00023FB630A2001F021F8FB6B0133FB6337233B7200237B720023FB6000233B7400237B61EC
S32D0001286807F108031846FFF707FE0346002B14BF01230023DBB2002B02D001237B6428E069233B7200237B7279
S32D0001289097F84230002B02D0184BFB6002E04FF44013FB6000233B7400237B6107F108031846FFF7E5FD034637
S32D000128B8002B14BF01230023DBB2002B02D001237B6406E0BB69002B03DBFB6B632B00D8B6E77B6C002B40F061
S32D000128E03882FB6B632B0BD9002387F8423019E0B8170020BC190020C490020000003040012387F8433097F8DB
S32D000129084230002B0AD0002387F84230BB6903F08043002B02D0012387F8423097F82A30002B02D07B6B072234
S32D000129301A6097F82930002B02D07B6B08221A6097F82B30002B02D07B6B04221A6097F84330002B09D07B6B36
